{
  "_format": "hh-sol-artifact-1",
  "contractName": "AgentsRegistry",
  "sourceName": "contracts/AgentsRegistry.sol",
  "abi": [
    {
      "inputs": [
        {
          "internalType": "contract IAgentRegistryV1",
          "name": "_agentRegistryV1",
          "type": "address"
        },
        {
          "internalType": "contract ServiceRegistry",
          "name": "_serviceRegistry",
          "type": "address"
        }
      ],
      "stateMutability": "nonpayable",
      "type": "constructor"
    },
    {
      "inputs": [
        {
          "internalType": "address",
          "name": "owner",
          "type": "address"
        }
      ],
      "name": "OwnableInvalidOwner",
      "type": "error"
    },
    {
      "inputs": [
        {
          "internalType": "address",
          "name": "account",
          "type": "address"
        }
      ],
      "name": "OwnableUnauthorizedAccount",
      "type": "error"
    },
    {
      "anonymous": false,
      "inputs": [
        {
          "indexed": true,
          "internalType": "address",
          "name": "agent",
          "type": "address"
        },
        {
          "indexed": true,
          "internalType": "address",
          "name": "owner",
          "type": "address"
        },
        {
          "indexed": false,
          "internalType": "string",
          "name": "name",
          "type": "string"
        },
        {
          "indexed": false,
          "internalType": "string",
          "name": "agentUri",
          "type": "string"
        }
      ],
      "name": "AgentRegistered",
      "type": "event"
    },
    {
      "anonymous": false,
      "inputs": [
        {
          "indexed": true,
          "internalType": "address",
          "name": "previousOwner",
          "type": "address"
        },
        {
          "indexed": true,
          "internalType": "address",
          "name": "newOwner",
          "type": "address"
        }
      ],
      "name": "OwnershipTransferred",
      "type": "event"
    },
    {
      "anonymous": false,
      "inputs": [
        {
          "indexed": true,
          "internalType": "address",
          "name": "agent",
          "type": "address"
        },
        {
          "indexed": false,
          "internalType": "uint256",
          "name": "proposalId",
          "type": "uint256"
        },
        {
          "indexed": false,
          "internalType": "string",
          "name": "name",
          "type": "string"
        },
        {
          "indexed": false,
          "internalType": "uint256",
          "name": "price",
          "type": "uint256"
        }
      ],
      "name": "ProposalAdded",
      "type": "event"
    },
    {
      "anonymous": false,
      "inputs": [
        {
          "indexed": true,
          "internalType": "address",
          "name": "agent",
          "type": "address"
        },
        {
          "indexed": false,
          "internalType": "uint256",
          "name": "proposalId",
          "type": "uint256"
        }
      ],
      "name": "ProposalRemoved",
      "type": "event"
    },
    {
      "anonymous": false,
      "inputs": [
        {
          "indexed": true,
          "internalType": "address",
          "name": "agent",
          "type": "address"
        },
        {
          "indexed": false,
          "internalType": "uint256",
          "name": "proposalId",
          "type": "uint256"
        },
        {
          "indexed": false,
          "internalType": "uint256",
          "name": "price",
          "type": "uint256"
        }
      ],
      "name": "ProposalUpdated",
      "type": "event"
    },
    {
      "anonymous": false,
      "inputs": [
        {
          "indexed": true,
          "internalType": "address",
          "name": "agent",
          "type": "address"
        },
        {
          "indexed": false,
          "internalType": "uint256",
          "name": "newReputation",
          "type": "uint256"
        }
      ],
      "name": "ReputationUpdated",
      "type": "event"
    },
    {
      "inputs": [
        {
          "internalType": "address",
          "name": "agent",
          "type": "address"
        },
        {
          "internalType": "string",
          "name": "serviceName",
          "type": "string"
        },
        {
          "internalType": "uint256",
          "name": "servicePrice",
          "type": "uint256"
        }
      ],
      "name": "addProposal",
      "outputs": [],
      "stateMutability": "nonpayable",
      "type": "function"
    },
    {
      "inputs": [
        {
          "internalType": "address",
          "name": "agent",
          "type": "address"
        },
        {
          "internalType": "uint256",
          "name": "_rating",
          "type": "uint256"
        }
      ],
      "name": "addRating",
      "outputs": [
        {
          "internalType": "uint256",
          "name": "",
          "type": "uint256"
        }
      ],
      "stateMutability": "nonpayable",
      "type": "function"
    },
    {
      "inputs": [],
      "name": "agentRegistryV1",
      "outputs": [
        {
          "internalType": "contract IAgentRegistryV1",
          "name": "",
          "type": "address"
        }
      ],
      "stateMutability": "view",
      "type": "function"
    },
    {
      "inputs": [
        {
          "internalType": "address",
          "name": "",
          "type": "address"
        }
      ],
      "name": "agents",
      "outputs": [
        {
          "internalType": "string",
          "name": "name",
          "type": "string"
        },
        {
          "internalType": "string",
          "name": "agentUri",
          "type": "string"
        },
        {
          "internalType": "address",
          "name": "owner",
          "type": "address"
        },
        {
          "internalType": "address",
          "name": "agent",
          "type": "address"
        },
        {
          "internalType": "uint256",
          "name": "reputation",
          "type": "uint256"
        },
        {
          "internalType": "uint256",
          "name": "totalRatings",
          "type": "uint256"
        }
      ],
      "stateMutability": "view",
      "type": "function"
    },
    {
      "inputs": [
        {
          "internalType": "address",
          "name": "_agent",
          "type": "address"
        }
      ],
      "name": "getAgentData",
      "outputs": [
        {
          "components": [
            {
              "internalType": "string",
              "name": "name",
              "type": "string"
            },
            {
              "internalType": "string",
              "name": "agentUri",
              "type": "string"
            },
            {
              "internalType": "address",
              "name": "owner",
              "type": "address"
            },
            {
              "internalType": "address",
              "name": "agent",
              "type": "address"
            },
            {
              "internalType": "uint256",
              "name": "reputation",
              "type": "uint256"
            },
            {
              "internalType": "uint256",
              "name": "totalRatings",
              "type": "uint256"
            }
          ],
          "internalType": "struct AgentsRegistry.AgentData",
          "name": "",
          "type": "tuple"
        }
      ],
      "stateMutability": "view",
      "type": "function"
    },
    {
      "inputs": [
        {
          "internalType": "uint256",
          "name": "proposalId",
          "type": "uint256"
        }
      ],
      "name": "getProposal",
      "outputs": [
        {
          "components": [
            {
              "internalType": "address",
              "name": "issuer",
              "type": "address"
            },
            {
              "internalType": "string",
              "name": "serviceName",
              "type": "string"
            },
            {
              "internalType": "uint256",
              "name": "price",
              "type": "uint256"
            },
            {
              "internalType": "uint256",
              "name": "proposalId",
              "type": "uint256"
            },
            {
              "internalType": "bool",
              "name": "isActive",
              "type": "bool"
            }
          ],
          "internalType": "struct IProposalStruct.ServiceProposal",
          "name": "",
          "type": "tuple"
        }
      ],
      "stateMutability": "view",
      "type": "function"
    },
    {
      "inputs": [
        {
          "internalType": "address",
          "name": "agent",
          "type": "address"
        }
      ],
      "name": "getReputation",
      "outputs": [
        {
          "internalType": "uint256",
          "name": "",
          "type": "uint256"
        }
      ],
      "stateMutability": "view",
      "type": "function"
    },
    {
      "inputs": [
        {
          "internalType": "address",
          "name": "agent",
          "type": "address"
        }
      ],
      "name": "migrateAgent",
      "outputs": [],
      "stateMutability": "nonpayable",
      "type": "function"
    },
    {
      "inputs": [],
      "name": "nextProposalId",
      "outputs": [
        {
          "internalType": "uint256",
          "name": "",
          "type": "uint256"
        }
      ],
      "stateMutability": "view",
      "type": "function"
    },
    {
      "inputs": [],
      "name": "owner",
      "outputs": [
        {
          "internalType": "address",
          "name": "",
          "type": "address"
        }
      ],
      "stateMutability": "view",
      "type": "function"
    },
    {
      "inputs": [
        {
          "internalType": "uint256",
          "name": "",
          "type": "uint256"
        }
      ],
      "name": "proposals",
      "outputs": [
        {
          "internalType": "address",
          "name": "issuer",
          "type": "address"
        },
        {
          "internalType": "string",
          "name": "serviceName",
          "type": "string"
        },
        {
          "internalType": "uint256",
          "name": "price",
          "type": "uint256"
        },
        {
          "internalType": "uint256",
          "name": "proposalId",
          "type": "uint256"
        },
        {
          "internalType": "bool",
          "name": "isActive",
          "type": "bool"
        }
      ],
      "stateMutability": "view",
      "type": "function"
    },
    {
      "inputs": [
        {
          "internalType": "address",
          "name": "agent",
          "type": "address"
        },
        {
          "internalType": "string",
          "name": "name",
          "type": "string"
        },
        {
          "internalType": "string",
          "name": "agentUri",
          "type": "string"
        },
        {
          "internalType": "string",
          "name": "serviceName",
          "type": "string"
        },
        {
          "internalType": "uint256",
          "name": "servicePrice",
          "type": "uint256"
        }
      ],
      "name": "registerAgent",
      "outputs": [],
      "stateMutability": "nonpayable",
      "type": "function"
    },
    {
      "inputs": [
        {
          "internalType": "address",
          "name": "agent",
          "type": "address"
        },
        {
          "internalType": "uint256",
          "name": "proposalId",
          "type": "uint256"
        }
      ],
      "name": "removeProposal",
      "outputs": [
        {
          "internalType": "bool",
          "name": "",
          "type": "bool"
        }
      ],
      "stateMutability": "nonpayable",
      "type": "function"
    },
    {
      "inputs": [],
      "name": "renounceOwnership",
      "outputs": [],
      "stateMutability": "nonpayable",
      "type": "function"
    },
    {
      "inputs": [],
      "name": "serviceRegistry",
      "outputs": [
        {
          "internalType": "contract ServiceRegistry",
          "name": "",
          "type": "address"
        }
      ],
      "stateMutability": "view",
      "type": "function"
    },
    {
      "inputs": [
        {
          "internalType": "address",
          "name": "_serviceRegistry",
          "type": "address"
        }
      ],
      "name": "setServiceRegistry",
      "outputs": [],
      "stateMutability": "nonpayable",
      "type": "function"
    },
    {
      "inputs": [
        {
          "internalType": "address",
          "name": "_taskRegistry",
          "type": "address"
        }
      ],
      "name": "setTaskRegistry",
      "outputs": [],
      "stateMutability": "nonpayable",
      "type": "function"
    },
    {
      "inputs": [],
      "name": "taskRegistry",
      "outputs": [
        {
          "internalType": "address",
          "name": "",
          "type": "address"
        }
      ],
      "stateMutability": "view",
      "type": "function"
    },
    {
      "inputs": [
        {
          "internalType": "address",
          "name": "newOwner",
          "type": "address"
        }
      ],
      "name": "transferOwnership",
      "outputs": [],
      "stateMutability": "nonpayable",
      "type": "function"
    }
  ],
  "bytecode": "0x60806040523480156200001157600080fd5b50604051620020de380380620020de833981016040819052620000349162000108565b33806200005b57604051631e4fbdf760e01b81526000600482015260240160405180910390fd5b62000066816200009f565b50600180546001600160a01b039384166001600160a01b0319918216178255600280549390941692169190911790915560065562000147565b600080546001600160a01b038381166001600160a01b0319831681178455604051919092169283917f8be0079c531659141344cd1fd0a4f28419497f9722a3daafe3b4186f6b6457e09190a35050565b6001600160a01b03811681146200010557600080fd5b50565b600080604083850312156200011c57600080fd5b82516200012981620000ef565b60208401519092506200013c81620000ef565b809150509250929050565b611f8780620001576000396000f3fe608060405234801561001057600080fd5b50600436106101215760003560e01c80639e498f16116100ad578063d7071b1f11610071578063d7071b1f1461029b578063dca60776146102ae578063f2fde38b146102c1578063f3a1a466146102d4578063fd66091e146102e757600080fd5b80639e498f1614610222578063aac9f15a14610235578063b2d7806914610255578063c7f758a814610268578063cbcf252a1461028857600080fd5b8063715018a6116100f4578063715018a6146101925780637b5c219d1461019a5780638da5cb5b146101bd57806398366dbd146101e25780639c89a0e2146101f557600080fd5b8063013cf08b146101265780632ab09d14146101535780635c8a48391461016a57806370370a811461017f575b600080fd5b61013961013436600461160c565b61030c565b60405161014a959493929190611675565b60405180910390f35b61015c60065481565b60405190815260200161014a565b61017d6101783660046116cd565b6103d2565b005b61015c61018d3660046116f1565b610552565b61017d610712565b6101ad6101a83660046116f1565b610726565b604051901515815260200161014a565b6000546001600160a01b03165b6040516001600160a01b03909116815260200161014a565b61017d6101f036600461180b565b61088b565b61015c6102033660046116cd565b6001600160a01b03166000908152600460208190526040909120015490565b6003546101ca906001600160a01b031681565b6102486102433660046116cd565b6109c0565b60405161014a91906118ae565b61017d6102633660046116cd565b610b92565b61027b61027636600461160c565b610c04565b60405161014a919061192a565b6002546101ca906001600160a01b031681565b61017d6102a93660046116cd565b610d29565b6001546101ca906001600160a01b031681565b61017d6102cf3660046116cd565b610d9b565b61017d6102e2366004611984565b610dd9565b6102fa6102f53660046116cd565b610f0e565b60405161014a969594939291906119dd565b600560205260009081526040902080546001820180546001600160a01b03909216929161033890611a31565b80601f016020809104026020016040519081016040528092919081815260200182805461036490611a31565b80156103b15780601f10610386576101008083540402835291602001916103b1565b820191906000526020600020905b81548152906001019060200180831161039457829003601f168201915b50505050600283015460038401546004909401549293909290915060ff1685565b6001600160a01b03818116600090815260046020526040902060030154161561043d5760405162461bcd60e51b81526020600482015260186024820152771059d95b9d08185b1c9958591e481c9959da5cdd195c995960421b60448201526064015b60405180910390fd5b600154604051635564f8ad60e11b81526001600160a01b038381166004830152600092839283928392169063aac9f15a90602401600060405180830381865afa15801561048e573d6000803e3d6000fd5b505050506040513d6000823e601f3d908101601f191682016040526104b69190810190611ab8565b945050935093509350816001600160a01b0316336001600160a01b031614806104e957506000546001600160a01b031633145b6105355760405162461bcd60e51b815260206004820152601860248201527f4e6f74206f776e6572206f72206167656e74206f776e657200000000000000006044820152606401610434565b6105428585858585611061565b61054b85611111565b5050505050565b6003546000906001600160a01b031633146105af5760405162461bcd60e51b815260206004820152601d60248201527f4e6f7420746865205461736b526567697374727920636f6e74726163740000006044820152606401610434565b60648211156106005760405162461bcd60e51b815260206004820181905260248201527f526174696e67206d757374206265206265747765656e203020616e64203130306044820152606401610434565b6001600160a01b038316600090815260046020526040812060050180546001929061062c908490611b64565b90915550506001600160a01b03831660009081526004602052604090206005015482610659600183611b77565b6001600160a01b038616600090815260046020819052604090912001546106809190611b8a565b61068a9190611b64565b6106949190611ba1565b6001600160a01b038416600081815260046020819052604091829020018390555190917ffc577563f1b9a0461e24abef1e1fcc0d33d3d881f20b5df6dda59de4aae2c821916106e591815260200190565b60405180910390a2506001600160a01b038216600090815260046020819052604090912001545b92915050565b61071a61125c565b6107246000611289565b565b6001600160a01b03808316600090815260046020526040812060020154909184911633146107965760405162461bcd60e51b815260206004820152601a60248201527f4e6f7420746865206f776e6572206f6620746865206167656e740000000000006044820152606401610434565b6000838152600560205260409020546001600160a01b038581169116146107ff5760405162461bcd60e51b815260206004820152601960248201527f5365727669636550726f706f73616c206e6f7420666f756e64000000000000006044820152606401610434565b600083815260056020526040812080546001600160a01b03191681559061082960018301826115be565b506000600282018190556003820155600401805460ff191690556040518381526001600160a01b038516907f45204680e8152470a4bb058a5049426c93d82614d97945e5b6541e67aba4a8f29060200160405180910390a25060019392505050565b6001600160a01b0385811660009081526004602052604090206003015416156108f15760405162461bcd60e51b81526020600482015260186024820152771059d95b9d08185b1c9958591e481c9959da5cdd195c995960421b6044820152606401610434565b60025460405163b405166b60e01b81526001600160a01b039091169063b405166b90610921908590600401611bc3565b602060405180830381865afa15801561093e573d6000803e3d6000fd5b505050506040513d601f19601f820116820180604052508101906109629190611bd6565b6109a75760405162461bcd60e51b815260206004820152601660248201527514d95c9d9a58d9481b9bdd081c9959da5cdd195c995960521b6044820152606401610434565b6109b5858585336000611061565b61054b8583836112d9565b610a0b6040518060c00160405280606081526020016060815260200160006001600160a01b0316815260200160006001600160a01b0316815260200160008152602001600081525090565b6001600160a01b03821660009081526004602052604090819020815160c081019092528054909190829082908290610a4290611a31565b80601f0160208091040260200160405190810160405280929190818152602001828054610a6e90611a31565b8015610abb5780601f10610a9057610100808354040283529160200191610abb565b820191906000526020600020905b815481529060010190602001808311610a9e57829003601f168201915b50505050508152602001600182018054610ad490611a31565b80601f0160208091040260200160405190810160405280929190818152602001828054610b0090611a31565b8015610b4d5780601f10610b2257610100808354040283529160200191610b4d565b820191906000526020600020905b815481529060010190602001808311610b3057829003601f168201915b505050918352505060028201546001600160a01b0390811660208301526003830154166040820152600482015460608201526005909101546080909101529392505050565b610b9a61125c565b6001600160a01b038116610be25760405162461bcd60e51b815260206004820152600f60248201526e496e76616c6964206164647265737360881b6044820152606401610434565b600380546001600160a01b0319166001600160a01b0392909216919091179055565b610c416040518060a0016040528060006001600160a01b031681526020016060815260200160008152602001600081526020016000151581525090565b600082815260056020908152604091829020825160a0810190935280546001600160a01b031683526001810180549192840191610c7d90611a31565b80601f0160208091040260200160405190810160405280929190818152602001828054610ca990611a31565b8015610cf65780601f10610ccb57610100808354040283529160200191610cf6565b820191906000526020600020905b815481529060010190602001808311610cd957829003601f168201915b5050509183525050600282015460208201526003820154604082015260049091015460ff16151560609091015292915050565b610d3161125c565b6001600160a01b038116610d795760405162461bcd60e51b815260206004820152600f60248201526e496e76616c6964206164647265737360881b6044820152606401610434565b600280546001600160a01b0319166001600160a01b0392909216919091179055565b610da361125c565b6001600160a01b038116610dcd57604051631e4fbdf760e01b815260006004820152602401610434565b610dd681611289565b50565b6001600160a01b038084166000908152600460205260409020600201548491163314610e475760405162461bcd60e51b815260206004820152601a60248201527f4e6f7420746865206f776e6572206f6620746865206167656e740000000000006044820152606401610434565b60025460405163b405166b60e01b81526001600160a01b039091169063b405166b90610e77908690600401611bc3565b602060405180830381865afa158015610e94573d6000803e3d6000fd5b505050506040513d601f19601f82011682018060405250810190610eb89190611bd6565b610efd5760405162461bcd60e51b815260206004820152601660248201527514d95c9d9a58d9481b9bdd081c9959da5cdd195c995960521b6044820152606401610434565b610f088484846112d9565b50505050565b600460205260009081526040902080548190610f2990611a31565b80601f0160208091040260200160405190810160405280929190818152602001828054610f5590611a31565b8015610fa25780601f10610f7757610100808354040283529160200191610fa2565b820191906000526020600020905b815481529060010190602001808311610f8557829003601f168201915b505050505090806001018054610fb790611a31565b80601f0160208091040260200160405190810160405280929190818152602001828054610fe390611a31565b80156110305780601f1061100557610100808354040283529160200191611030565b820191906000526020600020905b81548152906001019060200180831161101357829003601f168201915b5050505060028301546003840154600485015460059095015493946001600160a01b03928316949290911692509086565b6001600160a01b0385166000908152600460205260409020806110848682611c46565b50600181016110938582611c46565b506002810180546001600160a01b038086166001600160a01b03199283168117909355600384018054918a16919092168117909155600483018490556040517f2a562efb52e7cec209321f57200606311256da6d2a1b19d44db7837a3209de28906111019089908990611d06565b60405180910390a3505050505050565b60015460408051630aac274560e21b815290516000926001600160a01b031691632ab09d149160048083019260209291908290030181865afa15801561115b573d6000803e3d6000fd5b505050506040513d601f19601f8201168201806040525081019061117f9190611d34565b905060005b81811015611257576001546040516318feeb1560e31b8152600481018390526000916001600160a01b03169063c7f758a890602401600060405180830381865afa1580156111d6573d6000803e3d6000fd5b505050506040513d6000823e601f3d908101601f191682016040526111fe9190810190611d4d565b9050836001600160a01b031681600001516001600160a01b0316146112235750611245565b61123081602001516113dc565b61124384826020015183604001516112d9565b505b8061124f81611dfa565b915050611184565b505050565b6000546001600160a01b031633146107245760405163118cdaa760e01b8152336004820152602401610434565b600080546001600160a01b038381166001600160a01b0319831681178455604051919092169283917f8be0079c531659141344cd1fd0a4f28419497f9722a3daafe3b4186f6b6457e09190a35050565b6040805160a0810182526001600160a01b0385811682526020808301868152838501869052600654606085018190526001608086018190526000918252600590935294909420835181546001600160a01b0319169316929092178255925191928392908201906113499082611c46565b506040828101516002830155606083015160038301556080909201516004909101805460ff191691151591909117905560065490516001600160a01b038616917fe194e0bc2279adb185c748ae57db10fe2ef1005a1b5646f96235a881c88ddb79916113b9919087908790611e13565b60405180910390a2600680549060006113d183611dfa565b919050555050505050565b60025460405163b405166b60e01b81526001600160a01b039091169063b405166b9061140c908490600401611bc3565b602060405180830381865afa158015611429573d6000803e3d6000fd5b505050506040513d601f19601f8201168201806040525081019061144d9190611bd6565b610dd657600154604080516365e7929560e11b815290516000926001600160a01b03169163cbcf252a9160048083019260209291908290030181865afa15801561149b573d6000803e3d6000fd5b505050506040513d601f19601f820116820180604052508101906114bf9190611e3c565b604051633ca3ac5f60e11b815290915081906000906001600160a01b0383169063794758be906114f3908790600401611bc3565b600060405180830381865afa158015611510573d6000803e3d6000fd5b505050506040513d6000823e601f3d908101601f191682016040526115389190810190611e59565b600254815160208301516040808501519051633bd5f62160e21b81529495506001600160a01b039093169363ef57d88493611577939291600401611f0e565b6000604051808303816000875af1158015611596573d6000803e3d6000fd5b505050506040513d6000823e601f3d908101601f1916820160405261054b9190810190611e59565b5080546115ca90611a31565b6000825580601f106115da575050565b601f016020900490600052602060002090810190610dd691905b8082111561160857600081556001016115f4565b5090565b60006020828403121561161e57600080fd5b5035919050565b60005b83811015611640578181015183820152602001611628565b50506000910152565b60008151808452611661816020860160208601611625565b601f01601f19169290920160200192915050565b6001600160a01b038616815260a06020820181905260009061169990830187611649565b6040830195909552506060810192909252151560809091015292915050565b6001600160a01b0381168114610dd657600080fd5b6000602082840312156116df57600080fd5b81356116ea816116b8565b9392505050565b6000806040838503121561170457600080fd5b823561170f816116b8565b946020939093013593505050565b634e487b7160e01b600052604160045260246000fd5b6040516060810167ffffffffffffffff811182821017156117565761175661171d565b60405290565b604051601f8201601f1916810167ffffffffffffffff811182821017156117855761178561171d565b604052919050565b600067ffffffffffffffff8211156117a7576117a761171d565b50601f01601f191660200190565b600082601f8301126117c657600080fd5b81356117d96117d48261178d565b61175c565b8181528460208386010111156117ee57600080fd5b816020850160208301376000918101602001919091529392505050565b600080600080600060a0868803121561182357600080fd5b853561182e816116b8565b9450602086013567ffffffffffffffff8082111561184b57600080fd5b61185789838a016117b5565b9550604088013591508082111561186d57600080fd5b61187989838a016117b5565b9450606088013591508082111561188f57600080fd5b5061189c888289016117b5565b95989497509295608001359392505050565b602081526000825160c060208401526118ca60e0840182611649565b90506020840151601f198483030160408501526118e78282611649565b915050604084015160018060a01b0380821660608601528060608701511660808601525050608084015160a084015260a084015160c08401528091505092915050565b602080825282516001600160a01b03168282015282015160a0604083015260009061195860c0840182611649565b905060408401516060840152606084015160808401526080840151151560a08401528091505092915050565b60008060006060848603121561199957600080fd5b83356119a4816116b8565b9250602084013567ffffffffffffffff8111156119c057600080fd5b6119cc868287016117b5565b925050604084013590509250925092565b60c0815260006119f060c0830189611649565b8281036020840152611a028189611649565b6001600160a01b03978816604085015295909616606083015250608081019290925260a0909101529392505050565b600181811c90821680611a4557607f821691505b602082108103611a6557634e487b7160e01b600052602260045260246000fd5b50919050565b600082601f830112611a7c57600080fd5b8151611a8a6117d48261178d565b818152846020838601011115611a9f57600080fd5b611ab0826020830160208701611625565b949350505050565b600080600080600060a08688031215611ad057600080fd5b855167ffffffffffffffff80821115611ae857600080fd5b611af489838a01611a6b565b96506020880151915080821115611b0a57600080fd5b50611b1788828901611a6b565b9450506040860151611b28816116b8565b6060870151909350611b39816116b8565b80925050608086015190509295509295909350565b634e487b7160e01b600052601160045260246000fd5b8082018082111561070c5761070c611b4e565b8181038181111561070c5761070c611b4e565b808202811582820484141761070c5761070c611b4e565b600082611bbe57634e487b7160e01b600052601260045260246000fd5b500490565b6020815260006116ea6020830184611649565b600060208284031215611be857600080fd5b815180151581146116ea57600080fd5b601f82111561125757600081815260208120601f850160051c81016020861015611c1f5750805b601f850160051c820191505b81811015611c3e57828155600101611c2b565b505050505050565b815167ffffffffffffffff811115611c6057611c6061171d565b611c7481611c6e8454611a31565b84611bf8565b602080601f831160018114611ca95760008415611c915750858301515b600019600386901b1c1916600185901b178555611c3e565b600085815260208120601f198616915b82811015611cd857888601518255948401946001909101908401611cb9565b5085821015611cf65787850151600019600388901b60f8161c191681555b5050505050600190811b01905550565b604081526000611d196040830185611649565b8281036020840152611d2b8185611649565b95945050505050565b600060208284031215611d4657600080fd5b5051919050565b600060208284031215611d5f57600080fd5b815167ffffffffffffffff80821115611d7757600080fd5b9083019060808286031215611d8b57600080fd5b604051608081018181108382111715611da657611da661171d565b6040528251611db4816116b8565b8152602083015182811115611dc857600080fd5b611dd487828601611a6b565b602083015250604083015160408201526060830151606082015280935050505092915050565b600060018201611e0c57611e0c611b4e565b5060010190565b838152606060208201526000611e2c6060830185611649565b9050826040830152949350505050565b600060208284031215611e4e57600080fd5b81516116ea816116b8565b600060208284031215611e6b57600080fd5b815167ffffffffffffffff80821115611e8357600080fd5b9083019060608286031215611e9757600080fd5b611e9f611733565b825182811115611eae57600080fd5b611eba87828601611a6b565b825250602083015182811115611ecf57600080fd5b611edb87828601611a6b565b602083015250604083015182811115611ef357600080fd5b611eff87828601611a6b565b60408301525095945050505050565b606081526000611f216060830186611649565b8281036020840152611f338186611649565b90508281036040840152611f478185611649565b969550505050505056fea2646970667358221220010699c5fcf562beb3b4bb090a73bd6c9e2e65cec7982902b7ecf7b69b7a55b664736f6c63430008140033",
  "linkReferences": {},
  "deployedLinkReferences": {}
}