{
  "_format": "hh-sol-artifact-1",
  "contractName": "AgentsRegistryUpgradeable",
  "sourceName": "contracts/AgentsRegistryUpgradeable.sol",
  "abi": [
    {
      "inputs": [],
      "stateMutability": "nonpayable",
      "type": "constructor"
    },
    {
      "inputs": [
        {
          "internalType": "address",
          "name": "target",
          "type": "address"
        }
      ],
      "name": "AddressEmptyCode",
      "type": "error"
    },
    {
      "inputs": [
        {
          "internalType": "address",
          "name": "implementation",
          "type": "address"
        }
      ],
      "name": "ERC1967InvalidImplementation",
      "type": "error"
    },
    {
      "inputs": [],
      "name": "ERC1967NonPayable",
      "type": "error"
    },
    {
      "inputs": [],
      "name": "FailedCall",
      "type": "error"
    },
    {
      "inputs": [],
      "name": "InvalidInitialization",
      "type": "error"
    },
    {
      "inputs": [],
      "name": "NotInitializing",
      "type": "error"
    },
    {
      "inputs": [
        {
          "internalType": "address",
          "name": "owner",
          "type": "address"
        }
      ],
      "name": "OwnableInvalidOwner",
      "type": "error"
    },
    {
      "inputs": [
        {
          "internalType": "address",
          "name": "account",
          "type": "address"
        }
      ],
      "name": "OwnableUnauthorizedAccount",
      "type": "error"
    },
    {
      "inputs": [],
      "name": "UUPSUnauthorizedCallContext",
      "type": "error"
    },
    {
      "inputs": [
        {
          "internalType": "bytes32",
          "name": "slot",
          "type": "bytes32"
        }
      ],
      "name": "UUPSUnsupportedProxiableUUID",
      "type": "error"
    },
    {
      "anonymous": false,
      "inputs": [
        {
          "indexed": true,
          "internalType": "address",
          "name": "agent",
          "type": "address"
        },
        {
          "indexed": false,
          "internalType": "string",
          "name": "name",
          "type": "string"
        },
        {
          "indexed": false,
          "internalType": "string",
          "name": "agentUri",
          "type": "string"
        }
      ],
      "name": "AgentDataUpdated",
      "type": "event"
    },
    {
      "anonymous": false,
      "inputs": [
        {
          "indexed": true,
          "internalType": "address",
          "name": "agent",
          "type": "address"
        },
        {
          "indexed": true,
          "internalType": "address",
          "name": "owner",
          "type": "address"
        },
        {
          "indexed": false,
          "internalType": "string",
          "name": "name",
          "type": "string"
        },
        {
          "indexed": false,
          "internalType": "string",
          "name": "agentUri",
          "type": "string"
        }
      ],
      "name": "AgentRegistered",
      "type": "event"
    },
    {
      "anonymous": false,
      "inputs": [
        {
          "indexed": true,
          "internalType": "address",
          "name": "agent",
          "type": "address"
        },
        {
          "indexed": true,
          "internalType": "address",
          "name": "owner",
          "type": "address"
        }
      ],
      "name": "AgentRemoved",
      "type": "event"
    },
    {
      "anonymous": false,
      "inputs": [
        {
          "indexed": false,
          "internalType": "uint64",
          "name": "version",
          "type": "uint64"
        }
      ],
      "name": "Initialized",
      "type": "event"
    },
    {
      "anonymous": false,
      "inputs": [
        {
          "indexed": true,
          "internalType": "address",
          "name": "previousOwner",
          "type": "address"
        },
        {
          "indexed": true,
          "internalType": "address",
          "name": "newOwner",
          "type": "address"
        }
      ],
      "name": "OwnershipTransferred",
      "type": "event"
    },
    {
      "anonymous": false,
      "inputs": [
        {
          "indexed": true,
          "internalType": "address",
          "name": "agent",
          "type": "address"
        },
        {
          "indexed": false,
          "internalType": "uint256",
          "name": "proposalId",
          "type": "uint256"
        },
        {
          "indexed": false,
          "internalType": "string",
          "name": "name",
          "type": "string"
        },
        {
          "indexed": false,
          "internalType": "uint256",
          "name": "price",
          "type": "uint256"
        },
        {
          "indexed": false,
          "internalType": "address",
          "name": "tokenAddress",
          "type": "address"
        }
      ],
      "name": "ProposalAdded",
      "type": "event"
    },
    {
      "anonymous": false,
      "inputs": [
        {
          "indexed": true,
          "internalType": "address",
          "name": "agent",
          "type": "address"
        },
        {
          "indexed": false,
          "internalType": "uint256",
          "name": "proposalId",
          "type": "uint256"
        }
      ],
      "name": "ProposalRemoved",
      "type": "event"
    },
    {
      "anonymous": false,
      "inputs": [
        {
          "indexed": true,
          "internalType": "address",
          "name": "agent",
          "type": "address"
        },
        {
          "indexed": false,
          "internalType": "uint256",
          "name": "proposalId",
          "type": "uint256"
        },
        {
          "indexed": false,
          "internalType": "uint256",
          "name": "price",
          "type": "uint256"
        },
        {
          "indexed": false,
          "internalType": "address",
          "name": "tokenAddress",
          "type": "address"
        }
      ],
      "name": "ProposalUpdated",
      "type": "event"
    },
    {
      "anonymous": false,
      "inputs": [
        {
          "indexed": true,
          "internalType": "address",
          "name": "agent",
          "type": "address"
        },
        {
          "indexed": false,
          "internalType": "uint256",
          "name": "newReputation",
          "type": "uint256"
        }
      ],
      "name": "ReputationUpdated",
      "type": "event"
    },
    {
      "anonymous": false,
      "inputs": [
        {
          "indexed": true,
          "internalType": "address",
          "name": "implementation",
          "type": "address"
        }
      ],
      "name": "Upgraded",
      "type": "event"
    },
    {
      "inputs": [],
      "name": "UPGRADE_INTERFACE_VERSION",
      "outputs": [
        {
          "internalType": "string",
          "name": "",
          "type": "string"
        }
      ],
      "stateMutability": "view",
      "type": "function"
    },
    {
      "inputs": [
        {
          "internalType": "address",
          "name": "agent",
          "type": "address"
        },
        {
          "internalType": "string",
          "name": "serviceName",
          "type": "string"
        },
        {
          "internalType": "uint256",
          "name": "servicePrice",
          "type": "uint256"
        },
        {
          "internalType": "address",
          "name": "tokenAddress",
          "type": "address"
        }
      ],
      "name": "addProposal",
      "outputs": [],
      "stateMutability": "nonpayable",
      "type": "function"
    },
    {
      "inputs": [
        {
          "internalType": "address",
          "name": "agent",
          "type": "address"
        },
        {
          "internalType": "uint256",
          "name": "_rating",
          "type": "uint256"
        }
      ],
      "name": "addRating",
      "outputs": [
        {
          "internalType": "uint256",
          "name": "",
          "type": "uint256"
        }
      ],
      "stateMutability": "nonpayable",
      "type": "function"
    },
    {
      "inputs": [],
      "name": "agentRegistryV1",
      "outputs": [
        {
          "internalType": "contract IAgentRegistryV1",
          "name": "",
          "type": "address"
        }
      ],
      "stateMutability": "view",
      "type": "function"
    },
    {
      "inputs": [
        {
          "internalType": "address",
          "name": "",
          "type": "address"
        }
      ],
      "name": "agents",
      "outputs": [
        {
          "internalType": "string",
          "name": "name",
          "type": "string"
        },
        {
          "internalType": "string",
          "name": "agentUri",
          "type": "string"
        },
        {
          "internalType": "address",
          "name": "owner",
          "type": "address"
        },
        {
          "internalType": "address",
          "name": "agent",
          "type": "address"
        },
        {
          "internalType": "uint256",
          "name": "reputation",
          "type": "uint256"
        },
        {
          "internalType": "uint256",
          "name": "totalRatings",
          "type": "uint256"
        }
      ],
      "stateMutability": "view",
      "type": "function"
    },
    {
      "inputs": [
        {
          "internalType": "address",
          "name": "_agent",
          "type": "address"
        }
      ],
      "name": "getAgentData",
      "outputs": [
        {
          "components": [
            {
              "internalType": "string",
              "name": "name",
              "type": "string"
            },
            {
              "internalType": "string",
              "name": "agentUri",
              "type": "string"
            },
            {
              "internalType": "address",
              "name": "owner",
              "type": "address"
            },
            {
              "internalType": "address",
              "name": "agent",
              "type": "address"
            },
            {
              "internalType": "uint256",
              "name": "reputation",
              "type": "uint256"
            },
            {
              "internalType": "uint256",
              "name": "totalRatings",
              "type": "uint256"
            }
          ],
          "internalType": "struct AgentsRegistryUpgradeable.AgentData",
          "name": "",
          "type": "tuple"
        }
      ],
      "stateMutability": "view",
      "type": "function"
    },
    {
      "inputs": [
        {
          "internalType": "uint256",
          "name": "proposalId",
          "type": "uint256"
        }
      ],
      "name": "getProposal",
      "outputs": [
        {
          "components": [
            {
              "internalType": "address",
              "name": "issuer",
              "type": "address"
            },
            {
              "internalType": "string",
              "name": "serviceName",
              "type": "string"
            },
            {
              "internalType": "uint256",
              "name": "price",
              "type": "uint256"
            },
            {
              "internalType": "address",
              "name": "tokenAddress",
              "type": "address"
            },
            {
              "internalType": "uint256",
              "name": "proposalId",
              "type": "uint256"
            },
            {
              "internalType": "bool",
              "name": "isActive",
              "type": "bool"
            }
          ],
          "internalType": "struct IProposalStruct.ServiceProposal",
          "name": "",
          "type": "tuple"
        }
      ],
      "stateMutability": "view",
      "type": "function"
    },
    {
      "inputs": [
        {
          "internalType": "address",
          "name": "agent",
          "type": "address"
        }
      ],
      "name": "getReputation",
      "outputs": [
        {
          "internalType": "uint256",
          "name": "",
          "type": "uint256"
        }
      ],
      "stateMutability": "view",
      "type": "function"
    },
    {
      "inputs": [
        {
          "internalType": "contract IAgentRegistryV1",
          "name": "_agentRegistryV1",
          "type": "address"
        },
        {
          "internalType": "contract ServiceRegistryUpgradeable",
          "name": "_serviceRegistry",
          "type": "address"
        }
      ],
      "name": "initialize",
      "outputs": [],
      "stateMutability": "nonpayable",
      "type": "function"
    },
    {
      "inputs": [
        {
          "internalType": "address",
          "name": "agent",
          "type": "address"
        }
      ],
      "name": "migrateAgent",
      "outputs": [],
      "stateMutability": "nonpayable",
      "type": "function"
    },
    {
      "inputs": [],
      "name": "nextProposalId",
      "outputs": [
        {
          "internalType": "uint256",
          "name": "",
          "type": "uint256"
        }
      ],
      "stateMutability": "view",
      "type": "function"
    },
    {
      "inputs": [],
      "name": "owner",
      "outputs": [
        {
          "internalType": "address",
          "name": "",
          "type": "address"
        }
      ],
      "stateMutability": "view",
      "type": "function"
    },
    {
      "inputs": [
        {
          "internalType": "uint256",
          "name": "",
          "type": "uint256"
        }
      ],
      "name": "proposals",
      "outputs": [
        {
          "internalType": "address",
          "name": "issuer",
          "type": "address"
        },
        {
          "internalType": "string",
          "name": "serviceName",
          "type": "string"
        },
        {
          "internalType": "uint256",
          "name": "price",
          "type": "uint256"
        },
        {
          "internalType": "address",
          "name": "tokenAddress",
          "type": "address"
        },
        {
          "internalType": "uint256",
          "name": "proposalId",
          "type": "uint256"
        },
        {
          "internalType": "bool",
          "name": "isActive",
          "type": "bool"
        }
      ],
      "stateMutability": "view",
      "type": "function"
    },
    {
      "inputs": [],
      "name": "proxiableUUID",
      "outputs": [
        {
          "internalType": "bytes32",
          "name": "",
          "type": "bytes32"
        }
      ],
      "stateMutability": "view",
      "type": "function"
    },
    {
      "inputs": [
        {
          "internalType": "address",
          "name": "agent",
          "type": "address"
        },
        {
          "internalType": "string",
          "name": "name",
          "type": "string"
        },
        {
          "internalType": "string",
          "name": "agentUri",
          "type": "string"
        }
      ],
      "name": "registerAgent",
      "outputs": [],
      "stateMutability": "nonpayable",
      "type": "function"
    },
    {
      "inputs": [
        {
          "internalType": "address",
          "name": "agent",
          "type": "address"
        },
        {
          "internalType": "string",
          "name": "name",
          "type": "string"
        },
        {
          "internalType": "string",
          "name": "agentUri",
          "type": "string"
        },
        {
          "internalType": "string",
          "name": "serviceName",
          "type": "string"
        },
        {
          "internalType": "uint256",
          "name": "servicePrice",
          "type": "uint256"
        },
        {
          "internalType": "address",
          "name": "tokenAddress",
          "type": "address"
        }
      ],
      "name": "registerAgentWithProposal",
      "outputs": [],
      "stateMutability": "nonpayable",
      "type": "function"
    },
    {
      "inputs": [
        {
          "internalType": "address",
          "name": "agent",
          "type": "address"
        }
      ],
      "name": "removeAgent",
      "outputs": [],
      "stateMutability": "nonpayable",
      "type": "function"
    },
    {
      "inputs": [
        {
          "internalType": "address",
          "name": "agent",
          "type": "address"
        },
        {
          "internalType": "uint256",
          "name": "proposalId",
          "type": "uint256"
        }
      ],
      "name": "removeProposal",
      "outputs": [
        {
          "internalType": "bool",
          "name": "",
          "type": "bool"
        }
      ],
      "stateMutability": "nonpayable",
      "type": "function"
    },
    {
      "inputs": [],
      "name": "renounceOwnership",
      "outputs": [],
      "stateMutability": "nonpayable",
      "type": "function"
    },
    {
      "inputs": [],
      "name": "serviceRegistry",
      "outputs": [
        {
          "internalType": "contract ServiceRegistryUpgradeable",
          "name": "",
          "type": "address"
        }
      ],
      "stateMutability": "view",
      "type": "function"
    },
    {
      "inputs": [
        {
          "internalType": "address",
          "name": "agent",
          "type": "address"
        },
        {
          "internalType": "string",
          "name": "name",
          "type": "string"
        },
        {
          "internalType": "string",
          "name": "agentUri",
          "type": "string"
        }
      ],
      "name": "setAgentData",
      "outputs": [],
      "stateMutability": "nonpayable",
      "type": "function"
    },
    {
      "inputs": [
        {
          "internalType": "address",
          "name": "_serviceRegistry",
          "type": "address"
        }
      ],
      "name": "setServiceRegistry",
      "outputs": [],
      "stateMutability": "nonpayable",
      "type": "function"
    },
    {
      "inputs": [
        {
          "internalType": "address",
          "name": "_taskRegistry",
          "type": "address"
        }
      ],
      "name": "setTaskRegistry",
      "outputs": [],
      "stateMutability": "nonpayable",
      "type": "function"
    },
    {
      "inputs": [],
      "name": "taskRegistry",
      "outputs": [
        {
          "internalType": "address",
          "name": "",
          "type": "address"
        }
      ],
      "stateMutability": "view",
      "type": "function"
    },
    {
      "inputs": [
        {
          "internalType": "address",
          "name": "newOwner",
          "type": "address"
        }
      ],
      "name": "transferOwnership",
      "outputs": [],
      "stateMutability": "nonpayable",
      "type": "function"
    },
    {
      "inputs": [
        {
          "internalType": "address",
          "name": "newImplementation",
          "type": "address"
        },
        {
          "internalType": "bytes",
          "name": "data",
          "type": "bytes"
        }
      ],
      "name": "upgradeToAndCall",
      "outputs": [],
      "stateMutability": "payable",
      "type": "function"
    }
  ],
  "bytecode": "0x60a0604052306080523480156200001557600080fd5b506200002062000026565b620000da565b7ff0c57e16840df040f15088dc2f81fe391c3923bec73e23a9662efc9c229c6a00805468010000000000000000900460ff1615620000775760405163f92ee8a960e01b815260040160405180910390fd5b80546001600160401b0390811614620000d75780546001600160401b0319166001600160401b0390811782556040519081527fc7f505b2f371ae2175ee4913f4499e1f2633a7b5936321eed1cdaeb6115181d29060200160405180910390a15b50565b608051612dd662000104600039600081816118f0015281816119190152611a5a0152612dd66000f3fe6080604052600436106101815760003560e01c806397a6278e116100d1578063b2d780691161008a578063d7071b1f11610064578063d7071b1f146104b2578063dca60776146104d2578063f2fde38b146104f2578063fd66091e1461051257600080fd5b8063b2d7806914610445578063c7f758a814610465578063cbcf252a1461049257600080fd5b806397a6278e146103415780639c89a0e2146103615780639e498f161461039a578063aac9f15a146103ba578063ad3cb1cc146103e7578063aebfd80e1461042557600080fd5b80635c8a48391161013e5780637216fe48116101185780637216fe48146102a45780637b5c219d146102c45780638da5cb5b146102f457806396a451391461032157600080fd5b80635c8a48391461024f57806370370a811461026f578063715018a61461028f57600080fd5b8063013cf08b1461018657806309b6d8a7146101c15780632ab09d14146101e3578063485cc955146102075780634f1ef2861461022757806352d1902d1461023a575b600080fd5b34801561019257600080fd5b506101a66101a13660046121d4565b610544565b6040516101b89695949392919061223d565b60405180910390f35b3480156101cd57600080fd5b506101e16101dc3660046123b1565b610619565b005b3480156101ef57600080fd5b506101f960055481565b6040519081526020016101b8565b34801561021357600080fd5b506101e1610222366004612468565b610736565b6101e16102353660046124a1565b61086c565b34801561024657600080fd5b506101f961088b565b34801561025b57600080fd5b506101e161026a366004612504565b6108a8565b34801561027b57600080fd5b506101f961028a366004612521565b610a07565b34801561029b57600080fd5b506101e1610bc5565b3480156102b057600080fd5b506101e16102bf36600461254d565b610bd9565b3480156102d057600080fd5b506102e46102df366004612521565b610c28565b60405190151581526020016101b8565b34801561030057600080fd5b50610309610d6f565b6040516001600160a01b0390911681526020016101b8565b34801561032d57600080fd5b506101e161033c36600461254d565b610d9d565b34801561034d57600080fd5b506101e161035c366004612504565b610ecf565b34801561036d57600080fd5b506101f961037c366004612504565b6001600160a01b031660009081526003602052604090206004015490565b3480156103a657600080fd5b50600254610309906001600160a01b031681565b3480156103c657600080fd5b506103da6103d5366004612504565b611035565b6040516101b891906125c2565b3480156103f357600080fd5b50610418604051806040016040528060058152602001640352e302e360dc1b81525081565b6040516101b8919061263e565b34801561043157600080fd5b506101e1610440366004612651565b611207565b34801561045157600080fd5b506101e1610460366004612504565b61130e565b34801561047157600080fd5b506104856104803660046121d4565b611380565b6040516101b891906126bc565b34801561049e57600080fd5b50600154610309906001600160a01b031681565b3480156104be57600080fd5b506101e16104cd366004612504565b6114c8565b3480156104de57600080fd5b50600054610309906001600160a01b031681565b3480156104fe57600080fd5b506101e161050d366004612504565b61153a565b34801561051e57600080fd5b5061053261052d366004612504565b611578565b6040516101b896959493929190612724565b600460205260009081526040902080546001820180546001600160a01b03909216929161057090612778565b80601f016020809104026020016040519081016040528092919081815260200182805461059c90612778565b80156105e95780601f106105be576101008083540402835291602001916105e9565b820191906000526020600020905b8154815290600101906020018083116105cc57829003601f168201915b50505050600283015460038401546004850154600590950154939491936001600160a01b03909116925060ff1686565b6001600160a01b0386811660009081526003602081905260409091200154161561065e5760405162461bcd60e51b8152600401610655906127b2565b60405180910390fd5b60015460405163b405166b60e01b81526001600160a01b039091169063b405166b9061068e90869060040161263e565b602060405180830381865afa1580156106ab573d6000803e3d6000fd5b505050506040513d601f19601f820116820180604052508101906106cf91906127fe565b6107145760405162461bcd60e51b815260206004820152601660248201527514d95c9d9a58d9481b9bdd081c9959da5cdd195c995960521b6044820152606401610655565b6107228686863360006116cb565b61072e8684848461177b565b505050505050565b60006107406118a3565b805490915060ff600160401b82041615906001600160401b03166000811580156107675750825b90506000826001600160401b031660011480156107835750303b155b905081158015610791575080155b156107af5760405163f92ee8a960e01b815260040160405180910390fd5b845467ffffffffffffffff1916600117855583156107d957845460ff60401b1916600160401b1785555b6107e2336118cc565b6107ea6118dd565b600080546001600160a01b03808a166001600160a01b0319928316179092556001805492891692909116919091178155600555831561086357845460ff60401b19168555604051600181527fc7f505b2f371ae2175ee4913f4499e1f2633a7b5936321eed1cdaeb6115181d29060200160405180910390a15b50505050505050565b6108746118e5565b61087d8261198a565b6108878282611992565b5050565b6000610895611a4f565b50600080516020612d8183398151915290565b6001600160a01b038181166000908152600360208190526040909120015416156108e45760405162461bcd60e51b8152600401610655906127b2565b60008054604051635564f8ad60e11b81526001600160a01b0384811660048301529091169063aac9f15a90602401600060405180830381865afa15801561092f573d6000803e3d6000fd5b505050506040513d6000823e601f3d908101601f191682016040526109579190810190612871565b905080604001516001600160a01b0316336001600160a01b031614806109955750610980610d6f565b6001600160a01b0316336001600160a01b0316145b6109e15760405162461bcd60e51b815260206004820152601860248201527f4e6f74206f776e6572206f72206167656e74206f776e657200000000000000006044820152606401610655565b6109fe8282600001518360200151846040015185608001516116cb565b61088782611a98565b6002546000906001600160a01b03163314610a645760405162461bcd60e51b815260206004820152601d60248201527f4e6f7420746865205461736b526567697374727920636f6e74726163740000006044820152606401610655565b6064821115610ab55760405162461bcd60e51b815260206004820181905260248201527f526174696e67206d757374206265206265747765656e203020616e64203130306044820152606401610655565b6001600160a01b0383166000908152600360205260408120600501805460019290610ae1908490612950565b90915550506001600160a01b03831660009081526003602052604090206005015482610b0e600183612963565b6001600160a01b038616600090815260036020526040902060040154610b349190612976565b610b3e9190612950565b610b48919061298d565b6001600160a01b038416600081815260036020526040908190206004018390555190917ffc577563f1b9a0461e24abef1e1fcc0d33d3d881f20b5df6dda59de4aae2c82191610b9991815260200190565b60405180910390a2506001600160a01b0382166000908152600360205260409020600401545b92915050565b610bcd611bef565b610bd76000611c21565b565b6001600160a01b03838116600090815260036020819052604090912001541615610c155760405162461bcd60e51b8152600401610655906127b2565b610c238383833360006116cb565b505050565b6001600160a01b0380831660009081526003602052604081206002015490918491163314610c685760405162461bcd60e51b8152600401610655906129af565b6000838152600460205260409020546001600160a01b03858116911614610cd15760405162461bcd60e51b815260206004820152601960248201527f5365727669636550726f706f73616c206e6f7420666f756e64000000000000006044820152606401610655565b600083815260046020526040812080546001600160a01b031916815590610cfb6001830182612186565b506000600282018190556003820180546001600160a01b03191690556004820155600501805460ff191690556040518381526001600160a01b038516907f45204680e8152470a4bb058a5049426c93d82614d97945e5b6541e67aba4a8f29060200160405180910390a25060019392505050565b7f9016d09d72d40fdae2fd8ceac6b6234c7706214fd39c1cd1e609a0528c199300546001600160a01b031690565b6001600160a01b038084166000908152600360205260409020600201548491163314610ddb5760405162461bcd60e51b8152600401610655906129af565b6001600160a01b038481166000908152600360208190526040909120015416610e3d5760405162461bcd60e51b81526020600482015260146024820152731059d95b9d081b9bdd081c9959da5cdd195c995960621b6044820152606401610655565b6001600160a01b0384166000908152600360205260409020610e5f8482612a2e565b506001600160a01b0384166000908152600360205260409020600101610e858382612a2e565b50836001600160a01b03167f244b747f2ac491b7662c44209b5f6110934a8725f40d2bd91805f9d919a78b108484604051610ec1929190612aed565b60405180910390a250505050565b6001600160a01b038082166000908152600360205260409020600201548291163314610f0d5760405162461bcd60e51b8152600401610655906129af565b6001600160a01b038281166000908152600360208190526040909120015416610f6f5760405162461bcd60e51b81526020600482015260146024820152731059d95b9d081b9bdd081c9959da5cdd195c995960621b6044820152606401610655565b6001600160a01b0380831660009081526003602052604090206002015416610f9683611c92565b6001600160a01b038316600090815260036020526040812090610fb98282612186565b610fc7600183016000612186565b506002810180546001600160a01b0319908116909155600382018054909116905560006004820181905560059091018190556040516001600160a01b0383811692908616917f4ce8b3fe8e0bf47a6fefbecdfd7c799755cede6061655521b10fc2e4b1fcc6b39190a3505050565b6110806040518060c00160405280606081526020016060815260200160006001600160a01b0316815260200160006001600160a01b0316815260200160008152602001600081525090565b6001600160a01b03821660009081526003602052604090819020815160c0810190925280549091908290829082906110b790612778565b80601f01602080910402602001604051908101604052809291908181526020018280546110e390612778565b80156111305780601f1061110557610100808354040283529160200191611130565b820191906000526020600020905b81548152906001019060200180831161111357829003601f168201915b5050505050815260200160018201805461114990612778565b80601f016020809104026020016040519081016040528092919081815260200182805461117590612778565b80156111c25780601f10611197576101008083540402835291602001916111c2565b820191906000526020600020905b8154815290600101906020018083116111a557829003601f168201915b505050918352505060028201546001600160a01b0390811660208301526003830154166040820152600482015460608201526005909101546080909101529392505050565b6001600160a01b0380851660009081526003602052604090206002015485911633146112455760405162461bcd60e51b8152600401610655906129af565b60015460405163b405166b60e01b81526001600160a01b039091169063b405166b9061127590879060040161263e565b602060405180830381865afa158015611292573d6000803e3d6000fd5b505050506040513d601f19601f820116820180604052508101906112b691906127fe565b6112fb5760405162461bcd60e51b815260206004820152601660248201527514d95c9d9a58d9481b9bdd081c9959da5cdd195c995960521b6044820152606401610655565b6113078585858561177b565b5050505050565b611316611bef565b6001600160a01b03811661135e5760405162461bcd60e51b815260206004820152600f60248201526e496e76616c6964206164647265737360881b6044820152606401610655565b600280546001600160a01b0319166001600160a01b0392909216919091179055565b6113cd6040518060c0016040528060006001600160a01b03168152602001606081526020016000815260200160006001600160a01b03168152602001600081526020016000151581525090565b600082815260046020908152604091829020825160c0810190935280546001600160a01b03168352600181018054919284019161140990612778565b80601f016020809104026020016040519081016040528092919081815260200182805461143590612778565b80156114825780601f1061145757610100808354040283529160200191611482565b820191906000526020600020905b81548152906001019060200180831161146557829003601f168201915b50505091835250506002820154602082015260038201546001600160a01b031660408201526004820154606082015260059091015460ff16151560809091015292915050565b6114d0611bef565b6001600160a01b0381166115185760405162461bcd60e51b815260206004820152600f60248201526e496e76616c6964206164647265737360881b6044820152606401610655565b600180546001600160a01b0319166001600160a01b0392909216919091179055565b611542611bef565b6001600160a01b03811661156c57604051631e4fbdf760e01b815260006004820152602401610655565b61157581611c21565b50565b60036020526000908152604090208054819061159390612778565b80601f01602080910402602001604051908101604052809291908181526020018280546115bf90612778565b801561160c5780601f106115e15761010080835404028352916020019161160c565b820191906000526020600020905b8154815290600101906020018083116115ef57829003601f168201915b50505050509080600101805461162190612778565b80601f016020809104026020016040519081016040528092919081815260200182805461164d90612778565b801561169a5780601f1061166f5761010080835404028352916020019161169a565b820191906000526020600020905b81548152906001019060200180831161167d57829003601f168201915b5050505060028301546003840154600485015460059095015493946001600160a01b03928316949290911692509086565b6001600160a01b0385166000908152600360205260409020806116ee8682612a2e565b50600181016116fd8582612a2e565b506002810180546001600160a01b038086166001600160a01b03199283168117909355600384018054918a16919092168117909155600483018490556040517f2a562efb52e7cec209321f57200606311256da6d2a1b19d44db7837a3209de289061176b9089908990612aed565b60405180910390a3505050505050565b6040805160c0810182526001600160a01b0386811682526020808301878152838501879052858316606085015260055460808501819052600160a086018190526000918252600490935294909420835181546001600160a01b0319169316929092178255925191928392908201906117f39082612a2e565b50604082810151600283015560608301516003830180546001600160a01b0319166001600160a01b039283161790556080840151600484015560a0909301516005928301805460ff191691151591909117905590549051918716917fa6e87a4ba187a506bb81720f5fbd241c879ec33df712de8c1bfccc354dbe450f9161187f91889088908890612b12565b60405180910390a26005805490600061189783612b4c565b91905055505050505050565b6000807ff0c57e16840df040f15088dc2f81fe391c3923bec73e23a9662efc9c229c6a00610bbf565b6118d4611d7b565b61157581611da0565b610bd7611d7b565b306001600160a01b037f000000000000000000000000000000000000000000000000000000000000000016148061196c57507f00000000000000000000000000000000000000000000000000000000000000006001600160a01b0316611960600080516020612d81833981519152546001600160a01b031690565b6001600160a01b031614155b15610bd75760405163703e46dd60e11b815260040160405180910390fd5b611575611bef565b816001600160a01b03166352d1902d6040518163ffffffff1660e01b8152600401602060405180830381865afa9250505080156119ec575060408051601f3d908101601f191682019092526119e991810190612b65565b60015b611a1457604051634c9c8ce360e01b81526001600160a01b0383166004820152602401610655565b600080516020612d818339815191528114611a4557604051632a87526960e21b815260048101829052602401610655565b610c238383611da8565b306001600160a01b037f00000000000000000000000000000000000000000000000000000000000000001614610bd75760405163703e46dd60e11b815260040160405180910390fd5b60008060009054906101000a90046001600160a01b03166001600160a01b0316632ab09d146040518163ffffffff1660e01b8152600401602060405180830381865afa158015611aec573d6000803e3d6000fd5b505050506040513d601f19601f82011682018060405250810190611b109190612b65565b905060005b81811015610c2357600080546040516318feeb1560e31b8152600481018490526001600160a01b039091169063c7f758a890602401600060405180830381865afa158015611b67573d6000803e3d6000fd5b505050506040513d6000823e601f3d908101601f19168201604052611b8f9190810190612b7e565b9050836001600160a01b031681600001516001600160a01b0316141580611bb857508060800151155b15611bc35750611be7565b611bd08160200151611dfe565b611be58482602001518360400151600061177b565b505b600101611b15565b33611bf8610d6f565b6001600160a01b031614610bd75760405163118cdaa760e01b8152336004820152602401610655565b7f9016d09d72d40fdae2fd8ceac6b6234c7706214fd39c1cd1e609a0528c19930080546001600160a01b031981166001600160a01b03848116918217845560405192169182907f8be0079c531659141344cd1fd0a4f28419497f9722a3daafe3b4186f6b6457e090600090a3505050565b60015b600554811015610887576000818152600460205260409020546001600160a01b038381169116148015611cd9575060008181526004602052604090206005015460ff165b15611d7357600081815260046020526040812080546001600160a01b031916815590611d086001830182612186565b506000600282018190556003820180546001600160a01b03191690556004820155600501805460ff191690556040518181526001600160a01b038316907f45204680e8152470a4bb058a5049426c93d82614d97945e5b6541e67aba4a8f29060200160405180910390a25b600101611c95565b611d83611fea565b610bd757604051631afcd79f60e31b815260040160405180910390fd5b611542611d7b565b611db182612004565b6040516001600160a01b038316907fbc7cd75a20ee27fd9adebab32041f755214dbc6bffa90cc0225b39da2e5c2d3b90600090a2805115611df657610c238282612069565b6108876120df565b60015460405163b405166b60e01b81526001600160a01b039091169063b405166b90611e2e90849060040161263e565b602060405180830381865afa158015611e4b573d6000803e3d6000fd5b505050506040513d601f19601f82011682018060405250810190611e6f91906127fe565b6115755760008060009054906101000a90046001600160a01b03166001600160a01b031663cbcf252a6040518163ffffffff1660e01b8152600401602060405180830381865afa158015611ec7573d6000803e3d6000fd5b505050506040513d601f19601f82011682018060405250810190611eeb9190612c22565b604051633ca3ac5f60e11b815290915081906000906001600160a01b0383169063794758be90611f1f90879060040161263e565b600060405180830381865afa158015611f3c573d6000803e3d6000fd5b505050506040513d6000823e601f3d908101601f19168201604052611f649190810190612ced565b600154815160208301516040808501519051633bd5f62160e21b81529495506001600160a01b039093169363ef57d88493611fa3939291600401612d21565b6000604051808303816000875af1158015611fc2573d6000803e3d6000fd5b505050506040513d6000823e601f3d908101601f191682016040526113079190810190612ced565b6000611ff46118a3565b54600160401b900460ff16919050565b806001600160a01b03163b60000361203a57604051634c9c8ce360e01b81526001600160a01b0382166004820152602401610655565b600080516020612d8183398151915280546001600160a01b0319166001600160a01b0392909216919091179055565b6060600080846001600160a01b0316846040516120869190612d64565b600060405180830381855af49150503d80600081146120c1576040519150601f19603f3d011682016040523d82523d6000602084013e6120c6565b606091505b50915091506120d68583836120fe565b95945050505050565b3415610bd75760405163b398979f60e01b815260040160405180910390fd5b6060826121135761210e8261215d565b612156565b815115801561212a57506001600160a01b0384163b155b1561215357604051639996b31560e01b81526001600160a01b0385166004820152602401610655565b50805b9392505050565b80511561216d5780518082602001fd5b60405163d6bda27560e01b815260040160405180910390fd5b50805461219290612778565b6000825580601f106121a2575050565b601f01602090049060005260206000209081019061157591905b808211156121d057600081556001016121bc565b5090565b6000602082840312156121e657600080fd5b5035919050565b60005b838110156122085781810151838201526020016121f0565b50506000910152565b600081518084526122298160208601602086016121ed565b601f01601f19169290920160200192915050565b600060018060a01b03808916835260c0602084015261225f60c0840189612211565b60408401979097529490941660608201526080810192909252151560a0909101525092915050565b6001600160a01b038116811461157557600080fd5b634e487b7160e01b600052604160045260246000fd5b60405160c081016001600160401b03811182821017156122d4576122d461229c565b60405290565b60405160a081016001600160401b03811182821017156122d4576122d461229c565b604051601f8201601f191681016001600160401b03811182821017156123245761232461229c565b604052919050565b60006001600160401b038211156123455761234561229c565b50601f01601f191660200190565b60006123666123618461232c565b6122fc565b905082815283838301111561237a57600080fd5b828260208301376000602084830101529392505050565b600082601f8301126123a257600080fd5b61215683833560208501612353565b60008060008060008060c087890312156123ca57600080fd5b86356123d581612287565b955060208701356001600160401b03808211156123f157600080fd5b6123fd8a838b01612391565b9650604089013591508082111561241357600080fd5b61241f8a838b01612391565b9550606089013591508082111561243557600080fd5b5061244289828a01612391565b9350506080870135915060a087013561245a81612287565b809150509295509295509295565b6000806040838503121561247b57600080fd5b823561248681612287565b9150602083013561249681612287565b809150509250929050565b600080604083850312156124b457600080fd5b82356124bf81612287565b915060208301356001600160401b038111156124da57600080fd5b8301601f810185136124eb57600080fd5b6124fa85823560208401612353565b9150509250929050565b60006020828403121561251657600080fd5b813561215681612287565b6000806040838503121561253457600080fd5b823561253f81612287565b946020939093013593505050565b60008060006060848603121561256257600080fd5b833561256d81612287565b925060208401356001600160401b038082111561258957600080fd5b61259587838801612391565b935060408601359150808211156125ab57600080fd5b506125b886828701612391565b9150509250925092565b602081526000825160c060208401526125de60e0840182612211565b90506020840151601f198483030160408501526125fb8282612211565b915050604084015160018060a01b0380821660608601528060608701511660808601525050608084015160a084015260a084015160c08401528091505092915050565b6020815260006121566020830184612211565b6000806000806080858703121561266757600080fd5b843561267281612287565b935060208501356001600160401b0381111561268d57600080fd5b61269987828801612391565b9350506040850135915060608501356126b181612287565b939692955090935050565b60208152600060018060a01b03808451166020840152602084015160c060408501526126eb60e0850182612211565b905060408501516060850152816060860151166080850152608085015160a085015260a0850151151560c0850152809250505092915050565b60c08152600061273760c0830189612211565b82810360208401526127498189612211565b6001600160a01b03978816604085015295909616606083015250608081019290925260a0909101529392505050565b600181811c9082168061278c57607f821691505b6020821081036127ac57634e487b7160e01b600052602260045260246000fd5b50919050565b60208082526018908201527f4167656e7420616c726561647920726567697374657265640000000000000000604082015260600190565b805180151581146127f957600080fd5b919050565b60006020828403121561281057600080fd5b612156826127e9565b600082601f83011261282a57600080fd5b81516128386123618261232c565b81815284602083860101111561284d57600080fd5b61285e8260208301602087016121ed565b949350505050565b80516127f981612287565b60006020828403121561288357600080fd5b81516001600160401b038082111561289a57600080fd5b9083019060c082860312156128ae57600080fd5b6128b66122b2565b8251828111156128c557600080fd5b6128d187828601612819565b8252506020830151828111156128e657600080fd5b6128f287828601612819565b60208301525061290460408401612866565b604082015261291560608401612866565b60608201526080830151608082015260a083015160a082015280935050505092915050565b634e487b7160e01b600052601160045260246000fd5b80820180821115610bbf57610bbf61293a565b81810381811115610bbf57610bbf61293a565b8082028115828204841417610bbf57610bbf61293a565b6000826129aa57634e487b7160e01b600052601260045260246000fd5b500490565b6020808252601a908201527f4e6f7420746865206f776e6572206f6620746865206167656e74000000000000604082015260600190565b601f821115610c23576000816000526020600020601f850160051c81016020861015612a0f5750805b601f850160051c820191505b8181101561072e57828155600101612a1b565b81516001600160401b03811115612a4757612a4761229c565b612a5b81612a558454612778565b846129e6565b602080601f831160018114612a905760008415612a785750858301515b600019600386901b1c1916600185901b17855561072e565b600085815260208120601f198616915b82811015612abf57888601518255948401946001909101908401612aa0565b5085821015612add5787850151600019600388901b60f8161c191681555b5050505050600190811b01905550565b604081526000612b006040830185612211565b82810360208401526120d68185612211565b848152608060208201526000612b2b6080830186612211565b6040830194909452506001600160a01b039190911660609091015292915050565b600060018201612b5e57612b5e61293a565b5060010190565b600060208284031215612b7757600080fd5b5051919050565b600060208284031215612b9057600080fd5b81516001600160401b0380821115612ba757600080fd5b9083019060a08286031215612bbb57600080fd5b612bc36122da565b8251612bce81612287565b8152602083015182811115612be257600080fd5b612bee87828601612819565b6020830152506040830151604082015260608301516060820152612c14608084016127e9565b608082015295945050505050565b600060208284031215612c3457600080fd5b815161215681612287565b600060608284031215612c5157600080fd5b604051606081016001600160401b038282108183111715612c7457612c7461229c565b816040528293508451915080821115612c8c57600080fd5b612c9886838701612819565b83526020850151915080821115612cae57600080fd5b612cba86838701612819565b60208401526040850151915080821115612cd357600080fd5b50612ce085828601612819565b6040830152505092915050565b600060208284031215612cff57600080fd5b81516001600160401b03811115612d1557600080fd5b61285e84828501612c3f565b606081526000612d346060830186612211565b8281036020840152612d468186612211565b90508281036040840152612d5a8185612211565b9695505050505050565b60008251612d768184602087016121ed565b919091019291505056fe360894a13ba1a3210667c828492db98dca3e2076cc3735a920a3ca505d382bbca2646970667358221220df3e3d0c5f40b0893c5d03fff0673991b1495d21226d75382b770f0867bc07f864736f6c63430008160033",
  "linkReferences": {},
  "deployedLinkReferences": {}
}