{
  "contracts/AgentsRegistry.sol": {
    "AgentsRegistry": {
      "abi": [
        {
          "inputs": [
            {
              "internalType": "contract IAgentRegistryV1",
              "name": "_agentRegistryV1",
              "type": "address"
            },
            {
              "internalType": "contract ServiceRegistry",
              "name": "_serviceRegistry",
              "type": "address"
            }
          ],
          "stateMutability": "nonpayable",
          "type": "constructor"
        },
        {
          "inputs": [
            {
              "internalType": "address",
              "name": "owner",
              "type": "address"
            }
          ],
          "name": "OwnableInvalidOwner",
          "type": "error"
        },
        {
          "inputs": [
            {
              "internalType": "address",
              "name": "account",
              "type": "address"
            }
          ],
          "name": "OwnableUnauthorizedAccount",
          "type": "error"
        },
        {
          "anonymous": false,
          "inputs": [
            {
              "indexed": true,
              "internalType": "address",
              "name": "agent",
              "type": "address"
            },
            {
              "indexed": true,
              "internalType": "address",
              "name": "owner",
              "type": "address"
            },
            {
              "indexed": false,
              "internalType": "string",
              "name": "name",
              "type": "string"
            },
            {
              "indexed": false,
              "internalType": "string",
              "name": "agentUri",
              "type": "string"
            }
          ],
          "name": "AgentRegistered",
          "type": "event"
        },
        {
          "anonymous": false,
          "inputs": [
            {
              "indexed": true,
              "internalType": "address",
              "name": "previousOwner",
              "type": "address"
            },
            {
              "indexed": true,
              "internalType": "address",
              "name": "newOwner",
              "type": "address"
            }
          ],
          "name": "OwnershipTransferred",
          "type": "event"
        },
        {
          "anonymous": false,
          "inputs": [
            {
              "indexed": true,
              "internalType": "address",
              "name": "agent",
              "type": "address"
            },
            {
              "indexed": false,
              "internalType": "uint256",
              "name": "proposalId",
              "type": "uint256"
            },
            {
              "indexed": false,
              "internalType": "string",
              "name": "name",
              "type": "string"
            },
            {
              "indexed": false,
              "internalType": "uint256",
              "name": "price",
              "type": "uint256"
            }
          ],
          "name": "ProposalAdded",
          "type": "event"
        },
        {
          "anonymous": false,
          "inputs": [
            {
              "indexed": true,
              "internalType": "address",
              "name": "agent",
              "type": "address"
            },
            {
              "indexed": false,
              "internalType": "uint256",
              "name": "proposalId",
              "type": "uint256"
            }
          ],
          "name": "ProposalRemoved",
          "type": "event"
        },
        {
          "anonymous": false,
          "inputs": [
            {
              "indexed": true,
              "internalType": "address",
              "name": "agent",
              "type": "address"
            },
            {
              "indexed": false,
              "internalType": "uint256",
              "name": "proposalId",
              "type": "uint256"
            },
            {
              "indexed": false,
              "internalType": "uint256",
              "name": "price",
              "type": "uint256"
            }
          ],
          "name": "ProposalUpdated",
          "type": "event"
        },
        {
          "anonymous": false,
          "inputs": [
            {
              "indexed": true,
              "internalType": "address",
              "name": "agent",
              "type": "address"
            },
            {
              "indexed": false,
              "internalType": "uint256",
              "name": "newReputation",
              "type": "uint256"
            }
          ],
          "name": "ReputationUpdated",
          "type": "event"
        },
        {
          "inputs": [
            {
              "internalType": "address",
              "name": "agent",
              "type": "address"
            },
            {
              "internalType": "string",
              "name": "serviceName",
              "type": "string"
            },
            {
              "internalType": "uint256",
              "name": "servicePrice",
              "type": "uint256"
            }
          ],
          "name": "addProposal",
          "outputs": [
            {
              "internalType": "uint256",
              "name": "",
              "type": "uint256"
            }
          ],
          "stateMutability": "nonpayable",
          "type": "function"
        },
        {
          "inputs": [
            {
              "internalType": "address",
              "name": "agent",
              "type": "address"
            },
            {
              "internalType": "uint256",
              "name": "_rating",
              "type": "uint256"
            }
          ],
          "name": "addRating",
          "outputs": [
            {
              "internalType": "uint256",
              "name": "",
              "type": "uint256"
            }
          ],
          "stateMutability": "nonpayable",
          "type": "function"
        },
        {
          "inputs": [],
          "name": "agentRegistryV1",
          "outputs": [
            {
              "internalType": "contract IAgentRegistryV1",
              "name": "",
              "type": "address"
            }
          ],
          "stateMutability": "view",
          "type": "function"
        },
        {
          "inputs": [
            {
              "internalType": "address",
              "name": "",
              "type": "address"
            }
          ],
          "name": "agents",
          "outputs": [
            {
              "internalType": "string",
              "name": "name",
              "type": "string"
            },
            {
              "internalType": "string",
              "name": "agentUri",
              "type": "string"
            },
            {
              "internalType": "address",
              "name": "owner",
              "type": "address"
            },
            {
              "internalType": "address",
              "name": "agent",
              "type": "address"
            },
            {
              "internalType": "uint256",
              "name": "reputation",
              "type": "uint256"
            },
            {
              "internalType": "uint256",
              "name": "totalRatings",
              "type": "uint256"
            }
          ],
          "stateMutability": "view",
          "type": "function"
        },
        {
          "inputs": [
            {
              "internalType": "address",
              "name": "_agent",
              "type": "address"
            }
          ],
          "name": "getAgentData",
          "outputs": [
            {
              "components": [
                {
                  "internalType": "string",
                  "name": "name",
                  "type": "string"
                },
                {
                  "internalType": "string",
                  "name": "agentUri",
                  "type": "string"
                },
                {
                  "internalType": "address",
                  "name": "owner",
                  "type": "address"
                },
                {
                  "internalType": "address",
                  "name": "agent",
                  "type": "address"
                },
                {
                  "internalType": "uint256",
                  "name": "reputation",
                  "type": "uint256"
                },
                {
                  "internalType": "uint256",
                  "name": "totalRatings",
                  "type": "uint256"
                }
              ],
              "internalType": "struct AgentsRegistry.AgentData",
              "name": "",
              "type": "tuple"
            }
          ],
          "stateMutability": "view",
          "type": "function"
        },
        {
          "inputs": [
            {
              "internalType": "uint256",
              "name": "proposalId",
              "type": "uint256"
            }
          ],
          "name": "getProposal",
          "outputs": [
            {
              "components": [
                {
                  "internalType": "address",
                  "name": "issuer",
                  "type": "address"
                },
                {
                  "internalType": "string",
                  "name": "serviceName",
                  "type": "string"
                },
                {
                  "internalType": "uint256",
                  "name": "price",
                  "type": "uint256"
                },
                {
                  "internalType": "uint256",
                  "name": "proposalId",
                  "type": "uint256"
                },
                {
                  "internalType": "bool",
                  "name": "isActive",
                  "type": "bool"
                }
              ],
              "internalType": "struct IProposalStruct.ServiceProposal",
              "name": "",
              "type": "tuple"
            }
          ],
          "stateMutability": "view",
          "type": "function"
        },
        {
          "inputs": [
            {
              "internalType": "address",
              "name": "agent",
              "type": "address"
            }
          ],
          "name": "getReputation",
          "outputs": [
            {
              "internalType": "uint256",
              "name": "",
              "type": "uint256"
            }
          ],
          "stateMutability": "view",
          "type": "function"
        },
        {
          "inputs": [
            {
              "internalType": "address",
              "name": "agent",
              "type": "address"
            }
          ],
          "name": "migrateAgent",
          "outputs": [],
          "stateMutability": "nonpayable",
          "type": "function"
        },
        {
          "inputs": [],
          "name": "nextProposalId",
          "outputs": [
            {
              "internalType": "uint256",
              "name": "",
              "type": "uint256"
            }
          ],
          "stateMutability": "view",
          "type": "function"
        },
        {
          "inputs": [],
          "name": "owner",
          "outputs": [
            {
              "internalType": "address",
              "name": "",
              "type": "address"
            }
          ],
          "stateMutability": "view",
          "type": "function"
        },
        {
          "inputs": [
            {
              "internalType": "uint256",
              "name": "",
              "type": "uint256"
            }
          ],
          "name": "proposals",
          "outputs": [
            {
              "internalType": "address",
              "name": "issuer",
              "type": "address"
            },
            {
              "internalType": "string",
              "name": "serviceName",
              "type": "string"
            },
            {
              "internalType": "uint256",
              "name": "price",
              "type": "uint256"
            },
            {
              "internalType": "uint256",
              "name": "proposalId",
              "type": "uint256"
            },
            {
              "internalType": "bool",
              "name": "isActive",
              "type": "bool"
            }
          ],
          "stateMutability": "view",
          "type": "function"
        },
        {
          "inputs": [
            {
              "internalType": "address",
              "name": "agent",
              "type": "address"
            },
            {
              "internalType": "string",
              "name": "name",
              "type": "string"
            },
            {
              "internalType": "string",
              "name": "agentUri",
              "type": "string"
            },
            {
              "internalType": "string",
              "name": "serviceName",
              "type": "string"
            },
            {
              "internalType": "uint256",
              "name": "servicePrice",
              "type": "uint256"
            }
          ],
          "name": "registerAgent",
          "outputs": [
            {
              "internalType": "uint256",
              "name": "",
              "type": "uint256"
            }
          ],
          "stateMutability": "nonpayable",
          "type": "function"
        },
        {
          "inputs": [
            {
              "internalType": "address",
              "name": "agent",
              "type": "address"
            },
            {
              "internalType": "uint256",
              "name": "proposalId",
              "type": "uint256"
            }
          ],
          "name": "removeProposal",
          "outputs": [
            {
              "internalType": "bool",
              "name": "",
              "type": "bool"
            }
          ],
          "stateMutability": "nonpayable",
          "type": "function"
        },
        {
          "inputs": [],
          "name": "renounceOwnership",
          "outputs": [],
          "stateMutability": "nonpayable",
          "type": "function"
        },
        {
          "inputs": [],
          "name": "serviceRegistry",
          "outputs": [
            {
              "internalType": "contract ServiceRegistry",
              "name": "",
              "type": "address"
            }
          ],
          "stateMutability": "view",
          "type": "function"
        },
        {
          "inputs": [
            {
              "internalType": "address",
              "name": "_serviceRegistry",
              "type": "address"
            }
          ],
          "name": "setServiceRegistry",
          "outputs": [],
          "stateMutability": "nonpayable",
          "type": "function"
        },
        {
          "inputs": [
            {
              "internalType": "address",
              "name": "_taskRegistry",
              "type": "address"
            }
          ],
          "name": "setTaskRegistry",
          "outputs": [],
          "stateMutability": "nonpayable",
          "type": "function"
        },
        {
          "inputs": [],
          "name": "taskRegistry",
          "outputs": [
            {
              "internalType": "address",
              "name": "",
              "type": "address"
            }
          ],
          "stateMutability": "view",
          "type": "function"
        },
        {
          "inputs": [
            {
              "internalType": "address",
              "name": "newOwner",
              "type": "address"
            }
          ],
          "name": "transferOwnership",
          "outputs": [],
          "stateMutability": "nonpayable",
          "type": "function"
        }
      ],
      "evm": {
        "bytecode": {
          "linkReferences": {},
          "object": "60806040523480156200001157600080fd5b506040516200238038038062002380833981016040819052620000349162000108565b33806200005b57604051631e4fbdf760e01b81526000600482015260240160405180910390fd5b62000066816200009f565b50600180546001600160a01b039384166001600160a01b0319918216178255600280549390941692169190911790915560065562000147565b600080546001600160a01b038381166001600160a01b0319831681178455604051919092169283917f8be0079c531659141344cd1fd0a4f28419497f9722a3daafe3b4186f6b6457e09190a35050565b6001600160a01b03811681146200010557600080fd5b50565b600080604083850312156200011c57600080fd5b82516200012981620000ef565b60208401519092506200013c81620000ef565b809150509250929050565b61222980620001576000396000f3fe608060405234801561001057600080fd5b50600436106101215760003560e01c80639e498f16116100ad578063d7071b1f11610071578063d7071b1f1461029b578063dca60776146102ae578063f2fde38b146102c1578063f3a1a466146102d4578063fd66091e146102e757600080fd5b80639e498f1614610222578063aac9f15a14610235578063b2d7806914610255578063c7f758a814610268578063cbcf252a1461028857600080fd5b8063715018a6116100f4578063715018a6146101925780637b5c219d1461019a5780638da5cb5b146101bd57806398366dbd146101e25780639c89a0e2146101f557600080fd5b8063013cf08b146101265780632ab09d14146101535780635c8a48391461016a57806370370a811461017f575b600080fd5b6101396101343660046117a1565b61030c565b60405161014a95949392919061180a565b60405180910390f35b61015c60065481565b60405190815260200161014a565b61017d610178366004611862565b6103d2565b005b61015c61018d366004611886565b61091c565b61017d610adc565b6101ad6101a8366004611886565b610af0565b604051901515815260200161014a565b6000546001600160a01b03165b6040516001600160a01b03909116815260200161014a565b61015c6101f03660046119c3565b610c55565b61015c610203366004611862565b6001600160a01b03166000908152600460208190526040909120015490565b6003546101ca906001600160a01b031681565b610248610243366004611862565b610f2e565b60405161014a9190611a66565b61017d610263366004611862565b611100565b61027b6102763660046117a1565b611172565b60405161014a9190611ae2565b6002546101ca906001600160a01b031681565b61017d6102a9366004611862565b611297565b6001546101ca906001600160a01b031681565b61017d6102cf366004611862565b611309565b61015c6102e2366004611b3c565b611347565b6102fa6102f5366004611862565b611583565b60405161014a96959493929190611b95565b600560205260009081526040902080546001820180546001600160a01b03909216929161033890611be9565b80601f016020809104026020016040519081016040528092919081815260200182805461036490611be9565b80156103b15780601f10610386576101008083540402835291602001916103b1565b820191906000526020600020905b81548152906001019060200180831161039457829003601f168201915b50505050600283015460038401546004909401549293909290915060ff1685565b6001600160a01b03818116600090815260046020526040902060030154161561043d5760405162461bcd60e51b81526020600482015260186024820152771059d95b9d08185b1c9958591e481c9959da5cdd195c995960421b60448201526064015b60405180910390fd5b600154604051635564f8ad60e11b81526001600160a01b038381166004830152600092169063aac9f15a90602401600060405180830381865afa158015610488573d6000803e3d6000fd5b505050506040513d6000823e601f3d908101601f191682016040526104b09190810190611c90565b60408101519091506001600160a01b03163314806104d857506000546001600160a01b031633145b6105245760405162461bcd60e51b815260206004820152601860248201527f4e6f74206f776e6572206f72206167656e74206f776e657200000000000000006044820152606401610434565b6001600160a01b03821660009081526004602052604090208151819061054a9082611dad565b506020820151600182019061055f9082611dad565b506040828101516002830180546001600160a01b03199081166001600160a01b0393841617909155606085015160038501805490921690831617905560808401516004808501919091556000600585018190556001548451630aac274560e21b815294519194931692632ab09d1492818101926020929091908290030181865afa1580156105f1573d6000803e3d6000fd5b505050506040513d601f19601f820116820180604052508101906106159190611e6d565b905060005b818110156108c4576001546040516318feeb1560e31b8152600481018390526000916001600160a01b03169063c7f758a890602401600060405180830381865afa15801561066c573d6000803e3d6000fd5b505050506040513d6000823e601f3d908101601f191682016040526106949190810190611e86565b9050856001600160a01b031681600001516001600160a01b0316036108b157600254602082015160405163b405166b60e01b81526000926001600160a01b03169163b405166b916106e89190600401611f33565b602060405180830381865afa158015610705573d6000803e3d6000fd5b505050506040513d601f19601f820116820180604052508101906107299190611f46565b90508061089b57600154604080516365e7929560e11b815290516000926001600160a01b03169163cbcf252a9160048083019260209291908290030181865afa15801561077a573d6000803e3d6000fd5b505050506040513d601f19601f8201168201806040525081019061079e9190611f61565b6001600160a01b031663794758be84602001516040518263ffffffff1660e01b81526004016107cd9190611f33565b600060405180830381865afa1580156107ea573d6000803e3d6000fd5b505050506040513d6000823e601f3d908101601f191682016040526108129190810190611f7e565b600254815160208301516040808501519051633bd5f62160e21b81529495506001600160a01b039093169363ef57d88493610851939291600401612033565b6000604051808303816000875af1158015610870573d6000803e3d6000fd5b505050506040513d6000823e601f3d908101601f191682016040526108989190810190611f7e565b50505b6108ae8783602001518460400151611347565b50505b50806108bc81612082565b91505061061a565b5060028201546040516001600160a01b03918216918616907f2a562efb52e7cec209321f57200606311256da6d2a1b19d44db7837a3209de289061090e9086906001820190612118565b60405180910390a350505050565b6003546000906001600160a01b031633146109795760405162461bcd60e51b815260206004820152601d60248201527f4e6f7420746865205461736b526567697374727920636f6e74726163740000006044820152606401610434565b60648211156109ca5760405162461bcd60e51b815260206004820181905260248201527f526174696e67206d757374206265206265747765656e203020616e64203130306044820152606401610434565b6001600160a01b03831660009081526004602052604081206005018054600192906109f6908490612146565b90915550506001600160a01b03831660009081526004602052604090206005015482610a23600183612159565b6001600160a01b03861660009081526004602081905260409091200154610a4a919061216c565b610a549190612146565b610a5e9190612183565b6001600160a01b038416600081815260046020819052604091829020018390555190917ffc577563f1b9a0461e24abef1e1fcc0d33d3d881f20b5df6dda59de4aae2c82191610aaf91815260200190565b60405180910390a2506001600160a01b038216600090815260046020819052604090912001545b92915050565b610ae46116d6565b610aee6000611703565b565b6001600160a01b0380831660009081526004602052604081206002015490918491163314610b605760405162461bcd60e51b815260206004820152601a60248201527f4e6f7420746865206f776e6572206f6620746865206167656e740000000000006044820152606401610434565b6000838152600560205260409020546001600160a01b03858116911614610bc95760405162461bcd60e51b815260206004820152601960248201527f5365727669636550726f706f73616c206e6f7420666f756e64000000000000006044820152606401610434565b600083815260056020526040812080546001600160a01b031916815590610bf36001830182611753565b506000600282018190556003820155600401805460ff191690556040518381526001600160a01b038516907f45204680e8152470a4bb058a5049426c93d82614d97945e5b6541e67aba4a8f29060200160405180910390a25060019392505050565b6001600160a01b0385811660009081526004602052604081206003015490911615610cbd5760405162461bcd60e51b81526020600482015260186024820152771059d95b9d08185b1c9958591e481c9959da5cdd195c995960421b6044820152606401610434565b60025460405163b405166b60e01b81526001600160a01b039091169063b405166b90610ced908690600401611f33565b602060405180830381865afa158015610d0a573d6000803e3d6000fd5b505050506040513d601f19601f82011682018060405250810190610d2e9190611f46565b610d735760405162461bcd60e51b815260206004820152601660248201527514d95c9d9a58d9481b9bdd081c9959da5cdd195c995960521b6044820152606401610434565b6001600160a01b038616600090815260046020526040902080610d968782611dad565b5060018101610da58682611dad565b506002810180546001600160a01b031990811633179091556003820180546001600160a01b038a811691841682179092556000600485018190556040805160a08101825292835260208084018a81528483018a90526006546060860181905260808601859052845260059091529120825181549416939094169290921783559051909182916001820190610e399082611dad565b5060408201516002820155606082015160038201556080909101516004909101805460ff191691151591909117905560068054906000610e7883612082565b9190505550336001600160a01b0316886001600160a01b03167f2a562efb52e7cec209321f57200606311256da6d2a1b19d44db7837a3209de288989604051610ec29291906121a5565b60405180910390a3876001600160a01b03167fe194e0bc2279adb185c748ae57db10fe2ef1005a1b5646f96235a881c88ddb7982606001518787604051610f0b939291906121ca565b60405180910390a26001600654610f229190612159565b98975050505050505050565b610f796040518060c00160405280606081526020016060815260200160006001600160a01b0316815260200160006001600160a01b0316815260200160008152602001600081525090565b6001600160a01b03821660009081526004602052604090819020815160c081019092528054909190829082908290610fb090611be9565b80601f0160208091040260200160405190810160405280929190818152602001828054610fdc90611be9565b80156110295780601f10610ffe57610100808354040283529160200191611029565b820191906000526020600020905b81548152906001019060200180831161100c57829003601f168201915b5050505050815260200160018201805461104290611be9565b80601f016020809104026020016040519081016040528092919081815260200182805461106e90611be9565b80156110bb5780601f10611090576101008083540402835291602001916110bb565b820191906000526020600020905b81548152906001019060200180831161109e57829003601f168201915b505050918352505060028201546001600160a01b0390811660208301526003830154166040820152600482015460608201526005909101546080909101529392505050565b6111086116d6565b6001600160a01b0381166111505760405162461bcd60e51b815260206004820152600f60248201526e496e76616c6964206164647265737360881b6044820152606401610434565b600380546001600160a01b0319166001600160a01b0392909216919091179055565b6111af6040518060a0016040528060006001600160a01b031681526020016060815260200160008152602001600081526020016000151581525090565b600082815260056020908152604091829020825160a0810190935280546001600160a01b0316835260018101805491928401916111eb90611be9565b80601f016020809104026020016040519081016040528092919081815260200182805461121790611be9565b80156112645780601f1061123957610100808354040283529160200191611264565b820191906000526020600020905b81548152906001019060200180831161124757829003601f168201915b5050509183525050600282015460208201526003820154604082015260049091015460ff16151560609091015292915050565b61129f6116d6565b6001600160a01b0381166112e75760405162461bcd60e51b815260206004820152600f60248201526e496e76616c6964206164647265737360881b6044820152606401610434565b600280546001600160a01b0319166001600160a01b0392909216919091179055565b6113116116d6565b6001600160a01b03811661133b57604051631e4fbdf760e01b815260006004820152602401610434565b61134481611703565b50565b6001600160a01b03808416600090815260046020526040812060020154909185911633146113b75760405162461bcd60e51b815260206004820152601a60248201527f4e6f7420746865206f776e6572206f6620746865206167656e740000000000006044820152606401610434565b60025460405163b405166b60e01b81526001600160a01b039091169063b405166b906113e7908790600401611f33565b602060405180830381865afa158015611404573d6000803e3d6000fd5b505050506040513d601f19601f820116820180604052508101906114289190611f46565b61146d5760405162461bcd60e51b815260206004820152601660248201527514d95c9d9a58d9481b9bdd081c9959da5cdd195c995960521b6044820152606401610434565b6040805160a0810182526001600160a01b0387811682526020808301888152838501889052600654606085018190526001608086018190526000918252600590935294909420835181546001600160a01b0319169316929092178255925191928392908201906114dd9082611dad565b5060408201516002820155606082015160038201556080909101516004909101805460ff19169115159190911790556006805490600061151c83612082565b9190505550856001600160a01b03167fe194e0bc2279adb185c748ae57db10fe2ef1005a1b5646f96235a881c88ddb7982606001518787604051611562939291906121ca565b60405180910390a260016006546115799190612159565b9695505050505050565b60046020526000908152604090208054819061159e90611be9565b80601f01602080910402602001604051908101604052809291908181526020018280546115ca90611be9565b80156116175780601f106115ec57610100808354040283529160200191611617565b820191906000526020600020905b8154815290600101906020018083116115fa57829003601f168201915b50505050509080600101805461162c90611be9565b80601f016020809104026020016040519081016040528092919081815260200182805461165890611be9565b80156116a55780601f1061167a576101008083540402835291602001916116a5565b820191906000526020600020905b81548152906001019060200180831161168857829003601f168201915b5050505060028301546003840154600485015460059095015493946001600160a01b03928316949290911692509086565b6000546001600160a01b03163314610aee5760405163118cdaa760e01b8152336004820152602401610434565b600080546001600160a01b038381166001600160a01b0319831681178455604051919092169283917f8be0079c531659141344cd1fd0a4f28419497f9722a3daafe3b4186f6b6457e09190a35050565b50805461175f90611be9565b6000825580601f1061176f575050565b601f01602090049060005260206000209081019061134491905b8082111561179d5760008155600101611789565b5090565b6000602082840312156117b357600080fd5b5035919050565b60005b838110156117d55781810151838201526020016117bd565b50506000910152565b600081518084526117f68160208601602086016117ba565b601f01601f19169290920160200192915050565b6001600160a01b038616815260a06020820181905260009061182e908301876117de565b6040830195909552506060810192909252151560809091015292915050565b6001600160a01b038116811461134457600080fd5b60006020828403121561187457600080fd5b813561187f8161184d565b9392505050565b6000806040838503121561189957600080fd5b82356118a48161184d565b946020939093013593505050565b634e487b7160e01b600052604160045260246000fd5b60405160c0810167ffffffffffffffff811182821017156118eb576118eb6118b2565b60405290565b6040516060810167ffffffffffffffff811182821017156118eb576118eb6118b2565b604051601f8201601f1916810167ffffffffffffffff8111828210171561193d5761193d6118b2565b604052919050565b600067ffffffffffffffff82111561195f5761195f6118b2565b50601f01601f191660200190565b600082601f83011261197e57600080fd5b813561199161198c82611945565b611914565b8181528460208386010111156119a657600080fd5b816020850160208301376000918101602001919091529392505050565b600080600080600060a086880312156119db57600080fd5b85356119e68161184d565b9450602086013567ffffffffffffffff80821115611a0357600080fd5b611a0f89838a0161196d565b95506040880135915080821115611a2557600080fd5b611a3189838a0161196d565b94506060880135915080821115611a4757600080fd5b50611a548882890161196d565b95989497509295608001359392505050565b602081526000825160c06020840152611a8260e08401826117de565b90506020840151601f19848303016040850152611a9f82826117de565b915050604084015160018060a01b0380821660608601528060608701511660808601525050608084015160a084015260a084015160c08401528091505092915050565b602080825282516001600160a01b03168282015282015160a06040830152600090611b1060c08401826117de565b905060408401516060840152606084015160808401526080840151151560a08401528091505092915050565b600080600060608486031215611b5157600080fd5b8335611b5c8161184d565b9250602084013567ffffffffffffffff811115611b7857600080fd5b611b848682870161196d565b925050604084013590509250925092565b60c081526000611ba860c08301896117de565b8281036020840152611bba81896117de565b6001600160a01b03978816604085015295909616606083015250608081019290925260a0909101529392505050565b600181811c90821680611bfd57607f821691505b602082108103611c1d57634e487b7160e01b600052602260045260246000fd5b50919050565b600082601f830112611c3457600080fd5b8151611c4261198c82611945565b818152846020838601011115611c5757600080fd5b611c688260208301602087016117ba565b949350505050565b8051611c7b8161184d565b919050565b80518015158114611c7b57600080fd5b600060208284031215611ca257600080fd5b815167ffffffffffffffff80821115611cba57600080fd5b9083019060c08286031215611cce57600080fd5b611cd66118c8565b825182811115611ce557600080fd5b611cf187828601611c23565b825250602083015182811115611d0657600080fd5b611d1287828601611c23565b602083015250611d2460408401611c70565b6040820152611d3560608401611c70565b606082015260808301516080820152611d5060a08401611c80565b60a082015295945050505050565b601f821115611da857600081815260208120601f850160051c81016020861015611d855750805b601f850160051c820191505b81811015611da457828155600101611d91565b5050505b505050565b815167ffffffffffffffff811115611dc757611dc76118b2565b611ddb81611dd58454611be9565b84611d5e565b602080601f831160018114611e105760008415611df85750858301515b600019600386901b1c1916600185901b178555611da4565b600085815260208120601f198616915b82811015611e3f57888601518255948401946001909101908401611e20565b5085821015611e5d5787850151600019600388901b60f8161c191681555b5050505050600190811b01905550565b600060208284031215611e7f57600080fd5b5051919050565b600060208284031215611e9857600080fd5b815167ffffffffffffffff80821115611eb057600080fd5b9083019060808286031215611ec457600080fd5b604051608081018181108382111715611edf57611edf6118b2565b6040528251611eed8161184d565b8152602083015182811115611f0157600080fd5b611f0d87828601611c23565b602083015250604083015160408201526060830151606082015280935050505092915050565b60208152600061187f60208301846117de565b600060208284031215611f5857600080fd5b61187f82611c80565b600060208284031215611f7357600080fd5b815161187f8161184d565b600060208284031215611f9057600080fd5b815167ffffffffffffffff80821115611fa857600080fd5b9083019060608286031215611fbc57600080fd5b611fc46118f1565b825182811115611fd357600080fd5b611fdf87828601611c23565b825250602083015182811115611ff457600080fd5b61200087828601611c23565b60208301525060408301518281111561201857600080fd5b61202487828601611c23565b60408301525095945050505050565b60608152600061204660608301866117de565b828103602084015261205881866117de565b9050828103604084015261157981856117de565b634e487b7160e01b600052601160045260246000fd5b6000600182016120945761209461206c565b5060010190565b600081546120a881611be9565b8085526020600183811680156120c557600181146120df5761210d565b60ff1985168884015283151560051b88018301955061210d565b866000528260002060005b858110156121055781548a82018601529083019084016120ea565b890184019650505b505050505092915050565b60408152600061212b604083018561209b565b828103602084015261213d818561209b565b95945050505050565b80820180821115610ad657610ad661206c565b81810381811115610ad657610ad661206c565b8082028115828204841417610ad657610ad661206c565b6000826121a057634e487b7160e01b600052601260045260246000fd5b500490565b6040815260006121b860408301856117de565b828103602084015261213d81856117de565b8381526060602082015260006121e360608301856117de565b905082604083015294935050505056fea26469706673582212205a6418571762b62ab769610a670cfc1fce3b9a11259ed8586b23a4d8d21d959f64736f6c63430008140033",
          "opcodes": "PUSH1 0x80 PUSH1 0x40 MSTORE CALLVALUE DUP1 ISZERO PUSH3 0x11 JUMPI PUSH1 0x0 DUP1 REVERT JUMPDEST POP PUSH1 0x40 MLOAD PUSH3 0x2380 CODESIZE SUB DUP1 PUSH3 0x2380 DUP4 CODECOPY DUP2 ADD PUSH1 0x40 DUP2 SWAP1 MSTORE PUSH3 0x34 SWAP2 PUSH3 0x108 JUMP JUMPDEST CALLER DUP1 PUSH3 0x5B JUMPI PUSH1 0x40 MLOAD PUSH4 0x1E4FBDF7 PUSH1 0xE0 SHL DUP2 MSTORE PUSH1 0x0 PUSH1 0x4 DUP3 ADD MSTORE PUSH1 0x24 ADD PUSH1 0x40 MLOAD DUP1 SWAP2 SUB SWAP1 REVERT JUMPDEST PUSH3 0x66 DUP2 PUSH3 0x9F JUMP JUMPDEST POP PUSH1 0x1 DUP1 SLOAD PUSH1 0x1 PUSH1 0x1 PUSH1 0xA0 SHL SUB SWAP4 DUP5 AND PUSH1 0x1 PUSH1 0x1 PUSH1 0xA0 SHL SUB NOT SWAP2 DUP3 AND OR DUP3 SSTORE PUSH1 0x2 DUP1 SLOAD SWAP4 SWAP1 SWAP5 AND SWAP3 AND SWAP2 SWAP1 SWAP2 OR SWAP1 SWAP2 SSTORE PUSH1 0x6 SSTORE PUSH3 0x147 JUMP JUMPDEST PUSH1 0x0 DUP1 SLOAD PUSH1 0x1 PUSH1 0x1 PUSH1 0xA0 SHL SUB DUP4 DUP2 AND PUSH1 0x1 PUSH1 0x1 PUSH1 0xA0 SHL SUB NOT DUP4 AND DUP2 OR DUP5 SSTORE PUSH1 0x40 MLOAD SWAP2 SWAP1 SWAP3 AND SWAP3 DUP4 SWAP2 PUSH32 0x8BE0079C531659141344CD1FD0A4F28419497F9722A3DAAFE3B4186F6B6457E0 SWAP2 SWAP1 LOG3 POP POP JUMP JUMPDEST PUSH1 0x1 PUSH1 0x1 PUSH1 0xA0 SHL SUB DUP2 AND DUP2 EQ PUSH3 0x105 JUMPI PUSH1 0x0 DUP1 REVERT JUMPDEST POP JUMP JUMPDEST PUSH1 0x0 DUP1 PUSH1 0x40 DUP4 DUP6 SUB SLT ISZERO PUSH3 0x11C JUMPI PUSH1 0x0 DUP1 REVERT JUMPDEST DUP3 MLOAD PUSH3 0x129 DUP2 PUSH3 0xEF JUMP JUMPDEST PUSH1 0x20 DUP5 ADD MLOAD SWAP1 SWAP3 POP PUSH3 0x13C DUP2 PUSH3 0xEF JUMP JUMPDEST DUP1 SWAP2 POP POP SWAP3 POP SWAP3 SWAP1 POP JUMP JUMPDEST PUSH2 0x2229 DUP1 PUSH3 0x157 PUSH1 0x0 CODECOPY PUSH1 0x0 RETURN INVALID PUSH1 0x80 PUSH1 0x40 MSTORE CALLVALUE DUP1 ISZERO PUSH2 0x10 JUMPI PUSH1 0x0 DUP1 REVERT JUMPDEST POP PUSH1 0x4 CALLDATASIZE LT PUSH2 0x121 JUMPI PUSH1 0x0 CALLDATALOAD PUSH1 0xE0 SHR DUP1 PUSH4 0x9E498F16 GT PUSH2 0xAD JUMPI DUP1 PUSH4 0xD7071B1F GT PUSH2 0x71 JUMPI DUP1 PUSH4 0xD7071B1F EQ PUSH2 0x29B JUMPI DUP1 PUSH4 0xDCA60776 EQ PUSH2 0x2AE JUMPI DUP1 PUSH4 0xF2FDE38B EQ PUSH2 0x2C1 JUMPI DUP1 PUSH4 0xF3A1A466 EQ PUSH2 0x2D4 JUMPI DUP1 PUSH4 0xFD66091E EQ PUSH2 0x2E7 JUMPI PUSH1 0x0 DUP1 REVERT JUMPDEST DUP1 PUSH4 0x9E498F16 EQ PUSH2 0x222 JUMPI DUP1 PUSH4 0xAAC9F15A EQ PUSH2 0x235 JUMPI DUP1 PUSH4 0xB2D78069 EQ PUSH2 0x255 JUMPI DUP1 PUSH4 0xC7F758A8 EQ PUSH2 0x268 JUMPI DUP1 PUSH4 0xCBCF252A EQ PUSH2 0x288 JUMPI PUSH1 0x0 DUP1 REVERT JUMPDEST DUP1 PUSH4 0x715018A6 GT PUSH2 0xF4 JUMPI DUP1 PUSH4 0x715018A6 EQ PUSH2 0x192 JUMPI DUP1 PUSH4 0x7B5C219D EQ PUSH2 0x19A JUMPI DUP1 PUSH4 0x8DA5CB5B EQ PUSH2 0x1BD JUMPI DUP1 PUSH4 0x98366DBD EQ PUSH2 0x1E2 JUMPI DUP1 PUSH4 0x9C89A0E2 EQ PUSH2 0x1F5 JUMPI PUSH1 0x0 DUP1 REVERT JUMPDEST DUP1 PUSH4 0x13CF08B EQ PUSH2 0x126 JUMPI DUP1 PUSH4 0x2AB09D14 EQ PUSH2 0x153 JUMPI DUP1 PUSH4 0x5C8A4839 EQ PUSH2 0x16A JUMPI DUP1 PUSH4 0x70370A81 EQ PUSH2 0x17F JUMPI JUMPDEST PUSH1 0x0 DUP1 REVERT JUMPDEST PUSH2 0x139 PUSH2 0x134 CALLDATASIZE PUSH1 0x4 PUSH2 0x17A1 JUMP JUMPDEST PUSH2 0x30C JUMP JUMPDEST PUSH1 0x40 MLOAD PUSH2 0x14A SWAP6 SWAP5 SWAP4 SWAP3 SWAP2 SWAP1 PUSH2 0x180A JUMP JUMPDEST PUSH1 0x40 MLOAD DUP1 SWAP2 SUB SWAP1 RETURN JUMPDEST PUSH2 0x15C PUSH1 0x6 SLOAD DUP2 JUMP JUMPDEST PUSH1 0x40 MLOAD SWAP1 DUP2 MSTORE PUSH1 0x20 ADD PUSH2 0x14A JUMP JUMPDEST PUSH2 0x17D PUSH2 0x178 CALLDATASIZE PUSH1 0x4 PUSH2 0x1862 JUMP JUMPDEST PUSH2 0x3D2 JUMP JUMPDEST STOP JUMPDEST PUSH2 0x15C PUSH2 0x18D CALLDATASIZE PUSH1 0x4 PUSH2 0x1886 JUMP JUMPDEST PUSH2 0x91C JUMP JUMPDEST PUSH2 0x17D PUSH2 0xADC JUMP JUMPDEST PUSH2 0x1AD PUSH2 0x1A8 CALLDATASIZE PUSH1 0x4 PUSH2 0x1886 JUMP JUMPDEST PUSH2 0xAF0 JUMP JUMPDEST PUSH1 0x40 MLOAD SWAP1 ISZERO ISZERO DUP2 MSTORE PUSH1 0x20 ADD PUSH2 0x14A JUMP JUMPDEST PUSH1 0x0 SLOAD PUSH1 0x1 PUSH1 0x1 PUSH1 0xA0 SHL SUB AND JUMPDEST PUSH1 0x40 MLOAD PUSH1 0x1 PUSH1 0x1 PUSH1 0xA0 SHL SUB SWAP1 SWAP2 AND DUP2 MSTORE PUSH1 0x20 ADD PUSH2 0x14A JUMP JUMPDEST PUSH2 0x15C PUSH2 0x1F0 CALLDATASIZE PUSH1 0x4 PUSH2 0x19C3 JUMP JUMPDEST PUSH2 0xC55 JUMP JUMPDEST PUSH2 0x15C PUSH2 0x203 CALLDATASIZE PUSH1 0x4 PUSH2 0x1862 JUMP JUMPDEST PUSH1 0x1 PUSH1 0x1 PUSH1 0xA0 SHL SUB AND PUSH1 0x0 SWAP1 DUP2 MSTORE PUSH1 0x4 PUSH1 0x20 DUP2 SWAP1 MSTORE PUSH1 0x40 SWAP1 SWAP2 KECCAK256 ADD SLOAD SWAP1 JUMP JUMPDEST PUSH1 0x3 SLOAD PUSH2 0x1CA SWAP1 PUSH1 0x1 PUSH1 0x1 PUSH1 0xA0 SHL SUB AND DUP2 JUMP JUMPDEST PUSH2 0x248 PUSH2 0x243 CALLDATASIZE PUSH1 0x4 PUSH2 0x1862 JUMP JUMPDEST PUSH2 0xF2E JUMP JUMPDEST PUSH1 0x40 MLOAD PUSH2 0x14A SWAP2 SWAP1 PUSH2 0x1A66 JUMP JUMPDEST PUSH2 0x17D PUSH2 0x263 CALLDATASIZE PUSH1 0x4 PUSH2 0x1862 JUMP JUMPDEST PUSH2 0x1100 JUMP JUMPDEST PUSH2 0x27B PUSH2 0x276 CALLDATASIZE PUSH1 0x4 PUSH2 0x17A1 JUMP JUMPDEST PUSH2 0x1172 JUMP JUMPDEST PUSH1 0x40 MLOAD PUSH2 0x14A SWAP2 SWAP1 PUSH2 0x1AE2 JUMP JUMPDEST PUSH1 0x2 SLOAD PUSH2 0x1CA SWAP1 PUSH1 0x1 PUSH1 0x1 PUSH1 0xA0 SHL SUB AND DUP2 JUMP JUMPDEST PUSH2 0x17D PUSH2 0x2A9 CALLDATASIZE PUSH1 0x4 PUSH2 0x1862 JUMP JUMPDEST PUSH2 0x1297 JUMP JUMPDEST PUSH1 0x1 SLOAD PUSH2 0x1CA SWAP1 PUSH1 0x1 PUSH1 0x1 PUSH1 0xA0 SHL SUB AND DUP2 JUMP JUMPDEST PUSH2 0x17D PUSH2 0x2CF CALLDATASIZE PUSH1 0x4 PUSH2 0x1862 JUMP JUMPDEST PUSH2 0x1309 JUMP JUMPDEST PUSH2 0x15C PUSH2 0x2E2 CALLDATASIZE PUSH1 0x4 PUSH2 0x1B3C JUMP JUMPDEST PUSH2 0x1347 JUMP JUMPDEST PUSH2 0x2FA PUSH2 0x2F5 CALLDATASIZE PUSH1 0x4 PUSH2 0x1862 JUMP JUMPDEST PUSH2 0x1583 JUMP JUMPDEST PUSH1 0x40 MLOAD PUSH2 0x14A SWAP7 SWAP6 SWAP5 SWAP4 SWAP3 SWAP2 SWAP1 PUSH2 0x1B95 JUMP JUMPDEST PUSH1 0x5 PUSH1 0x20 MSTORE PUSH1 0x0 SWAP1 DUP2 MSTORE PUSH1 0x40 SWAP1 KECCAK256 DUP1 SLOAD PUSH1 0x1 DUP3 ADD DUP1 SLOAD PUSH1 0x1 PUSH1 0x1 PUSH1 0xA0 SHL SUB SWAP1 SWAP3 AND SWAP3 SWAP2 PUSH2 0x338 SWAP1 PUSH2 0x1BE9 JUMP JUMPDEST DUP1 PUSH1 0x1F ADD PUSH1 0x20 DUP1 SWAP2 DIV MUL PUSH1 0x20 ADD PUSH1 0x40 MLOAD SWAP1 DUP2 ADD PUSH1 0x40 MSTORE DUP1 SWAP3 SWAP2 SWAP1 DUP2 DUP2 MSTORE PUSH1 0x20 ADD DUP3 DUP1 SLOAD PUSH2 0x364 SWAP1 PUSH2 0x1BE9 JUMP JUMPDEST DUP1 ISZERO PUSH2 0x3B1 JUMPI DUP1 PUSH1 0x1F LT PUSH2 0x386 JUMPI PUSH2 0x100 DUP1 DUP4 SLOAD DIV MUL DUP4 MSTORE SWAP2 PUSH1 0x20 ADD SWAP2 PUSH2 0x3B1 JUMP JUMPDEST DUP3 ADD SWAP2 SWAP1 PUSH1 0x0 MSTORE PUSH1 0x20 PUSH1 0x0 KECCAK256 SWAP1 JUMPDEST DUP2 SLOAD DUP2 MSTORE SWAP1 PUSH1 0x1 ADD SWAP1 PUSH1 0x20 ADD DUP1 DUP4 GT PUSH2 0x394 JUMPI DUP3 SWAP1 SUB PUSH1 0x1F AND DUP3 ADD SWAP2 JUMPDEST POP POP POP POP PUSH1 0x2 DUP4 ADD SLOAD PUSH1 0x3 DUP5 ADD SLOAD PUSH1 0x4 SWAP1 SWAP5 ADD SLOAD SWAP3 SWAP4 SWAP1 SWAP3 SWAP1 SWAP2 POP PUSH1 0xFF AND DUP6 JUMP JUMPDEST PUSH1 0x1 PUSH1 0x1 PUSH1 0xA0 SHL SUB DUP2 DUP2 AND PUSH1 0x0 SWAP1 DUP2 MSTORE PUSH1 0x4 PUSH1 0x20 MSTORE PUSH1 0x40 SWAP1 KECCAK256 PUSH1 0x3 ADD SLOAD AND ISZERO PUSH2 0x43D JUMPI PUSH1 0x40 MLOAD PUSH3 0x461BCD PUSH1 0xE5 SHL DUP2 MSTORE PUSH1 0x20 PUSH1 0x4 DUP3 ADD MSTORE PUSH1 0x18 PUSH1 0x24 DUP3 ADD MSTORE PUSH24 0x1059D95B9D08185B1C9958591E481C9959DA5CDD195C9959 PUSH1 0x42 SHL PUSH1 0x44 DUP3 ADD MSTORE PUSH1 0x64 ADD JUMPDEST PUSH1 0x40 MLOAD DUP1 SWAP2 SUB SWAP1 REVERT JUMPDEST PUSH1 0x1 SLOAD PUSH1 0x40 MLOAD PUSH4 0x5564F8AD PUSH1 0xE1 SHL DUP2 MSTORE PUSH1 0x1 PUSH1 0x1 PUSH1 0xA0 SHL SUB DUP4 DUP2 AND PUSH1 0x4 DUP4 ADD MSTORE PUSH1 0x0 SWAP3 AND SWAP1 PUSH4 0xAAC9F15A SWAP1 PUSH1 0x24 ADD PUSH1 0x0 PUSH1 0x40 MLOAD DUP1 DUP4 SUB DUP2 DUP7 GAS STATICCALL ISZERO DUP1 ISZERO PUSH2 0x488 JUMPI RETURNDATASIZE PUSH1 0x0 DUP1 RETURNDATACOPY RETURNDATASIZE PUSH1 0x0 REVERT JUMPDEST POP POP POP POP PUSH1 0x40 MLOAD RETURNDATASIZE PUSH1 0x0 DUP3 RETURNDATACOPY PUSH1 0x1F RETURNDATASIZE SWAP1 DUP2 ADD PUSH1 0x1F NOT AND DUP3 ADD PUSH1 0x40 MSTORE PUSH2 0x4B0 SWAP2 SWAP1 DUP2 ADD SWAP1 PUSH2 0x1C90 JUMP JUMPDEST PUSH1 0x40 DUP2 ADD MLOAD SWAP1 SWAP2 POP PUSH1 0x1 PUSH1 0x1 PUSH1 0xA0 SHL SUB AND CALLER EQ DUP1 PUSH2 0x4D8 JUMPI POP PUSH1 0x0 SLOAD PUSH1 0x1 PUSH1 0x1 PUSH1 0xA0 SHL SUB AND CALLER EQ JUMPDEST PUSH2 0x524 JUMPI PUSH1 0x40 MLOAD PUSH3 0x461BCD PUSH1 0xE5 SHL DUP2 MSTORE PUSH1 0x20 PUSH1 0x4 DUP3 ADD MSTORE PUSH1 0x18 PUSH1 0x24 DUP3 ADD MSTORE PUSH32 0x4E6F74206F776E6572206F72206167656E74206F776E65720000000000000000 PUSH1 0x44 DUP3 ADD MSTORE PUSH1 0x64 ADD PUSH2 0x434 JUMP JUMPDEST PUSH1 0x1 PUSH1 0x1 PUSH1 0xA0 SHL SUB DUP3 AND PUSH1 0x0 SWAP1 DUP2 MSTORE PUSH1 0x4 PUSH1 0x20 MSTORE PUSH1 0x40 SWAP1 KECCAK256 DUP2 MLOAD DUP2 SWAP1 PUSH2 0x54A SWAP1 DUP3 PUSH2 0x1DAD JUMP JUMPDEST POP PUSH1 0x20 DUP3 ADD MLOAD PUSH1 0x1 DUP3 ADD SWAP1 PUSH2 0x55F SWAP1 DUP3 PUSH2 0x1DAD JUMP JUMPDEST POP PUSH1 0x40 DUP3 DUP2 ADD MLOAD PUSH1 0x2 DUP4 ADD DUP1 SLOAD PUSH1 0x1 PUSH1 0x1 PUSH1 0xA0 SHL SUB NOT SWAP1 DUP2 AND PUSH1 0x1 PUSH1 0x1 PUSH1 0xA0 SHL SUB SWAP4 DUP5 AND OR SWAP1 SWAP2 SSTORE PUSH1 0x60 DUP6 ADD MLOAD PUSH1 0x3 DUP6 ADD DUP1 SLOAD SWAP1 SWAP3 AND SWAP1 DUP4 AND OR SWAP1 SSTORE PUSH1 0x80 DUP5 ADD MLOAD PUSH1 0x4 DUP1 DUP6 ADD SWAP2 SWAP1 SWAP2 SSTORE PUSH1 0x0 PUSH1 0x5 DUP6 ADD DUP2 SWAP1 SSTORE PUSH1 0x1 SLOAD DUP5 MLOAD PUSH4 0xAAC2745 PUSH1 0xE2 SHL DUP2 MSTORE SWAP5 MLOAD SWAP2 SWAP5 SWAP4 AND SWAP3 PUSH4 0x2AB09D14 SWAP3 DUP2 DUP2 ADD SWAP3 PUSH1 0x20 SWAP3 SWAP1 SWAP2 SWAP1 DUP3 SWAP1 SUB ADD DUP2 DUP7 GAS STATICCALL ISZERO DUP1 ISZERO PUSH2 0x5F1 JUMPI RETURNDATASIZE PUSH1 0x0 DUP1 RETURNDATACOPY RETURNDATASIZE PUSH1 0x0 REVERT JUMPDEST POP POP POP POP PUSH1 0x40 MLOAD RETURNDATASIZE PUSH1 0x1F NOT PUSH1 0x1F DUP3 ADD AND DUP3 ADD DUP1 PUSH1 0x40 MSTORE POP DUP2 ADD SWAP1 PUSH2 0x615 SWAP2 SWAP1 PUSH2 0x1E6D JUMP JUMPDEST SWAP1 POP PUSH1 0x0 JUMPDEST DUP2 DUP2 LT ISZERO PUSH2 0x8C4 JUMPI PUSH1 0x1 SLOAD PUSH1 0x40 MLOAD PUSH4 0x18FEEB15 PUSH1 0xE3 SHL DUP2 MSTORE PUSH1 0x4 DUP2 ADD DUP4 SWAP1 MSTORE PUSH1 0x0 SWAP2 PUSH1 0x1 PUSH1 0x1 PUSH1 0xA0 SHL SUB AND SWAP1 PUSH4 0xC7F758A8 SWAP1 PUSH1 0x24 ADD PUSH1 0x0 PUSH1 0x40 MLOAD DUP1 DUP4 SUB DUP2 DUP7 GAS STATICCALL ISZERO DUP1 ISZERO PUSH2 0x66C JUMPI RETURNDATASIZE PUSH1 0x0 DUP1 RETURNDATACOPY RETURNDATASIZE PUSH1 0x0 REVERT JUMPDEST POP POP POP POP PUSH1 0x40 MLOAD RETURNDATASIZE PUSH1 0x0 DUP3 RETURNDATACOPY PUSH1 0x1F RETURNDATASIZE SWAP1 DUP2 ADD PUSH1 0x1F NOT AND DUP3 ADD PUSH1 0x40 MSTORE PUSH2 0x694 SWAP2 SWAP1 DUP2 ADD SWAP1 PUSH2 0x1E86 JUMP JUMPDEST SWAP1 POP DUP6 PUSH1 0x1 PUSH1 0x1 PUSH1 0xA0 SHL SUB AND DUP2 PUSH1 0x0 ADD MLOAD PUSH1 0x1 PUSH1 0x1 PUSH1 0xA0 SHL SUB AND SUB PUSH2 0x8B1 JUMPI PUSH1 0x2 SLOAD PUSH1 0x20 DUP3 ADD MLOAD PUSH1 0x40 MLOAD PUSH4 0xB405166B PUSH1 0xE0 SHL DUP2 MSTORE PUSH1 0x0 SWAP3 PUSH1 0x1 PUSH1 0x1 PUSH1 0xA0 SHL SUB AND SWAP2 PUSH4 0xB405166B SWAP2 PUSH2 0x6E8 SWAP2 SWAP1 PUSH1 0x4 ADD PUSH2 0x1F33 JUMP JUMPDEST PUSH1 0x20 PUSH1 0x40 MLOAD DUP1 DUP4 SUB DUP2 DUP7 GAS STATICCALL ISZERO DUP1 ISZERO PUSH2 0x705 JUMPI RETURNDATASIZE PUSH1 0x0 DUP1 RETURNDATACOPY RETURNDATASIZE PUSH1 0x0 REVERT JUMPDEST POP POP POP POP PUSH1 0x40 MLOAD RETURNDATASIZE PUSH1 0x1F NOT PUSH1 0x1F DUP3 ADD AND DUP3 ADD DUP1 PUSH1 0x40 MSTORE POP DUP2 ADD SWAP1 PUSH2 0x729 SWAP2 SWAP1 PUSH2 0x1F46 JUMP JUMPDEST SWAP1 POP DUP1 PUSH2 0x89B JUMPI PUSH1 0x1 SLOAD PUSH1 0x40 DUP1 MLOAD PUSH4 0x65E79295 PUSH1 0xE1 SHL DUP2 MSTORE SWAP1 MLOAD PUSH1 0x0 SWAP3 PUSH1 0x1 PUSH1 0x1 PUSH1 0xA0 SHL SUB AND SWAP2 PUSH4 0xCBCF252A SWAP2 PUSH1 0x4 DUP1 DUP4 ADD SWAP3 PUSH1 0x20 SWAP3 SWAP2 SWAP1 DUP3 SWAP1 SUB ADD DUP2 DUP7 GAS STATICCALL ISZERO DUP1 ISZERO PUSH2 0x77A JUMPI RETURNDATASIZE PUSH1 0x0 DUP1 RETURNDATACOPY RETURNDATASIZE PUSH1 0x0 REVERT JUMPDEST POP POP POP POP PUSH1 0x40 MLOAD RETURNDATASIZE PUSH1 0x1F NOT PUSH1 0x1F DUP3 ADD AND DUP3 ADD DUP1 PUSH1 0x40 MSTORE POP DUP2 ADD SWAP1 PUSH2 0x79E SWAP2 SWAP1 PUSH2 0x1F61 JUMP JUMPDEST PUSH1 0x1 PUSH1 0x1 PUSH1 0xA0 SHL SUB AND PUSH4 0x794758BE DUP5 PUSH1 0x20 ADD MLOAD PUSH1 0x40 MLOAD DUP3 PUSH4 0xFFFFFFFF AND PUSH1 0xE0 SHL DUP2 MSTORE PUSH1 0x4 ADD PUSH2 0x7CD SWAP2 SWAP1 PUSH2 0x1F33 JUMP JUMPDEST PUSH1 0x0 PUSH1 0x40 MLOAD DUP1 DUP4 SUB DUP2 DUP7 GAS STATICCALL ISZERO DUP1 ISZERO PUSH2 0x7EA JUMPI RETURNDATASIZE PUSH1 0x0 DUP1 RETURNDATACOPY RETURNDATASIZE PUSH1 0x0 REVERT JUMPDEST POP POP POP POP PUSH1 0x40 MLOAD RETURNDATASIZE PUSH1 0x0 DUP3 RETURNDATACOPY PUSH1 0x1F RETURNDATASIZE SWAP1 DUP2 ADD PUSH1 0x1F NOT AND DUP3 ADD PUSH1 0x40 MSTORE PUSH2 0x812 SWAP2 SWAP1 DUP2 ADD SWAP1 PUSH2 0x1F7E JUMP JUMPDEST PUSH1 0x2 SLOAD DUP2 MLOAD PUSH1 0x20 DUP4 ADD MLOAD PUSH1 0x40 DUP1 DUP6 ADD MLOAD SWAP1 MLOAD PUSH4 0x3BD5F621 PUSH1 0xE2 SHL DUP2 MSTORE SWAP5 SWAP6 POP PUSH1 0x1 PUSH1 0x1 PUSH1 0xA0 SHL SUB SWAP1 SWAP4 AND SWAP4 PUSH4 0xEF57D884 SWAP4 PUSH2 0x851 SWAP4 SWAP3 SWAP2 PUSH1 0x4 ADD PUSH2 0x2033 JUMP JUMPDEST PUSH1 0x0 PUSH1 0x40 MLOAD DUP1 DUP4 SUB DUP2 PUSH1 0x0 DUP8 GAS CALL ISZERO DUP1 ISZERO PUSH2 0x870 JUMPI RETURNDATASIZE PUSH1 0x0 DUP1 RETURNDATACOPY RETURNDATASIZE PUSH1 0x0 REVERT JUMPDEST POP POP POP POP PUSH1 0x40 MLOAD RETURNDATASIZE PUSH1 0x0 DUP3 RETURNDATACOPY PUSH1 0x1F RETURNDATASIZE SWAP1 DUP2 ADD PUSH1 0x1F NOT AND DUP3 ADD PUSH1 0x40 MSTORE PUSH2 0x898 SWAP2 SWAP1 DUP2 ADD SWAP1 PUSH2 0x1F7E JUMP JUMPDEST POP POP JUMPDEST PUSH2 0x8AE DUP8 DUP4 PUSH1 0x20 ADD MLOAD DUP5 PUSH1 0x40 ADD MLOAD PUSH2 0x1347 JUMP JUMPDEST POP POP JUMPDEST POP DUP1 PUSH2 0x8BC DUP2 PUSH2 0x2082 JUMP JUMPDEST SWAP2 POP POP PUSH2 0x61A JUMP JUMPDEST POP PUSH1 0x2 DUP3 ADD SLOAD PUSH1 0x40 MLOAD PUSH1 0x1 PUSH1 0x1 PUSH1 0xA0 SHL SUB SWAP2 DUP3 AND SWAP2 DUP7 AND SWAP1 PUSH32 0x2A562EFB52E7CEC209321F57200606311256DA6D2A1B19D44DB7837A3209DE28 SWAP1 PUSH2 0x90E SWAP1 DUP7 SWAP1 PUSH1 0x1 DUP3 ADD SWAP1 PUSH2 0x2118 JUMP JUMPDEST PUSH1 0x40 MLOAD DUP1 SWAP2 SUB SWAP1 LOG3 POP POP POP POP JUMP JUMPDEST PUSH1 0x3 SLOAD PUSH1 0x0 SWAP1 PUSH1 0x1 PUSH1 0x1 PUSH1 0xA0 SHL SUB AND CALLER EQ PUSH2 0x979 JUMPI PUSH1 0x40 MLOAD PUSH3 0x461BCD PUSH1 0xE5 SHL DUP2 MSTORE PUSH1 0x20 PUSH1 0x4 DUP3 ADD MSTORE PUSH1 0x1D PUSH1 0x24 DUP3 ADD MSTORE PUSH32 0x4E6F7420746865205461736B526567697374727920636F6E7472616374000000 PUSH1 0x44 DUP3 ADD MSTORE PUSH1 0x64 ADD PUSH2 0x434 JUMP JUMPDEST PUSH1 0x64 DUP3 GT ISZERO PUSH2 0x9CA JUMPI PUSH1 0x40 MLOAD PUSH3 0x461BCD PUSH1 0xE5 SHL DUP2 MSTORE PUSH1 0x20 PUSH1 0x4 DUP3 ADD DUP2 SWAP1 MSTORE PUSH1 0x24 DUP3 ADD MSTORE PUSH32 0x526174696E67206D757374206265206265747765656E203020616E6420313030 PUSH1 0x44 DUP3 ADD MSTORE PUSH1 0x64 ADD PUSH2 0x434 JUMP JUMPDEST PUSH1 0x1 PUSH1 0x1 PUSH1 0xA0 SHL SUB DUP4 AND PUSH1 0x0 SWAP1 DUP2 MSTORE PUSH1 0x4 PUSH1 0x20 MSTORE PUSH1 0x40 DUP2 KECCAK256 PUSH1 0x5 ADD DUP1 SLOAD PUSH1 0x1 SWAP3 SWAP1 PUSH2 0x9F6 SWAP1 DUP5 SWAP1 PUSH2 0x2146 JUMP JUMPDEST SWAP1 SWAP2 SSTORE POP POP PUSH1 0x1 PUSH1 0x1 PUSH1 0xA0 SHL SUB DUP4 AND PUSH1 0x0 SWAP1 DUP2 MSTORE PUSH1 0x4 PUSH1 0x20 MSTORE PUSH1 0x40 SWAP1 KECCAK256 PUSH1 0x5 ADD SLOAD DUP3 PUSH2 0xA23 PUSH1 0x1 DUP4 PUSH2 0x2159 JUMP JUMPDEST PUSH1 0x1 PUSH1 0x1 PUSH1 0xA0 SHL SUB DUP7 AND PUSH1 0x0 SWAP1 DUP2 MSTORE PUSH1 0x4 PUSH1 0x20 DUP2 SWAP1 MSTORE PUSH1 0x40 SWAP1 SWAP2 KECCAK256 ADD SLOAD PUSH2 0xA4A SWAP2 SWAP1 PUSH2 0x216C JUMP JUMPDEST PUSH2 0xA54 SWAP2 SWAP1 PUSH2 0x2146 JUMP JUMPDEST PUSH2 0xA5E SWAP2 SWAP1 PUSH2 0x2183 JUMP JUMPDEST PUSH1 0x1 PUSH1 0x1 PUSH1 0xA0 SHL SUB DUP5 AND PUSH1 0x0 DUP2 DUP2 MSTORE PUSH1 0x4 PUSH1 0x20 DUP2 SWAP1 MSTORE PUSH1 0x40 SWAP2 DUP3 SWAP1 KECCAK256 ADD DUP4 SWAP1 SSTORE MLOAD SWAP1 SWAP2 PUSH32 0xFC577563F1B9A0461E24ABEF1E1FCC0D33D3D881F20B5DF6DDA59DE4AAE2C821 SWAP2 PUSH2 0xAAF SWAP2 DUP2 MSTORE PUSH1 0x20 ADD SWAP1 JUMP JUMPDEST PUSH1 0x40 MLOAD DUP1 SWAP2 SUB SWAP1 LOG2 POP PUSH1 0x1 PUSH1 0x1 PUSH1 0xA0 SHL SUB DUP3 AND PUSH1 0x0 SWAP1 DUP2 MSTORE PUSH1 0x4 PUSH1 0x20 DUP2 SWAP1 MSTORE PUSH1 0x40 SWAP1 SWAP2 KECCAK256 ADD SLOAD JUMPDEST SWAP3 SWAP2 POP POP JUMP JUMPDEST PUSH2 0xAE4 PUSH2 0x16D6 JUMP JUMPDEST PUSH2 0xAEE PUSH1 0x0 PUSH2 0x1703 JUMP JUMPDEST JUMP JUMPDEST PUSH1 0x1 PUSH1 0x1 PUSH1 0xA0 SHL SUB DUP1 DUP4 AND PUSH1 0x0 SWAP1 DUP2 MSTORE PUSH1 0x4 PUSH1 0x20 MSTORE PUSH1 0x40 DUP2 KECCAK256 PUSH1 0x2 ADD SLOAD SWAP1 SWAP2 DUP5 SWAP2 AND CALLER EQ PUSH2 0xB60 JUMPI PUSH1 0x40 MLOAD PUSH3 0x461BCD PUSH1 0xE5 SHL DUP2 MSTORE PUSH1 0x20 PUSH1 0x4 DUP3 ADD MSTORE PUSH1 0x1A PUSH1 0x24 DUP3 ADD MSTORE PUSH32 0x4E6F7420746865206F776E6572206F6620746865206167656E74000000000000 PUSH1 0x44 DUP3 ADD MSTORE PUSH1 0x64 ADD PUSH2 0x434 JUMP JUMPDEST PUSH1 0x0 DUP4 DUP2 MSTORE PUSH1 0x5 PUSH1 0x20 MSTORE PUSH1 0x40 SWAP1 KECCAK256 SLOAD PUSH1 0x1 PUSH1 0x1 PUSH1 0xA0 SHL SUB DUP6 DUP2 AND SWAP2 AND EQ PUSH2 0xBC9 JUMPI PUSH1 0x40 MLOAD PUSH3 0x461BCD PUSH1 0xE5 SHL DUP2 MSTORE PUSH1 0x20 PUSH1 0x4 DUP3 ADD MSTORE PUSH1 0x19 PUSH1 0x24 DUP3 ADD MSTORE PUSH32 0x5365727669636550726F706F73616C206E6F7420666F756E6400000000000000 PUSH1 0x44 DUP3 ADD MSTORE PUSH1 0x64 ADD PUSH2 0x434 JUMP JUMPDEST PUSH1 0x0 DUP4 DUP2 MSTORE PUSH1 0x5 PUSH1 0x20 MSTORE PUSH1 0x40 DUP2 KECCAK256 DUP1 SLOAD PUSH1 0x1 PUSH1 0x1 PUSH1 0xA0 SHL SUB NOT AND DUP2 SSTORE SWAP1 PUSH2 0xBF3 PUSH1 0x1 DUP4 ADD DUP3 PUSH2 0x1753 JUMP JUMPDEST POP PUSH1 0x0 PUSH1 0x2 DUP3 ADD DUP2 SWAP1 SSTORE PUSH1 0x3 DUP3 ADD SSTORE PUSH1 0x4 ADD DUP1 SLOAD PUSH1 0xFF NOT AND SWAP1 SSTORE PUSH1 0x40 MLOAD DUP4 DUP2 MSTORE PUSH1 0x1 PUSH1 0x1 PUSH1 0xA0 SHL SUB DUP6 AND SWAP1 PUSH32 0x45204680E8152470A4BB058A5049426C93D82614D97945E5B6541E67ABA4A8F2 SWAP1 PUSH1 0x20 ADD PUSH1 0x40 MLOAD DUP1 SWAP2 SUB SWAP1 LOG2 POP PUSH1 0x1 SWAP4 SWAP3 POP POP POP JUMP JUMPDEST PUSH1 0x1 PUSH1 0x1 PUSH1 0xA0 SHL SUB DUP6 DUP2 AND PUSH1 0x0 SWAP1 DUP2 MSTORE PUSH1 0x4 PUSH1 0x20 MSTORE PUSH1 0x40 DUP2 KECCAK256 PUSH1 0x3 ADD SLOAD SWAP1 SWAP2 AND ISZERO PUSH2 0xCBD JUMPI PUSH1 0x40 MLOAD PUSH3 0x461BCD PUSH1 0xE5 SHL DUP2 MSTORE PUSH1 0x20 PUSH1 0x4 DUP3 ADD MSTORE PUSH1 0x18 PUSH1 0x24 DUP3 ADD MSTORE PUSH24 0x1059D95B9D08185B1C9958591E481C9959DA5CDD195C9959 PUSH1 0x42 SHL PUSH1 0x44 DUP3 ADD MSTORE PUSH1 0x64 ADD PUSH2 0x434 JUMP JUMPDEST PUSH1 0x2 SLOAD PUSH1 0x40 MLOAD PUSH4 0xB405166B PUSH1 0xE0 SHL DUP2 MSTORE PUSH1 0x1 PUSH1 0x1 PUSH1 0xA0 SHL SUB SWAP1 SWAP2 AND SWAP1 PUSH4 0xB405166B SWAP1 PUSH2 0xCED SWAP1 DUP7 SWAP1 PUSH1 0x4 ADD PUSH2 0x1F33 JUMP JUMPDEST PUSH1 0x20 PUSH1 0x40 MLOAD DUP1 DUP4 SUB DUP2 DUP7 GAS STATICCALL ISZERO DUP1 ISZERO PUSH2 0xD0A JUMPI RETURNDATASIZE PUSH1 0x0 DUP1 RETURNDATACOPY RETURNDATASIZE PUSH1 0x0 REVERT JUMPDEST POP POP POP POP PUSH1 0x40 MLOAD RETURNDATASIZE PUSH1 0x1F NOT PUSH1 0x1F DUP3 ADD AND DUP3 ADD DUP1 PUSH1 0x40 MSTORE POP DUP2 ADD SWAP1 PUSH2 0xD2E SWAP2 SWAP1 PUSH2 0x1F46 JUMP JUMPDEST PUSH2 0xD73 JUMPI PUSH1 0x40 MLOAD PUSH3 0x461BCD PUSH1 0xE5 SHL DUP2 MSTORE PUSH1 0x20 PUSH1 0x4 DUP3 ADD MSTORE PUSH1 0x16 PUSH1 0x24 DUP3 ADD MSTORE PUSH22 0x14D95C9D9A58D9481B9BDD081C9959DA5CDD195C9959 PUSH1 0x52 SHL PUSH1 0x44 DUP3 ADD MSTORE PUSH1 0x64 ADD PUSH2 0x434 JUMP JUMPDEST PUSH1 0x1 PUSH1 0x1 PUSH1 0xA0 SHL SUB DUP7 AND PUSH1 0x0 SWAP1 DUP2 MSTORE PUSH1 0x4 PUSH1 0x20 MSTORE PUSH1 0x40 SWAP1 KECCAK256 DUP1 PUSH2 0xD96 DUP8 DUP3 PUSH2 0x1DAD JUMP JUMPDEST POP PUSH1 0x1 DUP2 ADD PUSH2 0xDA5 DUP7 DUP3 PUSH2 0x1DAD JUMP JUMPDEST POP PUSH1 0x2 DUP2 ADD DUP1 SLOAD PUSH1 0x1 PUSH1 0x1 PUSH1 0xA0 SHL SUB NOT SWAP1 DUP2 AND CALLER OR SWAP1 SWAP2 SSTORE PUSH1 0x3 DUP3 ADD DUP1 SLOAD PUSH1 0x1 PUSH1 0x1 PUSH1 0xA0 SHL SUB DUP11 DUP2 AND SWAP2 DUP5 AND DUP3 OR SWAP1 SWAP3 SSTORE PUSH1 0x0 PUSH1 0x4 DUP6 ADD DUP2 SWAP1 SSTORE PUSH1 0x40 DUP1 MLOAD PUSH1 0xA0 DUP2 ADD DUP3 MSTORE SWAP3 DUP4 MSTORE PUSH1 0x20 DUP1 DUP5 ADD DUP11 DUP2 MSTORE DUP5 DUP4 ADD DUP11 SWAP1 MSTORE PUSH1 0x6 SLOAD PUSH1 0x60 DUP7 ADD DUP2 SWAP1 MSTORE PUSH1 0x80 DUP7 ADD DUP6 SWAP1 MSTORE DUP5 MSTORE PUSH1 0x5 SWAP1 SWAP2 MSTORE SWAP2 KECCAK256 DUP3 MLOAD DUP2 SLOAD SWAP5 AND SWAP4 SWAP1 SWAP5 AND SWAP3 SWAP1 SWAP3 OR DUP4 SSTORE SWAP1 MLOAD SWAP1 SWAP2 DUP3 SWAP2 PUSH1 0x1 DUP3 ADD SWAP1 PUSH2 0xE39 SWAP1 DUP3 PUSH2 0x1DAD JUMP JUMPDEST POP PUSH1 0x40 DUP3 ADD MLOAD PUSH1 0x2 DUP3 ADD SSTORE PUSH1 0x60 DUP3 ADD MLOAD PUSH1 0x3 DUP3 ADD SSTORE PUSH1 0x80 SWAP1 SWAP2 ADD MLOAD PUSH1 0x4 SWAP1 SWAP2 ADD DUP1 SLOAD PUSH1 0xFF NOT AND SWAP2 ISZERO ISZERO SWAP2 SWAP1 SWAP2 OR SWAP1 SSTORE PUSH1 0x6 DUP1 SLOAD SWAP1 PUSH1 0x0 PUSH2 0xE78 DUP4 PUSH2 0x2082 JUMP JUMPDEST SWAP2 SWAP1 POP SSTORE POP CALLER PUSH1 0x1 PUSH1 0x1 PUSH1 0xA0 SHL SUB AND DUP9 PUSH1 0x1 PUSH1 0x1 PUSH1 0xA0 SHL SUB AND PUSH32 0x2A562EFB52E7CEC209321F57200606311256DA6D2A1B19D44DB7837A3209DE28 DUP10 DUP10 PUSH1 0x40 MLOAD PUSH2 0xEC2 SWAP3 SWAP2 SWAP1 PUSH2 0x21A5 JUMP JUMPDEST PUSH1 0x40 MLOAD DUP1 SWAP2 SUB SWAP1 LOG3 DUP8 PUSH1 0x1 PUSH1 0x1 PUSH1 0xA0 SHL SUB AND PUSH32 0xE194E0BC2279ADB185C748AE57DB10FE2EF1005A1B5646F96235A881C88DDB79 DUP3 PUSH1 0x60 ADD MLOAD DUP8 DUP8 PUSH1 0x40 MLOAD PUSH2 0xF0B SWAP4 SWAP3 SWAP2 SWAP1 PUSH2 0x21CA JUMP JUMPDEST PUSH1 0x40 MLOAD DUP1 SWAP2 SUB SWAP1 LOG2 PUSH1 0x1 PUSH1 0x6 SLOAD PUSH2 0xF22 SWAP2 SWAP1 PUSH2 0x2159 JUMP JUMPDEST SWAP9 SWAP8 POP POP POP POP POP POP POP POP JUMP JUMPDEST PUSH2 0xF79 PUSH1 0x40 MLOAD DUP1 PUSH1 0xC0 ADD PUSH1 0x40 MSTORE DUP1 PUSH1 0x60 DUP2 MSTORE PUSH1 0x20 ADD PUSH1 0x60 DUP2 MSTORE PUSH1 0x20 ADD PUSH1 0x0 PUSH1 0x1 PUSH1 0x1 PUSH1 0xA0 SHL SUB AND DUP2 MSTORE PUSH1 0x20 ADD PUSH1 0x0 PUSH1 0x1 PUSH1 0x1 PUSH1 0xA0 SHL SUB AND DUP2 MSTORE PUSH1 0x20 ADD PUSH1 0x0 DUP2 MSTORE PUSH1 0x20 ADD PUSH1 0x0 DUP2 MSTORE POP SWAP1 JUMP JUMPDEST PUSH1 0x1 PUSH1 0x1 PUSH1 0xA0 SHL SUB DUP3 AND PUSH1 0x0 SWAP1 DUP2 MSTORE PUSH1 0x4 PUSH1 0x20 MSTORE PUSH1 0x40 SWAP1 DUP2 SWAP1 KECCAK256 DUP2 MLOAD PUSH1 0xC0 DUP2 ADD SWAP1 SWAP3 MSTORE DUP1 SLOAD SWAP1 SWAP2 SWAP1 DUP3 SWAP1 DUP3 SWAP1 DUP3 SWAP1 PUSH2 0xFB0 SWAP1 PUSH2 0x1BE9 JUMP JUMPDEST DUP1 PUSH1 0x1F ADD PUSH1 0x20 DUP1 SWAP2 DIV MUL PUSH1 0x20 ADD PUSH1 0x40 MLOAD SWAP1 DUP2 ADD PUSH1 0x40 MSTORE DUP1 SWAP3 SWAP2 SWAP1 DUP2 DUP2 MSTORE PUSH1 0x20 ADD DUP3 DUP1 SLOAD PUSH2 0xFDC SWAP1 PUSH2 0x1BE9 JUMP JUMPDEST DUP1 ISZERO PUSH2 0x1029 JUMPI DUP1 PUSH1 0x1F LT PUSH2 0xFFE JUMPI PUSH2 0x100 DUP1 DUP4 SLOAD DIV MUL DUP4 MSTORE SWAP2 PUSH1 0x20 ADD SWAP2 PUSH2 0x1029 JUMP JUMPDEST DUP3 ADD SWAP2 SWAP1 PUSH1 0x0 MSTORE PUSH1 0x20 PUSH1 0x0 KECCAK256 SWAP1 JUMPDEST DUP2 SLOAD DUP2 MSTORE SWAP1 PUSH1 0x1 ADD SWAP1 PUSH1 0x20 ADD DUP1 DUP4 GT PUSH2 0x100C JUMPI DUP3 SWAP1 SUB PUSH1 0x1F AND DUP3 ADD SWAP2 JUMPDEST POP POP POP POP POP DUP2 MSTORE PUSH1 0x20 ADD PUSH1 0x1 DUP3 ADD DUP1 SLOAD PUSH2 0x1042 SWAP1 PUSH2 0x1BE9 JUMP JUMPDEST DUP1 PUSH1 0x1F ADD PUSH1 0x20 DUP1 SWAP2 DIV MUL PUSH1 0x20 ADD PUSH1 0x40 MLOAD SWAP1 DUP2 ADD PUSH1 0x40 MSTORE DUP1 SWAP3 SWAP2 SWAP1 DUP2 DUP2 MSTORE PUSH1 0x20 ADD DUP3 DUP1 SLOAD PUSH2 0x106E SWAP1 PUSH2 0x1BE9 JUMP JUMPDEST DUP1 ISZERO PUSH2 0x10BB JUMPI DUP1 PUSH1 0x1F LT PUSH2 0x1090 JUMPI PUSH2 0x100 DUP1 DUP4 SLOAD DIV MUL DUP4 MSTORE SWAP2 PUSH1 0x20 ADD SWAP2 PUSH2 0x10BB JUMP JUMPDEST DUP3 ADD SWAP2 SWAP1 PUSH1 0x0 MSTORE PUSH1 0x20 PUSH1 0x0 KECCAK256 SWAP1 JUMPDEST DUP2 SLOAD DUP2 MSTORE SWAP1 PUSH1 0x1 ADD SWAP1 PUSH1 0x20 ADD DUP1 DUP4 GT PUSH2 0x109E JUMPI DUP3 SWAP1 SUB PUSH1 0x1F AND DUP3 ADD SWAP2 JUMPDEST POP POP POP SWAP2 DUP4 MSTORE POP POP PUSH1 0x2 DUP3 ADD SLOAD PUSH1 0x1 PUSH1 0x1 PUSH1 0xA0 SHL SUB SWAP1 DUP2 AND PUSH1 0x20 DUP4 ADD MSTORE PUSH1 0x3 DUP4 ADD SLOAD AND PUSH1 0x40 DUP3 ADD MSTORE PUSH1 0x4 DUP3 ADD SLOAD PUSH1 0x60 DUP3 ADD MSTORE PUSH1 0x5 SWAP1 SWAP2 ADD SLOAD PUSH1 0x80 SWAP1 SWAP2 ADD MSTORE SWAP4 SWAP3 POP POP POP JUMP JUMPDEST PUSH2 0x1108 PUSH2 0x16D6 JUMP JUMPDEST PUSH1 0x1 PUSH1 0x1 PUSH1 0xA0 SHL SUB DUP2 AND PUSH2 0x1150 JUMPI PUSH1 0x40 MLOAD PUSH3 0x461BCD PUSH1 0xE5 SHL DUP2 MSTORE PUSH1 0x20 PUSH1 0x4 DUP3 ADD MSTORE PUSH1 0xF PUSH1 0x24 DUP3 ADD MSTORE PUSH15 0x496E76616C69642061646472657373 PUSH1 0x88 SHL PUSH1 0x44 DUP3 ADD MSTORE PUSH1 0x64 ADD PUSH2 0x434 JUMP JUMPDEST PUSH1 0x3 DUP1 SLOAD PUSH1 0x1 PUSH1 0x1 PUSH1 0xA0 SHL SUB NOT AND PUSH1 0x1 PUSH1 0x1 PUSH1 0xA0 SHL SUB SWAP3 SWAP1 SWAP3 AND SWAP2 SWAP1 SWAP2 OR SWAP1 SSTORE JUMP JUMPDEST PUSH2 0x11AF PUSH1 0x40 MLOAD DUP1 PUSH1 0xA0 ADD PUSH1 0x40 MSTORE DUP1 PUSH1 0x0 PUSH1 0x1 PUSH1 0x1 PUSH1 0xA0 SHL SUB AND DUP2 MSTORE PUSH1 0x20 ADD PUSH1 0x60 DUP2 MSTORE PUSH1 0x20 ADD PUSH1 0x0 DUP2 MSTORE PUSH1 0x20 ADD PUSH1 0x0 DUP2 MSTORE PUSH1 0x20 ADD PUSH1 0x0 ISZERO ISZERO DUP2 MSTORE POP SWAP1 JUMP JUMPDEST PUSH1 0x0 DUP3 DUP2 MSTORE PUSH1 0x5 PUSH1 0x20 SWAP1 DUP2 MSTORE PUSH1 0x40 SWAP2 DUP3 SWAP1 KECCAK256 DUP3 MLOAD PUSH1 0xA0 DUP2 ADD SWAP1 SWAP4 MSTORE DUP1 SLOAD PUSH1 0x1 PUSH1 0x1 PUSH1 0xA0 SHL SUB AND DUP4 MSTORE PUSH1 0x1 DUP2 ADD DUP1 SLOAD SWAP2 SWAP3 DUP5 ADD SWAP2 PUSH2 0x11EB SWAP1 PUSH2 0x1BE9 JUMP JUMPDEST DUP1 PUSH1 0x1F ADD PUSH1 0x20 DUP1 SWAP2 DIV MUL PUSH1 0x20 ADD PUSH1 0x40 MLOAD SWAP1 DUP2 ADD PUSH1 0x40 MSTORE DUP1 SWAP3 SWAP2 SWAP1 DUP2 DUP2 MSTORE PUSH1 0x20 ADD DUP3 DUP1 SLOAD PUSH2 0x1217 SWAP1 PUSH2 0x1BE9 JUMP JUMPDEST DUP1 ISZERO PUSH2 0x1264 JUMPI DUP1 PUSH1 0x1F LT PUSH2 0x1239 JUMPI PUSH2 0x100 DUP1 DUP4 SLOAD DIV MUL DUP4 MSTORE SWAP2 PUSH1 0x20 ADD SWAP2 PUSH2 0x1264 JUMP JUMPDEST DUP3 ADD SWAP2 SWAP1 PUSH1 0x0 MSTORE PUSH1 0x20 PUSH1 0x0 KECCAK256 SWAP1 JUMPDEST DUP2 SLOAD DUP2 MSTORE SWAP1 PUSH1 0x1 ADD SWAP1 PUSH1 0x20 ADD DUP1 DUP4 GT PUSH2 0x1247 JUMPI DUP3 SWAP1 SUB PUSH1 0x1F AND DUP3 ADD SWAP2 JUMPDEST POP POP POP SWAP2 DUP4 MSTORE POP POP PUSH1 0x2 DUP3 ADD SLOAD PUSH1 0x20 DUP3 ADD MSTORE PUSH1 0x3 DUP3 ADD SLOAD PUSH1 0x40 DUP3 ADD MSTORE PUSH1 0x4 SWAP1 SWAP2 ADD SLOAD PUSH1 0xFF AND ISZERO ISZERO PUSH1 0x60 SWAP1 SWAP2 ADD MSTORE SWAP3 SWAP2 POP POP JUMP JUMPDEST PUSH2 0x129F PUSH2 0x16D6 JUMP JUMPDEST PUSH1 0x1 PUSH1 0x1 PUSH1 0xA0 SHL SUB DUP2 AND PUSH2 0x12E7 JUMPI PUSH1 0x40 MLOAD PUSH3 0x461BCD PUSH1 0xE5 SHL DUP2 MSTORE PUSH1 0x20 PUSH1 0x4 DUP3 ADD MSTORE PUSH1 0xF PUSH1 0x24 DUP3 ADD MSTORE PUSH15 0x496E76616C69642061646472657373 PUSH1 0x88 SHL PUSH1 0x44 DUP3 ADD MSTORE PUSH1 0x64 ADD PUSH2 0x434 JUMP JUMPDEST PUSH1 0x2 DUP1 SLOAD PUSH1 0x1 PUSH1 0x1 PUSH1 0xA0 SHL SUB NOT AND PUSH1 0x1 PUSH1 0x1 PUSH1 0xA0 SHL SUB SWAP3 SWAP1 SWAP3 AND SWAP2 SWAP1 SWAP2 OR SWAP1 SSTORE JUMP JUMPDEST PUSH2 0x1311 PUSH2 0x16D6 JUMP JUMPDEST PUSH1 0x1 PUSH1 0x1 PUSH1 0xA0 SHL SUB DUP2 AND PUSH2 0x133B JUMPI PUSH1 0x40 MLOAD PUSH4 0x1E4FBDF7 PUSH1 0xE0 SHL DUP2 MSTORE PUSH1 0x0 PUSH1 0x4 DUP3 ADD MSTORE PUSH1 0x24 ADD PUSH2 0x434 JUMP JUMPDEST PUSH2 0x1344 DUP2 PUSH2 0x1703 JUMP JUMPDEST POP JUMP JUMPDEST PUSH1 0x1 PUSH1 0x1 PUSH1 0xA0 SHL SUB DUP1 DUP5 AND PUSH1 0x0 SWAP1 DUP2 MSTORE PUSH1 0x4 PUSH1 0x20 MSTORE PUSH1 0x40 DUP2 KECCAK256 PUSH1 0x2 ADD SLOAD SWAP1 SWAP2 DUP6 SWAP2 AND CALLER EQ PUSH2 0x13B7 JUMPI PUSH1 0x40 MLOAD PUSH3 0x461BCD PUSH1 0xE5 SHL DUP2 MSTORE PUSH1 0x20 PUSH1 0x4 DUP3 ADD MSTORE PUSH1 0x1A PUSH1 0x24 DUP3 ADD MSTORE PUSH32 0x4E6F7420746865206F776E6572206F6620746865206167656E74000000000000 PUSH1 0x44 DUP3 ADD MSTORE PUSH1 0x64 ADD PUSH2 0x434 JUMP JUMPDEST PUSH1 0x2 SLOAD PUSH1 0x40 MLOAD PUSH4 0xB405166B PUSH1 0xE0 SHL DUP2 MSTORE PUSH1 0x1 PUSH1 0x1 PUSH1 0xA0 SHL SUB SWAP1 SWAP2 AND SWAP1 PUSH4 0xB405166B SWAP1 PUSH2 0x13E7 SWAP1 DUP8 SWAP1 PUSH1 0x4 ADD PUSH2 0x1F33 JUMP JUMPDEST PUSH1 0x20 PUSH1 0x40 MLOAD DUP1 DUP4 SUB DUP2 DUP7 GAS STATICCALL ISZERO DUP1 ISZERO PUSH2 0x1404 JUMPI RETURNDATASIZE PUSH1 0x0 DUP1 RETURNDATACOPY RETURNDATASIZE PUSH1 0x0 REVERT JUMPDEST POP POP POP POP PUSH1 0x40 MLOAD RETURNDATASIZE PUSH1 0x1F NOT PUSH1 0x1F DUP3 ADD AND DUP3 ADD DUP1 PUSH1 0x40 MSTORE POP DUP2 ADD SWAP1 PUSH2 0x1428 SWAP2 SWAP1 PUSH2 0x1F46 JUMP JUMPDEST PUSH2 0x146D JUMPI PUSH1 0x40 MLOAD PUSH3 0x461BCD PUSH1 0xE5 SHL DUP2 MSTORE PUSH1 0x20 PUSH1 0x4 DUP3 ADD MSTORE PUSH1 0x16 PUSH1 0x24 DUP3 ADD MSTORE PUSH22 0x14D95C9D9A58D9481B9BDD081C9959DA5CDD195C9959 PUSH1 0x52 SHL PUSH1 0x44 DUP3 ADD MSTORE PUSH1 0x64 ADD PUSH2 0x434 JUMP JUMPDEST PUSH1 0x40 DUP1 MLOAD PUSH1 0xA0 DUP2 ADD DUP3 MSTORE PUSH1 0x1 PUSH1 0x1 PUSH1 0xA0 SHL SUB DUP8 DUP2 AND DUP3 MSTORE PUSH1 0x20 DUP1 DUP4 ADD DUP9 DUP2 MSTORE DUP4 DUP6 ADD DUP9 SWAP1 MSTORE PUSH1 0x6 SLOAD PUSH1 0x60 DUP6 ADD DUP2 SWAP1 MSTORE PUSH1 0x1 PUSH1 0x80 DUP7 ADD DUP2 SWAP1 MSTORE PUSH1 0x0 SWAP2 DUP3 MSTORE PUSH1 0x5 SWAP1 SWAP4 MSTORE SWAP5 SWAP1 SWAP5 KECCAK256 DUP4 MLOAD DUP2 SLOAD PUSH1 0x1 PUSH1 0x1 PUSH1 0xA0 SHL SUB NOT AND SWAP4 AND SWAP3 SWAP1 SWAP3 OR DUP3 SSTORE SWAP3 MLOAD SWAP2 SWAP3 DUP4 SWAP3 SWAP1 DUP3 ADD SWAP1 PUSH2 0x14DD SWAP1 DUP3 PUSH2 0x1DAD JUMP JUMPDEST POP PUSH1 0x40 DUP3 ADD MLOAD PUSH1 0x2 DUP3 ADD SSTORE PUSH1 0x60 DUP3 ADD MLOAD PUSH1 0x3 DUP3 ADD SSTORE PUSH1 0x80 SWAP1 SWAP2 ADD MLOAD PUSH1 0x4 SWAP1 SWAP2 ADD DUP1 SLOAD PUSH1 0xFF NOT AND SWAP2 ISZERO ISZERO SWAP2 SWAP1 SWAP2 OR SWAP1 SSTORE PUSH1 0x6 DUP1 SLOAD SWAP1 PUSH1 0x0 PUSH2 0x151C DUP4 PUSH2 0x2082 JUMP JUMPDEST SWAP2 SWAP1 POP SSTORE POP DUP6 PUSH1 0x1 PUSH1 0x1 PUSH1 0xA0 SHL SUB AND PUSH32 0xE194E0BC2279ADB185C748AE57DB10FE2EF1005A1B5646F96235A881C88DDB79 DUP3 PUSH1 0x60 ADD MLOAD DUP8 DUP8 PUSH1 0x40 MLOAD PUSH2 0x1562 SWAP4 SWAP3 SWAP2 SWAP1 PUSH2 0x21CA JUMP JUMPDEST PUSH1 0x40 MLOAD DUP1 SWAP2 SUB SWAP1 LOG2 PUSH1 0x1 PUSH1 0x6 SLOAD PUSH2 0x1579 SWAP2 SWAP1 PUSH2 0x2159 JUMP JUMPDEST SWAP7 SWAP6 POP POP POP POP POP POP JUMP JUMPDEST PUSH1 0x4 PUSH1 0x20 MSTORE PUSH1 0x0 SWAP1 DUP2 MSTORE PUSH1 0x40 SWAP1 KECCAK256 DUP1 SLOAD DUP2 SWAP1 PUSH2 0x159E SWAP1 PUSH2 0x1BE9 JUMP JUMPDEST DUP1 PUSH1 0x1F ADD PUSH1 0x20 DUP1 SWAP2 DIV MUL PUSH1 0x20 ADD PUSH1 0x40 MLOAD SWAP1 DUP2 ADD PUSH1 0x40 MSTORE DUP1 SWAP3 SWAP2 SWAP1 DUP2 DUP2 MSTORE PUSH1 0x20 ADD DUP3 DUP1 SLOAD PUSH2 0x15CA SWAP1 PUSH2 0x1BE9 JUMP JUMPDEST DUP1 ISZERO PUSH2 0x1617 JUMPI DUP1 PUSH1 0x1F LT PUSH2 0x15EC JUMPI PUSH2 0x100 DUP1 DUP4 SLOAD DIV MUL DUP4 MSTORE SWAP2 PUSH1 0x20 ADD SWAP2 PUSH2 0x1617 JUMP JUMPDEST DUP3 ADD SWAP2 SWAP1 PUSH1 0x0 MSTORE PUSH1 0x20 PUSH1 0x0 KECCAK256 SWAP1 JUMPDEST DUP2 SLOAD DUP2 MSTORE SWAP1 PUSH1 0x1 ADD SWAP1 PUSH1 0x20 ADD DUP1 DUP4 GT PUSH2 0x15FA JUMPI DUP3 SWAP1 SUB PUSH1 0x1F AND DUP3 ADD SWAP2 JUMPDEST POP POP POP POP POP SWAP1 DUP1 PUSH1 0x1 ADD DUP1 SLOAD PUSH2 0x162C SWAP1 PUSH2 0x1BE9 JUMP JUMPDEST DUP1 PUSH1 0x1F ADD PUSH1 0x20 DUP1 SWAP2 DIV MUL PUSH1 0x20 ADD PUSH1 0x40 MLOAD SWAP1 DUP2 ADD PUSH1 0x40 MSTORE DUP1 SWAP3 SWAP2 SWAP1 DUP2 DUP2 MSTORE PUSH1 0x20 ADD DUP3 DUP1 SLOAD PUSH2 0x1658 SWAP1 PUSH2 0x1BE9 JUMP JUMPDEST DUP1 ISZERO PUSH2 0x16A5 JUMPI DUP1 PUSH1 0x1F LT PUSH2 0x167A JUMPI PUSH2 0x100 DUP1 DUP4 SLOAD DIV MUL DUP4 MSTORE SWAP2 PUSH1 0x20 ADD SWAP2 PUSH2 0x16A5 JUMP JUMPDEST DUP3 ADD SWAP2 SWAP1 PUSH1 0x0 MSTORE PUSH1 0x20 PUSH1 0x0 KECCAK256 SWAP1 JUMPDEST DUP2 SLOAD DUP2 MSTORE SWAP1 PUSH1 0x1 ADD SWAP1 PUSH1 0x20 ADD DUP1 DUP4 GT PUSH2 0x1688 JUMPI DUP3 SWAP1 SUB PUSH1 0x1F AND DUP3 ADD SWAP2 JUMPDEST POP POP POP POP PUSH1 0x2 DUP4 ADD SLOAD PUSH1 0x3 DUP5 ADD SLOAD PUSH1 0x4 DUP6 ADD SLOAD PUSH1 0x5 SWAP1 SWAP6 ADD SLOAD SWAP4 SWAP5 PUSH1 0x1 PUSH1 0x1 PUSH1 0xA0 SHL SUB SWAP3 DUP4 AND SWAP5 SWAP3 SWAP1 SWAP2 AND SWAP3 POP SWAP1 DUP7 JUMP JUMPDEST PUSH1 0x0 SLOAD PUSH1 0x1 PUSH1 0x1 PUSH1 0xA0 SHL SUB AND CALLER EQ PUSH2 0xAEE JUMPI PUSH1 0x40 MLOAD PUSH4 0x118CDAA7 PUSH1 0xE0 SHL DUP2 MSTORE CALLER PUSH1 0x4 DUP3 ADD MSTORE PUSH1 0x24 ADD PUSH2 0x434 JUMP JUMPDEST PUSH1 0x0 DUP1 SLOAD PUSH1 0x1 PUSH1 0x1 PUSH1 0xA0 SHL SUB DUP4 DUP2 AND PUSH1 0x1 PUSH1 0x1 PUSH1 0xA0 SHL SUB NOT DUP4 AND DUP2 OR DUP5 SSTORE PUSH1 0x40 MLOAD SWAP2 SWAP1 SWAP3 AND SWAP3 DUP4 SWAP2 PUSH32 0x8BE0079C531659141344CD1FD0A4F28419497F9722A3DAAFE3B4186F6B6457E0 SWAP2 SWAP1 LOG3 POP POP JUMP JUMPDEST POP DUP1 SLOAD PUSH2 0x175F SWAP1 PUSH2 0x1BE9 JUMP JUMPDEST PUSH1 0x0 DUP3 SSTORE DUP1 PUSH1 0x1F LT PUSH2 0x176F JUMPI POP POP JUMP JUMPDEST PUSH1 0x1F ADD PUSH1 0x20 SWAP1 DIV SWAP1 PUSH1 0x0 MSTORE PUSH1 0x20 PUSH1 0x0 KECCAK256 SWAP1 DUP2 ADD SWAP1 PUSH2 0x1344 SWAP2 SWAP1 JUMPDEST DUP1 DUP3 GT ISZERO PUSH2 0x179D JUMPI PUSH1 0x0 DUP2 SSTORE PUSH1 0x1 ADD PUSH2 0x1789 JUMP JUMPDEST POP SWAP1 JUMP JUMPDEST PUSH1 0x0 PUSH1 0x20 DUP3 DUP5 SUB SLT ISZERO PUSH2 0x17B3 JUMPI PUSH1 0x0 DUP1 REVERT JUMPDEST POP CALLDATALOAD SWAP2 SWAP1 POP JUMP JUMPDEST PUSH1 0x0 JUMPDEST DUP4 DUP2 LT ISZERO PUSH2 0x17D5 JUMPI DUP2 DUP2 ADD MLOAD DUP4 DUP3 ADD MSTORE PUSH1 0x20 ADD PUSH2 0x17BD JUMP JUMPDEST POP POP PUSH1 0x0 SWAP2 ADD MSTORE JUMP JUMPDEST PUSH1 0x0 DUP2 MLOAD DUP1 DUP5 MSTORE PUSH2 0x17F6 DUP2 PUSH1 0x20 DUP7 ADD PUSH1 0x20 DUP7 ADD PUSH2 0x17BA JUMP JUMPDEST PUSH1 0x1F ADD PUSH1 0x1F NOT AND SWAP3 SWAP1 SWAP3 ADD PUSH1 0x20 ADD SWAP3 SWAP2 POP POP JUMP JUMPDEST PUSH1 0x1 PUSH1 0x1 PUSH1 0xA0 SHL SUB DUP7 AND DUP2 MSTORE PUSH1 0xA0 PUSH1 0x20 DUP3 ADD DUP2 SWAP1 MSTORE PUSH1 0x0 SWAP1 PUSH2 0x182E SWAP1 DUP4 ADD DUP8 PUSH2 0x17DE JUMP JUMPDEST PUSH1 0x40 DUP4 ADD SWAP6 SWAP1 SWAP6 MSTORE POP PUSH1 0x60 DUP2 ADD SWAP3 SWAP1 SWAP3 MSTORE ISZERO ISZERO PUSH1 0x80 SWAP1 SWAP2 ADD MSTORE SWAP3 SWAP2 POP POP JUMP JUMPDEST PUSH1 0x1 PUSH1 0x1 PUSH1 0xA0 SHL SUB DUP2 AND DUP2 EQ PUSH2 0x1344 JUMPI PUSH1 0x0 DUP1 REVERT JUMPDEST PUSH1 0x0 PUSH1 0x20 DUP3 DUP5 SUB SLT ISZERO PUSH2 0x1874 JUMPI PUSH1 0x0 DUP1 REVERT JUMPDEST DUP2 CALLDATALOAD PUSH2 0x187F DUP2 PUSH2 0x184D JUMP JUMPDEST SWAP4 SWAP3 POP POP POP JUMP JUMPDEST PUSH1 0x0 DUP1 PUSH1 0x40 DUP4 DUP6 SUB SLT ISZERO PUSH2 0x1899 JUMPI PUSH1 0x0 DUP1 REVERT JUMPDEST DUP3 CALLDATALOAD PUSH2 0x18A4 DUP2 PUSH2 0x184D JUMP JUMPDEST SWAP5 PUSH1 0x20 SWAP4 SWAP1 SWAP4 ADD CALLDATALOAD SWAP4 POP POP POP JUMP JUMPDEST PUSH4 0x4E487B71 PUSH1 0xE0 SHL PUSH1 0x0 MSTORE PUSH1 0x41 PUSH1 0x4 MSTORE PUSH1 0x24 PUSH1 0x0 REVERT JUMPDEST PUSH1 0x40 MLOAD PUSH1 0xC0 DUP2 ADD PUSH8 0xFFFFFFFFFFFFFFFF DUP2 GT DUP3 DUP3 LT OR ISZERO PUSH2 0x18EB JUMPI PUSH2 0x18EB PUSH2 0x18B2 JUMP JUMPDEST PUSH1 0x40 MSTORE SWAP1 JUMP JUMPDEST PUSH1 0x40 MLOAD PUSH1 0x60 DUP2 ADD PUSH8 0xFFFFFFFFFFFFFFFF DUP2 GT DUP3 DUP3 LT OR ISZERO PUSH2 0x18EB JUMPI PUSH2 0x18EB PUSH2 0x18B2 JUMP JUMPDEST PUSH1 0x40 MLOAD PUSH1 0x1F DUP3 ADD PUSH1 0x1F NOT AND DUP2 ADD PUSH8 0xFFFFFFFFFFFFFFFF DUP2 GT DUP3 DUP3 LT OR ISZERO PUSH2 0x193D JUMPI PUSH2 0x193D PUSH2 0x18B2 JUMP JUMPDEST PUSH1 0x40 MSTORE SWAP2 SWAP1 POP JUMP JUMPDEST PUSH1 0x0 PUSH8 0xFFFFFFFFFFFFFFFF DUP3 GT ISZERO PUSH2 0x195F JUMPI PUSH2 0x195F PUSH2 0x18B2 JUMP JUMPDEST POP PUSH1 0x1F ADD PUSH1 0x1F NOT AND PUSH1 0x20 ADD SWAP1 JUMP JUMPDEST PUSH1 0x0 DUP3 PUSH1 0x1F DUP4 ADD SLT PUSH2 0x197E JUMPI PUSH1 0x0 DUP1 REVERT JUMPDEST DUP2 CALLDATALOAD PUSH2 0x1991 PUSH2 0x198C DUP3 PUSH2 0x1945 JUMP JUMPDEST PUSH2 0x1914 JUMP JUMPDEST DUP2 DUP2 MSTORE DUP5 PUSH1 0x20 DUP4 DUP7 ADD ADD GT ISZERO PUSH2 0x19A6 JUMPI PUSH1 0x0 DUP1 REVERT JUMPDEST DUP2 PUSH1 0x20 DUP6 ADD PUSH1 0x20 DUP4 ADD CALLDATACOPY PUSH1 0x0 SWAP2 DUP2 ADD PUSH1 0x20 ADD SWAP2 SWAP1 SWAP2 MSTORE SWAP4 SWAP3 POP POP POP JUMP JUMPDEST PUSH1 0x0 DUP1 PUSH1 0x0 DUP1 PUSH1 0x0 PUSH1 0xA0 DUP7 DUP9 SUB SLT ISZERO PUSH2 0x19DB JUMPI PUSH1 0x0 DUP1 REVERT JUMPDEST DUP6 CALLDATALOAD PUSH2 0x19E6 DUP2 PUSH2 0x184D JUMP JUMPDEST SWAP5 POP PUSH1 0x20 DUP7 ADD CALLDATALOAD PUSH8 0xFFFFFFFFFFFFFFFF DUP1 DUP3 GT ISZERO PUSH2 0x1A03 JUMPI PUSH1 0x0 DUP1 REVERT JUMPDEST PUSH2 0x1A0F DUP10 DUP4 DUP11 ADD PUSH2 0x196D JUMP JUMPDEST SWAP6 POP PUSH1 0x40 DUP9 ADD CALLDATALOAD SWAP2 POP DUP1 DUP3 GT ISZERO PUSH2 0x1A25 JUMPI PUSH1 0x0 DUP1 REVERT JUMPDEST PUSH2 0x1A31 DUP10 DUP4 DUP11 ADD PUSH2 0x196D JUMP JUMPDEST SWAP5 POP PUSH1 0x60 DUP9 ADD CALLDATALOAD SWAP2 POP DUP1 DUP3 GT ISZERO PUSH2 0x1A47 JUMPI PUSH1 0x0 DUP1 REVERT JUMPDEST POP PUSH2 0x1A54 DUP9 DUP3 DUP10 ADD PUSH2 0x196D JUMP JUMPDEST SWAP6 SWAP9 SWAP5 SWAP8 POP SWAP3 SWAP6 PUSH1 0x80 ADD CALLDATALOAD SWAP4 SWAP3 POP POP POP JUMP JUMPDEST PUSH1 0x20 DUP2 MSTORE PUSH1 0x0 DUP3 MLOAD PUSH1 0xC0 PUSH1 0x20 DUP5 ADD MSTORE PUSH2 0x1A82 PUSH1 0xE0 DUP5 ADD DUP3 PUSH2 0x17DE JUMP JUMPDEST SWAP1 POP PUSH1 0x20 DUP5 ADD MLOAD PUSH1 0x1F NOT DUP5 DUP4 SUB ADD PUSH1 0x40 DUP6 ADD MSTORE PUSH2 0x1A9F DUP3 DUP3 PUSH2 0x17DE JUMP JUMPDEST SWAP2 POP POP PUSH1 0x40 DUP5 ADD MLOAD PUSH1 0x1 DUP1 PUSH1 0xA0 SHL SUB DUP1 DUP3 AND PUSH1 0x60 DUP7 ADD MSTORE DUP1 PUSH1 0x60 DUP8 ADD MLOAD AND PUSH1 0x80 DUP7 ADD MSTORE POP POP PUSH1 0x80 DUP5 ADD MLOAD PUSH1 0xA0 DUP5 ADD MSTORE PUSH1 0xA0 DUP5 ADD MLOAD PUSH1 0xC0 DUP5 ADD MSTORE DUP1 SWAP2 POP POP SWAP3 SWAP2 POP POP JUMP JUMPDEST PUSH1 0x20 DUP1 DUP3 MSTORE DUP3 MLOAD PUSH1 0x1 PUSH1 0x1 PUSH1 0xA0 SHL SUB AND DUP3 DUP3 ADD MSTORE DUP3 ADD MLOAD PUSH1 0xA0 PUSH1 0x40 DUP4 ADD MSTORE PUSH1 0x0 SWAP1 PUSH2 0x1B10 PUSH1 0xC0 DUP5 ADD DUP3 PUSH2 0x17DE JUMP JUMPDEST SWAP1 POP PUSH1 0x40 DUP5 ADD MLOAD PUSH1 0x60 DUP5 ADD MSTORE PUSH1 0x60 DUP5 ADD MLOAD PUSH1 0x80 DUP5 ADD MSTORE PUSH1 0x80 DUP5 ADD MLOAD ISZERO ISZERO PUSH1 0xA0 DUP5 ADD MSTORE DUP1 SWAP2 POP POP SWAP3 SWAP2 POP POP JUMP JUMPDEST PUSH1 0x0 DUP1 PUSH1 0x0 PUSH1 0x60 DUP5 DUP7 SUB SLT ISZERO PUSH2 0x1B51 JUMPI PUSH1 0x0 DUP1 REVERT JUMPDEST DUP4 CALLDATALOAD PUSH2 0x1B5C DUP2 PUSH2 0x184D JUMP JUMPDEST SWAP3 POP PUSH1 0x20 DUP5 ADD CALLDATALOAD PUSH8 0xFFFFFFFFFFFFFFFF DUP2 GT ISZERO PUSH2 0x1B78 JUMPI PUSH1 0x0 DUP1 REVERT JUMPDEST PUSH2 0x1B84 DUP7 DUP3 DUP8 ADD PUSH2 0x196D JUMP JUMPDEST SWAP3 POP POP PUSH1 0x40 DUP5 ADD CALLDATALOAD SWAP1 POP SWAP3 POP SWAP3 POP SWAP3 JUMP JUMPDEST PUSH1 0xC0 DUP2 MSTORE PUSH1 0x0 PUSH2 0x1BA8 PUSH1 0xC0 DUP4 ADD DUP10 PUSH2 0x17DE JUMP JUMPDEST DUP3 DUP2 SUB PUSH1 0x20 DUP5 ADD MSTORE PUSH2 0x1BBA DUP2 DUP10 PUSH2 0x17DE JUMP JUMPDEST PUSH1 0x1 PUSH1 0x1 PUSH1 0xA0 SHL SUB SWAP8 DUP9 AND PUSH1 0x40 DUP6 ADD MSTORE SWAP6 SWAP1 SWAP7 AND PUSH1 0x60 DUP4 ADD MSTORE POP PUSH1 0x80 DUP2 ADD SWAP3 SWAP1 SWAP3 MSTORE PUSH1 0xA0 SWAP1 SWAP2 ADD MSTORE SWAP4 SWAP3 POP POP POP JUMP JUMPDEST PUSH1 0x1 DUP2 DUP2 SHR SWAP1 DUP3 AND DUP1 PUSH2 0x1BFD JUMPI PUSH1 0x7F DUP3 AND SWAP2 POP JUMPDEST PUSH1 0x20 DUP3 LT DUP2 SUB PUSH2 0x1C1D JUMPI PUSH4 0x4E487B71 PUSH1 0xE0 SHL PUSH1 0x0 MSTORE PUSH1 0x22 PUSH1 0x4 MSTORE PUSH1 0x24 PUSH1 0x0 REVERT JUMPDEST POP SWAP2 SWAP1 POP JUMP JUMPDEST PUSH1 0x0 DUP3 PUSH1 0x1F DUP4 ADD SLT PUSH2 0x1C34 JUMPI PUSH1 0x0 DUP1 REVERT JUMPDEST DUP2 MLOAD PUSH2 0x1C42 PUSH2 0x198C DUP3 PUSH2 0x1945 JUMP JUMPDEST DUP2 DUP2 MSTORE DUP5 PUSH1 0x20 DUP4 DUP7 ADD ADD GT ISZERO PUSH2 0x1C57 JUMPI PUSH1 0x0 DUP1 REVERT JUMPDEST PUSH2 0x1C68 DUP3 PUSH1 0x20 DUP4 ADD PUSH1 0x20 DUP8 ADD PUSH2 0x17BA JUMP JUMPDEST SWAP5 SWAP4 POP POP POP POP JUMP JUMPDEST DUP1 MLOAD PUSH2 0x1C7B DUP2 PUSH2 0x184D JUMP JUMPDEST SWAP2 SWAP1 POP JUMP JUMPDEST DUP1 MLOAD DUP1 ISZERO ISZERO DUP2 EQ PUSH2 0x1C7B JUMPI PUSH1 0x0 DUP1 REVERT JUMPDEST PUSH1 0x0 PUSH1 0x20 DUP3 DUP5 SUB SLT ISZERO PUSH2 0x1CA2 JUMPI PUSH1 0x0 DUP1 REVERT JUMPDEST DUP2 MLOAD PUSH8 0xFFFFFFFFFFFFFFFF DUP1 DUP3 GT ISZERO PUSH2 0x1CBA JUMPI PUSH1 0x0 DUP1 REVERT JUMPDEST SWAP1 DUP4 ADD SWAP1 PUSH1 0xC0 DUP3 DUP7 SUB SLT ISZERO PUSH2 0x1CCE JUMPI PUSH1 0x0 DUP1 REVERT JUMPDEST PUSH2 0x1CD6 PUSH2 0x18C8 JUMP JUMPDEST DUP3 MLOAD DUP3 DUP2 GT ISZERO PUSH2 0x1CE5 JUMPI PUSH1 0x0 DUP1 REVERT JUMPDEST PUSH2 0x1CF1 DUP8 DUP3 DUP7 ADD PUSH2 0x1C23 JUMP JUMPDEST DUP3 MSTORE POP PUSH1 0x20 DUP4 ADD MLOAD DUP3 DUP2 GT ISZERO PUSH2 0x1D06 JUMPI PUSH1 0x0 DUP1 REVERT JUMPDEST PUSH2 0x1D12 DUP8 DUP3 DUP7 ADD PUSH2 0x1C23 JUMP JUMPDEST PUSH1 0x20 DUP4 ADD MSTORE POP PUSH2 0x1D24 PUSH1 0x40 DUP5 ADD PUSH2 0x1C70 JUMP JUMPDEST PUSH1 0x40 DUP3 ADD MSTORE PUSH2 0x1D35 PUSH1 0x60 DUP5 ADD PUSH2 0x1C70 JUMP JUMPDEST PUSH1 0x60 DUP3 ADD MSTORE PUSH1 0x80 DUP4 ADD MLOAD PUSH1 0x80 DUP3 ADD MSTORE PUSH2 0x1D50 PUSH1 0xA0 DUP5 ADD PUSH2 0x1C80 JUMP JUMPDEST PUSH1 0xA0 DUP3 ADD MSTORE SWAP6 SWAP5 POP POP POP POP POP JUMP JUMPDEST PUSH1 0x1F DUP3 GT ISZERO PUSH2 0x1DA8 JUMPI PUSH1 0x0 DUP2 DUP2 MSTORE PUSH1 0x20 DUP2 KECCAK256 PUSH1 0x1F DUP6 ADD PUSH1 0x5 SHR DUP2 ADD PUSH1 0x20 DUP7 LT ISZERO PUSH2 0x1D85 JUMPI POP DUP1 JUMPDEST PUSH1 0x1F DUP6 ADD PUSH1 0x5 SHR DUP3 ADD SWAP2 POP JUMPDEST DUP2 DUP2 LT ISZERO PUSH2 0x1DA4 JUMPI DUP3 DUP2 SSTORE PUSH1 0x1 ADD PUSH2 0x1D91 JUMP JUMPDEST POP POP POP JUMPDEST POP POP POP JUMP JUMPDEST DUP2 MLOAD PUSH8 0xFFFFFFFFFFFFFFFF DUP2 GT ISZERO PUSH2 0x1DC7 JUMPI PUSH2 0x1DC7 PUSH2 0x18B2 JUMP JUMPDEST PUSH2 0x1DDB DUP2 PUSH2 0x1DD5 DUP5 SLOAD PUSH2 0x1BE9 JUMP JUMPDEST DUP5 PUSH2 0x1D5E JUMP JUMPDEST PUSH1 0x20 DUP1 PUSH1 0x1F DUP4 GT PUSH1 0x1 DUP2 EQ PUSH2 0x1E10 JUMPI PUSH1 0x0 DUP5 ISZERO PUSH2 0x1DF8 JUMPI POP DUP6 DUP4 ADD MLOAD JUMPDEST PUSH1 0x0 NOT PUSH1 0x3 DUP7 SWAP1 SHL SHR NOT AND PUSH1 0x1 DUP6 SWAP1 SHL OR DUP6 SSTORE PUSH2 0x1DA4 JUMP JUMPDEST PUSH1 0x0 DUP6 DUP2 MSTORE PUSH1 0x20 DUP2 KECCAK256 PUSH1 0x1F NOT DUP7 AND SWAP2 JUMPDEST DUP3 DUP2 LT ISZERO PUSH2 0x1E3F JUMPI DUP9 DUP7 ADD MLOAD DUP3 SSTORE SWAP5 DUP5 ADD SWAP5 PUSH1 0x1 SWAP1 SWAP2 ADD SWAP1 DUP5 ADD PUSH2 0x1E20 JUMP JUMPDEST POP DUP6 DUP3 LT ISZERO PUSH2 0x1E5D JUMPI DUP8 DUP6 ADD MLOAD PUSH1 0x0 NOT PUSH1 0x3 DUP9 SWAP1 SHL PUSH1 0xF8 AND SHR NOT AND DUP2 SSTORE JUMPDEST POP POP POP POP POP PUSH1 0x1 SWAP1 DUP2 SHL ADD SWAP1 SSTORE POP JUMP JUMPDEST PUSH1 0x0 PUSH1 0x20 DUP3 DUP5 SUB SLT ISZERO PUSH2 0x1E7F JUMPI PUSH1 0x0 DUP1 REVERT JUMPDEST POP MLOAD SWAP2 SWAP1 POP JUMP JUMPDEST PUSH1 0x0 PUSH1 0x20 DUP3 DUP5 SUB SLT ISZERO PUSH2 0x1E98 JUMPI PUSH1 0x0 DUP1 REVERT JUMPDEST DUP2 MLOAD PUSH8 0xFFFFFFFFFFFFFFFF DUP1 DUP3 GT ISZERO PUSH2 0x1EB0 JUMPI PUSH1 0x0 DUP1 REVERT JUMPDEST SWAP1 DUP4 ADD SWAP1 PUSH1 0x80 DUP3 DUP7 SUB SLT ISZERO PUSH2 0x1EC4 JUMPI PUSH1 0x0 DUP1 REVERT JUMPDEST PUSH1 0x40 MLOAD PUSH1 0x80 DUP2 ADD DUP2 DUP2 LT DUP4 DUP3 GT OR ISZERO PUSH2 0x1EDF JUMPI PUSH2 0x1EDF PUSH2 0x18B2 JUMP JUMPDEST PUSH1 0x40 MSTORE DUP3 MLOAD PUSH2 0x1EED DUP2 PUSH2 0x184D JUMP JUMPDEST DUP2 MSTORE PUSH1 0x20 DUP4 ADD MLOAD DUP3 DUP2 GT ISZERO PUSH2 0x1F01 JUMPI PUSH1 0x0 DUP1 REVERT JUMPDEST PUSH2 0x1F0D DUP8 DUP3 DUP7 ADD PUSH2 0x1C23 JUMP JUMPDEST PUSH1 0x20 DUP4 ADD MSTORE POP PUSH1 0x40 DUP4 ADD MLOAD PUSH1 0x40 DUP3 ADD MSTORE PUSH1 0x60 DUP4 ADD MLOAD PUSH1 0x60 DUP3 ADD MSTORE DUP1 SWAP4 POP POP POP POP SWAP3 SWAP2 POP POP JUMP JUMPDEST PUSH1 0x20 DUP2 MSTORE PUSH1 0x0 PUSH2 0x187F PUSH1 0x20 DUP4 ADD DUP5 PUSH2 0x17DE JUMP JUMPDEST PUSH1 0x0 PUSH1 0x20 DUP3 DUP5 SUB SLT ISZERO PUSH2 0x1F58 JUMPI PUSH1 0x0 DUP1 REVERT JUMPDEST PUSH2 0x187F DUP3 PUSH2 0x1C80 JUMP JUMPDEST PUSH1 0x0 PUSH1 0x20 DUP3 DUP5 SUB SLT ISZERO PUSH2 0x1F73 JUMPI PUSH1 0x0 DUP1 REVERT JUMPDEST DUP2 MLOAD PUSH2 0x187F DUP2 PUSH2 0x184D JUMP JUMPDEST PUSH1 0x0 PUSH1 0x20 DUP3 DUP5 SUB SLT ISZERO PUSH2 0x1F90 JUMPI PUSH1 0x0 DUP1 REVERT JUMPDEST DUP2 MLOAD PUSH8 0xFFFFFFFFFFFFFFFF DUP1 DUP3 GT ISZERO PUSH2 0x1FA8 JUMPI PUSH1 0x0 DUP1 REVERT JUMPDEST SWAP1 DUP4 ADD SWAP1 PUSH1 0x60 DUP3 DUP7 SUB SLT ISZERO PUSH2 0x1FBC JUMPI PUSH1 0x0 DUP1 REVERT JUMPDEST PUSH2 0x1FC4 PUSH2 0x18F1 JUMP JUMPDEST DUP3 MLOAD DUP3 DUP2 GT ISZERO PUSH2 0x1FD3 JUMPI PUSH1 0x0 DUP1 REVERT JUMPDEST PUSH2 0x1FDF DUP8 DUP3 DUP7 ADD PUSH2 0x1C23 JUMP JUMPDEST DUP3 MSTORE POP PUSH1 0x20 DUP4 ADD MLOAD DUP3 DUP2 GT ISZERO PUSH2 0x1FF4 JUMPI PUSH1 0x0 DUP1 REVERT JUMPDEST PUSH2 0x2000 DUP8 DUP3 DUP7 ADD PUSH2 0x1C23 JUMP JUMPDEST PUSH1 0x20 DUP4 ADD MSTORE POP PUSH1 0x40 DUP4 ADD MLOAD DUP3 DUP2 GT ISZERO PUSH2 0x2018 JUMPI PUSH1 0x0 DUP1 REVERT JUMPDEST PUSH2 0x2024 DUP8 DUP3 DUP7 ADD PUSH2 0x1C23 JUMP JUMPDEST PUSH1 0x40 DUP4 ADD MSTORE POP SWAP6 SWAP5 POP POP POP POP POP JUMP JUMPDEST PUSH1 0x60 DUP2 MSTORE PUSH1 0x0 PUSH2 0x2046 PUSH1 0x60 DUP4 ADD DUP7 PUSH2 0x17DE JUMP JUMPDEST DUP3 DUP2 SUB PUSH1 0x20 DUP5 ADD MSTORE PUSH2 0x2058 DUP2 DUP7 PUSH2 0x17DE JUMP JUMPDEST SWAP1 POP DUP3 DUP2 SUB PUSH1 0x40 DUP5 ADD MSTORE PUSH2 0x1579 DUP2 DUP6 PUSH2 0x17DE JUMP JUMPDEST PUSH4 0x4E487B71 PUSH1 0xE0 SHL PUSH1 0x0 MSTORE PUSH1 0x11 PUSH1 0x4 MSTORE PUSH1 0x24 PUSH1 0x0 REVERT JUMPDEST PUSH1 0x0 PUSH1 0x1 DUP3 ADD PUSH2 0x2094 JUMPI PUSH2 0x2094 PUSH2 0x206C JUMP JUMPDEST POP PUSH1 0x1 ADD SWAP1 JUMP JUMPDEST PUSH1 0x0 DUP2 SLOAD PUSH2 0x20A8 DUP2 PUSH2 0x1BE9 JUMP JUMPDEST DUP1 DUP6 MSTORE PUSH1 0x20 PUSH1 0x1 DUP4 DUP2 AND DUP1 ISZERO PUSH2 0x20C5 JUMPI PUSH1 0x1 DUP2 EQ PUSH2 0x20DF JUMPI PUSH2 0x210D JUMP JUMPDEST PUSH1 0xFF NOT DUP6 AND DUP9 DUP5 ADD MSTORE DUP4 ISZERO ISZERO PUSH1 0x5 SHL DUP9 ADD DUP4 ADD SWAP6 POP PUSH2 0x210D JUMP JUMPDEST DUP7 PUSH1 0x0 MSTORE DUP3 PUSH1 0x0 KECCAK256 PUSH1 0x0 JUMPDEST DUP6 DUP2 LT ISZERO PUSH2 0x2105 JUMPI DUP2 SLOAD DUP11 DUP3 ADD DUP7 ADD MSTORE SWAP1 DUP4 ADD SWAP1 DUP5 ADD PUSH2 0x20EA JUMP JUMPDEST DUP10 ADD DUP5 ADD SWAP7 POP POP JUMPDEST POP POP POP POP POP SWAP3 SWAP2 POP POP JUMP JUMPDEST PUSH1 0x40 DUP2 MSTORE PUSH1 0x0 PUSH2 0x212B PUSH1 0x40 DUP4 ADD DUP6 PUSH2 0x209B JUMP JUMPDEST DUP3 DUP2 SUB PUSH1 0x20 DUP5 ADD MSTORE PUSH2 0x213D DUP2 DUP6 PUSH2 0x209B JUMP JUMPDEST SWAP6 SWAP5 POP POP POP POP POP JUMP JUMPDEST DUP1 DUP3 ADD DUP1 DUP3 GT ISZERO PUSH2 0xAD6 JUMPI PUSH2 0xAD6 PUSH2 0x206C JUMP JUMPDEST DUP2 DUP2 SUB DUP2 DUP2 GT ISZERO PUSH2 0xAD6 JUMPI PUSH2 0xAD6 PUSH2 0x206C JUMP JUMPDEST DUP1 DUP3 MUL DUP2 ISZERO DUP3 DUP3 DIV DUP5 EQ OR PUSH2 0xAD6 JUMPI PUSH2 0xAD6 PUSH2 0x206C JUMP JUMPDEST PUSH1 0x0 DUP3 PUSH2 0x21A0 JUMPI PUSH4 0x4E487B71 PUSH1 0xE0 SHL PUSH1 0x0 MSTORE PUSH1 0x12 PUSH1 0x4 MSTORE PUSH1 0x24 PUSH1 0x0 REVERT JUMPDEST POP DIV SWAP1 JUMP JUMPDEST PUSH1 0x40 DUP2 MSTORE PUSH1 0x0 PUSH2 0x21B8 PUSH1 0x40 DUP4 ADD DUP6 PUSH2 0x17DE JUMP JUMPDEST DUP3 DUP2 SUB PUSH1 0x20 DUP5 ADD MSTORE PUSH2 0x213D DUP2 DUP6 PUSH2 0x17DE JUMP JUMPDEST DUP4 DUP2 MSTORE PUSH1 0x60 PUSH1 0x20 DUP3 ADD MSTORE PUSH1 0x0 PUSH2 0x21E3 PUSH1 0x60 DUP4 ADD DUP6 PUSH2 0x17DE JUMP JUMPDEST SWAP1 POP DUP3 PUSH1 0x40 DUP4 ADD MSTORE SWAP5 SWAP4 POP POP POP POP JUMP INVALID LOG2 PUSH5 0x6970667358 0x22 SLT KECCAK256 GAS PUSH5 0x18571762B6 0x2A 0xB7 PUSH10 0x610A670CFC1FCE3B9A11 0x25 SWAP15 0xD8 PC PUSH12 0x23A4D8D21D959F64736F6C63 NUMBER STOP ADDMOD EQ STOP CALLER "
        },
        "methodIdentifiers": {
          "addProposal(address,string,uint256)": "f3a1a466",
          "addRating(address,uint256)": "70370a81",
          "agentRegistryV1()": "dca60776",
          "agents(address)": "fd66091e",
          "getAgentData(address)": "aac9f15a",
          "getProposal(uint256)": "c7f758a8",
          "getReputation(address)": "9c89a0e2",
          "migrateAgent(address)": "5c8a4839",
          "nextProposalId()": "2ab09d14",
          "owner()": "8da5cb5b",
          "proposals(uint256)": "013cf08b",
          "registerAgent(address,string,string,string,uint256)": "98366dbd",
          "removeProposal(address,uint256)": "7b5c219d",
          "renounceOwnership()": "715018a6",
          "serviceRegistry()": "cbcf252a",
          "setServiceRegistry(address)": "d7071b1f",
          "setTaskRegistry(address)": "b2d78069",
          "taskRegistry()": "9e498f16",
          "transferOwnership(address)": "f2fde38b"
        }
      }
    }
  }
}