{
  "contracts/EnsembleCredits.sol": {
    "EnsembleCredits": {
      "abi": [
        {
          "inputs": [
            {
              "internalType": "string",
              "name": "name",
              "type": "string"
            },
            {
              "internalType": "string",
              "name": "symbol",
              "type": "string"
            },
            {
              "internalType": "address",
              "name": "initialAdmin",
              "type": "address"
            },
            {
              "internalType": "uint256",
              "name": "initialSupply",
              "type": "uint256"
            }
          ],
          "stateMutability": "nonpayable",
          "type": "constructor"
        },
        {
          "inputs": [],
          "name": "AccessControlBadConfirmation",
          "type": "error"
        },
        {
          "inputs": [
            {
              "internalType": "address",
              "name": "account",
              "type": "address"
            },
            {
              "internalType": "bytes32",
              "name": "neededRole",
              "type": "bytes32"
            }
          ],
          "name": "AccessControlUnauthorizedAccount",
          "type": "error"
        },
        {
          "inputs": [],
          "name": "ApprovalNotAllowed",
          "type": "error"
        },
        {
          "inputs": [
            {
              "internalType": "address",
              "name": "spender",
              "type": "address"
            },
            {
              "internalType": "uint256",
              "name": "allowance",
              "type": "uint256"
            },
            {
              "internalType": "uint256",
              "name": "needed",
              "type": "uint256"
            }
          ],
          "name": "ERC20InsufficientAllowance",
          "type": "error"
        },
        {
          "inputs": [
            {
              "internalType": "address",
              "name": "sender",
              "type": "address"
            },
            {
              "internalType": "uint256",
              "name": "balance",
              "type": "uint256"
            },
            {
              "internalType": "uint256",
              "name": "needed",
              "type": "uint256"
            }
          ],
          "name": "ERC20InsufficientBalance",
          "type": "error"
        },
        {
          "inputs": [
            {
              "internalType": "address",
              "name": "approver",
              "type": "address"
            }
          ],
          "name": "ERC20InvalidApprover",
          "type": "error"
        },
        {
          "inputs": [
            {
              "internalType": "address",
              "name": "receiver",
              "type": "address"
            }
          ],
          "name": "ERC20InvalidReceiver",
          "type": "error"
        },
        {
          "inputs": [
            {
              "internalType": "address",
              "name": "sender",
              "type": "address"
            }
          ],
          "name": "ERC20InvalidSender",
          "type": "error"
        },
        {
          "inputs": [
            {
              "internalType": "address",
              "name": "spender",
              "type": "address"
            }
          ],
          "name": "ERC20InvalidSpender",
          "type": "error"
        },
        {
          "inputs": [],
          "name": "TransferNotAllowed",
          "type": "error"
        },
        {
          "anonymous": false,
          "inputs": [
            {
              "indexed": true,
              "internalType": "address",
              "name": "owner",
              "type": "address"
            },
            {
              "indexed": true,
              "internalType": "address",
              "name": "spender",
              "type": "address"
            },
            {
              "indexed": false,
              "internalType": "uint256",
              "name": "value",
              "type": "uint256"
            }
          ],
          "name": "Approval",
          "type": "event"
        },
        {
          "anonymous": false,
          "inputs": [
            {
              "indexed": true,
              "internalType": "address",
              "name": "from",
              "type": "address"
            },
            {
              "indexed": false,
              "internalType": "uint256",
              "name": "amount",
              "type": "uint256"
            }
          ],
          "name": "Burn",
          "type": "event"
        },
        {
          "anonymous": false,
          "inputs": [
            {
              "indexed": true,
              "internalType": "address",
              "name": "to",
              "type": "address"
            },
            {
              "indexed": false,
              "internalType": "uint256",
              "name": "amount",
              "type": "uint256"
            }
          ],
          "name": "Mint",
          "type": "event"
        },
        {
          "anonymous": false,
          "inputs": [
            {
              "indexed": true,
              "internalType": "address",
              "name": "minter",
              "type": "address"
            }
          ],
          "name": "MinterAdded",
          "type": "event"
        },
        {
          "anonymous": false,
          "inputs": [
            {
              "indexed": true,
              "internalType": "address",
              "name": "minter",
              "type": "address"
            }
          ],
          "name": "MinterRemoved",
          "type": "event"
        },
        {
          "anonymous": false,
          "inputs": [
            {
              "indexed": true,
              "internalType": "bytes32",
              "name": "role",
              "type": "bytes32"
            },
            {
              "indexed": true,
              "internalType": "bytes32",
              "name": "previousAdminRole",
              "type": "bytes32"
            },
            {
              "indexed": true,
              "internalType": "bytes32",
              "name": "newAdminRole",
              "type": "bytes32"
            }
          ],
          "name": "RoleAdminChanged",
          "type": "event"
        },
        {
          "anonymous": false,
          "inputs": [
            {
              "indexed": true,
              "internalType": "bytes32",
              "name": "role",
              "type": "bytes32"
            },
            {
              "indexed": true,
              "internalType": "address",
              "name": "account",
              "type": "address"
            },
            {
              "indexed": true,
              "internalType": "address",
              "name": "sender",
              "type": "address"
            }
          ],
          "name": "RoleGranted",
          "type": "event"
        },
        {
          "anonymous": false,
          "inputs": [
            {
              "indexed": true,
              "internalType": "bytes32",
              "name": "role",
              "type": "bytes32"
            },
            {
              "indexed": true,
              "internalType": "address",
              "name": "account",
              "type": "address"
            },
            {
              "indexed": true,
              "internalType": "address",
              "name": "sender",
              "type": "address"
            }
          ],
          "name": "RoleRevoked",
          "type": "event"
        },
        {
          "anonymous": false,
          "inputs": [
            {
              "indexed": true,
              "internalType": "address",
              "name": "from",
              "type": "address"
            },
            {
              "indexed": true,
              "internalType": "address",
              "name": "to",
              "type": "address"
            },
            {
              "indexed": false,
              "internalType": "uint256",
              "name": "value",
              "type": "uint256"
            }
          ],
          "name": "Transfer",
          "type": "event"
        },
        {
          "inputs": [],
          "name": "DEFAULT_ADMIN_ROLE",
          "outputs": [
            {
              "internalType": "bytes32",
              "name": "",
              "type": "bytes32"
            }
          ],
          "stateMutability": "view",
          "type": "function"
        },
        {
          "inputs": [],
          "name": "MINTER_ROLE",
          "outputs": [
            {
              "internalType": "bytes32",
              "name": "",
              "type": "bytes32"
            }
          ],
          "stateMutability": "view",
          "type": "function"
        },
        {
          "inputs": [
            {
              "internalType": "address",
              "name": "minter",
              "type": "address"
            }
          ],
          "name": "addMinter",
          "outputs": [],
          "stateMutability": "nonpayable",
          "type": "function"
        },
        {
          "inputs": [
            {
              "internalType": "address",
              "name": "",
              "type": "address"
            },
            {
              "internalType": "address",
              "name": "",
              "type": "address"
            }
          ],
          "name": "allowance",
          "outputs": [
            {
              "internalType": "uint256",
              "name": "",
              "type": "uint256"
            }
          ],
          "stateMutability": "pure",
          "type": "function"
        },
        {
          "inputs": [
            {
              "internalType": "address",
              "name": "",
              "type": "address"
            },
            {
              "internalType": "uint256",
              "name": "",
              "type": "uint256"
            }
          ],
          "name": "approve",
          "outputs": [
            {
              "internalType": "bool",
              "name": "",
              "type": "bool"
            }
          ],
          "stateMutability": "pure",
          "type": "function"
        },
        {
          "inputs": [
            {
              "internalType": "address",
              "name": "account",
              "type": "address"
            }
          ],
          "name": "balanceOf",
          "outputs": [
            {
              "internalType": "uint256",
              "name": "",
              "type": "uint256"
            }
          ],
          "stateMutability": "view",
          "type": "function"
        },
        {
          "inputs": [
            {
              "internalType": "uint256",
              "name": "amount",
              "type": "uint256"
            }
          ],
          "name": "burn",
          "outputs": [],
          "stateMutability": "nonpayable",
          "type": "function"
        },
        {
          "inputs": [
            {
              "internalType": "address",
              "name": "from",
              "type": "address"
            },
            {
              "internalType": "uint256",
              "name": "amount",
              "type": "uint256"
            }
          ],
          "name": "burnFrom",
          "outputs": [],
          "stateMutability": "nonpayable",
          "type": "function"
        },
        {
          "inputs": [],
          "name": "decimals",
          "outputs": [
            {
              "internalType": "uint8",
              "name": "",
              "type": "uint8"
            }
          ],
          "stateMutability": "pure",
          "type": "function"
        },
        {
          "inputs": [
            {
              "internalType": "address",
              "name": "",
              "type": "address"
            },
            {
              "internalType": "uint256",
              "name": "",
              "type": "uint256"
            }
          ],
          "name": "decreaseAllowance",
          "outputs": [
            {
              "internalType": "bool",
              "name": "",
              "type": "bool"
            }
          ],
          "stateMutability": "pure",
          "type": "function"
        },
        {
          "inputs": [
            {
              "internalType": "bytes32",
              "name": "role",
              "type": "bytes32"
            }
          ],
          "name": "getRoleAdmin",
          "outputs": [
            {
              "internalType": "bytes32",
              "name": "",
              "type": "bytes32"
            }
          ],
          "stateMutability": "view",
          "type": "function"
        },
        {
          "inputs": [
            {
              "internalType": "bytes32",
              "name": "role",
              "type": "bytes32"
            },
            {
              "internalType": "address",
              "name": "account",
              "type": "address"
            }
          ],
          "name": "grantRole",
          "outputs": [],
          "stateMutability": "nonpayable",
          "type": "function"
        },
        {
          "inputs": [
            {
              "internalType": "bytes32",
              "name": "role",
              "type": "bytes32"
            },
            {
              "internalType": "address",
              "name": "account",
              "type": "address"
            }
          ],
          "name": "hasRole",
          "outputs": [
            {
              "internalType": "bool",
              "name": "",
              "type": "bool"
            }
          ],
          "stateMutability": "view",
          "type": "function"
        },
        {
          "inputs": [
            {
              "internalType": "address",
              "name": "",
              "type": "address"
            },
            {
              "internalType": "uint256",
              "name": "",
              "type": "uint256"
            }
          ],
          "name": "increaseAllowance",
          "outputs": [
            {
              "internalType": "bool",
              "name": "",
              "type": "bool"
            }
          ],
          "stateMutability": "pure",
          "type": "function"
        },
        {
          "inputs": [
            {
              "internalType": "address",
              "name": "account",
              "type": "address"
            }
          ],
          "name": "isMinter",
          "outputs": [
            {
              "internalType": "bool",
              "name": "",
              "type": "bool"
            }
          ],
          "stateMutability": "view",
          "type": "function"
        },
        {
          "inputs": [
            {
              "internalType": "address",
              "name": "to",
              "type": "address"
            },
            {
              "internalType": "uint256",
              "name": "amount",
              "type": "uint256"
            }
          ],
          "name": "mint",
          "outputs": [],
          "stateMutability": "nonpayable",
          "type": "function"
        },
        {
          "inputs": [],
          "name": "name",
          "outputs": [
            {
              "internalType": "string",
              "name": "",
              "type": "string"
            }
          ],
          "stateMutability": "view",
          "type": "function"
        },
        {
          "inputs": [
            {
              "internalType": "address",
              "name": "minter",
              "type": "address"
            }
          ],
          "name": "removeMinter",
          "outputs": [],
          "stateMutability": "nonpayable",
          "type": "function"
        },
        {
          "inputs": [
            {
              "internalType": "bytes32",
              "name": "role",
              "type": "bytes32"
            },
            {
              "internalType": "address",
              "name": "callerConfirmation",
              "type": "address"
            }
          ],
          "name": "renounceRole",
          "outputs": [],
          "stateMutability": "nonpayable",
          "type": "function"
        },
        {
          "inputs": [
            {
              "internalType": "bytes32",
              "name": "role",
              "type": "bytes32"
            },
            {
              "internalType": "address",
              "name": "account",
              "type": "address"
            }
          ],
          "name": "revokeRole",
          "outputs": [],
          "stateMutability": "nonpayable",
          "type": "function"
        },
        {
          "inputs": [
            {
              "internalType": "bytes4",
              "name": "interfaceId",
              "type": "bytes4"
            }
          ],
          "name": "supportsInterface",
          "outputs": [
            {
              "internalType": "bool",
              "name": "",
              "type": "bool"
            }
          ],
          "stateMutability": "view",
          "type": "function"
        },
        {
          "inputs": [],
          "name": "symbol",
          "outputs": [
            {
              "internalType": "string",
              "name": "",
              "type": "string"
            }
          ],
          "stateMutability": "view",
          "type": "function"
        },
        {
          "inputs": [],
          "name": "totalSupply",
          "outputs": [
            {
              "internalType": "uint256",
              "name": "",
              "type": "uint256"
            }
          ],
          "stateMutability": "view",
          "type": "function"
        },
        {
          "inputs": [
            {
              "internalType": "address",
              "name": "",
              "type": "address"
            },
            {
              "internalType": "uint256",
              "name": "",
              "type": "uint256"
            }
          ],
          "name": "transfer",
          "outputs": [
            {
              "internalType": "bool",
              "name": "",
              "type": "bool"
            }
          ],
          "stateMutability": "pure",
          "type": "function"
        },
        {
          "inputs": [
            {
              "internalType": "address",
              "name": "",
              "type": "address"
            },
            {
              "internalType": "address",
              "name": "",
              "type": "address"
            },
            {
              "internalType": "uint256",
              "name": "",
              "type": "uint256"
            }
          ],
          "name": "transferFrom",
          "outputs": [
            {
              "internalType": "bool",
              "name": "",
              "type": "bool"
            }
          ],
          "stateMutability": "pure",
          "type": "function"
        }
      ],
      "evm": {
        "bytecode": {
          "linkReferences": {},
          "object": "60806040523480156200001157600080fd5b50604051620015c2380380620015c28339810160408190526200003491620004a3565b83836003620000448382620005c5565b506004620000538282620005c5565b5050506001600160a01b038216620000c85760405162461bcd60e51b815260206004820152602d60248201527f456e73656d626c65437265646974733a2061646d696e2063616e6e6f7420626560448201526c207a65726f206164647265737360981b60648201526084015b60405180910390fd5b620000d56000836200016f565b50620000f1600080516020620015a2833981519152836200016f565b506200010d600080516020620015a28339815191528062000222565b801562000165576200012082826200026d565b816001600160a01b03167f0f6798a560793a54c3bcfe86a93cde1e73087d944c0ea20544137d4121396885826040516200015c91815260200190565b60405180910390a25b50505050620006b3565b60008281526005602090815260408083206001600160a01b038516845290915281205460ff16620002185760008381526005602090815260408083206001600160a01b03861684529091529020805460ff19166001179055620001cf3390565b6001600160a01b0316826001600160a01b0316847f2f8788117e7eff1d82e926ec794901d17c78024a50270940304540a733656f0d60405160405180910390a45060016200021c565b5060005b92915050565b600082815260056020526040808220600101805490849055905190918391839186917fbd79b86ffe0ab8e8776151514217cd7cacd52c909f66475c3af44e129f0b00ff9190a4505050565b6001600160a01b038216620002995760405163ec442f0560e01b815260006004820152602401620000bf565b620002a760008383620002ab565b5050565b6001600160a01b038316620002da578060026000828254620002ce919062000691565b909155506200034e9050565b6001600160a01b038316600090815260208190526040902054818110156200032f5760405163391434e360e21b81526001600160a01b03851660048201526024810182905260448101839052606401620000bf565b6001600160a01b03841660009081526020819052604090209082900390555b6001600160a01b0382166200036c576002805482900390556200038b565b6001600160a01b03821660009081526020819052604090208054820190555b816001600160a01b0316836001600160a01b03167fddf252ad1be2c89b69c2b068fc378daa952ba7f163c4a11628f55a4df523b3ef83604051620003d191815260200190565b60405180910390a3505050565b634e487b7160e01b600052604160045260246000fd5b600082601f8301126200040657600080fd5b81516001600160401b0380821115620004235762000423620003de565b604051601f8301601f19908116603f011681019082821181831017156200044e576200044e620003de565b816040528381526020925086838588010111156200046b57600080fd5b600091505b838210156200048f578582018301518183018401529082019062000470565b600093810190920192909252949350505050565b60008060008060808587031215620004ba57600080fd5b84516001600160401b0380821115620004d257600080fd5b620004e088838901620003f4565b95506020870151915080821115620004f757600080fd5b506200050687828801620003f4565b604087015190945090506001600160a01b03811681146200052657600080fd5b6060959095015193969295505050565b600181811c908216806200054b57607f821691505b6020821081036200056c57634e487b7160e01b600052602260045260246000fd5b50919050565b601f821115620005c057600081815260208120601f850160051c810160208610156200059b5750805b601f850160051c820191505b81811015620005bc57828155600101620005a7565b5050505b505050565b81516001600160401b03811115620005e157620005e1620003de565b620005f981620005f2845462000536565b8462000572565b602080601f831160018114620006315760008415620006185750858301515b600019600386901b1c1916600185901b178555620005bc565b600085815260208120601f198616915b82811015620006625788860151825594840194600190910190840162000641565b5085821015620006815787850151600019600388901b60f8161c191681555b5050505050600190811b01905550565b808201808211156200021c57634e487b7160e01b600052601160045260246000fd5b610edf80620006c36000396000f3fe608060405234801561001057600080fd5b50600436106101735760003560e01c806342966c68116100de578063a217fddf11610097578063aa271e1a11610071578063aa271e1a14610300578063d539139314610313578063d547741f14610328578063dd62ed3e1461033b57600080fd5b8063a217fddf146102ea578063a457c2d7146101b5578063a9059cbb146102f257600080fd5b806342966c681461026d57806370a082311461028057806379cc6790146102a957806391d14854146102bc57806395d89b41146102cf578063983b2d56146102d757600080fd5b80632f2ff15d116101305780632f2ff15d146102105780633092afd514610225578063313ce5671461023857806336568abe1461024757806339509351146101b557806340c10f191461025a57600080fd5b806301ffc9a71461017857806306fdde03146101a0578063095ea7b3146101b557806318160ddd146101c857806323b872dd146101da578063248a9ca3146101ed575b600080fd5b61018b610186366004610ca3565b610349565b60405190151581526020015b60405180910390f35b6101a8610380565b6040516101979190610cd4565b61018b6101c3366004610d3e565b610412565b6002545b604051908152602001610197565b61018b6101e8366004610d68565b61042d565b6101cc6101fb366004610da4565b60009081526005602052604090206001015490565b61022361021e366004610dbd565b610448565b005b610223610233366004610de9565b610473565b60405160068152602001610197565b610223610255366004610dbd565b6105ca565b610223610268366004610d3e565b610602565b61022361027b366004610da4565b6106d7565b6101cc61028e366004610de9565b6001600160a01b031660009081526020819052604090205490565b6102236102b7366004610d3e565b610729565b61018b6102ca366004610dbd565b61086f565b6101a861089a565b6102236102e5366004610de9565b6108a9565b6101cc600081565b61018b6101e8366004610d3e565b61018b61030e366004610de9565b610983565b6101cc600080516020610e8a83398151915281565b610223610336366004610dbd565b61099d565b6101cc6101c3366004610e04565b60006001600160e01b03198216637965db0b60e01b148061037a57506301ffc9a760e01b6001600160e01b03198316145b92915050565b60606003805461038f90610e2e565b80601f01602080910402602001604051908101604052809291908181526020018280546103bb90610e2e565b80156104085780601f106103dd57610100808354040283529160200191610408565b820191906000526020600020905b8154815290600101906020018083116103eb57829003601f168201915b5050505050905090565b600060405163043038b760e11b815260040160405180910390fd5b6000604051638cd22d1960e01b815260040160405180910390fd5b600082815260056020526040902060010154610463816109c2565b61046d83836109cf565b50505050565b600080516020610e8a83398151915261048b816109c2565b6001600160a01b0382166105045760405162461bcd60e51b815260206004820152603560248201527f456e73656d626c65437265646974733a2063616e6e6f742072656d6f7665207a60448201527432b9379030b2323932b9b99030b99036b4b73a32b960591b60648201526084015b60405180910390fd5b61051c600080516020610e8a8339815191528361086f565b6105795760405162461bcd60e51b815260206004820152602860248201527f456e73656d626c65437265646974733a2061646472657373206973206e6f7420604482015267309036b4b73a32b960c11b60648201526084016104fb565b610591600080516020610e8a83398151915283610a63565b506040516001600160a01b038316907fe94479a9f7e1952cc78f2d6baab678adc1b772d936c6583def489e524cb6669290600090a25050565b6001600160a01b03811633146105f35760405163334bd91960e11b815260040160405180910390fd5b6105fd8282610a63565b505050565b600080516020610e8a83398151915261061a816109c2565b6001600160a01b0383166106855760405162461bcd60e51b815260206004820152602c60248201527f456e73656d626c65437265646974733a2063616e6e6f74206d696e7420746f2060448201526b7a65726f206164647265737360a01b60648201526084016104fb565b61068f8383610ad0565b826001600160a01b03167f0f6798a560793a54c3bcfe86a93cde1e73087d944c0ea20544137d4121396885836040516106ca91815260200190565b60405180910390a2505050565b336106e28183610b0a565b806001600160a01b03167fcc16f5dbb4873280815c1ee09dbd06736cffcc184412cf7a71a0fdb75d397ca58360405161071d91815260200190565b60405180910390a25050565b610741600080516020610e8a8339815191523361086f565b6107bd5760405162461bcd60e51b815260206004820152604160248201527f456e73656d626c65437265646974733a2063616c6c6572206d7573742068617660448201527f65206d696e74657220726f6c6520746f206275726e2066726f6d206f746865726064820152607360f81b608482015260a4016104fb565b6001600160a01b03821661082a5760405162461bcd60e51b815260206004820152602e60248201527f456e73656d626c65437265646974733a2063616e6e6f74206275726e2066726f60448201526d6d207a65726f206164647265737360901b60648201526084016104fb565b6108348282610b0a565b816001600160a01b03167fcc16f5dbb4873280815c1ee09dbd06736cffcc184412cf7a71a0fdb75d397ca58260405161071d91815260200190565b60009182526005602090815260408084206001600160a01b0393909316845291905290205460ff1690565b60606004805461038f90610e2e565b600080516020610e8a8339815191526108c1816109c2565b6001600160a01b0382166109325760405162461bcd60e51b815260206004820152603260248201527f456e73656d626c65437265646974733a2063616e6e6f7420616464207a65726f6044820152711030b2323932b9b99030b99036b4b73a32b960711b60648201526084016104fb565b61094a600080516020610e8a833981519152836109cf565b506040516001600160a01b038316907f6ae172837ea30b801fbfcdd4108aa1d5bf8ff775444fd70256b44e6bf3dfc3f690600090a25050565b600061037a600080516020610e8a8339815191528361086f565b6000828152600560205260409020600101546109b8816109c2565b61046d8383610a63565b6109cc8133610b40565b50565b60006109db838361086f565b610a5b5760008381526005602090815260408083206001600160a01b03861684529091529020805460ff19166001179055610a133390565b6001600160a01b0316826001600160a01b0316847f2f8788117e7eff1d82e926ec794901d17c78024a50270940304540a733656f0d60405160405180910390a450600161037a565b50600061037a565b6000610a6f838361086f565b15610a5b5760008381526005602090815260408083206001600160a01b0386168085529252808320805460ff1916905551339286917ff6391f5c32d9c69d2a47ea670b442974b53935d1edc7fd64eb21e047a839171b9190a450600161037a565b6001600160a01b038216610afa5760405163ec442f0560e01b8152600060048201526024016104fb565b610b0660008383610b79565b5050565b6001600160a01b038216610b3457604051634b637e8f60e11b8152600060048201526024016104fb565b610b0682600083610b79565b610b4a828261086f565b610b065760405163e2517d3f60e01b81526001600160a01b0382166004820152602481018390526044016104fb565b6001600160a01b038316610ba4578060026000828254610b999190610e68565b90915550610c169050565b6001600160a01b03831660009081526020819052604090205481811015610bf75760405163391434e360e21b81526001600160a01b038516600482015260248101829052604481018390526064016104fb565b6001600160a01b03841660009081526020819052604090209082900390555b6001600160a01b038216610c3257600280548290039055610c51565b6001600160a01b03821660009081526020819052604090208054820190555b816001600160a01b0316836001600160a01b03167fddf252ad1be2c89b69c2b068fc378daa952ba7f163c4a11628f55a4df523b3ef83604051610c9691815260200190565b60405180910390a3505050565b600060208284031215610cb557600080fd5b81356001600160e01b031981168114610ccd57600080fd5b9392505050565b600060208083528351808285015260005b81811015610d0157858101830151858201604001528201610ce5565b506000604082860101526040601f19601f8301168501019250505092915050565b80356001600160a01b0381168114610d3957600080fd5b919050565b60008060408385031215610d5157600080fd5b610d5a83610d22565b946020939093013593505050565b600080600060608486031215610d7d57600080fd5b610d8684610d22565b9250610d9460208501610d22565b9150604084013590509250925092565b600060208284031215610db657600080fd5b5035919050565b60008060408385031215610dd057600080fd5b82359150610de060208401610d22565b90509250929050565b600060208284031215610dfb57600080fd5b610ccd82610d22565b60008060408385031215610e1757600080fd5b610e2083610d22565b9150610de060208401610d22565b600181811c90821680610e4257607f821691505b602082108103610e6257634e487b7160e01b600052602260045260246000fd5b50919050565b8082018082111561037a57634e487b7160e01b600052601160045260246000fdfe9f2df0fed2c77648de5860a4cc508cd0818c85b8b8a1ab4ceeef8d981c8956a6a26469706673582212205fc0ad3db326734a8d340cb9e3e6e44063912bc7eccab1a1cb4a2661ca81edf664736f6c634300081400339f2df0fed2c77648de5860a4cc508cd0818c85b8b8a1ab4ceeef8d981c8956a6",
          "opcodes": "PUSH1 0x80 PUSH1 0x40 MSTORE CALLVALUE DUP1 ISZERO PUSH3 0x11 JUMPI PUSH1 0x0 DUP1 REVERT JUMPDEST POP PUSH1 0x40 MLOAD PUSH3 0x15C2 CODESIZE SUB DUP1 PUSH3 0x15C2 DUP4 CODECOPY DUP2 ADD PUSH1 0x40 DUP2 SWAP1 MSTORE PUSH3 0x34 SWAP2 PUSH3 0x4A3 JUMP JUMPDEST DUP4 DUP4 PUSH1 0x3 PUSH3 0x44 DUP4 DUP3 PUSH3 0x5C5 JUMP JUMPDEST POP PUSH1 0x4 PUSH3 0x53 DUP3 DUP3 PUSH3 0x5C5 JUMP JUMPDEST POP POP POP PUSH1 0x1 PUSH1 0x1 PUSH1 0xA0 SHL SUB DUP3 AND PUSH3 0xC8 JUMPI PUSH1 0x40 MLOAD PUSH3 0x461BCD PUSH1 0xE5 SHL DUP2 MSTORE PUSH1 0x20 PUSH1 0x4 DUP3 ADD MSTORE PUSH1 0x2D PUSH1 0x24 DUP3 ADD MSTORE PUSH32 0x456E73656D626C65437265646974733A2061646D696E2063616E6E6F74206265 PUSH1 0x44 DUP3 ADD MSTORE PUSH13 0x207A65726F2061646472657373 PUSH1 0x98 SHL PUSH1 0x64 DUP3 ADD MSTORE PUSH1 0x84 ADD JUMPDEST PUSH1 0x40 MLOAD DUP1 SWAP2 SUB SWAP1 REVERT JUMPDEST PUSH3 0xD5 PUSH1 0x0 DUP4 PUSH3 0x16F JUMP JUMPDEST POP PUSH3 0xF1 PUSH1 0x0 DUP1 MLOAD PUSH1 0x20 PUSH3 0x15A2 DUP4 CODECOPY DUP2 MLOAD SWAP2 MSTORE DUP4 PUSH3 0x16F JUMP JUMPDEST POP PUSH3 0x10D PUSH1 0x0 DUP1 MLOAD PUSH1 0x20 PUSH3 0x15A2 DUP4 CODECOPY DUP2 MLOAD SWAP2 MSTORE DUP1 PUSH3 0x222 JUMP JUMPDEST DUP1 ISZERO PUSH3 0x165 JUMPI PUSH3 0x120 DUP3 DUP3 PUSH3 0x26D JUMP JUMPDEST DUP2 PUSH1 0x1 PUSH1 0x1 PUSH1 0xA0 SHL SUB AND PUSH32 0xF6798A560793A54C3BCFE86A93CDE1E73087D944C0EA20544137D4121396885 DUP3 PUSH1 0x40 MLOAD PUSH3 0x15C SWAP2 DUP2 MSTORE PUSH1 0x20 ADD SWAP1 JUMP JUMPDEST PUSH1 0x40 MLOAD DUP1 SWAP2 SUB SWAP1 LOG2 JUMPDEST POP POP POP POP PUSH3 0x6B3 JUMP JUMPDEST PUSH1 0x0 DUP3 DUP2 MSTORE PUSH1 0x5 PUSH1 0x20 SWAP1 DUP2 MSTORE PUSH1 0x40 DUP1 DUP4 KECCAK256 PUSH1 0x1 PUSH1 0x1 PUSH1 0xA0 SHL SUB DUP6 AND DUP5 MSTORE SWAP1 SWAP2 MSTORE DUP2 KECCAK256 SLOAD PUSH1 0xFF AND PUSH3 0x218 JUMPI PUSH1 0x0 DUP4 DUP2 MSTORE PUSH1 0x5 PUSH1 0x20 SWAP1 DUP2 MSTORE PUSH1 0x40 DUP1 DUP4 KECCAK256 PUSH1 0x1 PUSH1 0x1 PUSH1 0xA0 SHL SUB DUP7 AND DUP5 MSTORE SWAP1 SWAP2 MSTORE SWAP1 KECCAK256 DUP1 SLOAD PUSH1 0xFF NOT AND PUSH1 0x1 OR SWAP1 SSTORE PUSH3 0x1CF CALLER SWAP1 JUMP JUMPDEST PUSH1 0x1 PUSH1 0x1 PUSH1 0xA0 SHL SUB AND DUP3 PUSH1 0x1 PUSH1 0x1 PUSH1 0xA0 SHL SUB AND DUP5 PUSH32 0x2F8788117E7EFF1D82E926EC794901D17C78024A50270940304540A733656F0D PUSH1 0x40 MLOAD PUSH1 0x40 MLOAD DUP1 SWAP2 SUB SWAP1 LOG4 POP PUSH1 0x1 PUSH3 0x21C JUMP JUMPDEST POP PUSH1 0x0 JUMPDEST SWAP3 SWAP2 POP POP JUMP JUMPDEST PUSH1 0x0 DUP3 DUP2 MSTORE PUSH1 0x5 PUSH1 0x20 MSTORE PUSH1 0x40 DUP1 DUP3 KECCAK256 PUSH1 0x1 ADD DUP1 SLOAD SWAP1 DUP5 SWAP1 SSTORE SWAP1 MLOAD SWAP1 SWAP2 DUP4 SWAP2 DUP4 SWAP2 DUP7 SWAP2 PUSH32 0xBD79B86FFE0AB8E8776151514217CD7CACD52C909F66475C3AF44E129F0B00FF SWAP2 SWAP1 LOG4 POP POP POP JUMP JUMPDEST PUSH1 0x1 PUSH1 0x1 PUSH1 0xA0 SHL SUB DUP3 AND PUSH3 0x299 JUMPI PUSH1 0x40 MLOAD PUSH4 0xEC442F05 PUSH1 0xE0 SHL DUP2 MSTORE PUSH1 0x0 PUSH1 0x4 DUP3 ADD MSTORE PUSH1 0x24 ADD PUSH3 0xBF JUMP JUMPDEST PUSH3 0x2A7 PUSH1 0x0 DUP4 DUP4 PUSH3 0x2AB JUMP JUMPDEST POP POP JUMP JUMPDEST PUSH1 0x1 PUSH1 0x1 PUSH1 0xA0 SHL SUB DUP4 AND PUSH3 0x2DA JUMPI DUP1 PUSH1 0x2 PUSH1 0x0 DUP3 DUP3 SLOAD PUSH3 0x2CE SWAP2 SWAP1 PUSH3 0x691 JUMP JUMPDEST SWAP1 SWAP2 SSTORE POP PUSH3 0x34E SWAP1 POP JUMP JUMPDEST PUSH1 0x1 PUSH1 0x1 PUSH1 0xA0 SHL SUB DUP4 AND PUSH1 0x0 SWAP1 DUP2 MSTORE PUSH1 0x20 DUP2 SWAP1 MSTORE PUSH1 0x40 SWAP1 KECCAK256 SLOAD DUP2 DUP2 LT ISZERO PUSH3 0x32F JUMPI PUSH1 0x40 MLOAD PUSH4 0x391434E3 PUSH1 0xE2 SHL DUP2 MSTORE PUSH1 0x1 PUSH1 0x1 PUSH1 0xA0 SHL SUB DUP6 AND PUSH1 0x4 DUP3 ADD MSTORE PUSH1 0x24 DUP2 ADD DUP3 SWAP1 MSTORE PUSH1 0x44 DUP2 ADD DUP4 SWAP1 MSTORE PUSH1 0x64 ADD PUSH3 0xBF JUMP JUMPDEST PUSH1 0x1 PUSH1 0x1 PUSH1 0xA0 SHL SUB DUP5 AND PUSH1 0x0 SWAP1 DUP2 MSTORE PUSH1 0x20 DUP2 SWAP1 MSTORE PUSH1 0x40 SWAP1 KECCAK256 SWAP1 DUP3 SWAP1 SUB SWAP1 SSTORE JUMPDEST PUSH1 0x1 PUSH1 0x1 PUSH1 0xA0 SHL SUB DUP3 AND PUSH3 0x36C JUMPI PUSH1 0x2 DUP1 SLOAD DUP3 SWAP1 SUB SWAP1 SSTORE PUSH3 0x38B JUMP JUMPDEST PUSH1 0x1 PUSH1 0x1 PUSH1 0xA0 SHL SUB DUP3 AND PUSH1 0x0 SWAP1 DUP2 MSTORE PUSH1 0x20 DUP2 SWAP1 MSTORE PUSH1 0x40 SWAP1 KECCAK256 DUP1 SLOAD DUP3 ADD SWAP1 SSTORE JUMPDEST DUP2 PUSH1 0x1 PUSH1 0x1 PUSH1 0xA0 SHL SUB AND DUP4 PUSH1 0x1 PUSH1 0x1 PUSH1 0xA0 SHL SUB AND PUSH32 0xDDF252AD1BE2C89B69C2B068FC378DAA952BA7F163C4A11628F55A4DF523B3EF DUP4 PUSH1 0x40 MLOAD PUSH3 0x3D1 SWAP2 DUP2 MSTORE PUSH1 0x20 ADD SWAP1 JUMP JUMPDEST PUSH1 0x40 MLOAD DUP1 SWAP2 SUB SWAP1 LOG3 POP POP POP JUMP JUMPDEST PUSH4 0x4E487B71 PUSH1 0xE0 SHL PUSH1 0x0 MSTORE PUSH1 0x41 PUSH1 0x4 MSTORE PUSH1 0x24 PUSH1 0x0 REVERT JUMPDEST PUSH1 0x0 DUP3 PUSH1 0x1F DUP4 ADD SLT PUSH3 0x406 JUMPI PUSH1 0x0 DUP1 REVERT JUMPDEST DUP2 MLOAD PUSH1 0x1 PUSH1 0x1 PUSH1 0x40 SHL SUB DUP1 DUP3 GT ISZERO PUSH3 0x423 JUMPI PUSH3 0x423 PUSH3 0x3DE JUMP JUMPDEST PUSH1 0x40 MLOAD PUSH1 0x1F DUP4 ADD PUSH1 0x1F NOT SWAP1 DUP2 AND PUSH1 0x3F ADD AND DUP2 ADD SWAP1 DUP3 DUP3 GT DUP2 DUP4 LT OR ISZERO PUSH3 0x44E JUMPI PUSH3 0x44E PUSH3 0x3DE JUMP JUMPDEST DUP2 PUSH1 0x40 MSTORE DUP4 DUP2 MSTORE PUSH1 0x20 SWAP3 POP DUP7 DUP4 DUP6 DUP9 ADD ADD GT ISZERO PUSH3 0x46B JUMPI PUSH1 0x0 DUP1 REVERT JUMPDEST PUSH1 0x0 SWAP2 POP JUMPDEST DUP4 DUP3 LT ISZERO PUSH3 0x48F JUMPI DUP6 DUP3 ADD DUP4 ADD MLOAD DUP2 DUP4 ADD DUP5 ADD MSTORE SWAP1 DUP3 ADD SWAP1 PUSH3 0x470 JUMP JUMPDEST PUSH1 0x0 SWAP4 DUP2 ADD SWAP1 SWAP3 ADD SWAP3 SWAP1 SWAP3 MSTORE SWAP5 SWAP4 POP POP POP POP JUMP JUMPDEST PUSH1 0x0 DUP1 PUSH1 0x0 DUP1 PUSH1 0x80 DUP6 DUP8 SUB SLT ISZERO PUSH3 0x4BA JUMPI PUSH1 0x0 DUP1 REVERT JUMPDEST DUP5 MLOAD PUSH1 0x1 PUSH1 0x1 PUSH1 0x40 SHL SUB DUP1 DUP3 GT ISZERO PUSH3 0x4D2 JUMPI PUSH1 0x0 DUP1 REVERT JUMPDEST PUSH3 0x4E0 DUP9 DUP4 DUP10 ADD PUSH3 0x3F4 JUMP JUMPDEST SWAP6 POP PUSH1 0x20 DUP8 ADD MLOAD SWAP2 POP DUP1 DUP3 GT ISZERO PUSH3 0x4F7 JUMPI PUSH1 0x0 DUP1 REVERT JUMPDEST POP PUSH3 0x506 DUP8 DUP3 DUP9 ADD PUSH3 0x3F4 JUMP JUMPDEST PUSH1 0x40 DUP8 ADD MLOAD SWAP1 SWAP5 POP SWAP1 POP PUSH1 0x1 PUSH1 0x1 PUSH1 0xA0 SHL SUB DUP2 AND DUP2 EQ PUSH3 0x526 JUMPI PUSH1 0x0 DUP1 REVERT JUMPDEST PUSH1 0x60 SWAP6 SWAP1 SWAP6 ADD MLOAD SWAP4 SWAP7 SWAP3 SWAP6 POP POP POP JUMP JUMPDEST PUSH1 0x1 DUP2 DUP2 SHR SWAP1 DUP3 AND DUP1 PUSH3 0x54B JUMPI PUSH1 0x7F DUP3 AND SWAP2 POP JUMPDEST PUSH1 0x20 DUP3 LT DUP2 SUB PUSH3 0x56C JUMPI PUSH4 0x4E487B71 PUSH1 0xE0 SHL PUSH1 0x0 MSTORE PUSH1 0x22 PUSH1 0x4 MSTORE PUSH1 0x24 PUSH1 0x0 REVERT JUMPDEST POP SWAP2 SWAP1 POP JUMP JUMPDEST PUSH1 0x1F DUP3 GT ISZERO PUSH3 0x5C0 JUMPI PUSH1 0x0 DUP2 DUP2 MSTORE PUSH1 0x20 DUP2 KECCAK256 PUSH1 0x1F DUP6 ADD PUSH1 0x5 SHR DUP2 ADD PUSH1 0x20 DUP7 LT ISZERO PUSH3 0x59B JUMPI POP DUP1 JUMPDEST PUSH1 0x1F DUP6 ADD PUSH1 0x5 SHR DUP3 ADD SWAP2 POP JUMPDEST DUP2 DUP2 LT ISZERO PUSH3 0x5BC JUMPI DUP3 DUP2 SSTORE PUSH1 0x1 ADD PUSH3 0x5A7 JUMP JUMPDEST POP POP POP JUMPDEST POP POP POP JUMP JUMPDEST DUP2 MLOAD PUSH1 0x1 PUSH1 0x1 PUSH1 0x40 SHL SUB DUP2 GT ISZERO PUSH3 0x5E1 JUMPI PUSH3 0x5E1 PUSH3 0x3DE JUMP JUMPDEST PUSH3 0x5F9 DUP2 PUSH3 0x5F2 DUP5 SLOAD PUSH3 0x536 JUMP JUMPDEST DUP5 PUSH3 0x572 JUMP JUMPDEST PUSH1 0x20 DUP1 PUSH1 0x1F DUP4 GT PUSH1 0x1 DUP2 EQ PUSH3 0x631 JUMPI PUSH1 0x0 DUP5 ISZERO PUSH3 0x618 JUMPI POP DUP6 DUP4 ADD MLOAD JUMPDEST PUSH1 0x0 NOT PUSH1 0x3 DUP7 SWAP1 SHL SHR NOT AND PUSH1 0x1 DUP6 SWAP1 SHL OR DUP6 SSTORE PUSH3 0x5BC JUMP JUMPDEST PUSH1 0x0 DUP6 DUP2 MSTORE PUSH1 0x20 DUP2 KECCAK256 PUSH1 0x1F NOT DUP7 AND SWAP2 JUMPDEST DUP3 DUP2 LT ISZERO PUSH3 0x662 JUMPI DUP9 DUP7 ADD MLOAD DUP3 SSTORE SWAP5 DUP5 ADD SWAP5 PUSH1 0x1 SWAP1 SWAP2 ADD SWAP1 DUP5 ADD PUSH3 0x641 JUMP JUMPDEST POP DUP6 DUP3 LT ISZERO PUSH3 0x681 JUMPI DUP8 DUP6 ADD MLOAD PUSH1 0x0 NOT PUSH1 0x3 DUP9 SWAP1 SHL PUSH1 0xF8 AND SHR NOT AND DUP2 SSTORE JUMPDEST POP POP POP POP POP PUSH1 0x1 SWAP1 DUP2 SHL ADD SWAP1 SSTORE POP JUMP JUMPDEST DUP1 DUP3 ADD DUP1 DUP3 GT ISZERO PUSH3 0x21C JUMPI PUSH4 0x4E487B71 PUSH1 0xE0 SHL PUSH1 0x0 MSTORE PUSH1 0x11 PUSH1 0x4 MSTORE PUSH1 0x24 PUSH1 0x0 REVERT JUMPDEST PUSH2 0xEDF DUP1 PUSH3 0x6C3 PUSH1 0x0 CODECOPY PUSH1 0x0 RETURN INVALID PUSH1 0x80 PUSH1 0x40 MSTORE CALLVALUE DUP1 ISZERO PUSH2 0x10 JUMPI PUSH1 0x0 DUP1 REVERT JUMPDEST POP PUSH1 0x4 CALLDATASIZE LT PUSH2 0x173 JUMPI PUSH1 0x0 CALLDATALOAD PUSH1 0xE0 SHR DUP1 PUSH4 0x42966C68 GT PUSH2 0xDE JUMPI DUP1 PUSH4 0xA217FDDF GT PUSH2 0x97 JUMPI DUP1 PUSH4 0xAA271E1A GT PUSH2 0x71 JUMPI DUP1 PUSH4 0xAA271E1A EQ PUSH2 0x300 JUMPI DUP1 PUSH4 0xD5391393 EQ PUSH2 0x313 JUMPI DUP1 PUSH4 0xD547741F EQ PUSH2 0x328 JUMPI DUP1 PUSH4 0xDD62ED3E EQ PUSH2 0x33B JUMPI PUSH1 0x0 DUP1 REVERT JUMPDEST DUP1 PUSH4 0xA217FDDF EQ PUSH2 0x2EA JUMPI DUP1 PUSH4 0xA457C2D7 EQ PUSH2 0x1B5 JUMPI DUP1 PUSH4 0xA9059CBB EQ PUSH2 0x2F2 JUMPI PUSH1 0x0 DUP1 REVERT JUMPDEST DUP1 PUSH4 0x42966C68 EQ PUSH2 0x26D JUMPI DUP1 PUSH4 0x70A08231 EQ PUSH2 0x280 JUMPI DUP1 PUSH4 0x79CC6790 EQ PUSH2 0x2A9 JUMPI DUP1 PUSH4 0x91D14854 EQ PUSH2 0x2BC JUMPI DUP1 PUSH4 0x95D89B41 EQ PUSH2 0x2CF JUMPI DUP1 PUSH4 0x983B2D56 EQ PUSH2 0x2D7 JUMPI PUSH1 0x0 DUP1 REVERT JUMPDEST DUP1 PUSH4 0x2F2FF15D GT PUSH2 0x130 JUMPI DUP1 PUSH4 0x2F2FF15D EQ PUSH2 0x210 JUMPI DUP1 PUSH4 0x3092AFD5 EQ PUSH2 0x225 JUMPI DUP1 PUSH4 0x313CE567 EQ PUSH2 0x238 JUMPI DUP1 PUSH4 0x36568ABE EQ PUSH2 0x247 JUMPI DUP1 PUSH4 0x39509351 EQ PUSH2 0x1B5 JUMPI DUP1 PUSH4 0x40C10F19 EQ PUSH2 0x25A JUMPI PUSH1 0x0 DUP1 REVERT JUMPDEST DUP1 PUSH4 0x1FFC9A7 EQ PUSH2 0x178 JUMPI DUP1 PUSH4 0x6FDDE03 EQ PUSH2 0x1A0 JUMPI DUP1 PUSH4 0x95EA7B3 EQ PUSH2 0x1B5 JUMPI DUP1 PUSH4 0x18160DDD EQ PUSH2 0x1C8 JUMPI DUP1 PUSH4 0x23B872DD EQ PUSH2 0x1DA JUMPI DUP1 PUSH4 0x248A9CA3 EQ PUSH2 0x1ED JUMPI JUMPDEST PUSH1 0x0 DUP1 REVERT JUMPDEST PUSH2 0x18B PUSH2 0x186 CALLDATASIZE PUSH1 0x4 PUSH2 0xCA3 JUMP JUMPDEST PUSH2 0x349 JUMP JUMPDEST PUSH1 0x40 MLOAD SWAP1 ISZERO ISZERO DUP2 MSTORE PUSH1 0x20 ADD JUMPDEST PUSH1 0x40 MLOAD DUP1 SWAP2 SUB SWAP1 RETURN JUMPDEST PUSH2 0x1A8 PUSH2 0x380 JUMP JUMPDEST PUSH1 0x40 MLOAD PUSH2 0x197 SWAP2 SWAP1 PUSH2 0xCD4 JUMP JUMPDEST PUSH2 0x18B PUSH2 0x1C3 CALLDATASIZE PUSH1 0x4 PUSH2 0xD3E JUMP JUMPDEST PUSH2 0x412 JUMP JUMPDEST PUSH1 0x2 SLOAD JUMPDEST PUSH1 0x40 MLOAD SWAP1 DUP2 MSTORE PUSH1 0x20 ADD PUSH2 0x197 JUMP JUMPDEST PUSH2 0x18B PUSH2 0x1E8 CALLDATASIZE PUSH1 0x4 PUSH2 0xD68 JUMP JUMPDEST PUSH2 0x42D JUMP JUMPDEST PUSH2 0x1CC PUSH2 0x1FB CALLDATASIZE PUSH1 0x4 PUSH2 0xDA4 JUMP JUMPDEST PUSH1 0x0 SWAP1 DUP2 MSTORE PUSH1 0x5 PUSH1 0x20 MSTORE PUSH1 0x40 SWAP1 KECCAK256 PUSH1 0x1 ADD SLOAD SWAP1 JUMP JUMPDEST PUSH2 0x223 PUSH2 0x21E CALLDATASIZE PUSH1 0x4 PUSH2 0xDBD JUMP JUMPDEST PUSH2 0x448 JUMP JUMPDEST STOP JUMPDEST PUSH2 0x223 PUSH2 0x233 CALLDATASIZE PUSH1 0x4 PUSH2 0xDE9 JUMP JUMPDEST PUSH2 0x473 JUMP JUMPDEST PUSH1 0x40 MLOAD PUSH1 0x6 DUP2 MSTORE PUSH1 0x20 ADD PUSH2 0x197 JUMP JUMPDEST PUSH2 0x223 PUSH2 0x255 CALLDATASIZE PUSH1 0x4 PUSH2 0xDBD JUMP JUMPDEST PUSH2 0x5CA JUMP JUMPDEST PUSH2 0x223 PUSH2 0x268 CALLDATASIZE PUSH1 0x4 PUSH2 0xD3E JUMP JUMPDEST PUSH2 0x602 JUMP JUMPDEST PUSH2 0x223 PUSH2 0x27B CALLDATASIZE PUSH1 0x4 PUSH2 0xDA4 JUMP JUMPDEST PUSH2 0x6D7 JUMP JUMPDEST PUSH2 0x1CC PUSH2 0x28E CALLDATASIZE PUSH1 0x4 PUSH2 0xDE9 JUMP JUMPDEST PUSH1 0x1 PUSH1 0x1 PUSH1 0xA0 SHL SUB AND PUSH1 0x0 SWAP1 DUP2 MSTORE PUSH1 0x20 DUP2 SWAP1 MSTORE PUSH1 0x40 SWAP1 KECCAK256 SLOAD SWAP1 JUMP JUMPDEST PUSH2 0x223 PUSH2 0x2B7 CALLDATASIZE PUSH1 0x4 PUSH2 0xD3E JUMP JUMPDEST PUSH2 0x729 JUMP JUMPDEST PUSH2 0x18B PUSH2 0x2CA CALLDATASIZE PUSH1 0x4 PUSH2 0xDBD JUMP JUMPDEST PUSH2 0x86F JUMP JUMPDEST PUSH2 0x1A8 PUSH2 0x89A JUMP JUMPDEST PUSH2 0x223 PUSH2 0x2E5 CALLDATASIZE PUSH1 0x4 PUSH2 0xDE9 JUMP JUMPDEST PUSH2 0x8A9 JUMP JUMPDEST PUSH2 0x1CC PUSH1 0x0 DUP2 JUMP JUMPDEST PUSH2 0x18B PUSH2 0x1E8 CALLDATASIZE PUSH1 0x4 PUSH2 0xD3E JUMP JUMPDEST PUSH2 0x18B PUSH2 0x30E CALLDATASIZE PUSH1 0x4 PUSH2 0xDE9 JUMP JUMPDEST PUSH2 0x983 JUMP JUMPDEST PUSH2 0x1CC PUSH1 0x0 DUP1 MLOAD PUSH1 0x20 PUSH2 0xE8A DUP4 CODECOPY DUP2 MLOAD SWAP2 MSTORE DUP2 JUMP JUMPDEST PUSH2 0x223 PUSH2 0x336 CALLDATASIZE PUSH1 0x4 PUSH2 0xDBD JUMP JUMPDEST PUSH2 0x99D JUMP JUMPDEST PUSH2 0x1CC PUSH2 0x1C3 CALLDATASIZE PUSH1 0x4 PUSH2 0xE04 JUMP JUMPDEST PUSH1 0x0 PUSH1 0x1 PUSH1 0x1 PUSH1 0xE0 SHL SUB NOT DUP3 AND PUSH4 0x7965DB0B PUSH1 0xE0 SHL EQ DUP1 PUSH2 0x37A JUMPI POP PUSH4 0x1FFC9A7 PUSH1 0xE0 SHL PUSH1 0x1 PUSH1 0x1 PUSH1 0xE0 SHL SUB NOT DUP4 AND EQ JUMPDEST SWAP3 SWAP2 POP POP JUMP JUMPDEST PUSH1 0x60 PUSH1 0x3 DUP1 SLOAD PUSH2 0x38F SWAP1 PUSH2 0xE2E JUMP JUMPDEST DUP1 PUSH1 0x1F ADD PUSH1 0x20 DUP1 SWAP2 DIV MUL PUSH1 0x20 ADD PUSH1 0x40 MLOAD SWAP1 DUP2 ADD PUSH1 0x40 MSTORE DUP1 SWAP3 SWAP2 SWAP1 DUP2 DUP2 MSTORE PUSH1 0x20 ADD DUP3 DUP1 SLOAD PUSH2 0x3BB SWAP1 PUSH2 0xE2E JUMP JUMPDEST DUP1 ISZERO PUSH2 0x408 JUMPI DUP1 PUSH1 0x1F LT PUSH2 0x3DD JUMPI PUSH2 0x100 DUP1 DUP4 SLOAD DIV MUL DUP4 MSTORE SWAP2 PUSH1 0x20 ADD SWAP2 PUSH2 0x408 JUMP JUMPDEST DUP3 ADD SWAP2 SWAP1 PUSH1 0x0 MSTORE PUSH1 0x20 PUSH1 0x0 KECCAK256 SWAP1 JUMPDEST DUP2 SLOAD DUP2 MSTORE SWAP1 PUSH1 0x1 ADD SWAP1 PUSH1 0x20 ADD DUP1 DUP4 GT PUSH2 0x3EB JUMPI DUP3 SWAP1 SUB PUSH1 0x1F AND DUP3 ADD SWAP2 JUMPDEST POP POP POP POP POP SWAP1 POP SWAP1 JUMP JUMPDEST PUSH1 0x0 PUSH1 0x40 MLOAD PUSH4 0x43038B7 PUSH1 0xE1 SHL DUP2 MSTORE PUSH1 0x4 ADD PUSH1 0x40 MLOAD DUP1 SWAP2 SUB SWAP1 REVERT JUMPDEST PUSH1 0x0 PUSH1 0x40 MLOAD PUSH4 0x8CD22D19 PUSH1 0xE0 SHL DUP2 MSTORE PUSH1 0x4 ADD PUSH1 0x40 MLOAD DUP1 SWAP2 SUB SWAP1 REVERT JUMPDEST PUSH1 0x0 DUP3 DUP2 MSTORE PUSH1 0x5 PUSH1 0x20 MSTORE PUSH1 0x40 SWAP1 KECCAK256 PUSH1 0x1 ADD SLOAD PUSH2 0x463 DUP2 PUSH2 0x9C2 JUMP JUMPDEST PUSH2 0x46D DUP4 DUP4 PUSH2 0x9CF JUMP JUMPDEST POP POP POP POP JUMP JUMPDEST PUSH1 0x0 DUP1 MLOAD PUSH1 0x20 PUSH2 0xE8A DUP4 CODECOPY DUP2 MLOAD SWAP2 MSTORE PUSH2 0x48B DUP2 PUSH2 0x9C2 JUMP JUMPDEST PUSH1 0x1 PUSH1 0x1 PUSH1 0xA0 SHL SUB DUP3 AND PUSH2 0x504 JUMPI PUSH1 0x40 MLOAD PUSH3 0x461BCD PUSH1 0xE5 SHL DUP2 MSTORE PUSH1 0x20 PUSH1 0x4 DUP3 ADD MSTORE PUSH1 0x35 PUSH1 0x24 DUP3 ADD MSTORE PUSH32 0x456E73656D626C65437265646974733A2063616E6E6F742072656D6F7665207A PUSH1 0x44 DUP3 ADD MSTORE PUSH21 0x32B9379030B2323932B9B99030B99036B4B73A32B9 PUSH1 0x59 SHL PUSH1 0x64 DUP3 ADD MSTORE PUSH1 0x84 ADD JUMPDEST PUSH1 0x40 MLOAD DUP1 SWAP2 SUB SWAP1 REVERT JUMPDEST PUSH2 0x51C PUSH1 0x0 DUP1 MLOAD PUSH1 0x20 PUSH2 0xE8A DUP4 CODECOPY DUP2 MLOAD SWAP2 MSTORE DUP4 PUSH2 0x86F JUMP JUMPDEST PUSH2 0x579 JUMPI PUSH1 0x40 MLOAD PUSH3 0x461BCD PUSH1 0xE5 SHL DUP2 MSTORE PUSH1 0x20 PUSH1 0x4 DUP3 ADD MSTORE PUSH1 0x28 PUSH1 0x24 DUP3 ADD MSTORE PUSH32 0x456E73656D626C65437265646974733A2061646472657373206973206E6F7420 PUSH1 0x44 DUP3 ADD MSTORE PUSH8 0x309036B4B73A32B9 PUSH1 0xC1 SHL PUSH1 0x64 DUP3 ADD MSTORE PUSH1 0x84 ADD PUSH2 0x4FB JUMP JUMPDEST PUSH2 0x591 PUSH1 0x0 DUP1 MLOAD PUSH1 0x20 PUSH2 0xE8A DUP4 CODECOPY DUP2 MLOAD SWAP2 MSTORE DUP4 PUSH2 0xA63 JUMP JUMPDEST POP PUSH1 0x40 MLOAD PUSH1 0x1 PUSH1 0x1 PUSH1 0xA0 SHL SUB DUP4 AND SWAP1 PUSH32 0xE94479A9F7E1952CC78F2D6BAAB678ADC1B772D936C6583DEF489E524CB66692 SWAP1 PUSH1 0x0 SWAP1 LOG2 POP POP JUMP JUMPDEST PUSH1 0x1 PUSH1 0x1 PUSH1 0xA0 SHL SUB DUP2 AND CALLER EQ PUSH2 0x5F3 JUMPI PUSH1 0x40 MLOAD PUSH4 0x334BD919 PUSH1 0xE1 SHL DUP2 MSTORE PUSH1 0x4 ADD PUSH1 0x40 MLOAD DUP1 SWAP2 SUB SWAP1 REVERT JUMPDEST PUSH2 0x5FD DUP3 DUP3 PUSH2 0xA63 JUMP JUMPDEST POP POP POP JUMP JUMPDEST PUSH1 0x0 DUP1 MLOAD PUSH1 0x20 PUSH2 0xE8A DUP4 CODECOPY DUP2 MLOAD SWAP2 MSTORE PUSH2 0x61A DUP2 PUSH2 0x9C2 JUMP JUMPDEST PUSH1 0x1 PUSH1 0x1 PUSH1 0xA0 SHL SUB DUP4 AND PUSH2 0x685 JUMPI PUSH1 0x40 MLOAD PUSH3 0x461BCD PUSH1 0xE5 SHL DUP2 MSTORE PUSH1 0x20 PUSH1 0x4 DUP3 ADD MSTORE PUSH1 0x2C PUSH1 0x24 DUP3 ADD MSTORE PUSH32 0x456E73656D626C65437265646974733A2063616E6E6F74206D696E7420746F20 PUSH1 0x44 DUP3 ADD MSTORE PUSH12 0x7A65726F2061646472657373 PUSH1 0xA0 SHL PUSH1 0x64 DUP3 ADD MSTORE PUSH1 0x84 ADD PUSH2 0x4FB JUMP JUMPDEST PUSH2 0x68F DUP4 DUP4 PUSH2 0xAD0 JUMP JUMPDEST DUP3 PUSH1 0x1 PUSH1 0x1 PUSH1 0xA0 SHL SUB AND PUSH32 0xF6798A560793A54C3BCFE86A93CDE1E73087D944C0EA20544137D4121396885 DUP4 PUSH1 0x40 MLOAD PUSH2 0x6CA SWAP2 DUP2 MSTORE PUSH1 0x20 ADD SWAP1 JUMP JUMPDEST PUSH1 0x40 MLOAD DUP1 SWAP2 SUB SWAP1 LOG2 POP POP POP JUMP JUMPDEST CALLER PUSH2 0x6E2 DUP2 DUP4 PUSH2 0xB0A JUMP JUMPDEST DUP1 PUSH1 0x1 PUSH1 0x1 PUSH1 0xA0 SHL SUB AND PUSH32 0xCC16F5DBB4873280815C1EE09DBD06736CFFCC184412CF7A71A0FDB75D397CA5 DUP4 PUSH1 0x40 MLOAD PUSH2 0x71D SWAP2 DUP2 MSTORE PUSH1 0x20 ADD SWAP1 JUMP JUMPDEST PUSH1 0x40 MLOAD DUP1 SWAP2 SUB SWAP1 LOG2 POP POP JUMP JUMPDEST PUSH2 0x741 PUSH1 0x0 DUP1 MLOAD PUSH1 0x20 PUSH2 0xE8A DUP4 CODECOPY DUP2 MLOAD SWAP2 MSTORE CALLER PUSH2 0x86F JUMP JUMPDEST PUSH2 0x7BD JUMPI PUSH1 0x40 MLOAD PUSH3 0x461BCD PUSH1 0xE5 SHL DUP2 MSTORE PUSH1 0x20 PUSH1 0x4 DUP3 ADD MSTORE PUSH1 0x41 PUSH1 0x24 DUP3 ADD MSTORE PUSH32 0x456E73656D626C65437265646974733A2063616C6C6572206D75737420686176 PUSH1 0x44 DUP3 ADD MSTORE PUSH32 0x65206D696E74657220726F6C6520746F206275726E2066726F6D206F74686572 PUSH1 0x64 DUP3 ADD MSTORE PUSH1 0x73 PUSH1 0xF8 SHL PUSH1 0x84 DUP3 ADD MSTORE PUSH1 0xA4 ADD PUSH2 0x4FB JUMP JUMPDEST PUSH1 0x1 PUSH1 0x1 PUSH1 0xA0 SHL SUB DUP3 AND PUSH2 0x82A JUMPI PUSH1 0x40 MLOAD PUSH3 0x461BCD PUSH1 0xE5 SHL DUP2 MSTORE PUSH1 0x20 PUSH1 0x4 DUP3 ADD MSTORE PUSH1 0x2E PUSH1 0x24 DUP3 ADD MSTORE PUSH32 0x456E73656D626C65437265646974733A2063616E6E6F74206275726E2066726F PUSH1 0x44 DUP3 ADD MSTORE PUSH14 0x6D207A65726F2061646472657373 PUSH1 0x90 SHL PUSH1 0x64 DUP3 ADD MSTORE PUSH1 0x84 ADD PUSH2 0x4FB JUMP JUMPDEST PUSH2 0x834 DUP3 DUP3 PUSH2 0xB0A JUMP JUMPDEST DUP2 PUSH1 0x1 PUSH1 0x1 PUSH1 0xA0 SHL SUB AND PUSH32 0xCC16F5DBB4873280815C1EE09DBD06736CFFCC184412CF7A71A0FDB75D397CA5 DUP3 PUSH1 0x40 MLOAD PUSH2 0x71D SWAP2 DUP2 MSTORE PUSH1 0x20 ADD SWAP1 JUMP JUMPDEST PUSH1 0x0 SWAP2 DUP3 MSTORE PUSH1 0x5 PUSH1 0x20 SWAP1 DUP2 MSTORE PUSH1 0x40 DUP1 DUP5 KECCAK256 PUSH1 0x1 PUSH1 0x1 PUSH1 0xA0 SHL SUB SWAP4 SWAP1 SWAP4 AND DUP5 MSTORE SWAP2 SWAP1 MSTORE SWAP1 KECCAK256 SLOAD PUSH1 0xFF AND SWAP1 JUMP JUMPDEST PUSH1 0x60 PUSH1 0x4 DUP1 SLOAD PUSH2 0x38F SWAP1 PUSH2 0xE2E JUMP JUMPDEST PUSH1 0x0 DUP1 MLOAD PUSH1 0x20 PUSH2 0xE8A DUP4 CODECOPY DUP2 MLOAD SWAP2 MSTORE PUSH2 0x8C1 DUP2 PUSH2 0x9C2 JUMP JUMPDEST PUSH1 0x1 PUSH1 0x1 PUSH1 0xA0 SHL SUB DUP3 AND PUSH2 0x932 JUMPI PUSH1 0x40 MLOAD PUSH3 0x461BCD PUSH1 0xE5 SHL DUP2 MSTORE PUSH1 0x20 PUSH1 0x4 DUP3 ADD MSTORE PUSH1 0x32 PUSH1 0x24 DUP3 ADD MSTORE PUSH32 0x456E73656D626C65437265646974733A2063616E6E6F7420616464207A65726F PUSH1 0x44 DUP3 ADD MSTORE PUSH18 0x1030B2323932B9B99030B99036B4B73A32B9 PUSH1 0x71 SHL PUSH1 0x64 DUP3 ADD MSTORE PUSH1 0x84 ADD PUSH2 0x4FB JUMP JUMPDEST PUSH2 0x94A PUSH1 0x0 DUP1 MLOAD PUSH1 0x20 PUSH2 0xE8A DUP4 CODECOPY DUP2 MLOAD SWAP2 MSTORE DUP4 PUSH2 0x9CF JUMP JUMPDEST POP PUSH1 0x40 MLOAD PUSH1 0x1 PUSH1 0x1 PUSH1 0xA0 SHL SUB DUP4 AND SWAP1 PUSH32 0x6AE172837EA30B801FBFCDD4108AA1D5BF8FF775444FD70256B44E6BF3DFC3F6 SWAP1 PUSH1 0x0 SWAP1 LOG2 POP POP JUMP JUMPDEST PUSH1 0x0 PUSH2 0x37A PUSH1 0x0 DUP1 MLOAD PUSH1 0x20 PUSH2 0xE8A DUP4 CODECOPY DUP2 MLOAD SWAP2 MSTORE DUP4 PUSH2 0x86F JUMP JUMPDEST PUSH1 0x0 DUP3 DUP2 MSTORE PUSH1 0x5 PUSH1 0x20 MSTORE PUSH1 0x40 SWAP1 KECCAK256 PUSH1 0x1 ADD SLOAD PUSH2 0x9B8 DUP2 PUSH2 0x9C2 JUMP JUMPDEST PUSH2 0x46D DUP4 DUP4 PUSH2 0xA63 JUMP JUMPDEST PUSH2 0x9CC DUP2 CALLER PUSH2 0xB40 JUMP JUMPDEST POP JUMP JUMPDEST PUSH1 0x0 PUSH2 0x9DB DUP4 DUP4 PUSH2 0x86F JUMP JUMPDEST PUSH2 0xA5B JUMPI PUSH1 0x0 DUP4 DUP2 MSTORE PUSH1 0x5 PUSH1 0x20 SWAP1 DUP2 MSTORE PUSH1 0x40 DUP1 DUP4 KECCAK256 PUSH1 0x1 PUSH1 0x1 PUSH1 0xA0 SHL SUB DUP7 AND DUP5 MSTORE SWAP1 SWAP2 MSTORE SWAP1 KECCAK256 DUP1 SLOAD PUSH1 0xFF NOT AND PUSH1 0x1 OR SWAP1 SSTORE PUSH2 0xA13 CALLER SWAP1 JUMP JUMPDEST PUSH1 0x1 PUSH1 0x1 PUSH1 0xA0 SHL SUB AND DUP3 PUSH1 0x1 PUSH1 0x1 PUSH1 0xA0 SHL SUB AND DUP5 PUSH32 0x2F8788117E7EFF1D82E926EC794901D17C78024A50270940304540A733656F0D PUSH1 0x40 MLOAD PUSH1 0x40 MLOAD DUP1 SWAP2 SUB SWAP1 LOG4 POP PUSH1 0x1 PUSH2 0x37A JUMP JUMPDEST POP PUSH1 0x0 PUSH2 0x37A JUMP JUMPDEST PUSH1 0x0 PUSH2 0xA6F DUP4 DUP4 PUSH2 0x86F JUMP JUMPDEST ISZERO PUSH2 0xA5B JUMPI PUSH1 0x0 DUP4 DUP2 MSTORE PUSH1 0x5 PUSH1 0x20 SWAP1 DUP2 MSTORE PUSH1 0x40 DUP1 DUP4 KECCAK256 PUSH1 0x1 PUSH1 0x1 PUSH1 0xA0 SHL SUB DUP7 AND DUP1 DUP6 MSTORE SWAP3 MSTORE DUP1 DUP4 KECCAK256 DUP1 SLOAD PUSH1 0xFF NOT AND SWAP1 SSTORE MLOAD CALLER SWAP3 DUP7 SWAP2 PUSH32 0xF6391F5C32D9C69D2A47EA670B442974B53935D1EDC7FD64EB21E047A839171B SWAP2 SWAP1 LOG4 POP PUSH1 0x1 PUSH2 0x37A JUMP JUMPDEST PUSH1 0x1 PUSH1 0x1 PUSH1 0xA0 SHL SUB DUP3 AND PUSH2 0xAFA JUMPI PUSH1 0x40 MLOAD PUSH4 0xEC442F05 PUSH1 0xE0 SHL DUP2 MSTORE PUSH1 0x0 PUSH1 0x4 DUP3 ADD MSTORE PUSH1 0x24 ADD PUSH2 0x4FB JUMP JUMPDEST PUSH2 0xB06 PUSH1 0x0 DUP4 DUP4 PUSH2 0xB79 JUMP JUMPDEST POP POP JUMP JUMPDEST PUSH1 0x1 PUSH1 0x1 PUSH1 0xA0 SHL SUB DUP3 AND PUSH2 0xB34 JUMPI PUSH1 0x40 MLOAD PUSH4 0x4B637E8F PUSH1 0xE1 SHL DUP2 MSTORE PUSH1 0x0 PUSH1 0x4 DUP3 ADD MSTORE PUSH1 0x24 ADD PUSH2 0x4FB JUMP JUMPDEST PUSH2 0xB06 DUP3 PUSH1 0x0 DUP4 PUSH2 0xB79 JUMP JUMPDEST PUSH2 0xB4A DUP3 DUP3 PUSH2 0x86F JUMP JUMPDEST PUSH2 0xB06 JUMPI PUSH1 0x40 MLOAD PUSH4 0xE2517D3F PUSH1 0xE0 SHL DUP2 MSTORE PUSH1 0x1 PUSH1 0x1 PUSH1 0xA0 SHL SUB DUP3 AND PUSH1 0x4 DUP3 ADD MSTORE PUSH1 0x24 DUP2 ADD DUP4 SWAP1 MSTORE PUSH1 0x44 ADD PUSH2 0x4FB JUMP JUMPDEST PUSH1 0x1 PUSH1 0x1 PUSH1 0xA0 SHL SUB DUP4 AND PUSH2 0xBA4 JUMPI DUP1 PUSH1 0x2 PUSH1 0x0 DUP3 DUP3 SLOAD PUSH2 0xB99 SWAP2 SWAP1 PUSH2 0xE68 JUMP JUMPDEST SWAP1 SWAP2 SSTORE POP PUSH2 0xC16 SWAP1 POP JUMP JUMPDEST PUSH1 0x1 PUSH1 0x1 PUSH1 0xA0 SHL SUB DUP4 AND PUSH1 0x0 SWAP1 DUP2 MSTORE PUSH1 0x20 DUP2 SWAP1 MSTORE PUSH1 0x40 SWAP1 KECCAK256 SLOAD DUP2 DUP2 LT ISZERO PUSH2 0xBF7 JUMPI PUSH1 0x40 MLOAD PUSH4 0x391434E3 PUSH1 0xE2 SHL DUP2 MSTORE PUSH1 0x1 PUSH1 0x1 PUSH1 0xA0 SHL SUB DUP6 AND PUSH1 0x4 DUP3 ADD MSTORE PUSH1 0x24 DUP2 ADD DUP3 SWAP1 MSTORE PUSH1 0x44 DUP2 ADD DUP4 SWAP1 MSTORE PUSH1 0x64 ADD PUSH2 0x4FB JUMP JUMPDEST PUSH1 0x1 PUSH1 0x1 PUSH1 0xA0 SHL SUB DUP5 AND PUSH1 0x0 SWAP1 DUP2 MSTORE PUSH1 0x20 DUP2 SWAP1 MSTORE PUSH1 0x40 SWAP1 KECCAK256 SWAP1 DUP3 SWAP1 SUB SWAP1 SSTORE JUMPDEST PUSH1 0x1 PUSH1 0x1 PUSH1 0xA0 SHL SUB DUP3 AND PUSH2 0xC32 JUMPI PUSH1 0x2 DUP1 SLOAD DUP3 SWAP1 SUB SWAP1 SSTORE PUSH2 0xC51 JUMP JUMPDEST PUSH1 0x1 PUSH1 0x1 PUSH1 0xA0 SHL SUB DUP3 AND PUSH1 0x0 SWAP1 DUP2 MSTORE PUSH1 0x20 DUP2 SWAP1 MSTORE PUSH1 0x40 SWAP1 KECCAK256 DUP1 SLOAD DUP3 ADD SWAP1 SSTORE JUMPDEST DUP2 PUSH1 0x1 PUSH1 0x1 PUSH1 0xA0 SHL SUB AND DUP4 PUSH1 0x1 PUSH1 0x1 PUSH1 0xA0 SHL SUB AND PUSH32 0xDDF252AD1BE2C89B69C2B068FC378DAA952BA7F163C4A11628F55A4DF523B3EF DUP4 PUSH1 0x40 MLOAD PUSH2 0xC96 SWAP2 DUP2 MSTORE PUSH1 0x20 ADD SWAP1 JUMP JUMPDEST PUSH1 0x40 MLOAD DUP1 SWAP2 SUB SWAP1 LOG3 POP POP POP JUMP JUMPDEST PUSH1 0x0 PUSH1 0x20 DUP3 DUP5 SUB SLT ISZERO PUSH2 0xCB5 JUMPI PUSH1 0x0 DUP1 REVERT JUMPDEST DUP2 CALLDATALOAD PUSH1 0x1 PUSH1 0x1 PUSH1 0xE0 SHL SUB NOT DUP2 AND DUP2 EQ PUSH2 0xCCD JUMPI PUSH1 0x0 DUP1 REVERT JUMPDEST SWAP4 SWAP3 POP POP POP JUMP JUMPDEST PUSH1 0x0 PUSH1 0x20 DUP1 DUP4 MSTORE DUP4 MLOAD DUP1 DUP3 DUP6 ADD MSTORE PUSH1 0x0 JUMPDEST DUP2 DUP2 LT ISZERO PUSH2 0xD01 JUMPI DUP6 DUP2 ADD DUP4 ADD MLOAD DUP6 DUP3 ADD PUSH1 0x40 ADD MSTORE DUP3 ADD PUSH2 0xCE5 JUMP JUMPDEST POP PUSH1 0x0 PUSH1 0x40 DUP3 DUP7 ADD ADD MSTORE PUSH1 0x40 PUSH1 0x1F NOT PUSH1 0x1F DUP4 ADD AND DUP6 ADD ADD SWAP3 POP POP POP SWAP3 SWAP2 POP POP JUMP JUMPDEST DUP1 CALLDATALOAD PUSH1 0x1 PUSH1 0x1 PUSH1 0xA0 SHL SUB DUP2 AND DUP2 EQ PUSH2 0xD39 JUMPI PUSH1 0x0 DUP1 REVERT JUMPDEST SWAP2 SWAP1 POP JUMP JUMPDEST PUSH1 0x0 DUP1 PUSH1 0x40 DUP4 DUP6 SUB SLT ISZERO PUSH2 0xD51 JUMPI PUSH1 0x0 DUP1 REVERT JUMPDEST PUSH2 0xD5A DUP4 PUSH2 0xD22 JUMP JUMPDEST SWAP5 PUSH1 0x20 SWAP4 SWAP1 SWAP4 ADD CALLDATALOAD SWAP4 POP POP POP JUMP JUMPDEST PUSH1 0x0 DUP1 PUSH1 0x0 PUSH1 0x60 DUP5 DUP7 SUB SLT ISZERO PUSH2 0xD7D JUMPI PUSH1 0x0 DUP1 REVERT JUMPDEST PUSH2 0xD86 DUP5 PUSH2 0xD22 JUMP JUMPDEST SWAP3 POP PUSH2 0xD94 PUSH1 0x20 DUP6 ADD PUSH2 0xD22 JUMP JUMPDEST SWAP2 POP PUSH1 0x40 DUP5 ADD CALLDATALOAD SWAP1 POP SWAP3 POP SWAP3 POP SWAP3 JUMP JUMPDEST PUSH1 0x0 PUSH1 0x20 DUP3 DUP5 SUB SLT ISZERO PUSH2 0xDB6 JUMPI PUSH1 0x0 DUP1 REVERT JUMPDEST POP CALLDATALOAD SWAP2 SWAP1 POP JUMP JUMPDEST PUSH1 0x0 DUP1 PUSH1 0x40 DUP4 DUP6 SUB SLT ISZERO PUSH2 0xDD0 JUMPI PUSH1 0x0 DUP1 REVERT JUMPDEST DUP3 CALLDATALOAD SWAP2 POP PUSH2 0xDE0 PUSH1 0x20 DUP5 ADD PUSH2 0xD22 JUMP JUMPDEST SWAP1 POP SWAP3 POP SWAP3 SWAP1 POP JUMP JUMPDEST PUSH1 0x0 PUSH1 0x20 DUP3 DUP5 SUB SLT ISZERO PUSH2 0xDFB JUMPI PUSH1 0x0 DUP1 REVERT JUMPDEST PUSH2 0xCCD DUP3 PUSH2 0xD22 JUMP JUMPDEST PUSH1 0x0 DUP1 PUSH1 0x40 DUP4 DUP6 SUB SLT ISZERO PUSH2 0xE17 JUMPI PUSH1 0x0 DUP1 REVERT JUMPDEST PUSH2 0xE20 DUP4 PUSH2 0xD22 JUMP JUMPDEST SWAP2 POP PUSH2 0xDE0 PUSH1 0x20 DUP5 ADD PUSH2 0xD22 JUMP JUMPDEST PUSH1 0x1 DUP2 DUP2 SHR SWAP1 DUP3 AND DUP1 PUSH2 0xE42 JUMPI PUSH1 0x7F DUP3 AND SWAP2 POP JUMPDEST PUSH1 0x20 DUP3 LT DUP2 SUB PUSH2 0xE62 JUMPI PUSH4 0x4E487B71 PUSH1 0xE0 SHL PUSH1 0x0 MSTORE PUSH1 0x22 PUSH1 0x4 MSTORE PUSH1 0x24 PUSH1 0x0 REVERT JUMPDEST POP SWAP2 SWAP1 POP JUMP JUMPDEST DUP1 DUP3 ADD DUP1 DUP3 GT ISZERO PUSH2 0x37A JUMPI PUSH4 0x4E487B71 PUSH1 0xE0 SHL PUSH1 0x0 MSTORE PUSH1 0x11 PUSH1 0x4 MSTORE PUSH1 0x24 PUSH1 0x0 REVERT INVALID SWAP16 0x2D CREATE INVALID 0xD2 0xC7 PUSH23 0x48DE5860A4CC508CD0818C85B8B8A1AB4CEEEF8D981C89 JUMP 0xA6 LOG2 PUSH5 0x6970667358 0x22 SLT KECCAK256 PUSH0 0xC0 0xAD RETURNDATASIZE 0xB3 0x26 PUSH20 0x4A8D340CB9E3E6E44063912BC7ECCAB1A1CB4A26 PUSH2 0xCA81 0xED 0xF6 PUSH5 0x736F6C6343 STOP ADDMOD EQ STOP CALLER SWAP16 0x2D CREATE INVALID 0xD2 0xC7 PUSH23 0x48DE5860A4CC508CD0818C85B8B8A1AB4CEEEF8D981C89 JUMP 0xA6 "
        },
        "methodIdentifiers": {
          "DEFAULT_ADMIN_ROLE()": "a217fddf",
          "MINTER_ROLE()": "d5391393",
          "addMinter(address)": "983b2d56",
          "allowance(address,address)": "dd62ed3e",
          "approve(address,uint256)": "095ea7b3",
          "balanceOf(address)": "70a08231",
          "burn(uint256)": "42966c68",
          "burnFrom(address,uint256)": "79cc6790",
          "decimals()": "313ce567",
          "decreaseAllowance(address,uint256)": "a457c2d7",
          "getRoleAdmin(bytes32)": "248a9ca3",
          "grantRole(bytes32,address)": "2f2ff15d",
          "hasRole(bytes32,address)": "91d14854",
          "increaseAllowance(address,uint256)": "39509351",
          "isMinter(address)": "aa271e1a",
          "mint(address,uint256)": "40c10f19",
          "name()": "06fdde03",
          "removeMinter(address)": "3092afd5",
          "renounceRole(bytes32,address)": "36568abe",
          "revokeRole(bytes32,address)": "d547741f",
          "supportsInterface(bytes4)": "01ffc9a7",
          "symbol()": "95d89b41",
          "totalSupply()": "18160ddd",
          "transfer(address,uint256)": "a9059cbb",
          "transferFrom(address,address,uint256)": "23b872dd"
        }
      }
    }
  }
}