{
  "_format": "hh-sol-artifact-1",
  "contractName": "AgentsRegistry",
  "sourceName": "contracts/AgentsRegistry.sol",
  "abi": [
    {
      "inputs": [
        {
          "internalType": "contract ServiceRegistry",
          "name": "_serviceRegistry",
          "type": "address"
        }
      ],
      "stateMutability": "nonpayable",
      "type": "constructor"
    },
    {
      "inputs": [
        {
          "internalType": "address",
          "name": "owner",
          "type": "address"
        }
      ],
      "name": "OwnableInvalidOwner",
      "type": "error"
    },
    {
      "inputs": [
        {
          "internalType": "address",
          "name": "account",
          "type": "address"
        }
      ],
      "name": "OwnableUnauthorizedAccount",
      "type": "error"
    },
    {
      "anonymous": false,
      "inputs": [
        {
          "indexed": true,
          "internalType": "address",
          "name": "agent",
          "type": "address"
        },
        {
          "indexed": true,
          "internalType": "address",
          "name": "owner",
          "type": "address"
        },
        {
          "indexed": false,
          "internalType": "string",
          "name": "name",
          "type": "string"
        },
        {
          "indexed": false,
          "internalType": "string",
          "name": "agentUri",
          "type": "string"
        }
      ],
      "name": "AgentRegistered",
      "type": "event"
    },
    {
      "anonymous": false,
      "inputs": [
        {
          "indexed": true,
          "internalType": "address",
          "name": "previousOwner",
          "type": "address"
        },
        {
          "indexed": true,
          "internalType": "address",
          "name": "newOwner",
          "type": "address"
        }
      ],
      "name": "OwnershipTransferred",
      "type": "event"
    },
    {
      "anonymous": false,
      "inputs": [
        {
          "indexed": true,
          "internalType": "address",
          "name": "agent",
          "type": "address"
        },
        {
          "indexed": false,
          "internalType": "uint256",
          "name": "proposalId",
          "type": "uint256"
        },
        {
          "indexed": false,
          "internalType": "string",
          "name": "name",
          "type": "string"
        },
        {
          "indexed": false,
          "internalType": "uint256",
          "name": "price",
          "type": "uint256"
        }
      ],
      "name": "ProposalAdded",
      "type": "event"
    },
    {
      "anonymous": false,
      "inputs": [
        {
          "indexed": true,
          "internalType": "address",
          "name": "agent",
          "type": "address"
        },
        {
          "indexed": false,
          "internalType": "uint256",
          "name": "proposalId",
          "type": "uint256"
        }
      ],
      "name": "ProposalRemoved",
      "type": "event"
    },
    {
      "anonymous": false,
      "inputs": [
        {
          "indexed": true,
          "internalType": "address",
          "name": "agent",
          "type": "address"
        },
        {
          "indexed": false,
          "internalType": "uint256",
          "name": "proposalId",
          "type": "uint256"
        },
        {
          "indexed": false,
          "internalType": "uint256",
          "name": "price",
          "type": "uint256"
        }
      ],
      "name": "ProposalUpdated",
      "type": "event"
    },
    {
      "anonymous": false,
      "inputs": [
        {
          "indexed": true,
          "internalType": "address",
          "name": "agent",
          "type": "address"
        },
        {
          "indexed": false,
          "internalType": "uint256",
          "name": "newReputation",
          "type": "uint256"
        }
      ],
      "name": "ReputationUpdated",
      "type": "event"
    },
    {
      "inputs": [
        {
          "internalType": "address",
          "name": "agent",
          "type": "address"
        },
        {
          "internalType": "string",
          "name": "serviceName",
          "type": "string"
        },
        {
          "internalType": "uint256",
          "name": "servicePrice",
          "type": "uint256"
        }
      ],
      "name": "addProposal",
      "outputs": [
        {
          "internalType": "uint256",
          "name": "",
          "type": "uint256"
        }
      ],
      "stateMutability": "nonpayable",
      "type": "function"
    },
    {
      "inputs": [
        {
          "internalType": "address",
          "name": "agent",
          "type": "address"
        },
        {
          "internalType": "uint256",
          "name": "_rating",
          "type": "uint256"
        }
      ],
      "name": "addRating",
      "outputs": [
        {
          "internalType": "uint256",
          "name": "",
          "type": "uint256"
        }
      ],
      "stateMutability": "nonpayable",
      "type": "function"
    },
    {
      "inputs": [
        {
          "internalType": "address",
          "name": "",
          "type": "address"
        }
      ],
      "name": "agents",
      "outputs": [
        {
          "internalType": "string",
          "name": "name",
          "type": "string"
        },
        {
          "internalType": "string",
          "name": "agentUri",
          "type": "string"
        },
        {
          "internalType": "address",
          "name": "owner",
          "type": "address"
        },
        {
          "internalType": "address",
          "name": "agent",
          "type": "address"
        },
        {
          "internalType": "uint256",
          "name": "reputation",
          "type": "uint256"
        },
        {
          "internalType": "uint256",
          "name": "totalRatings",
          "type": "uint256"
        }
      ],
      "stateMutability": "view",
      "type": "function"
    },
    {
      "inputs": [
        {
          "internalType": "address",
          "name": "_agent",
          "type": "address"
        }
      ],
      "name": "getAgentData",
      "outputs": [
        {
          "components": [
            {
              "internalType": "string",
              "name": "name",
              "type": "string"
            },
            {
              "internalType": "string",
              "name": "agentUri",
              "type": "string"
            },
            {
              "internalType": "address",
              "name": "owner",
              "type": "address"
            },
            {
              "internalType": "address",
              "name": "agent",
              "type": "address"
            },
            {
              "internalType": "uint256",
              "name": "reputation",
              "type": "uint256"
            },
            {
              "internalType": "uint256",
              "name": "totalRatings",
              "type": "uint256"
            }
          ],
          "internalType": "struct AgentsRegistry.AgentData",
          "name": "",
          "type": "tuple"
        }
      ],
      "stateMutability": "view",
      "type": "function"
    },
    {
      "inputs": [
        {
          "internalType": "uint256",
          "name": "proposalId",
          "type": "uint256"
        }
      ],
      "name": "getProposal",
      "outputs": [
        {
          "components": [
            {
              "internalType": "address",
              "name": "issuer",
              "type": "address"
            },
            {
              "internalType": "string",
              "name": "serviceName",
              "type": "string"
            },
            {
              "internalType": "uint256",
              "name": "price",
              "type": "uint256"
            },
            {
              "internalType": "uint256",
              "name": "proposalId",
              "type": "uint256"
            },
            {
              "internalType": "bool",
              "name": "isActive",
              "type": "bool"
            }
          ],
          "internalType": "struct IProposalStruct.ServiceProposal",
          "name": "",
          "type": "tuple"
        }
      ],
      "stateMutability": "view",
      "type": "function"
    },
    {
      "inputs": [
        {
          "internalType": "address",
          "name": "agent",
          "type": "address"
        }
      ],
      "name": "getReputation",
      "outputs": [
        {
          "internalType": "uint256",
          "name": "",
          "type": "uint256"
        }
      ],
      "stateMutability": "view",
      "type": "function"
    },
    {
      "inputs": [],
      "name": "nextProposalId",
      "outputs": [
        {
          "internalType": "uint256",
          "name": "",
          "type": "uint256"
        }
      ],
      "stateMutability": "view",
      "type": "function"
    },
    {
      "inputs": [],
      "name": "owner",
      "outputs": [
        {
          "internalType": "address",
          "name": "",
          "type": "address"
        }
      ],
      "stateMutability": "view",
      "type": "function"
    },
    {
      "inputs": [
        {
          "internalType": "uint256",
          "name": "",
          "type": "uint256"
        }
      ],
      "name": "proposals",
      "outputs": [
        {
          "internalType": "address",
          "name": "issuer",
          "type": "address"
        },
        {
          "internalType": "string",
          "name": "serviceName",
          "type": "string"
        },
        {
          "internalType": "uint256",
          "name": "price",
          "type": "uint256"
        },
        {
          "internalType": "uint256",
          "name": "proposalId",
          "type": "uint256"
        },
        {
          "internalType": "bool",
          "name": "isActive",
          "type": "bool"
        }
      ],
      "stateMutability": "view",
      "type": "function"
    },
    {
      "inputs": [
        {
          "internalType": "address",
          "name": "agent",
          "type": "address"
        },
        {
          "internalType": "string",
          "name": "name",
          "type": "string"
        },
        {
          "internalType": "string",
          "name": "agentUri",
          "type": "string"
        },
        {
          "internalType": "string",
          "name": "serviceName",
          "type": "string"
        },
        {
          "internalType": "uint256",
          "name": "servicePrice",
          "type": "uint256"
        }
      ],
      "name": "registerAgent",
      "outputs": [
        {
          "internalType": "uint256",
          "name": "",
          "type": "uint256"
        }
      ],
      "stateMutability": "nonpayable",
      "type": "function"
    },
    {
      "inputs": [
        {
          "internalType": "address",
          "name": "agent",
          "type": "address"
        },
        {
          "internalType": "uint256",
          "name": "proposalId",
          "type": "uint256"
        }
      ],
      "name": "removeProposal",
      "outputs": [
        {
          "internalType": "bool",
          "name": "",
          "type": "bool"
        }
      ],
      "stateMutability": "nonpayable",
      "type": "function"
    },
    {
      "inputs": [],
      "name": "renounceOwnership",
      "outputs": [],
      "stateMutability": "nonpayable",
      "type": "function"
    },
    {
      "inputs": [],
      "name": "serviceRegistry",
      "outputs": [
        {
          "internalType": "contract ServiceRegistry",
          "name": "",
          "type": "address"
        }
      ],
      "stateMutability": "view",
      "type": "function"
    },
    {
      "inputs": [
        {
          "internalType": "address",
          "name": "_serviceRegistry",
          "type": "address"
        }
      ],
      "name": "setServiceRegistry",
      "outputs": [],
      "stateMutability": "nonpayable",
      "type": "function"
    },
    {
      "inputs": [
        {
          "internalType": "address",
          "name": "_taskRegistry",
          "type": "address"
        }
      ],
      "name": "setTaskRegistry",
      "outputs": [],
      "stateMutability": "nonpayable",
      "type": "function"
    },
    {
      "inputs": [],
      "name": "taskRegistry",
      "outputs": [
        {
          "internalType": "address",
          "name": "",
          "type": "address"
        }
      ],
      "stateMutability": "view",
      "type": "function"
    },
    {
      "inputs": [
        {
          "internalType": "address",
          "name": "newOwner",
          "type": "address"
        }
      ],
      "name": "transferOwnership",
      "outputs": [],
      "stateMutability": "nonpayable",
      "type": "function"
    }
  ],
  "bytecode": "0x608060405234801561001057600080fd5b50604051620019a3380380620019a3833981016040819052610031916100d9565b338061005757604051631e4fbdf760e01b81526000600482015260240160405180910390fd5b61006081610089565b50600180546001600160a01b0319166001600160a01b0392909216919091178155600555610109565b600080546001600160a01b038381166001600160a01b0319831681178455604051919092169283917f8be0079c531659141344cd1fd0a4f28419497f9722a3daafe3b4186f6b6457e09190a35050565b6000602082840312156100eb57600080fd5b81516001600160a01b038116811461010257600080fd5b9392505050565b61188a80620001196000396000f3fe608060405234801561001057600080fd5b506004361061010b5760003560e01c80639e498f16116100a2578063cbcf252a11610071578063cbcf252a1461025e578063d7071b1f14610271578063f2fde38b14610284578063f3a1a46614610297578063fd66091e146102aa57600080fd5b80639e498f16146101f8578063aac9f15a1461020b578063b2d780691461022b578063c7f758a81461023e57600080fd5b80637b5c219d116100de5780637b5c219d146101715780638da5cb5b1461019457806398366dbd146101b95780639c89a0e2146101cc57600080fd5b8063013cf08b146101105780632ab09d141461013d57806370370a8114610154578063715018a614610167575b600080fd5b61012361011e366004611222565b6102cf565b604051610134959493929190611281565b60405180910390f35b61014660055481565b604051908152602001610134565b6101466101623660046112e0565b610395565b61016f610558565b005b61018461017f3660046112e0565b61056c565b6040519015158152602001610134565b6000546001600160a01b03165b6040516001600160a01b039091168152602001610134565b6101466101c73660046113ad565b6106d1565b6101466101da36600461144e565b6001600160a01b031660009081526003602052604090206004015490565b6002546101a1906001600160a01b031681565b61021e61021936600461144e565b6109af565b6040516101349190611470565b61016f61023936600461144e565b610b81565b61025161024c366004611222565b610bf3565b60405161013491906114ec565b6001546101a1906001600160a01b031681565b61016f61027f36600461144e565b610d18565b61016f61029236600461144e565b610d8a565b6101466102a5366004611546565b610dc8565b6102bd6102b836600461144e565b611004565b6040516101349695949392919061159d565b600460205260009081526040902080546001820180546001600160a01b0390921692916102fb906115f1565b80601f0160208091040260200160405190810160405280929190818152602001828054610327906115f1565b80156103745780601f1061034957610100808354040283529160200191610374565b820191906000526020600020905b81548152906001019060200180831161035757829003601f168201915b50505050600283015460038401546004909401549293909290915060ff1685565b6002546000906001600160a01b031633146103f75760405162461bcd60e51b815260206004820152601d60248201527f4e6f7420746865205461736b526567697374727920636f6e747261637400000060448201526064015b60405180910390fd5b60648211156104485760405162461bcd60e51b815260206004820181905260248201527f526174696e67206d757374206265206265747765656e203020616e642031303060448201526064016103ee565b6001600160a01b0383166000908152600360205260408120600501805460019290610474908490611641565b90915550506001600160a01b038316600090815260036020526040902060050154826104a1600183611654565b6001600160a01b0386166000908152600360205260409020600401546104c79190611667565b6104d19190611641565b6104db919061167e565b6001600160a01b038416600081815260036020526040908190206004018390555190917ffc577563f1b9a0461e24abef1e1fcc0d33d3d881f20b5df6dda59de4aae2c8219161052c91815260200190565b60405180910390a2506001600160a01b0382166000908152600360205260409020600401545b92915050565b610560611157565b61056a6000611184565b565b6001600160a01b03808316600090815260036020526040812060020154909184911633146105dc5760405162461bcd60e51b815260206004820152601a60248201527f4e6f7420746865206f776e6572206f6620746865206167656e7400000000000060448201526064016103ee565b6000838152600460205260409020546001600160a01b038581169116146106455760405162461bcd60e51b815260206004820152601960248201527f5365727669636550726f706f73616c206e6f7420666f756e640000000000000060448201526064016103ee565b600083815260046020526040812080546001600160a01b03191681559061066f60018301826111d4565b506000600282018190556003820155600401805460ff191690556040518381526001600160a01b038516907f45204680e8152470a4bb058a5049426c93d82614d97945e5b6541e67aba4a8f29060200160405180910390a25060019392505050565b6001600160a01b038581166000908152600360208190526040822001549091161561073e5760405162461bcd60e51b815260206004820152601860248201527f4167656e7420616c72656164792072656769737465726564000000000000000060448201526064016103ee565b60015460405163b405166b60e01b81526001600160a01b039091169063b405166b9061076e9086906004016116a0565b602060405180830381865afa15801561078b573d6000803e3d6000fd5b505050506040513d601f19601f820116820180604052508101906107af91906116b3565b6107f45760405162461bcd60e51b815260206004820152601660248201527514d95c9d9a58d9481b9bdd081c9959da5cdd195c995960521b60448201526064016103ee565b6001600160a01b0386166000908152600360205260409020806108178782611724565b50600181016108268682611724565b506002810180546001600160a01b031990811633179091556003820180546001600160a01b038a81169184168217909255600060048086018290556040805160a08101825293845260208085018b81528583018b9052600554606087018190526080870186905285529290529091208251815494169390941692909217835590519091829160018201906108ba9082611724565b5060408201516002820155606082015160038201556080909101516004909101805460ff1916911515919091179055600580549060006108f9836117e4565b9190505550336001600160a01b0316886001600160a01b03167f2a562efb52e7cec209321f57200606311256da6d2a1b19d44db7837a3209de2889896040516109439291906117fd565b60405180910390a3876001600160a01b03167fe194e0bc2279adb185c748ae57db10fe2ef1005a1b5646f96235a881c88ddb798260600151878760405161098c9392919061182b565b60405180910390a260016005546109a39190611654565b98975050505050505050565b6109fa6040518060c00160405280606081526020016060815260200160006001600160a01b0316815260200160006001600160a01b0316815260200160008152602001600081525090565b6001600160a01b03821660009081526003602052604090819020815160c081019092528054909190829082908290610a31906115f1565b80601f0160208091040260200160405190810160405280929190818152602001828054610a5d906115f1565b8015610aaa5780601f10610a7f57610100808354040283529160200191610aaa565b820191906000526020600020905b815481529060010190602001808311610a8d57829003601f168201915b50505050508152602001600182018054610ac3906115f1565b80601f0160208091040260200160405190810160405280929190818152602001828054610aef906115f1565b8015610b3c5780601f10610b1157610100808354040283529160200191610b3c565b820191906000526020600020905b815481529060010190602001808311610b1f57829003601f168201915b505050918352505060028201546001600160a01b0390811660208301526003830154166040820152600482015460608201526005909101546080909101529392505050565b610b89611157565b6001600160a01b038116610bd15760405162461bcd60e51b815260206004820152600f60248201526e496e76616c6964206164647265737360881b60448201526064016103ee565b600280546001600160a01b0319166001600160a01b0392909216919091179055565b610c306040518060a0016040528060006001600160a01b031681526020016060815260200160008152602001600081526020016000151581525090565b600082815260046020908152604091829020825160a0810190935280546001600160a01b031683526001810180549192840191610c6c906115f1565b80601f0160208091040260200160405190810160405280929190818152602001828054610c98906115f1565b8015610ce55780601f10610cba57610100808354040283529160200191610ce5565b820191906000526020600020905b815481529060010190602001808311610cc857829003601f168201915b5050509183525050600282015460208201526003820154604082015260049091015460ff16151560609091015292915050565b610d20611157565b6001600160a01b038116610d685760405162461bcd60e51b815260206004820152600f60248201526e496e76616c6964206164647265737360881b60448201526064016103ee565b600180546001600160a01b0319166001600160a01b0392909216919091179055565b610d92611157565b6001600160a01b038116610dbc57604051631e4fbdf760e01b8152600060048201526024016103ee565b610dc581611184565b50565b6001600160a01b0380841660009081526003602052604081206002015490918591163314610e385760405162461bcd60e51b815260206004820152601a60248201527f4e6f7420746865206f776e6572206f6620746865206167656e7400000000000060448201526064016103ee565b60015460405163b405166b60e01b81526001600160a01b039091169063b405166b90610e689087906004016116a0565b602060405180830381865afa158015610e85573d6000803e3d6000fd5b505050506040513d601f19601f82011682018060405250810190610ea991906116b3565b610eee5760405162461bcd60e51b815260206004820152601660248201527514d95c9d9a58d9481b9bdd081c9959da5cdd195c995960521b60448201526064016103ee565b6040805160a0810182526001600160a01b0387811682526020808301888152838501889052600554606085018190526001608086018190526000918252600490935294909420835181546001600160a01b031916931692909217825592519192839290820190610f5e9082611724565b5060408201516002820155606082015160038201556080909101516004909101805460ff191691151591909117905560058054906000610f9d836117e4565b9190505550856001600160a01b03167fe194e0bc2279adb185c748ae57db10fe2ef1005a1b5646f96235a881c88ddb7982606001518787604051610fe39392919061182b565b60405180910390a26001600554610ffa9190611654565b9695505050505050565b60036020526000908152604090208054819061101f906115f1565b80601f016020809104026020016040519081016040528092919081815260200182805461104b906115f1565b80156110985780601f1061106d57610100808354040283529160200191611098565b820191906000526020600020905b81548152906001019060200180831161107b57829003601f168201915b5050505050908060010180546110ad906115f1565b80601f01602080910402602001604051908101604052809291908181526020018280546110d9906115f1565b80156111265780601f106110fb57610100808354040283529160200191611126565b820191906000526020600020905b81548152906001019060200180831161110957829003601f168201915b5050505060028301546003840154600485015460059095015493946001600160a01b03928316949290911692509086565b6000546001600160a01b0316331461056a5760405163118cdaa760e01b81523360048201526024016103ee565b600080546001600160a01b038381166001600160a01b0319831681178455604051919092169283917f8be0079c531659141344cd1fd0a4f28419497f9722a3daafe3b4186f6b6457e09190a35050565b5080546111e0906115f1565b6000825580601f106111f0575050565b601f016020900490600052602060002090810190610dc591905b8082111561121e576000815560010161120a565b5090565b60006020828403121561123457600080fd5b5035919050565b6000815180845260005b8181101561126157602081850181015186830182015201611245565b506000602082860101526020601f19601f83011685010191505092915050565b6001600160a01b038616815260a0602082018190526000906112a59083018761123b565b6040830195909552506060810192909252151560809091015292915050565b80356001600160a01b03811681146112db57600080fd5b919050565b600080604083850312156112f357600080fd5b6112fc836112c4565b946020939093013593505050565b634e487b7160e01b600052604160045260246000fd5b600082601f83011261133157600080fd5b813567ffffffffffffffff8082111561134c5761134c61130a565b604051601f8301601f19908116603f011681019082821181831017156113745761137461130a565b8160405283815286602085880101111561138d57600080fd5b836020870160208301376000602085830101528094505050505092915050565b600080600080600060a086880312156113c557600080fd5b6113ce866112c4565b9450602086013567ffffffffffffffff808211156113eb57600080fd5b6113f789838a01611320565b9550604088013591508082111561140d57600080fd5b61141989838a01611320565b9450606088013591508082111561142f57600080fd5b5061143c88828901611320565b95989497509295608001359392505050565b60006020828403121561146057600080fd5b611469826112c4565b9392505050565b602081526000825160c0602084015261148c60e084018261123b565b90506020840151601f198483030160408501526114a9828261123b565b915050604084015160018060a01b0380821660608601528060608701511660808601525050608084015160a084015260a084015160c08401528091505092915050565b602080825282516001600160a01b03168282015282015160a0604083015260009061151a60c084018261123b565b905060408401516060840152606084015160808401526080840151151560a08401528091505092915050565b60008060006060848603121561155b57600080fd5b611564846112c4565b9250602084013567ffffffffffffffff81111561158057600080fd5b61158c86828701611320565b925050604084013590509250925092565b60c0815260006115b060c083018961123b565b82810360208401526115c2818961123b565b6001600160a01b03978816604085015295909616606083015250608081019290925260a0909101529392505050565b600181811c9082168061160557607f821691505b60208210810361162557634e487b7160e01b600052602260045260246000fd5b50919050565b634e487b7160e01b600052601160045260246000fd5b808201808211156105525761055261162b565b818103818111156105525761055261162b565b80820281158282048414176105525761055261162b565b60008261169b57634e487b7160e01b600052601260045260246000fd5b500490565b602081526000611469602083018461123b565b6000602082840312156116c557600080fd5b8151801515811461146957600080fd5b601f82111561171f57600081815260208120601f850160051c810160208610156116fc5750805b601f850160051c820191505b8181101561171b57828155600101611708565b5050505b505050565b815167ffffffffffffffff81111561173e5761173e61130a565b6117528161174c84546115f1565b846116d5565b602080601f831160018114611787576000841561176f5750858301515b600019600386901b1c1916600185901b17855561171b565b600085815260208120601f198616915b828110156117b657888601518255948401946001909101908401611797565b50858210156117d45787850151600019600388901b60f8161c191681555b5050505050600190811b01905550565b6000600182016117f6576117f661162b565b5060010190565b604081526000611810604083018561123b565b8281036020840152611822818561123b565b95945050505050565b838152606060208201526000611844606083018561123b565b905082604083015294935050505056fea26469706673582212202255def4b16ca5ed4bfdfe6c197c6e8cff9a21c7a547e18a955c433c677b32a464736f6c63430008140033",
  "linkReferences": {},
  "deployedLinkReferences": {}
}