{
  "_format": "hh-sol-artifact-1",
  "contractName": "ServiceRegistryUpgradeable",
  "sourceName": "contracts/ServiceRegistryUpgradeable.sol",
  "abi": [
    {
      "inputs": [],
      "stateMutability": "nonpayable",
      "type": "constructor"
    },
    {
      "inputs": [
        {
          "internalType": "address",
          "name": "target",
          "type": "address"
        }
      ],
      "name": "AddressEmptyCode",
      "type": "error"
    },
    {
      "inputs": [
        {
          "internalType": "address",
          "name": "implementation",
          "type": "address"
        }
      ],
      "name": "ERC1967InvalidImplementation",
      "type": "error"
    },
    {
      "inputs": [],
      "name": "ERC1967NonPayable",
      "type": "error"
    },
    {
      "inputs": [],
      "name": "FailedCall",
      "type": "error"
    },
    {
      "inputs": [],
      "name": "InvalidInitialization",
      "type": "error"
    },
    {
      "inputs": [],
      "name": "NotInitializing",
      "type": "error"
    },
    {
      "inputs": [
        {
          "internalType": "address",
          "name": "owner",
          "type": "address"
        }
      ],
      "name": "OwnableInvalidOwner",
      "type": "error"
    },
    {
      "inputs": [
        {
          "internalType": "address",
          "name": "account",
          "type": "address"
        }
      ],
      "name": "OwnableUnauthorizedAccount",
      "type": "error"
    },
    {
      "inputs": [],
      "name": "UUPSUnauthorizedCallContext",
      "type": "error"
    },
    {
      "inputs": [
        {
          "internalType": "bytes32",
          "name": "slot",
          "type": "bytes32"
        }
      ],
      "name": "UUPSUnsupportedProxiableUUID",
      "type": "error"
    },
    {
      "anonymous": false,
      "inputs": [
        {
          "indexed": false,
          "internalType": "uint64",
          "name": "version",
          "type": "uint64"
        }
      ],
      "name": "Initialized",
      "type": "event"
    },
    {
      "anonymous": false,
      "inputs": [
        {
          "indexed": true,
          "internalType": "address",
          "name": "previousOwner",
          "type": "address"
        },
        {
          "indexed": true,
          "internalType": "address",
          "name": "newOwner",
          "type": "address"
        }
      ],
      "name": "OwnershipTransferred",
      "type": "event"
    },
    {
      "anonymous": false,
      "inputs": [
        {
          "indexed": true,
          "internalType": "uint256",
          "name": "serviceId",
          "type": "uint256"
        },
        {
          "indexed": true,
          "internalType": "address",
          "name": "agent",
          "type": "address"
        }
      ],
      "name": "ServiceAgentAssigned",
      "type": "event"
    },
    {
      "anonymous": false,
      "inputs": [
        {
          "indexed": true,
          "internalType": "uint256",
          "name": "serviceId",
          "type": "uint256"
        },
        {
          "indexed": true,
          "internalType": "address",
          "name": "agent",
          "type": "address"
        }
      ],
      "name": "ServiceAgentUnassigned",
      "type": "event"
    },
    {
      "anonymous": false,
      "inputs": [
        {
          "indexed": true,
          "internalType": "uint256",
          "name": "serviceId",
          "type": "uint256"
        },
        {
          "indexed": true,
          "internalType": "address",
          "name": "oldOwner",
          "type": "address"
        },
        {
          "indexed": true,
          "internalType": "address",
          "name": "newOwner",
          "type": "address"
        }
      ],
      "name": "ServiceOwnershipTransferred",
      "type": "event"
    },
    {
      "anonymous": false,
      "inputs": [
        {
          "indexed": true,
          "internalType": "uint256",
          "name": "serviceId",
          "type": "uint256"
        },
        {
          "indexed": true,
          "internalType": "address",
          "name": "owner",
          "type": "address"
        },
        {
          "indexed": false,
          "internalType": "string",
          "name": "serviceUri",
          "type": "string"
        }
      ],
      "name": "ServiceRegistered",
      "type": "event"
    },
    {
      "anonymous": false,
      "inputs": [
        {
          "indexed": true,
          "internalType": "uint256",
          "name": "serviceId",
          "type": "uint256"
        },
        {
          "indexed": true,
          "internalType": "enum ServiceRegistryUpgradeable.ServiceStatus",
          "name": "oldStatus",
          "type": "uint8"
        },
        {
          "indexed": true,
          "internalType": "enum ServiceRegistryUpgradeable.ServiceStatus",
          "name": "newStatus",
          "type": "uint8"
        }
      ],
      "name": "ServiceStatusChanged",
      "type": "event"
    },
    {
      "anonymous": false,
      "inputs": [
        {
          "indexed": true,
          "internalType": "uint256",
          "name": "serviceId",
          "type": "uint256"
        },
        {
          "indexed": false,
          "internalType": "string",
          "name": "serviceUri",
          "type": "string"
        },
        {
          "indexed": false,
          "internalType": "uint256",
          "name": "version",
          "type": "uint256"
        }
      ],
      "name": "ServiceUpdated",
      "type": "event"
    },
    {
      "anonymous": false,
      "inputs": [
        {
          "indexed": true,
          "internalType": "address",
          "name": "implementation",
          "type": "address"
        }
      ],
      "name": "Upgraded",
      "type": "event"
    },
    {
      "inputs": [],
      "name": "UPGRADE_INTERFACE_VERSION",
      "outputs": [
        {
          "internalType": "string",
          "name": "",
          "type": "string"
        }
      ],
      "stateMutability": "view",
      "type": "function"
    },
    {
      "inputs": [
        {
          "internalType": "uint256",
          "name": "serviceId",
          "type": "uint256"
        },
        {
          "internalType": "address",
          "name": "agent",
          "type": "address"
        }
      ],
      "name": "assignAgentToService",
      "outputs": [],
      "stateMutability": "nonpayable",
      "type": "function"
    },
    {
      "inputs": [
        {
          "internalType": "uint256",
          "name": "serviceId",
          "type": "uint256"
        }
      ],
      "name": "deleteService",
      "outputs": [],
      "stateMutability": "nonpayable",
      "type": "function"
    },
    {
      "inputs": [
        {
          "internalType": "uint256",
          "name": "serviceId",
          "type": "uint256"
        }
      ],
      "name": "getService",
      "outputs": [
        {
          "components": [
            {
              "internalType": "uint256",
              "name": "id",
              "type": "uint256"
            },
            {
              "internalType": "address",
              "name": "owner",
              "type": "address"
            },
            {
              "internalType": "address",
              "name": "agentAddress",
              "type": "address"
            },
            {
              "internalType": "string",
              "name": "serviceUri",
              "type": "string"
            },
            {
              "internalType": "enum ServiceRegistryUpgradeable.ServiceStatus",
              "name": "status",
              "type": "uint8"
            },
            {
              "internalType": "uint256",
              "name": "version",
              "type": "uint256"
            }
          ],
          "internalType": "struct ServiceRegistryUpgradeable.Service",
          "name": "",
          "type": "tuple"
        }
      ],
      "stateMutability": "view",
      "type": "function"
    },
    {
      "inputs": [
        {
          "internalType": "uint256",
          "name": "serviceId",
          "type": "uint256"
        }
      ],
      "name": "getServiceOwner",
      "outputs": [
        {
          "internalType": "address",
          "name": "",
          "type": "address"
        }
      ],
      "stateMutability": "view",
      "type": "function"
    },
    {
      "inputs": [
        {
          "internalType": "address",
          "name": "agent",
          "type": "address"
        }
      ],
      "name": "getServicesByAgent",
      "outputs": [
        {
          "internalType": "uint256[]",
          "name": "",
          "type": "uint256[]"
        }
      ],
      "stateMutability": "view",
      "type": "function"
    },
    {
      "inputs": [
        {
          "internalType": "address",
          "name": "owner",
          "type": "address"
        }
      ],
      "name": "getServicesByOwner",
      "outputs": [
        {
          "internalType": "uint256[]",
          "name": "",
          "type": "uint256[]"
        }
      ],
      "stateMutability": "view",
      "type": "function"
    },
    {
      "inputs": [],
      "name": "getTotalServiceCount",
      "outputs": [
        {
          "internalType": "uint256",
          "name": "",
          "type": "uint256"
        }
      ],
      "stateMutability": "view",
      "type": "function"
    },
    {
      "inputs": [],
      "name": "initialize",
      "outputs": [],
      "stateMutability": "nonpayable",
      "type": "function"
    },
    {
      "inputs": [],
      "name": "nextServiceId",
      "outputs": [
        {
          "internalType": "uint256",
          "name": "",
          "type": "uint256"
        }
      ],
      "stateMutability": "view",
      "type": "function"
    },
    {
      "inputs": [],
      "name": "owner",
      "outputs": [
        {
          "internalType": "address",
          "name": "",
          "type": "address"
        }
      ],
      "stateMutability": "view",
      "type": "function"
    },
    {
      "inputs": [],
      "name": "proxiableUUID",
      "outputs": [
        {
          "internalType": "bytes32",
          "name": "",
          "type": "bytes32"
        }
      ],
      "stateMutability": "view",
      "type": "function"
    },
    {
      "inputs": [
        {
          "internalType": "string",
          "name": "serviceUri",
          "type": "string"
        },
        {
          "internalType": "address",
          "name": "agentAddress",
          "type": "address"
        }
      ],
      "name": "registerService",
      "outputs": [
        {
          "internalType": "uint256",
          "name": "serviceId",
          "type": "uint256"
        }
      ],
      "stateMutability": "nonpayable",
      "type": "function"
    },
    {
      "inputs": [],
      "name": "renounceOwnership",
      "outputs": [],
      "stateMutability": "nonpayable",
      "type": "function"
    },
    {
      "inputs": [
        {
          "internalType": "uint256",
          "name": "",
          "type": "uint256"
        }
      ],
      "name": "services",
      "outputs": [
        {
          "internalType": "uint256",
          "name": "id",
          "type": "uint256"
        },
        {
          "internalType": "address",
          "name": "owner",
          "type": "address"
        },
        {
          "internalType": "address",
          "name": "agentAddress",
          "type": "address"
        },
        {
          "internalType": "string",
          "name": "serviceUri",
          "type": "string"
        },
        {
          "internalType": "enum ServiceRegistryUpgradeable.ServiceStatus",
          "name": "status",
          "type": "uint8"
        },
        {
          "internalType": "uint256",
          "name": "version",
          "type": "uint256"
        }
      ],
      "stateMutability": "view",
      "type": "function"
    },
    {
      "inputs": [
        {
          "internalType": "address",
          "name": "",
          "type": "address"
        },
        {
          "internalType": "uint256",
          "name": "",
          "type": "uint256"
        }
      ],
      "name": "servicesByAgent",
      "outputs": [
        {
          "internalType": "uint256",
          "name": "",
          "type": "uint256"
        }
      ],
      "stateMutability": "view",
      "type": "function"
    },
    {
      "inputs": [
        {
          "internalType": "address",
          "name": "",
          "type": "address"
        },
        {
          "internalType": "uint256",
          "name": "",
          "type": "uint256"
        }
      ],
      "name": "servicesByOwner",
      "outputs": [
        {
          "internalType": "uint256",
          "name": "",
          "type": "uint256"
        }
      ],
      "stateMutability": "view",
      "type": "function"
    },
    {
      "inputs": [],
      "name": "totalServices",
      "outputs": [
        {
          "internalType": "uint256",
          "name": "",
          "type": "uint256"
        }
      ],
      "stateMutability": "view",
      "type": "function"
    },
    {
      "inputs": [
        {
          "internalType": "address",
          "name": "newOwner",
          "type": "address"
        }
      ],
      "name": "transferOwnership",
      "outputs": [],
      "stateMutability": "nonpayable",
      "type": "function"
    },
    {
      "inputs": [
        {
          "internalType": "uint256",
          "name": "serviceId",
          "type": "uint256"
        },
        {
          "internalType": "address",
          "name": "newOwner",
          "type": "address"
        }
      ],
      "name": "transferServiceOwnership",
      "outputs": [],
      "stateMutability": "nonpayable",
      "type": "function"
    },
    {
      "inputs": [
        {
          "internalType": "uint256",
          "name": "serviceId",
          "type": "uint256"
        },
        {
          "internalType": "enum ServiceRegistryUpgradeable.ServiceStatus",
          "name": "newStatus",
          "type": "uint8"
        }
      ],
      "name": "unassignAgentFromService",
      "outputs": [],
      "stateMutability": "nonpayable",
      "type": "function"
    },
    {
      "inputs": [
        {
          "internalType": "uint256",
          "name": "serviceId",
          "type": "uint256"
        },
        {
          "internalType": "string",
          "name": "serviceUri",
          "type": "string"
        }
      ],
      "name": "updateService",
      "outputs": [],
      "stateMutability": "nonpayable",
      "type": "function"
    },
    {
      "inputs": [
        {
          "internalType": "uint256",
          "name": "serviceId",
          "type": "uint256"
        },
        {
          "internalType": "enum ServiceRegistryUpgradeable.ServiceStatus",
          "name": "newStatus",
          "type": "uint8"
        }
      ],
      "name": "updateServiceStatus",
      "outputs": [],
      "stateMutability": "nonpayable",
      "type": "function"
    },
    {
      "inputs": [
        {
          "internalType": "address",
          "name": "newImplementation",
          "type": "address"
        },
        {
          "internalType": "bytes",
          "name": "data",
          "type": "bytes"
        }
      ],
      "name": "upgradeToAndCall",
      "outputs": [],
      "stateMutability": "payable",
      "type": "function"
    }
  ],
  "bytecode": "0x60a06040523060805234801561001457600080fd5b5061001d610022565b6100d4565b7ff0c57e16840df040f15088dc2f81fe391c3923bec73e23a9662efc9c229c6a00805468010000000000000000900460ff16156100725760405163f92ee8a960e01b815260040160405180910390fd5b80546001600160401b03908116146100d15780546001600160401b0319166001600160401b0390811782556040519081527fc7f505b2f371ae2175ee4913f4499e1f2633a7b5936321eed1cdaeb6115181d29060200160405180910390a15b50565b6080516122bb620000fe600039600081816116220152818161164b015261179101526122bb6000f3fe60806040526004361061014b5760003560e01c80638129fc1c116100b6578063ad3cb1cc1161006f578063ad3cb1cc146103a8578063b18ba34c146103e6578063c22c4f4314610406578063ef0e239b14610438578063f2fde38b14610465578063f6c53d9b1461048557600080fd5b80638129fc1c146102d65780638da5cb5b146102eb57806394f6953c14610328578063a4c258d214610348578063a9c583a414610368578063aa0a60e31461038857600080fd5b80634f6753be116101085780634f6753be1461023657806352d1902d1461025657806360423fa21461026b5780636301ac8f1461028b578063715018a6146102a157806374e29ee6146102b657600080fd5b8063142844d9146101505780631b81aaea146101865780632336f57a146101be5780633573c000146101e057806347e905b41461020e5780634f1ef28614610223575b600080fd5b34801561015c57600080fd5b5061017061016b366004611c11565b61049b565b60405161017d9190611c2c565b60405180910390f35b34801561019257600080fd5b506101a66101a1366004611c70565b610507565b6040516001600160a01b03909116815260200161017d565b3480156101ca57600080fd5b506101de6101d9366004611c89565b610565565b005b3480156101ec57600080fd5b506102006101fb366004611d69565b610796565b60405190815260200161017d565b34801561021a57600080fd5b50600454610200565b6101de610231366004611db7565b6109b7565b34801561024257600080fd5b50610200610251366004611e19565b6109d6565b34801561026257600080fd5b50610200610a07565b34801561027757600080fd5b506101de610286366004611c89565b610a24565b34801561029757600080fd5b5061020060045481565b3480156102ad57600080fd5b506101de610bb5565b3480156102c257600080fd5b506101de6102d1366004611c70565b610bc9565b3480156102e257600080fd5b506101de610d02565b3480156102f757600080fd5b507f9016d09d72d40fdae2fd8ceac6b6234c7706214fd39c1cd1e609a0528c199300546001600160a01b03166101a6565b34801561033457600080fd5b506101de610343366004611e43565b610e0f565b34801561035457600080fd5b50610170610363366004611c11565b610fa0565b34801561037457600080fd5b506101de610383366004611e66565b61100a565b34801561039457600080fd5b506102006103a3366004611e19565b611155565b3480156103b457600080fd5b506103d9604051806040016040528060058152602001640352e302e360dc1b81525081565b60405161017d9190611ef3565b3480156103f257600080fd5b506101de610401366004611e43565b611171565b34801561041257600080fd5b50610426610421366004611c70565b6112bf565b60405161017d96959493929190611f3e565b34801561044457600080fd5b50610458610453366004611c70565b61138e565b60405161017d9190611f90565b34801561047157600080fd5b506101de610480366004611c11565b61150f565b34801561049157600080fd5b5061020060035481565b6001600160a01b0381166000908152600160209081526040918290208054835181840281018401909452808452606093928301828280156104fb57602002820191906000526020600020905b8154815260200190600101908083116104e7575b50505050509050919050565b60008160008111801561051c57506003548111155b6105415760405162461bcd60e51b815260040161053890612001565b60405180910390fd5b6000838152602081905260409020600101546001600160a01b031691505b50919050565b8160008111801561057857506003548111155b6105945760405162461bcd60e51b815260040161053890612001565b60008381526020819052604090206001015483906001600160a01b031633146105cf5760405162461bcd60e51b815260040161053890612031565b60008360038111156105e3576105e3611f06565b1480610600575060028360038111156105fe576105fe611f06565b145b61064c5760405162461bcd60e51b815260206004820181905260248201527f537461747573206d757374206265204452414654206f722041524348495645446044820152606401610538565b600084815260208190526040902060028101546001600160a01b0316806106a95760405162461bcd60e51b8152602060048201526011602482015270139bc81859d95b9d08185cdcda59db9959607a1b6044820152606401610538565b6002820180546001600160a01b031916905560048201805486919060ff191660018360038111156106dc576106dc611f06565b02179055506005820180549060006106f383612072565b9190505550610702818761154d565b6040516001600160a01b0382169087907f47d159ee6cd4a9661a2396173c57e582543a45dd368ee7bf5e9d261a1f5bfcf290600090a384600381111561074a5761074a611f06565b600483015460ff16600381111561076357610763611f06565b60405188907fed930c5294841f355eada664af337ef1973538faea7f1eacfa8ed18d8e28ed2590600090a4505050505050565b6000808351116107df5760405162461bcd60e51b815260206004820152601460248201527314d95c9d9a58d948155492481c995c5d5a5c995960621b6044820152606401610538565b6003600081546107ee90612072565b91829055506040805160c0810182528281523360208083019182526001600160a01b03878116848601908152606085018a8152600060808701819052600160a08801819052898252948190529690962085518155935192840180546001600160a01b03199081169484169490941790555160028401805490931691161790559151929350916003820190610882908261210f565b50608082015160048201805460ff191660018360038111156108a6576108a6611f06565b021790555060a091909101516005909101553360009081526001602081815260408320805492830181558352909120018190556001600160a01b03821615610914576001600160a01b0382166000908152600260209081526040822080546001810182559083529120018190555b6004805490600061092483612072565b9190505550336001600160a01b0316817f4b92d29535f834801f0d689cb5c3e2e5686af3c1255295ac3395351a6eccab9e856040516109639190611ef3565b60405180910390a36001600160a01b038216156109b1576040516001600160a01b0383169082907fb0653f9e2f8c4289f8f8595176f1bd9fbd910a82a95f4d92c5f4cd4755538ef590600090a35b92915050565b6109bf611617565b6109c8826116bc565b6109d282826116c4565b5050565b600160205281600052604060002081815481106109f257600080fd5b90600052602060002001600091509150505481565b6000610a11611786565b5060008051602061226683398151915290565b81600081118015610a3757506003548111155b610a535760405162461bcd60e51b815260040161053890612001565b60008381526020819052604090206001015483906001600160a01b03163314610a8e5760405162461bcd60e51b815260040161053890612031565b6000848152602081905260409020600481015460ff166003816003811115610ab857610ab8611f06565b03610b155760405162461bcd60e51b815260206004820152602760248201527f43616e6e6f74206368616e676520737461747573206f662064656c65746564206044820152667365727669636560c81b6064820152608401610538565b610b1f81866117cf565b610b6b5760405162461bcd60e51b815260206004820152601960248201527f496e76616c696420737461747573207472616e736974696f6e000000000000006044820152606401610538565b60048201805486919060ff19166001836003811115610b8c57610b8c611f06565b0217905550846003811115610ba357610ba3611f06565b81600381111561076357610763611f06565b610bbd61186b565b610bc760006118c6565b565b80600081118015610bdc57506003548111155b610bf85760405162461bcd60e51b815260040161053890612001565b60008281526020819052604090206001015482906001600160a01b03163314610c335760405162461bcd60e51b815260040161053890612031565b60008381526020819052604090206003600482015460ff166003811115610c5c57610c5c611f06565b03610ca95760405162461bcd60e51b815260206004820152601760248201527f5365727669636520616c72656164792064656c657465640000000000000000006044820152606401610538565b600481018054600360ff198216811790925560ff16908181811115610cd057610cd0611f06565b60405187907fed930c5294841f355eada664af337ef1973538faea7f1eacfa8ed18d8e28ed2590600090a45050505050565b6000610d0c611937565b805490915060ff600160401b820416159067ffffffffffffffff16600081158015610d345750825b905060008267ffffffffffffffff166001148015610d515750303b155b905081158015610d5f575080155b15610d7d5760405163f92ee8a960e01b815260040160405180910390fd5b845467ffffffffffffffff191660011785558315610da757845460ff60401b1916600160401b1785555b610db033611960565b610db8611971565b600060038190556004558315610e0857845460ff60401b19168555604051600181527fc7f505b2f371ae2175ee4913f4499e1f2633a7b5936321eed1cdaeb6115181d29060200160405180910390a15b5050505050565b81600081118015610e2257506003548111155b610e3e5760405162461bcd60e51b815260040161053890612001565b60008381526020819052604090206001015483906001600160a01b03163314610e795760405162461bcd60e51b815260040161053890612031565b6001600160a01b038316610ec75760405162461bcd60e51b8152602060048201526015602482015274496e76616c6964206167656e74206164647265737360581b6044820152606401610538565b600084815260208190526040902060028101546001600160a01b03168015610f2a57610ef3818761154d565b6040516001600160a01b0382169087907f47d159ee6cd4a9661a2396173c57e582543a45dd368ee7bf5e9d261a1f5bfcf290600090a35b600282810180546001600160a01b0319166001600160a01b03881690811790915560008181526020928352604080822080546001810182559083529382209093018990559151909188917fb0653f9e2f8c4289f8f8595176f1bd9fbd910a82a95f4d92c5f4cd4755538ef59190a3505050505050565b6001600160a01b0381166000908152600260209081526040918290208054835181840281018401909452808452606093928301828280156104fb57602002820191906000526020600020908154815260200190600101908083116104e75750505050509050919050565b8160008111801561101d57506003548111155b6110395760405162461bcd60e51b815260040161053890612001565b60008381526020819052604090206001015483906001600160a01b031633146110745760405162461bcd60e51b815260040161053890612031565b60008481526020819052604090206003600482015460ff16600381111561109d5761109d611f06565b036110ea5760405162461bcd60e51b815260206004820152601d60248201527f43616e6e6f74207570646174652064656c6574656420736572766963650000006044820152606401610538565b600381016110f8858261210f565b5060058101805490600061110b83612072565b9190505550847fae55ce3c351e2400a1a143e7ed66668e581e1656ad1797a317e415d0358809168583600501546040516111469291906121cf565b60405180910390a25050505050565b600260205281600052604060002081815481106109f257600080fd5b8160008111801561118457506003548111155b6111a05760405162461bcd60e51b815260040161053890612001565b60008381526020819052604090206001015483906001600160a01b031633146111db5760405162461bcd60e51b815260040161053890612031565b6001600160a01b0383166112255760405162461bcd60e51b815260206004820152601160248201527024b73b30b634b2103732bb9037bbb732b960791b6044820152606401610538565b60008481526020819052604090206001810180546001600160a01b038681166001600160a01b03198316179092551661125e8187611979565b6001600160a01b0380861660008181526001602081815260408084208054938401815584529083209091018a905551919284169189917fe6997a85d3096b35434817efd111191444e46c8b0cce53862a2d8d43ff5a33df91a4505050505050565b600060208190529081526040902080546001820154600283015460038401805493946001600160a01b039384169493909216926112fb9061208b565b80601f01602080910402602001604051908101604052809291908181526020018280546113279061208b565b80156113745780601f1061134957610100808354040283529160200191611374565b820191906000526020600020905b81548152906001019060200180831161135757829003601f168201915b505050506004830154600590930154919260ff1691905086565b6040805160c0810182526000808252602082018190529181018290526060808201526080810182905260a0810191909152816000811180156113d257506003548111155b6113ee5760405162461bcd60e51b815260040161053890612001565b60008381526020818152604091829020825160c0810184528154815260018201546001600160a01b03908116938201939093526002820154909216928201929092526003820180549192916060840191906114489061208b565b80601f01602080910402602001604051908101604052809291908181526020018280546114749061208b565b80156114c15780601f10611496576101008083540402835291602001916114c1565b820191906000526020600020905b8154815290600101906020018083116114a457829003601f168201915b5050509183525050600482015460209091019060ff1660038111156114e8576114e8611f06565b60038111156114f9576114f9611f06565b8152602001600582015481525050915050919050565b61151761186b565b6001600160a01b03811661154157604051631e4fbdf760e01b815260006004820152602401610538565b61154a816118c6565b50565b6001600160a01b0382166000908152600260205260408120905b81548110156116115782828281548110611583576115836121f1565b90600052602060002001540361160957815482906115a390600190612207565b815481106115b3576115b36121f1565b90600052602060002001548282815481106115d0576115d06121f1565b9060005260206000200181905550818054806115ee576115ee61221a565b60019003818190600052602060002001600090559055611611565b600101611567565b50505050565b306001600160a01b037f000000000000000000000000000000000000000000000000000000000000000016148061169e57507f00000000000000000000000000000000000000000000000000000000000000006001600160a01b0316611692600080516020612266833981519152546001600160a01b031690565b6001600160a01b031614155b15610bc75760405163703e46dd60e11b815260040160405180910390fd5b61154a61186b565b816001600160a01b03166352d1902d6040518163ffffffff1660e01b8152600401602060405180830381865afa92505050801561171e575060408051601f3d908101601f1916820190925261171b91810190612230565b60015b61174657604051634c9c8ce360e01b81526001600160a01b0383166004820152602401610538565b600080516020612266833981519152811461177757604051632a87526960e21b815260048101829052602401610538565b61178183836119d7565b505050565b306001600160a01b037f00000000000000000000000000000000000000000000000000000000000000001614610bc75760405163703e46dd60e11b815260040160405180910390fd5b6000808360038111156117e4576117e4611f06565b036118225760015b8260038111156117fe576117fe611f06565b148061181b5750600382600381111561181957611819611f06565b145b90506109b1565b600183600381111561183657611836611f06565b036118425760026117ec565b600283600381111561185657611856611f06565b036118625760016117ec565b50600092915050565b3361189d7f9016d09d72d40fdae2fd8ceac6b6234c7706214fd39c1cd1e609a0528c199300546001600160a01b031690565b6001600160a01b031614610bc75760405163118cdaa760e01b8152336004820152602401610538565b7f9016d09d72d40fdae2fd8ceac6b6234c7706214fd39c1cd1e609a0528c19930080546001600160a01b031981166001600160a01b03848116918217845560405192169182907f8be0079c531659141344cd1fd0a4f28419497f9722a3daafe3b4186f6b6457e090600090a3505050565b6000807ff0c57e16840df040f15088dc2f81fe391c3923bec73e23a9662efc9c229c6a006109b1565b611968611a2d565b61154a81611a52565b610bc7611a2d565b6001600160a01b0382166000908152600160205260408120905b815481101561161157828282815481106119af576119af6121f1565b9060005260206000200154036119cf57815482906115a390600190612207565b600101611993565b6119e082611a5a565b6040516001600160a01b038316907fbc7cd75a20ee27fd9adebab32041f755214dbc6bffa90cc0225b39da2e5c2d3b90600090a2805115611a25576117818282611abf565b6109d2611b35565b611a35611b54565b610bc757604051631afcd79f60e31b815260040160405180910390fd5b611517611a2d565b806001600160a01b03163b600003611a9057604051634c9c8ce360e01b81526001600160a01b0382166004820152602401610538565b60008051602061226683398151915280546001600160a01b0319166001600160a01b0392909216919091179055565b6060600080846001600160a01b031684604051611adc9190612249565b600060405180830381855af49150503d8060008114611b17576040519150601f19603f3d011682016040523d82523d6000602084013e611b1c565b606091505b5091509150611b2c858383611b6e565b95945050505050565b3415610bc75760405163b398979f60e01b815260040160405180910390fd5b6000611b5e611937565b54600160401b900460ff16919050565b606082611b8357611b7e82611bcd565b611bc6565b8151158015611b9a57506001600160a01b0384163b155b15611bc357604051639996b31560e01b81526001600160a01b0385166004820152602401610538565b50805b9392505050565b805115611bdc57805160208201fd5b60405163d6bda27560e01b815260040160405180910390fd5b80356001600160a01b0381168114611c0c57600080fd5b919050565b600060208284031215611c2357600080fd5b611bc682611bf5565b6020808252825182820181905260009190848201906040850190845b81811015611c6457835183529284019291840191600101611c48565b50909695505050505050565b600060208284031215611c8257600080fd5b5035919050565b60008060408385031215611c9c57600080fd5b82359150602083013560048110611cb257600080fd5b809150509250929050565b634e487b7160e01b600052604160045260246000fd5b600067ffffffffffffffff80841115611cee57611cee611cbd565b604051601f8501601f19908116603f01168101908282118183101715611d1657611d16611cbd565b81604052809350858152868686011115611d2f57600080fd5b858560208301376000602087830101525050509392505050565b600082601f830112611d5a57600080fd5b611bc683833560208501611cd3565b60008060408385031215611d7c57600080fd5b823567ffffffffffffffff811115611d9357600080fd5b611d9f85828601611d49565b925050611dae60208401611bf5565b90509250929050565b60008060408385031215611dca57600080fd5b611dd383611bf5565b9150602083013567ffffffffffffffff811115611def57600080fd5b8301601f81018513611e0057600080fd5b611e0f85823560208401611cd3565b9150509250929050565b60008060408385031215611e2c57600080fd5b611e3583611bf5565b946020939093013593505050565b60008060408385031215611e5657600080fd5b82359150611dae60208401611bf5565b60008060408385031215611e7957600080fd5b82359150602083013567ffffffffffffffff811115611e9757600080fd5b611e0f85828601611d49565b60005b83811015611ebe578181015183820152602001611ea6565b50506000910152565b60008151808452611edf816020860160208601611ea3565b601f01601f19169290920160200192915050565b602081526000611bc66020830184611ec7565b634e487b7160e01b600052602160045260246000fd5b60048110611f3a57634e487b7160e01b600052602160045260246000fd5b9052565b8681526001600160a01b0386811660208301528516604082015260c060608201819052600090611f7090830186611ec7565b9050611f7f6080830185611f1c565b8260a0830152979650505050505050565b60208152815160208201526000602083015160018060a01b0380821660408501528060408601511660608501525050606083015160c06080840152611fd860e0840182611ec7565b90506080840151611fec60a0850182611f1c565b5060a084015160c08401528091505092915050565b60208082526016908201527514d95c9d9a58d948191bd95cc81b9bdd08195e1a5cdd60521b604082015260600190565b6020808252601190820152702737ba1039b2b93b34b1b29037bbb732b960791b604082015260600190565b634e487b7160e01b600052601160045260246000fd5b6000600182016120845761208461205c565b5060010190565b600181811c9082168061209f57607f821691505b60208210810361055f57634e487b7160e01b600052602260045260246000fd5b601f821115611781576000816000526020600020601f850160051c810160208610156120e85750805b601f850160051c820191505b81811015612107578281556001016120f4565b505050505050565b815167ffffffffffffffff81111561212957612129611cbd565b61213d81612137845461208b565b846120bf565b602080601f831160018114612172576000841561215a5750858301515b600019600386901b1c1916600185901b178555612107565b600085815260208120601f198616915b828110156121a157888601518255948401946001909101908401612182565b50858210156121bf5787850151600019600388901b60f8161c191681555b5050505050600190811b01905550565b6040815260006121e26040830185611ec7565b90508260208301529392505050565b634e487b7160e01b600052603260045260246000fd5b818103818111156109b1576109b161205c565b634e487b7160e01b600052603160045260246000fd5b60006020828403121561224257600080fd5b5051919050565b6000825161225b818460208701611ea3565b919091019291505056fe360894a13ba1a3210667c828492db98dca3e2076cc3735a920a3ca505d382bbca2646970667358221220d9549bd0f79d88e74336e4e604a702e758534a1e4549564f637caba37d89fc3464736f6c63430008160033",
  "linkReferences": {},
  "deployedLinkReferences": {}
}