{
  "_format": "hh-sol-artifact-1",
  "contractName": "AgentsRegistry",
  "sourceName": "contracts/AgentsRegistry.sol",
  "abi": [
    {
      "inputs": [
        {
          "internalType": "contract ServiceRegistry",
          "name": "_serviceRegistry",
          "type": "address"
        }
      ],
      "stateMutability": "nonpayable",
      "type": "constructor"
    },
    {
      "inputs": [
        {
          "internalType": "address",
          "name": "owner",
          "type": "address"
        }
      ],
      "name": "OwnableInvalidOwner",
      "type": "error"
    },
    {
      "inputs": [
        {
          "internalType": "address",
          "name": "account",
          "type": "address"
        }
      ],
      "name": "OwnableUnauthorizedAccount",
      "type": "error"
    },
    {
      "anonymous": false,
      "inputs": [
        {
          "indexed": true,
          "internalType": "address",
          "name": "agent",
          "type": "address"
        },
        {
          "indexed": true,
          "internalType": "address",
          "name": "owner",
          "type": "address"
        },
        {
          "indexed": false,
          "internalType": "string",
          "name": "name",
          "type": "string"
        },
        {
          "indexed": false,
          "internalType": "string",
          "name": "agentUri",
          "type": "string"
        }
      ],
      "name": "AgentRegistered",
      "type": "event"
    },
    {
      "anonymous": false,
      "inputs": [
        {
          "indexed": true,
          "internalType": "address",
          "name": "previousOwner",
          "type": "address"
        },
        {
          "indexed": true,
          "internalType": "address",
          "name": "newOwner",
          "type": "address"
        }
      ],
      "name": "OwnershipTransferred",
      "type": "event"
    },
    {
      "anonymous": false,
      "inputs": [
        {
          "indexed": true,
          "internalType": "address",
          "name": "agent",
          "type": "address"
        },
        {
          "indexed": false,
          "internalType": "uint256",
          "name": "proposalId",
          "type": "uint256"
        },
        {
          "indexed": false,
          "internalType": "string",
          "name": "name",
          "type": "string"
        },
        {
          "indexed": false,
          "internalType": "uint256",
          "name": "price",
          "type": "uint256"
        }
      ],
      "name": "ProposalAdded",
      "type": "event"
    },
    {
      "anonymous": false,
      "inputs": [
        {
          "indexed": true,
          "internalType": "address",
          "name": "agent",
          "type": "address"
        },
        {
          "indexed": false,
          "internalType": "uint256",
          "name": "newReputation",
          "type": "uint256"
        }
      ],
      "name": "ReputationUpdated",
      "type": "event"
    },
    {
      "anonymous": false,
      "inputs": [
        {
          "indexed": true,
          "internalType": "address",
          "name": "agent",
          "type": "address"
        },
        {
          "indexed": false,
          "internalType": "uint256",
          "name": "name",
          "type": "uint256"
        }
      ],
      "name": "ServiceAdded",
      "type": "event"
    },
    {
      "inputs": [
        {
          "internalType": "address",
          "name": "",
          "type": "address"
        }
      ],
      "name": "agents",
      "outputs": [
        {
          "internalType": "string",
          "name": "name",
          "type": "string"
        },
        {
          "internalType": "string",
          "name": "agentUri",
          "type": "string"
        },
        {
          "internalType": "address",
          "name": "owner",
          "type": "address"
        },
        {
          "internalType": "address",
          "name": "agent",
          "type": "address"
        },
        {
          "internalType": "uint256",
          "name": "reputation",
          "type": "uint256"
        },
        {
          "internalType": "bool",
          "name": "isRegistered",
          "type": "bool"
        }
      ],
      "stateMutability": "view",
      "type": "function"
    },
    {
      "inputs": [
        {
          "internalType": "address",
          "name": "_agent",
          "type": "address"
        }
      ],
      "name": "getAgentData",
      "outputs": [
        {
          "internalType": "string",
          "name": "name",
          "type": "string"
        },
        {
          "internalType": "string",
          "name": "agentUri",
          "type": "string"
        },
        {
          "internalType": "address",
          "name": "owner",
          "type": "address"
        },
        {
          "internalType": "address",
          "name": "agent",
          "type": "address"
        },
        {
          "internalType": "uint256",
          "name": "reputation",
          "type": "uint256"
        }
      ],
      "stateMutability": "view",
      "type": "function"
    },
    {
      "inputs": [
        {
          "internalType": "uint256",
          "name": "proposalId",
          "type": "uint256"
        }
      ],
      "name": "getProposal",
      "outputs": [
        {
          "components": [
            {
              "internalType": "address",
              "name": "issuer",
              "type": "address"
            },
            {
              "internalType": "string",
              "name": "serviceName",
              "type": "string"
            },
            {
              "internalType": "uint256",
              "name": "price",
              "type": "uint256"
            },
            {
              "internalType": "uint256",
              "name": "proposalId",
              "type": "uint256"
            }
          ],
          "internalType": "struct IProposalStruct.Proposal",
          "name": "",
          "type": "tuple"
        }
      ],
      "stateMutability": "view",
      "type": "function"
    },
    {
      "inputs": [
        {
          "internalType": "address",
          "name": "agent",
          "type": "address"
        }
      ],
      "name": "getReputation",
      "outputs": [
        {
          "internalType": "uint256",
          "name": "",
          "type": "uint256"
        }
      ],
      "stateMutability": "view",
      "type": "function"
    },
    {
      "inputs": [
        {
          "internalType": "address",
          "name": "agent",
          "type": "address"
        }
      ],
      "name": "isRegistered",
      "outputs": [
        {
          "internalType": "bool",
          "name": "",
          "type": "bool"
        }
      ],
      "stateMutability": "view",
      "type": "function"
    },
    {
      "inputs": [],
      "name": "nextProposalId",
      "outputs": [
        {
          "internalType": "uint256",
          "name": "",
          "type": "uint256"
        }
      ],
      "stateMutability": "view",
      "type": "function"
    },
    {
      "inputs": [],
      "name": "owner",
      "outputs": [
        {
          "internalType": "address",
          "name": "",
          "type": "address"
        }
      ],
      "stateMutability": "view",
      "type": "function"
    },
    {
      "inputs": [
        {
          "internalType": "uint256",
          "name": "",
          "type": "uint256"
        }
      ],
      "name": "proposals",
      "outputs": [
        {
          "internalType": "address",
          "name": "issuer",
          "type": "address"
        },
        {
          "internalType": "string",
          "name": "serviceName",
          "type": "string"
        },
        {
          "internalType": "uint256",
          "name": "price",
          "type": "uint256"
        },
        {
          "internalType": "uint256",
          "name": "proposalId",
          "type": "uint256"
        }
      ],
      "stateMutability": "view",
      "type": "function"
    },
    {
      "inputs": [
        {
          "internalType": "address",
          "name": "agent",
          "type": "address"
        },
        {
          "internalType": "string",
          "name": "name",
          "type": "string"
        },
        {
          "internalType": "string",
          "name": "agentUri",
          "type": "string"
        },
        {
          "internalType": "string",
          "name": "serviceName",
          "type": "string"
        },
        {
          "internalType": "uint256",
          "name": "servicePrice",
          "type": "uint256"
        }
      ],
      "name": "registerAgent",
      "outputs": [
        {
          "internalType": "bool",
          "name": "",
          "type": "bool"
        }
      ],
      "stateMutability": "nonpayable",
      "type": "function"
    },
    {
      "inputs": [],
      "name": "renounceOwnership",
      "outputs": [],
      "stateMutability": "nonpayable",
      "type": "function"
    },
    {
      "inputs": [],
      "name": "serviceRegistry",
      "outputs": [
        {
          "internalType": "contract ServiceRegistry",
          "name": "",
          "type": "address"
        }
      ],
      "stateMutability": "view",
      "type": "function"
    },
    {
      "inputs": [
        {
          "internalType": "address",
          "name": "newOwner",
          "type": "address"
        }
      ],
      "name": "transferOwnership",
      "outputs": [],
      "stateMutability": "nonpayable",
      "type": "function"
    },
    {
      "inputs": [
        {
          "internalType": "address",
          "name": "agent",
          "type": "address"
        },
        {
          "internalType": "uint256",
          "name": "_reputation",
          "type": "uint256"
        }
      ],
      "name": "updateReputation",
      "outputs": [],
      "stateMutability": "nonpayable",
      "type": "function"
    }
  ],
  "bytecode": "0x608060405234801561001057600080fd5b5060405161132238038061132283398101604081905261002f916100d4565b338061005557604051631e4fbdf760e01b81526000600482015260240160405180910390fd5b61005e81610084565b50600180546001600160a01b0319166001600160a01b0392909216919091179055610104565b600080546001600160a01b038381166001600160a01b0319831681178455604051919092169283917f8be0079c531659141344cd1fd0a4f28419497f9722a3daafe3b4186f6b6457e09190a35050565b6000602082840312156100e657600080fd5b81516001600160a01b03811681146100fd57600080fd5b9392505050565b61120f806101136000396000f3fe608060405234801561001057600080fd5b50600436106100cf5760003560e01c8063aac9f15a1161008c578063cbcf252a11610066578063cbcf252a146101ef578063f2fde38b14610202578063f5c91a0814610215578063fd66091e1461022857600080fd5b8063aac9f15a1461017c578063c3c5a547146101a0578063c7f758a8146101cf57600080fd5b8063013cf08b146100d45780632ab09d1414610100578063715018a6146101175780638da5cb5b1461012157806398366dbd146101465780639c89a0e214610169575b600080fd5b6100e76100e2366004610c9d565b61024d565b6040516100f79493929190610cfc565b60405180910390f35b61010960045481565b6040519081526020016100f7565b61011f61031b565b005b6000546001600160a01b03165b6040516001600160a01b0390911681526020016100f7565b610159610154366004610df2565b61032f565b60405190151581526020016100f7565b610109610177366004610e93565b6106a5565b61018f61018a366004610e93565b61072e565b6040516100f7959493929190610eb5565b6101596101ae366004610e93565b6001600160a01b031660009081526002602052604090206005015460ff1690565b6101e26101dd366004610c9d565b61089f565b6040516100f79190610eff565b60015461012e906001600160a01b031681565b61011f610210366004610e93565b6109c3565b61011f610223366004610f4d565b610a01565b61023b610236366004610e93565b610aca565b6040516100f796959493929190610f77565b6003818154811061025d57600080fd5b6000918252602090912060049091020180546001820180546001600160a01b0390921693509061028c90610fcd565b80601f01602080910402602001604051908101604052809291908181526020018280546102b890610fcd565b80156103055780601f106102da57610100808354040283529160200191610305565b820191906000526020600020905b8154815290600101906020018083116102e857829003601f168201915b5050505050908060020154908060030154905084565b610323610c20565b61032d6000610c4d565b565b6001600160a01b03851660009081526002602052604081206005015460ff16156103a05760405162461bcd60e51b815260206004820152601860248201527f4167656e7420616c72656164792072656769737465726564000000000000000060448201526064015b60405180910390fd5b60015460405163b405166b60e01b81526001600160a01b039091169063b405166b906103d0908690600401611001565b602060405180830381865afa1580156103ed573d6000803e3d6000fd5b505050506040513d601f19601f820116820180604052508101906104119190611014565b6104565760405162461bcd60e51b815260206004820152601660248201527514d95c9d9a58d9481b9bdd081c9959da5cdd195c995960521b6044820152606401610397565b6001600160a01b0386166000908152600260205260409020806104798782611085565b50600181016104888682611085565b506002810180546001600160a01b031990811633179091556003820180546001600160a01b038a811691841682179092556000600480860182905560058601805460ff191660019081179091556040805160808101825294855260208086018c81529186018b9052835460608701526006890180548085018255908652942085519490930290920180549390951692909516919091178355519092839291908201906105349082611085565b5060408201516002820155606090910151600391820155805460018101825560009190915281517fc2575a0e9e593c00f959f8c92f12db2869c3395a3b0502d05e2516446f71f85b600490920291820180546001600160a01b0319166001600160a01b03909216919091178155602083015183927fc2575a0e9e593c00f959f8c92f12db2869c3395a3b0502d05e2516446f71f85c01906105d59082611085565b5060408201516002820155606090910151600390910155600480549060006105fc83611145565b9190505550336001600160a01b0316886001600160a01b03167f2a562efb52e7cec209321f57200606311256da6d2a1b19d44db7837a3209de28898960405161064692919061116c565b60405180910390a3876001600160a01b03167fe194e0bc2279adb185c748ae57db10fe2ef1005a1b5646f96235a881c88ddb798260600151878760405161068f9392919061119a565b60405180910390a2506001979650505050505050565b6001600160a01b038116600090815260026020526040812060050154829060ff166107095760405162461bcd60e51b81526020600482015260146024820152731059d95b9d081b9bdd081c9959da5cdd195c995960621b6044820152606401610397565b6001600160a01b03831660009081526002602052604090206004015491505b50919050565b6001600160a01b038082166000908152600260208190526040822090810154600382015460048301548354606096879695869586959194859460018601949283169390921691859061077f90610fcd565b80601f01602080910402602001604051908101604052809291908181526020018280546107ab90610fcd565b80156107f85780601f106107cd576101008083540402835291602001916107f8565b820191906000526020600020905b8154815290600101906020018083116107db57829003601f168201915b5050505050945083805461080b90610fcd565b80601f016020809104026020016040519081016040528092919081815260200182805461083790610fcd565b80156108845780601f1061085957610100808354040283529160200191610884565b820191906000526020600020905b81548152906001019060200180831161086757829003601f168201915b50505050509350955095509550955095505091939590929450565b6108d3604051806080016040528060006001600160a01b031681526020016060815260200160008152602001600081525090565b600382815481106108e6576108e66111c3565b6000918252602091829020604080516080810190915260049092020180546001600160a01b03168252600181018054929391929184019161092690610fcd565b80601f016020809104026020016040519081016040528092919081815260200182805461095290610fcd565b801561099f5780601f106109745761010080835404028352916020019161099f565b820191906000526020600020905b81548152906001019060200180831161098257829003601f168201915b50505050508152602001600282015481526020016003820154815250509050919050565b6109cb610c20565b6001600160a01b0381166109f557604051631e4fbdf760e01b815260006004820152602401610397565b6109fe81610c4d565b50565b610a09610c20565b6001600160a01b038216600090815260026020526040902060050154829060ff16610a6d5760405162461bcd60e51b81526020600482015260146024820152731059d95b9d081b9bdd081c9959da5cdd195c995960621b6044820152606401610397565b6001600160a01b03831660008181526002602052604090819020600401849055517ffc577563f1b9a0461e24abef1e1fcc0d33d3d881f20b5df6dda59de4aae2c82190610abd9085815260200190565b60405180910390a2505050565b600260205260009081526040902080548190610ae590610fcd565b80601f0160208091040260200160405190810160405280929190818152602001828054610b1190610fcd565b8015610b5e5780601f10610b3357610100808354040283529160200191610b5e565b820191906000526020600020905b815481529060010190602001808311610b4157829003601f168201915b505050505090806001018054610b7390610fcd565b80601f0160208091040260200160405190810160405280929190818152602001828054610b9f90610fcd565b8015610bec5780601f10610bc157610100808354040283529160200191610bec565b820191906000526020600020905b815481529060010190602001808311610bcf57829003601f168201915b5050505060028301546003840154600485015460059095015493946001600160a01b03928316949290911692509060ff1686565b6000546001600160a01b0316331461032d5760405163118cdaa760e01b8152336004820152602401610397565b600080546001600160a01b038381166001600160a01b0319831681178455604051919092169283917f8be0079c531659141344cd1fd0a4f28419497f9722a3daafe3b4186f6b6457e09190a35050565b600060208284031215610caf57600080fd5b5035919050565b6000815180845260005b81811015610cdc57602081850181015186830182015201610cc0565b506000602082860101526020601f19601f83011685010191505092915050565b6001600160a01b0385168152608060208201819052600090610d2090830186610cb6565b6040830194909452506060015292915050565b80356001600160a01b0381168114610d4a57600080fd5b919050565b634e487b7160e01b600052604160045260246000fd5b600082601f830112610d7657600080fd5b813567ffffffffffffffff80821115610d9157610d91610d4f565b604051601f8301601f19908116603f01168101908282118183101715610db957610db9610d4f565b81604052838152866020858801011115610dd257600080fd5b836020870160208301376000602085830101528094505050505092915050565b600080600080600060a08688031215610e0a57600080fd5b610e1386610d33565b9450602086013567ffffffffffffffff80821115610e3057600080fd5b610e3c89838a01610d65565b95506040880135915080821115610e5257600080fd5b610e5e89838a01610d65565b94506060880135915080821115610e7457600080fd5b50610e8188828901610d65565b95989497509295608001359392505050565b600060208284031215610ea557600080fd5b610eae82610d33565b9392505050565b60a081526000610ec860a0830188610cb6565b8281036020840152610eda8188610cb6565b6001600160a01b03968716604085015294909516606083015250608001529392505050565b602080825282516001600160a01b03168282015282015160806040830152600090610f2d60a0840182610cb6565b905060408401516060840152606084015160808401528091505092915050565b60008060408385031215610f6057600080fd5b610f6983610d33565b946020939093013593505050565b60c081526000610f8a60c0830189610cb6565b8281036020840152610f9c8189610cb6565b6001600160a01b039788166040850152959096166060830152506080810192909252151560a0909101529392505050565b600181811c90821680610fe157607f821691505b60208210810361072857634e487b7160e01b600052602260045260246000fd5b602081526000610eae6020830184610cb6565b60006020828403121561102657600080fd5b81518015158114610eae57600080fd5b601f82111561108057600081815260208120601f850160051c8101602086101561105d5750805b601f850160051c820191505b8181101561107c57828155600101611069565b5050505b505050565b815167ffffffffffffffff81111561109f5761109f610d4f565b6110b3816110ad8454610fcd565b84611036565b602080601f8311600181146110e857600084156110d05750858301515b600019600386901b1c1916600185901b17855561107c565b600085815260208120601f198616915b82811015611117578886015182559484019460019091019084016110f8565b50858210156111355787850151600019600388901b60f8161c191681555b5050505050600190811b01905550565b60006001820161116557634e487b7160e01b600052601160045260246000fd5b5060010190565b60408152600061117f6040830185610cb6565b82810360208401526111918185610cb6565b95945050505050565b8381526060602082015260006111b36060830185610cb6565b9050826040830152949350505050565b634e487b7160e01b600052603260045260246000fdfea26469706673582212202fe5e950305276469a5e1b110d11d1a15beca558b7c205b065d06b11c61cfe7964736f6c63430008140033",
  "linkReferences": {},
  "deployedLinkReferences": {}
}