{
  "_format": "hh-sol-artifact-1",
  "contractName": "EnsembleCredits",
  "sourceName": "contracts/EnsembleCredits.sol",
  "abi": [
    {
      "inputs": [
        {
          "internalType": "string",
          "name": "name",
          "type": "string"
        },
        {
          "internalType": "string",
          "name": "symbol",
          "type": "string"
        },
        {
          "internalType": "address",
          "name": "initialAdmin",
          "type": "address"
        },
        {
          "internalType": "uint256",
          "name": "initialSupply",
          "type": "uint256"
        }
      ],
      "stateMutability": "nonpayable",
      "type": "constructor"
    },
    {
      "inputs": [],
      "name": "AccessControlBadConfirmation",
      "type": "error"
    },
    {
      "inputs": [
        {
          "internalType": "address",
          "name": "account",
          "type": "address"
        },
        {
          "internalType": "bytes32",
          "name": "neededRole",
          "type": "bytes32"
        }
      ],
      "name": "AccessControlUnauthorizedAccount",
      "type": "error"
    },
    {
      "inputs": [],
      "name": "ApprovalNotAllowed",
      "type": "error"
    },
    {
      "inputs": [
        {
          "internalType": "address",
          "name": "spender",
          "type": "address"
        },
        {
          "internalType": "uint256",
          "name": "allowance",
          "type": "uint256"
        },
        {
          "internalType": "uint256",
          "name": "needed",
          "type": "uint256"
        }
      ],
      "name": "ERC20InsufficientAllowance",
      "type": "error"
    },
    {
      "inputs": [
        {
          "internalType": "address",
          "name": "sender",
          "type": "address"
        },
        {
          "internalType": "uint256",
          "name": "balance",
          "type": "uint256"
        },
        {
          "internalType": "uint256",
          "name": "needed",
          "type": "uint256"
        }
      ],
      "name": "ERC20InsufficientBalance",
      "type": "error"
    },
    {
      "inputs": [
        {
          "internalType": "address",
          "name": "approver",
          "type": "address"
        }
      ],
      "name": "ERC20InvalidApprover",
      "type": "error"
    },
    {
      "inputs": [
        {
          "internalType": "address",
          "name": "receiver",
          "type": "address"
        }
      ],
      "name": "ERC20InvalidReceiver",
      "type": "error"
    },
    {
      "inputs": [
        {
          "internalType": "address",
          "name": "sender",
          "type": "address"
        }
      ],
      "name": "ERC20InvalidSender",
      "type": "error"
    },
    {
      "inputs": [
        {
          "internalType": "address",
          "name": "spender",
          "type": "address"
        }
      ],
      "name": "ERC20InvalidSpender",
      "type": "error"
    },
    {
      "inputs": [],
      "name": "TransferNotAllowed",
      "type": "error"
    },
    {
      "anonymous": false,
      "inputs": [
        {
          "indexed": true,
          "internalType": "address",
          "name": "owner",
          "type": "address"
        },
        {
          "indexed": true,
          "internalType": "address",
          "name": "spender",
          "type": "address"
        },
        {
          "indexed": false,
          "internalType": "uint256",
          "name": "value",
          "type": "uint256"
        }
      ],
      "name": "Approval",
      "type": "event"
    },
    {
      "anonymous": false,
      "inputs": [
        {
          "indexed": true,
          "internalType": "address",
          "name": "from",
          "type": "address"
        },
        {
          "indexed": false,
          "internalType": "uint256",
          "name": "amount",
          "type": "uint256"
        }
      ],
      "name": "Burn",
      "type": "event"
    },
    {
      "anonymous": false,
      "inputs": [
        {
          "indexed": true,
          "internalType": "address",
          "name": "to",
          "type": "address"
        },
        {
          "indexed": false,
          "internalType": "uint256",
          "name": "amount",
          "type": "uint256"
        }
      ],
      "name": "Mint",
      "type": "event"
    },
    {
      "anonymous": false,
      "inputs": [
        {
          "indexed": true,
          "internalType": "address",
          "name": "minter",
          "type": "address"
        }
      ],
      "name": "MinterAdded",
      "type": "event"
    },
    {
      "anonymous": false,
      "inputs": [
        {
          "indexed": true,
          "internalType": "address",
          "name": "minter",
          "type": "address"
        }
      ],
      "name": "MinterRemoved",
      "type": "event"
    },
    {
      "anonymous": false,
      "inputs": [
        {
          "indexed": true,
          "internalType": "bytes32",
          "name": "role",
          "type": "bytes32"
        },
        {
          "indexed": true,
          "internalType": "bytes32",
          "name": "previousAdminRole",
          "type": "bytes32"
        },
        {
          "indexed": true,
          "internalType": "bytes32",
          "name": "newAdminRole",
          "type": "bytes32"
        }
      ],
      "name": "RoleAdminChanged",
      "type": "event"
    },
    {
      "anonymous": false,
      "inputs": [
        {
          "indexed": true,
          "internalType": "bytes32",
          "name": "role",
          "type": "bytes32"
        },
        {
          "indexed": true,
          "internalType": "address",
          "name": "account",
          "type": "address"
        },
        {
          "indexed": true,
          "internalType": "address",
          "name": "sender",
          "type": "address"
        }
      ],
      "name": "RoleGranted",
      "type": "event"
    },
    {
      "anonymous": false,
      "inputs": [
        {
          "indexed": true,
          "internalType": "bytes32",
          "name": "role",
          "type": "bytes32"
        },
        {
          "indexed": true,
          "internalType": "address",
          "name": "account",
          "type": "address"
        },
        {
          "indexed": true,
          "internalType": "address",
          "name": "sender",
          "type": "address"
        }
      ],
      "name": "RoleRevoked",
      "type": "event"
    },
    {
      "anonymous": false,
      "inputs": [
        {
          "indexed": true,
          "internalType": "address",
          "name": "from",
          "type": "address"
        },
        {
          "indexed": true,
          "internalType": "address",
          "name": "to",
          "type": "address"
        },
        {
          "indexed": false,
          "internalType": "uint256",
          "name": "value",
          "type": "uint256"
        }
      ],
      "name": "Transfer",
      "type": "event"
    },
    {
      "inputs": [],
      "name": "DEFAULT_ADMIN_ROLE",
      "outputs": [
        {
          "internalType": "bytes32",
          "name": "",
          "type": "bytes32"
        }
      ],
      "stateMutability": "view",
      "type": "function"
    },
    {
      "inputs": [],
      "name": "MINTER_ROLE",
      "outputs": [
        {
          "internalType": "bytes32",
          "name": "",
          "type": "bytes32"
        }
      ],
      "stateMutability": "view",
      "type": "function"
    },
    {
      "inputs": [
        {
          "internalType": "address",
          "name": "minter",
          "type": "address"
        }
      ],
      "name": "addMinter",
      "outputs": [],
      "stateMutability": "nonpayable",
      "type": "function"
    },
    {
      "inputs": [
        {
          "internalType": "address",
          "name": "",
          "type": "address"
        },
        {
          "internalType": "address",
          "name": "",
          "type": "address"
        }
      ],
      "name": "allowance",
      "outputs": [
        {
          "internalType": "uint256",
          "name": "",
          "type": "uint256"
        }
      ],
      "stateMutability": "pure",
      "type": "function"
    },
    {
      "inputs": [
        {
          "internalType": "address",
          "name": "",
          "type": "address"
        },
        {
          "internalType": "uint256",
          "name": "",
          "type": "uint256"
        }
      ],
      "name": "approve",
      "outputs": [
        {
          "internalType": "bool",
          "name": "",
          "type": "bool"
        }
      ],
      "stateMutability": "pure",
      "type": "function"
    },
    {
      "inputs": [
        {
          "internalType": "address",
          "name": "account",
          "type": "address"
        }
      ],
      "name": "balanceOf",
      "outputs": [
        {
          "internalType": "uint256",
          "name": "",
          "type": "uint256"
        }
      ],
      "stateMutability": "view",
      "type": "function"
    },
    {
      "inputs": [
        {
          "internalType": "uint256",
          "name": "amount",
          "type": "uint256"
        }
      ],
      "name": "burn",
      "outputs": [],
      "stateMutability": "nonpayable",
      "type": "function"
    },
    {
      "inputs": [
        {
          "internalType": "address",
          "name": "from",
          "type": "address"
        },
        {
          "internalType": "uint256",
          "name": "amount",
          "type": "uint256"
        }
      ],
      "name": "burnFrom",
      "outputs": [],
      "stateMutability": "nonpayable",
      "type": "function"
    },
    {
      "inputs": [],
      "name": "decimals",
      "outputs": [
        {
          "internalType": "uint8",
          "name": "",
          "type": "uint8"
        }
      ],
      "stateMutability": "pure",
      "type": "function"
    },
    {
      "inputs": [
        {
          "internalType": "address",
          "name": "",
          "type": "address"
        },
        {
          "internalType": "uint256",
          "name": "",
          "type": "uint256"
        }
      ],
      "name": "decreaseAllowance",
      "outputs": [
        {
          "internalType": "bool",
          "name": "",
          "type": "bool"
        }
      ],
      "stateMutability": "pure",
      "type": "function"
    },
    {
      "inputs": [
        {
          "internalType": "bytes32",
          "name": "role",
          "type": "bytes32"
        }
      ],
      "name": "getRoleAdmin",
      "outputs": [
        {
          "internalType": "bytes32",
          "name": "",
          "type": "bytes32"
        }
      ],
      "stateMutability": "view",
      "type": "function"
    },
    {
      "inputs": [
        {
          "internalType": "bytes32",
          "name": "role",
          "type": "bytes32"
        },
        {
          "internalType": "address",
          "name": "account",
          "type": "address"
        }
      ],
      "name": "grantRole",
      "outputs": [],
      "stateMutability": "nonpayable",
      "type": "function"
    },
    {
      "inputs": [
        {
          "internalType": "bytes32",
          "name": "role",
          "type": "bytes32"
        },
        {
          "internalType": "address",
          "name": "account",
          "type": "address"
        }
      ],
      "name": "hasRole",
      "outputs": [
        {
          "internalType": "bool",
          "name": "",
          "type": "bool"
        }
      ],
      "stateMutability": "view",
      "type": "function"
    },
    {
      "inputs": [
        {
          "internalType": "address",
          "name": "",
          "type": "address"
        },
        {
          "internalType": "uint256",
          "name": "",
          "type": "uint256"
        }
      ],
      "name": "increaseAllowance",
      "outputs": [
        {
          "internalType": "bool",
          "name": "",
          "type": "bool"
        }
      ],
      "stateMutability": "pure",
      "type": "function"
    },
    {
      "inputs": [
        {
          "internalType": "address",
          "name": "account",
          "type": "address"
        }
      ],
      "name": "isMinter",
      "outputs": [
        {
          "internalType": "bool",
          "name": "",
          "type": "bool"
        }
      ],
      "stateMutability": "view",
      "type": "function"
    },
    {
      "inputs": [
        {
          "internalType": "address",
          "name": "to",
          "type": "address"
        },
        {
          "internalType": "uint256",
          "name": "amount",
          "type": "uint256"
        }
      ],
      "name": "mint",
      "outputs": [],
      "stateMutability": "nonpayable",
      "type": "function"
    },
    {
      "inputs": [],
      "name": "name",
      "outputs": [
        {
          "internalType": "string",
          "name": "",
          "type": "string"
        }
      ],
      "stateMutability": "view",
      "type": "function"
    },
    {
      "inputs": [
        {
          "internalType": "address",
          "name": "minter",
          "type": "address"
        }
      ],
      "name": "removeMinter",
      "outputs": [],
      "stateMutability": "nonpayable",
      "type": "function"
    },
    {
      "inputs": [
        {
          "internalType": "bytes32",
          "name": "role",
          "type": "bytes32"
        },
        {
          "internalType": "address",
          "name": "callerConfirmation",
          "type": "address"
        }
      ],
      "name": "renounceRole",
      "outputs": [],
      "stateMutability": "nonpayable",
      "type": "function"
    },
    {
      "inputs": [
        {
          "internalType": "bytes32",
          "name": "role",
          "type": "bytes32"
        },
        {
          "internalType": "address",
          "name": "account",
          "type": "address"
        }
      ],
      "name": "revokeRole",
      "outputs": [],
      "stateMutability": "nonpayable",
      "type": "function"
    },
    {
      "inputs": [
        {
          "internalType": "bytes4",
          "name": "interfaceId",
          "type": "bytes4"
        }
      ],
      "name": "supportsInterface",
      "outputs": [
        {
          "internalType": "bool",
          "name": "",
          "type": "bool"
        }
      ],
      "stateMutability": "view",
      "type": "function"
    },
    {
      "inputs": [],
      "name": "symbol",
      "outputs": [
        {
          "internalType": "string",
          "name": "",
          "type": "string"
        }
      ],
      "stateMutability": "view",
      "type": "function"
    },
    {
      "inputs": [],
      "name": "totalSupply",
      "outputs": [
        {
          "internalType": "uint256",
          "name": "",
          "type": "uint256"
        }
      ],
      "stateMutability": "view",
      "type": "function"
    },
    {
      "inputs": [
        {
          "internalType": "address",
          "name": "",
          "type": "address"
        },
        {
          "internalType": "uint256",
          "name": "",
          "type": "uint256"
        }
      ],
      "name": "transfer",
      "outputs": [
        {
          "internalType": "bool",
          "name": "",
          "type": "bool"
        }
      ],
      "stateMutability": "pure",
      "type": "function"
    },
    {
      "inputs": [
        {
          "internalType": "address",
          "name": "",
          "type": "address"
        },
        {
          "internalType": "address",
          "name": "",
          "type": "address"
        },
        {
          "internalType": "uint256",
          "name": "",
          "type": "uint256"
        }
      ],
      "name": "transferFrom",
      "outputs": [
        {
          "internalType": "bool",
          "name": "",
          "type": "bool"
        }
      ],
      "stateMutability": "pure",
      "type": "function"
    }
  ],
  "bytecode": "0x60806040523480156200001157600080fd5b50604051620015c8380380620015c88339810160408190526200003491620004a6565b83836003620000448382620005ca565b506004620000538282620005ca565b5050506001600160a01b038216620000c85760405162461bcd60e51b815260206004820152602d60248201527f456e73656d626c65437265646974733a2061646d696e2063616e6e6f7420626560448201526c207a65726f206164647265737360981b60648201526084015b60405180910390fd5b620000d56000836200016f565b50620000f1600080516020620015a8833981519152836200016f565b506200010d600080516020620015a88339815191528062000222565b801562000165576200012082826200026d565b816001600160a01b03167f0f6798a560793a54c3bcfe86a93cde1e73087d944c0ea20544137d4121396885826040516200015c91815260200190565b60405180910390a25b50505050620006b8565b60008281526005602090815260408083206001600160a01b038516845290915281205460ff16620002185760008381526005602090815260408083206001600160a01b03861684529091529020805460ff19166001179055620001cf3390565b6001600160a01b0316826001600160a01b0316847f2f8788117e7eff1d82e926ec794901d17c78024a50270940304540a733656f0d60405160405180910390a45060016200021c565b5060005b92915050565b600082815260056020526040808220600101805490849055905190918391839186917fbd79b86ffe0ab8e8776151514217cd7cacd52c909f66475c3af44e129f0b00ff9190a4505050565b6001600160a01b038216620002995760405163ec442f0560e01b815260006004820152602401620000bf565b620002a760008383620002ab565b5050565b6001600160a01b038316620002da578060026000828254620002ce919062000696565b909155506200034e9050565b6001600160a01b038316600090815260208190526040902054818110156200032f5760405163391434e360e21b81526001600160a01b03851660048201526024810182905260448101839052606401620000bf565b6001600160a01b03841660009081526020819052604090209082900390555b6001600160a01b0382166200036c576002805482900390556200038b565b6001600160a01b03821660009081526020819052604090208054820190555b816001600160a01b0316836001600160a01b03167fddf252ad1be2c89b69c2b068fc378daa952ba7f163c4a11628f55a4df523b3ef83604051620003d191815260200190565b60405180910390a3505050565b634e487b7160e01b600052604160045260246000fd5b600082601f8301126200040657600080fd5b81516001600160401b0380821115620004235762000423620003de565b604051601f8301601f19908116603f011681019082821181831017156200044e576200044e620003de565b81604052838152602092508660208588010111156200046c57600080fd5b600091505b8382101562000490578582018301518183018401529082019062000471565b6000602085830101528094505050505092915050565b60008060008060808587031215620004bd57600080fd5b84516001600160401b0380821115620004d557600080fd5b620004e388838901620003f4565b95506020870151915080821115620004fa57600080fd5b506200050987828801620003f4565b604087015190945090506001600160a01b03811681146200052957600080fd5b6060959095015193969295505050565b600181811c908216806200054e57607f821691505b6020821081036200056f57634e487b7160e01b600052602260045260246000fd5b50919050565b601f821115620005c5576000816000526020600020601f850160051c81016020861015620005a05750805b601f850160051c820191505b81811015620005c157828155600101620005ac565b5050505b505050565b81516001600160401b03811115620005e657620005e6620003de565b620005fe81620005f7845462000539565b8462000575565b602080601f8311600181146200063657600084156200061d5750858301515b600019600386901b1c1916600185901b178555620005c1565b600085815260208120601f198616915b82811015620006675788860151825594840194600190910190840162000646565b5085821015620006865787850151600019600388901b60f8161c191681555b5050505050600190811b01905550565b808201808211156200021c57634e487b7160e01b600052601160045260246000fd5b610ee080620006c86000396000f3fe608060405234801561001057600080fd5b50600436106101735760003560e01c806342966c68116100de578063a217fddf11610097578063aa271e1a11610071578063aa271e1a14610300578063d539139314610313578063d547741f14610328578063dd62ed3e1461033b57600080fd5b8063a217fddf146102ea578063a457c2d7146101b5578063a9059cbb146102f257600080fd5b806342966c681461026d57806370a082311461028057806379cc6790146102a957806391d14854146102bc57806395d89b41146102cf578063983b2d56146102d757600080fd5b80632f2ff15d116101305780632f2ff15d146102105780633092afd514610225578063313ce5671461023857806336568abe1461024757806339509351146101b557806340c10f191461025a57600080fd5b806301ffc9a71461017857806306fdde03146101a0578063095ea7b3146101b557806318160ddd146101c857806323b872dd146101da578063248a9ca3146101ed575b600080fd5b61018b610186366004610ca3565b610349565b60405190151581526020015b60405180910390f35b6101a8610380565b6040516101979190610cd4565b61018b6101c3366004610d3f565b610412565b6002545b604051908152602001610197565b61018b6101e8366004610d69565b61042d565b6101cc6101fb366004610da5565b60009081526005602052604090206001015490565b61022361021e366004610dbe565b610448565b005b610223610233366004610dea565b610473565b60405160068152602001610197565b610223610255366004610dbe565b6105ca565b610223610268366004610d3f565b610602565b61022361027b366004610da5565b6106d7565b6101cc61028e366004610dea565b6001600160a01b031660009081526020819052604090205490565b6102236102b7366004610d3f565b610729565b61018b6102ca366004610dbe565b61086f565b6101a861089a565b6102236102e5366004610dea565b6108a9565b6101cc600081565b61018b6101e8366004610d3f565b61018b61030e366004610dea565b610983565b6101cc600080516020610e8b83398151915281565b610223610336366004610dbe565b61099d565b6101cc6101c3366004610e05565b60006001600160e01b03198216637965db0b60e01b148061037a57506301ffc9a760e01b6001600160e01b03198316145b92915050565b60606003805461038f90610e2f565b80601f01602080910402602001604051908101604052809291908181526020018280546103bb90610e2f565b80156104085780601f106103dd57610100808354040283529160200191610408565b820191906000526020600020905b8154815290600101906020018083116103eb57829003601f168201915b5050505050905090565b600060405163043038b760e11b815260040160405180910390fd5b6000604051638cd22d1960e01b815260040160405180910390fd5b600082815260056020526040902060010154610463816109c2565b61046d83836109cf565b50505050565b600080516020610e8b83398151915261048b816109c2565b6001600160a01b0382166105045760405162461bcd60e51b815260206004820152603560248201527f456e73656d626c65437265646974733a2063616e6e6f742072656d6f7665207a60448201527432b9379030b2323932b9b99030b99036b4b73a32b960591b60648201526084015b60405180910390fd5b61051c600080516020610e8b8339815191528361086f565b6105795760405162461bcd60e51b815260206004820152602860248201527f456e73656d626c65437265646974733a2061646472657373206973206e6f7420604482015267309036b4b73a32b960c11b60648201526084016104fb565b610591600080516020610e8b83398151915283610a63565b506040516001600160a01b038316907fe94479a9f7e1952cc78f2d6baab678adc1b772d936c6583def489e524cb6669290600090a25050565b6001600160a01b03811633146105f35760405163334bd91960e11b815260040160405180910390fd5b6105fd8282610a63565b505050565b600080516020610e8b83398151915261061a816109c2565b6001600160a01b0383166106855760405162461bcd60e51b815260206004820152602c60248201527f456e73656d626c65437265646974733a2063616e6e6f74206d696e7420746f2060448201526b7a65726f206164647265737360a01b60648201526084016104fb565b61068f8383610ad0565b826001600160a01b03167f0f6798a560793a54c3bcfe86a93cde1e73087d944c0ea20544137d4121396885836040516106ca91815260200190565b60405180910390a2505050565b336106e28183610b0a565b806001600160a01b03167fcc16f5dbb4873280815c1ee09dbd06736cffcc184412cf7a71a0fdb75d397ca58360405161071d91815260200190565b60405180910390a25050565b610741600080516020610e8b8339815191523361086f565b6107bd5760405162461bcd60e51b815260206004820152604160248201527f456e73656d626c65437265646974733a2063616c6c6572206d7573742068617660448201527f65206d696e74657220726f6c6520746f206275726e2066726f6d206f746865726064820152607360f81b608482015260a4016104fb565b6001600160a01b03821661082a5760405162461bcd60e51b815260206004820152602e60248201527f456e73656d626c65437265646974733a2063616e6e6f74206275726e2066726f60448201526d6d207a65726f206164647265737360901b60648201526084016104fb565b6108348282610b0a565b816001600160a01b03167fcc16f5dbb4873280815c1ee09dbd06736cffcc184412cf7a71a0fdb75d397ca58260405161071d91815260200190565b60009182526005602090815260408084206001600160a01b0393909316845291905290205460ff1690565b60606004805461038f90610e2f565b600080516020610e8b8339815191526108c1816109c2565b6001600160a01b0382166109325760405162461bcd60e51b815260206004820152603260248201527f456e73656d626c65437265646974733a2063616e6e6f7420616464207a65726f6044820152711030b2323932b9b99030b99036b4b73a32b960711b60648201526084016104fb565b61094a600080516020610e8b833981519152836109cf565b506040516001600160a01b038316907f6ae172837ea30b801fbfcdd4108aa1d5bf8ff775444fd70256b44e6bf3dfc3f690600090a25050565b600061037a600080516020610e8b8339815191528361086f565b6000828152600560205260409020600101546109b8816109c2565b61046d8383610a63565b6109cc8133610b40565b50565b60006109db838361086f565b610a5b5760008381526005602090815260408083206001600160a01b03861684529091529020805460ff19166001179055610a133390565b6001600160a01b0316826001600160a01b0316847f2f8788117e7eff1d82e926ec794901d17c78024a50270940304540a733656f0d60405160405180910390a450600161037a565b50600061037a565b6000610a6f838361086f565b15610a5b5760008381526005602090815260408083206001600160a01b0386168085529252808320805460ff1916905551339286917ff6391f5c32d9c69d2a47ea670b442974b53935d1edc7fd64eb21e047a839171b9190a450600161037a565b6001600160a01b038216610afa5760405163ec442f0560e01b8152600060048201526024016104fb565b610b0660008383610b79565b5050565b6001600160a01b038216610b3457604051634b637e8f60e11b8152600060048201526024016104fb565b610b0682600083610b79565b610b4a828261086f565b610b065760405163e2517d3f60e01b81526001600160a01b0382166004820152602481018390526044016104fb565b6001600160a01b038316610ba4578060026000828254610b999190610e69565b90915550610c169050565b6001600160a01b03831660009081526020819052604090205481811015610bf75760405163391434e360e21b81526001600160a01b038516600482015260248101829052604481018390526064016104fb565b6001600160a01b03841660009081526020819052604090209082900390555b6001600160a01b038216610c3257600280548290039055610c51565b6001600160a01b03821660009081526020819052604090208054820190555b816001600160a01b0316836001600160a01b03167fddf252ad1be2c89b69c2b068fc378daa952ba7f163c4a11628f55a4df523b3ef83604051610c9691815260200190565b60405180910390a3505050565b600060208284031215610cb557600080fd5b81356001600160e01b031981168114610ccd57600080fd5b9392505050565b60006020808352835180602085015260005b81811015610d0257858101830151858201604001528201610ce6565b506000604082860101526040601f19601f8301168501019250505092915050565b80356001600160a01b0381168114610d3a57600080fd5b919050565b60008060408385031215610d5257600080fd5b610d5b83610d23565b946020939093013593505050565b600080600060608486031215610d7e57600080fd5b610d8784610d23565b9250610d9560208501610d23565b9150604084013590509250925092565b600060208284031215610db757600080fd5b5035919050565b60008060408385031215610dd157600080fd5b82359150610de160208401610d23565b90509250929050565b600060208284031215610dfc57600080fd5b610ccd82610d23565b60008060408385031215610e1857600080fd5b610e2183610d23565b9150610de160208401610d23565b600181811c90821680610e4357607f821691505b602082108103610e6357634e487b7160e01b600052602260045260246000fd5b50919050565b8082018082111561037a57634e487b7160e01b600052601160045260246000fdfe9f2df0fed2c77648de5860a4cc508cd0818c85b8b8a1ab4ceeef8d981c8956a6a2646970667358221220cbcbaafbce63d8ac619a22d4e837fc602232386c5248b061ca0f8706e5c5be4564736f6c634300081600339f2df0fed2c77648de5860a4cc508cd0818c85b8b8a1ab4ceeef8d981c8956a6",
  "linkReferences": {},
  "deployedLinkReferences": {}
}