{
  "_format": "hh-sol-artifact-1",
  "contractName": "ServiceRegistry",
  "sourceName": "contracts/ServiceRegistry.sol",
  "abi": [
    {
      "inputs": [],
      "stateMutability": "nonpayable",
      "type": "constructor"
    },
    {
      "inputs": [
        {
          "internalType": "address",
          "name": "owner",
          "type": "address"
        }
      ],
      "name": "OwnableInvalidOwner",
      "type": "error"
    },
    {
      "inputs": [
        {
          "internalType": "address",
          "name": "account",
          "type": "address"
        }
      ],
      "name": "OwnableUnauthorizedAccount",
      "type": "error"
    },
    {
      "anonymous": false,
      "inputs": [
        {
          "indexed": true,
          "internalType": "address",
          "name": "previousOwner",
          "type": "address"
        },
        {
          "indexed": true,
          "internalType": "address",
          "name": "newOwner",
          "type": "address"
        }
      ],
      "name": "OwnershipTransferred",
      "type": "event"
    },
    {
      "anonymous": false,
      "inputs": [
        {
          "indexed": false,
          "internalType": "string",
          "name": "name",
          "type": "string"
        },
        {
          "indexed": false,
          "internalType": "string",
          "name": "category",
          "type": "string"
        },
        {
          "indexed": false,
          "internalType": "string",
          "name": "description",
          "type": "string"
        }
      ],
      "name": "ServiceRegistered",
      "type": "event"
    },
    {
      "anonymous": false,
      "inputs": [
        {
          "indexed": false,
          "internalType": "string",
          "name": "name",
          "type": "string"
        },
        {
          "indexed": false,
          "internalType": "string",
          "name": "category",
          "type": "string"
        },
        {
          "indexed": false,
          "internalType": "string",
          "name": "description",
          "type": "string"
        }
      ],
      "name": "ServiceUpdated",
      "type": "event"
    },
    {
      "inputs": [
        {
          "internalType": "string",
          "name": "name",
          "type": "string"
        }
      ],
      "name": "getService",
      "outputs": [
        {
          "components": [
            {
              "internalType": "string",
              "name": "name",
              "type": "string"
            },
            {
              "internalType": "string",
              "name": "category",
              "type": "string"
            },
            {
              "internalType": "string",
              "name": "description",
              "type": "string"
            }
          ],
          "internalType": "struct ServiceRegistry.Service",
          "name": "",
          "type": "tuple"
        }
      ],
      "stateMutability": "view",
      "type": "function"
    },
    {
      "inputs": [
        {
          "internalType": "string",
          "name": "name",
          "type": "string"
        }
      ],
      "name": "isServiceRegistered",
      "outputs": [
        {
          "internalType": "bool",
          "name": "",
          "type": "bool"
        }
      ],
      "stateMutability": "view",
      "type": "function"
    },
    {
      "inputs": [],
      "name": "owner",
      "outputs": [
        {
          "internalType": "address",
          "name": "",
          "type": "address"
        }
      ],
      "stateMutability": "view",
      "type": "function"
    },
    {
      "inputs": [
        {
          "internalType": "string",
          "name": "name",
          "type": "string"
        },
        {
          "internalType": "string",
          "name": "category",
          "type": "string"
        },
        {
          "internalType": "string",
          "name": "description",
          "type": "string"
        }
      ],
      "name": "registerService",
      "outputs": [
        {
          "components": [
            {
              "internalType": "string",
              "name": "name",
              "type": "string"
            },
            {
              "internalType": "string",
              "name": "category",
              "type": "string"
            },
            {
              "internalType": "string",
              "name": "description",
              "type": "string"
            }
          ],
          "internalType": "struct ServiceRegistry.Service",
          "name": "",
          "type": "tuple"
        }
      ],
      "stateMutability": "nonpayable",
      "type": "function"
    },
    {
      "inputs": [],
      "name": "renounceOwnership",
      "outputs": [],
      "stateMutability": "nonpayable",
      "type": "function"
    },
    {
      "inputs": [],
      "name": "serviceCount",
      "outputs": [
        {
          "internalType": "uint256",
          "name": "",
          "type": "uint256"
        }
      ],
      "stateMutability": "view",
      "type": "function"
    },
    {
      "inputs": [
        {
          "internalType": "string",
          "name": "",
          "type": "string"
        }
      ],
      "name": "services",
      "outputs": [
        {
          "internalType": "string",
          "name": "name",
          "type": "string"
        },
        {
          "internalType": "string",
          "name": "category",
          "type": "string"
        },
        {
          "internalType": "string",
          "name": "description",
          "type": "string"
        }
      ],
      "stateMutability": "view",
      "type": "function"
    },
    {
      "inputs": [
        {
          "internalType": "address",
          "name": "newOwner",
          "type": "address"
        }
      ],
      "name": "transferOwnership",
      "outputs": [],
      "stateMutability": "nonpayable",
      "type": "function"
    },
    {
      "inputs": [
        {
          "internalType": "string",
          "name": "name",
          "type": "string"
        },
        {
          "internalType": "string",
          "name": "category",
          "type": "string"
        },
        {
          "internalType": "string",
          "name": "description",
          "type": "string"
        }
      ],
      "name": "updateService",
      "outputs": [],
      "stateMutability": "nonpayable",
      "type": "function"
    }
  ],
  "bytecode": "0x608060405234801561001057600080fd5b50338061003757604051631e4fbdf760e01b81526000600482015260240160405180910390fd5b61004081610046565b50610096565b600080546001600160a01b038381166001600160a01b0319831681178455604051919092169283917f8be0079c531659141344cd1fd0a4f28419497f9722a3daafe3b4186f6b6457e09190a35050565b610e2c806100a56000396000f3fe608060405234801561001057600080fd5b50600436106100935760003560e01c80637f3ed719116100665780637f3ed719146101005780638da5cb5b14610113578063b405166b1461012e578063ef57d88414610151578063f2fde38b1461016457600080fd5b806306237526146100985780633017ba09146100b4578063715018a6146100d6578063794758be146100e0575b600080fd5b6100a160025481565b6040519081526020015b60405180910390f35b6100c76100c2366004610a4c565b610177565b6040516100ab93929190610ad9565b6100de61033c565b005b6100f36100ee366004610a4c565b610350565b6040516100ab9190610b1c565b6100de61010e366004610b7d565b61055a565b6000546040516001600160a01b0390911681526020016100ab565b61014161013c366004610a4c565b6106c6565b60405190151581526020016100ab565b6100f361015f366004610b7d565b610745565b6100de610172366004610c05565b6108ee565b805160208183018101805160018252928201919093012091528054819061019d90610c35565b80601f01602080910402602001604051908101604052809291908181526020018280546101c990610c35565b80156102165780601f106101eb57610100808354040283529160200191610216565b820191906000526020600020905b8154815290600101906020018083116101f957829003601f168201915b50505050509080600101805461022b90610c35565b80601f016020809104026020016040519081016040528092919081815260200182805461025790610c35565b80156102a45780601f10610279576101008083540402835291602001916102a4565b820191906000526020600020905b81548152906001019060200180831161028757829003601f168201915b5050505050908060020180546102b990610c35565b80601f01602080910402602001604051908101604052809291908181526020018280546102e590610c35565b80156103325780601f1061030757610100808354040283529160200191610332565b820191906000526020600020905b81548152906001019060200180831161031557829003601f168201915b5050505050905083565b61034461092c565b61034e6000610959565b565b61037460405180606001604052806060815260200160608152602001606081525090565b6001826040516103849190610c6f565b90815260200160405180910390206040518060600160405290816000820180546103ad90610c35565b80601f01602080910402602001604051908101604052809291908181526020018280546103d990610c35565b80156104265780601f106103fb57610100808354040283529160200191610426565b820191906000526020600020905b81548152906001019060200180831161040957829003601f168201915b5050505050815260200160018201805461043f90610c35565b80601f016020809104026020016040519081016040528092919081815260200182805461046b90610c35565b80156104b85780601f1061048d576101008083540402835291602001916104b8565b820191906000526020600020905b81548152906001019060200180831161049b57829003601f168201915b505050505081526020016002820180546104d190610c35565b80601f01602080910402602001604051908101604052809291908181526020018280546104fd90610c35565b801561054a5780601f1061051f5761010080835404028352916020019161054a565b820191906000526020600020905b81548152906001019060200180831161052d57829003601f168201915b5050505050815250509050919050565b61056261092c565b60405163b405166b60e01b8152309063b405166b90610585908690600401610c8b565b602060405180830381865afa1580156105a2573d6000803e3d6000fd5b505050506040513d601f19601f820116820180604052508101906105c69190610c9e565b6106105760405162461bcd60e51b815260206004820152601660248201527514d95c9d9a58d9481b9bdd081c9959da5cdd195c995960521b60448201526064015b60405180910390fd5b60405180606001604052808481526020018381526020018281525060018460405161063b9190610c6f565b908152604051908190036020019020815181906106589082610d0f565b506020820151600182019061066d9082610d0f565b50604082015160028201906106829082610d0f565b509050507f4cd09e35844ccdf25aac9862af453cedf05d8a8b765f2763be8373b55215df8d8383836040516106b993929190610ad9565b60405180910390a1505050565b60008082511161070f5760405162461bcd60e51b8152602060048201526014602482015273496e76616c69642073657276696365206e616d6560601b6044820152606401610607565b60006001836040516107219190610c6f565b908152604051908190036020019020805461073b90610c35565b9050119050919050565b61076960405180606001604052806060815260200160608152602001606081525090565b60405163b405166b60e01b8152309063b405166b9061078c908790600401610c8b565b602060405180830381865afa1580156107a9573d6000803e3d6000fd5b505050506040513d601f19601f820116820180604052508101906107cd9190610c9e565b1561081a5760405162461bcd60e51b815260206004820152601a60248201527f5365727669636520616c726561647920726567697374657265640000000000006044820152606401610607565b600060405180606001604052808681526020018581526020018481525090508060018660405161084a9190610c6f565b908152604051908190036020019020815181906108679082610d0f565b506020820151600182019061087c9082610d0f565b50604082015160028201906108919082610d0f565b509050507fc182fe36565be4905be53a8ed353f07898b528f1625e778edf77c136748064868585856040516108c893929190610ad9565b60405180910390a1600280549060006108e083610dcf565b909155509095945050505050565b6108f661092c565b6001600160a01b03811661092057604051631e4fbdf760e01b815260006004820152602401610607565b61092981610959565b50565b6000546001600160a01b0316331461034e5760405163118cdaa760e01b8152336004820152602401610607565b600080546001600160a01b038381166001600160a01b0319831681178455604051919092169283917f8be0079c531659141344cd1fd0a4f28419497f9722a3daafe3b4186f6b6457e09190a35050565b634e487b7160e01b600052604160045260246000fd5b600082601f8301126109d057600080fd5b813567ffffffffffffffff808211156109eb576109eb6109a9565b604051601f8301601f19908116603f01168101908282118183101715610a1357610a136109a9565b81604052838152866020858801011115610a2c57600080fd5b836020870160208301376000602085830101528094505050505092915050565b600060208284031215610a5e57600080fd5b813567ffffffffffffffff811115610a7557600080fd5b610a81848285016109bf565b949350505050565b60005b83811015610aa4578181015183820152602001610a8c565b50506000910152565b60008151808452610ac5816020860160208601610a89565b601f01601f19169290920160200192915050565b606081526000610aec6060830186610aad565b8281036020840152610afe8186610aad565b90508281036040840152610b128185610aad565b9695505050505050565b602081526000825160606020840152610b386080840182610aad565b90506020840151601f1980858403016040860152610b568383610aad565b9250604086015191508085840301606086015250610b748282610aad565b95945050505050565b600080600060608486031215610b9257600080fd5b833567ffffffffffffffff80821115610baa57600080fd5b610bb6878388016109bf565b94506020860135915080821115610bcc57600080fd5b610bd8878388016109bf565b93506040860135915080821115610bee57600080fd5b50610bfb868287016109bf565b9150509250925092565b600060208284031215610c1757600080fd5b81356001600160a01b0381168114610c2e57600080fd5b9392505050565b600181811c90821680610c4957607f821691505b602082108103610c6957634e487b7160e01b600052602260045260246000fd5b50919050565b60008251610c81818460208701610a89565b9190910192915050565b602081526000610c2e6020830184610aad565b600060208284031215610cb057600080fd5b81518015158114610c2e57600080fd5b601f821115610d0a57600081815260208120601f850160051c81016020861015610ce75750805b601f850160051c820191505b81811015610d0657828155600101610cf3565b5050505b505050565b815167ffffffffffffffff811115610d2957610d296109a9565b610d3d81610d378454610c35565b84610cc0565b602080601f831160018114610d725760008415610d5a5750858301515b600019600386901b1c1916600185901b178555610d06565b600085815260208120601f198616915b82811015610da157888601518255948401946001909101908401610d82565b5085821015610dbf5787850151600019600388901b60f8161c191681555b5050505050600190811b01905550565b600060018201610def57634e487b7160e01b600052601160045260246000fd5b506001019056fea26469706673582212206f9c7481cdfdbc6350d53b34a07d196f444172352584059ffa61f853c81d633764736f6c63430008140033",
  "linkReferences": {},
  "deployedLinkReferences": {}
}