{
  "_format": "hh-sol-artifact-1",
  "contractName": "ServiceRegistryUpgradeable",
  "sourceName": "contracts/ServiceRegistryUpgradeable.sol",
  "abi": [
    {
      "inputs": [],
      "stateMutability": "nonpayable",
      "type": "constructor"
    },
    {
      "inputs": [
        {
          "internalType": "address",
          "name": "target",
          "type": "address"
        }
      ],
      "name": "AddressEmptyCode",
      "type": "error"
    },
    {
      "inputs": [
        {
          "internalType": "address",
          "name": "implementation",
          "type": "address"
        }
      ],
      "name": "ERC1967InvalidImplementation",
      "type": "error"
    },
    {
      "inputs": [],
      "name": "ERC1967NonPayable",
      "type": "error"
    },
    {
      "inputs": [],
      "name": "FailedCall",
      "type": "error"
    },
    {
      "inputs": [],
      "name": "InvalidInitialization",
      "type": "error"
    },
    {
      "inputs": [],
      "name": "NotInitializing",
      "type": "error"
    },
    {
      "inputs": [
        {
          "internalType": "address",
          "name": "owner",
          "type": "address"
        }
      ],
      "name": "OwnableInvalidOwner",
      "type": "error"
    },
    {
      "inputs": [
        {
          "internalType": "address",
          "name": "account",
          "type": "address"
        }
      ],
      "name": "OwnableUnauthorizedAccount",
      "type": "error"
    },
    {
      "inputs": [],
      "name": "UUPSUnauthorizedCallContext",
      "type": "error"
    },
    {
      "inputs": [
        {
          "internalType": "bytes32",
          "name": "slot",
          "type": "bytes32"
        }
      ],
      "name": "UUPSUnsupportedProxiableUUID",
      "type": "error"
    },
    {
      "anonymous": false,
      "inputs": [
        {
          "indexed": false,
          "internalType": "uint64",
          "name": "version",
          "type": "uint64"
        }
      ],
      "name": "Initialized",
      "type": "event"
    },
    {
      "anonymous": false,
      "inputs": [
        {
          "indexed": true,
          "internalType": "address",
          "name": "previousOwner",
          "type": "address"
        },
        {
          "indexed": true,
          "internalType": "address",
          "name": "newOwner",
          "type": "address"
        }
      ],
      "name": "OwnershipTransferred",
      "type": "event"
    },
    {
      "anonymous": false,
      "inputs": [
        {
          "indexed": false,
          "internalType": "string",
          "name": "name",
          "type": "string"
        },
        {
          "indexed": false,
          "internalType": "string",
          "name": "category",
          "type": "string"
        },
        {
          "indexed": false,
          "internalType": "string",
          "name": "description",
          "type": "string"
        }
      ],
      "name": "ServiceRegistered",
      "type": "event"
    },
    {
      "anonymous": false,
      "inputs": [
        {
          "indexed": false,
          "internalType": "string",
          "name": "name",
          "type": "string"
        },
        {
          "indexed": false,
          "internalType": "string",
          "name": "category",
          "type": "string"
        },
        {
          "indexed": false,
          "internalType": "string",
          "name": "description",
          "type": "string"
        }
      ],
      "name": "ServiceUpdated",
      "type": "event"
    },
    {
      "anonymous": false,
      "inputs": [
        {
          "indexed": true,
          "internalType": "address",
          "name": "implementation",
          "type": "address"
        }
      ],
      "name": "Upgraded",
      "type": "event"
    },
    {
      "inputs": [],
      "name": "UPGRADE_INTERFACE_VERSION",
      "outputs": [
        {
          "internalType": "string",
          "name": "",
          "type": "string"
        }
      ],
      "stateMutability": "view",
      "type": "function"
    },
    {
      "inputs": [
        {
          "internalType": "string",
          "name": "name",
          "type": "string"
        }
      ],
      "name": "getService",
      "outputs": [
        {
          "components": [
            {
              "internalType": "string",
              "name": "name",
              "type": "string"
            },
            {
              "internalType": "string",
              "name": "category",
              "type": "string"
            },
            {
              "internalType": "string",
              "name": "description",
              "type": "string"
            }
          ],
          "internalType": "struct ServiceRegistryUpgradeable.Service",
          "name": "",
          "type": "tuple"
        }
      ],
      "stateMutability": "view",
      "type": "function"
    },
    {
      "inputs": [],
      "name": "initialize",
      "outputs": [],
      "stateMutability": "nonpayable",
      "type": "function"
    },
    {
      "inputs": [
        {
          "internalType": "string",
          "name": "name",
          "type": "string"
        }
      ],
      "name": "isServiceRegistered",
      "outputs": [
        {
          "internalType": "bool",
          "name": "",
          "type": "bool"
        }
      ],
      "stateMutability": "view",
      "type": "function"
    },
    {
      "inputs": [],
      "name": "owner",
      "outputs": [
        {
          "internalType": "address",
          "name": "",
          "type": "address"
        }
      ],
      "stateMutability": "view",
      "type": "function"
    },
    {
      "inputs": [],
      "name": "proxiableUUID",
      "outputs": [
        {
          "internalType": "bytes32",
          "name": "",
          "type": "bytes32"
        }
      ],
      "stateMutability": "view",
      "type": "function"
    },
    {
      "inputs": [
        {
          "internalType": "string",
          "name": "name",
          "type": "string"
        },
        {
          "internalType": "string",
          "name": "category",
          "type": "string"
        },
        {
          "internalType": "string",
          "name": "description",
          "type": "string"
        }
      ],
      "name": "registerService",
      "outputs": [
        {
          "components": [
            {
              "internalType": "string",
              "name": "name",
              "type": "string"
            },
            {
              "internalType": "string",
              "name": "category",
              "type": "string"
            },
            {
              "internalType": "string",
              "name": "description",
              "type": "string"
            }
          ],
          "internalType": "struct ServiceRegistryUpgradeable.Service",
          "name": "",
          "type": "tuple"
        }
      ],
      "stateMutability": "nonpayable",
      "type": "function"
    },
    {
      "inputs": [],
      "name": "renounceOwnership",
      "outputs": [],
      "stateMutability": "nonpayable",
      "type": "function"
    },
    {
      "inputs": [],
      "name": "serviceCount",
      "outputs": [
        {
          "internalType": "uint256",
          "name": "",
          "type": "uint256"
        }
      ],
      "stateMutability": "view",
      "type": "function"
    },
    {
      "inputs": [
        {
          "internalType": "string",
          "name": "",
          "type": "string"
        }
      ],
      "name": "services",
      "outputs": [
        {
          "internalType": "string",
          "name": "name",
          "type": "string"
        },
        {
          "internalType": "string",
          "name": "category",
          "type": "string"
        },
        {
          "internalType": "string",
          "name": "description",
          "type": "string"
        }
      ],
      "stateMutability": "view",
      "type": "function"
    },
    {
      "inputs": [
        {
          "internalType": "address",
          "name": "newOwner",
          "type": "address"
        }
      ],
      "name": "transferOwnership",
      "outputs": [],
      "stateMutability": "nonpayable",
      "type": "function"
    },
    {
      "inputs": [
        {
          "internalType": "string",
          "name": "name",
          "type": "string"
        },
        {
          "internalType": "string",
          "name": "category",
          "type": "string"
        },
        {
          "internalType": "string",
          "name": "description",
          "type": "string"
        }
      ],
      "name": "updateService",
      "outputs": [],
      "stateMutability": "nonpayable",
      "type": "function"
    },
    {
      "inputs": [
        {
          "internalType": "address",
          "name": "newImplementation",
          "type": "address"
        },
        {
          "internalType": "bytes",
          "name": "data",
          "type": "bytes"
        }
      ],
      "name": "upgradeToAndCall",
      "outputs": [],
      "stateMutability": "payable",
      "type": "function"
    }
  ],
  "bytecode": "0x60a06040523060805234801561001457600080fd5b5061001d610022565b6100d4565b7ff0c57e16840df040f15088dc2f81fe391c3923bec73e23a9662efc9c229c6a00805468010000000000000000900460ff16156100725760405163f92ee8a960e01b815260040160405180910390fd5b80546001600160401b03908116146100d15780546001600160401b0319166001600160401b0390811782556040519081527fc7f505b2f371ae2175ee4913f4499e1f2633a7b5936321eed1cdaeb6115181d29060200160405180910390a15b50565b6080516115ab6100fd60003960008181610bce01528181610bf70152610d3d01526115ab6000f3fe6080604052600436106100c25760003560e01c80637f3ed7191161007f578063ad3cb1cc11610059578063ad3cb1cc14610207578063b405166b14610245578063ef57d88414610275578063f2fde38b1461029557600080fd5b80637f3ed7191461018b5780638129fc1c146101ab5780638da5cb5b146101c057600080fd5b806306237526146100c75780633017ba09146100f05780634f1ef2861461011f57806352d1902d14610134578063715018a614610149578063794758be1461015e575b600080fd5b3480156100d357600080fd5b506100dd60015481565b6040519081526020015b60405180910390f35b3480156100fc57600080fd5b5061011061010b366004611131565b6102b5565b6040516100e7939291906111be565b61013261012d36600461121d565b61047a565b005b34801561014057600080fd5b506100dd610499565b34801561015557600080fd5b506101326104b6565b34801561016a57600080fd5b5061017e610179366004611131565b6104ca565b6040516100e7919061127f565b34801561019757600080fd5b506101326101a63660046112d7565b6106d4565b3480156101b757600080fd5b50610132610840565b3480156101cc57600080fd5b507f9016d09d72d40fdae2fd8ceac6b6234c7706214fd39c1cd1e609a0528c199300546040516001600160a01b0390911681526020016100e7565b34801561021357600080fd5b50610238604051806040016040528060058152602001640352e302e360dc1b81525081565b6040516100e7919061135f565b34801561025157600080fd5b50610265610260366004611131565b61095c565b60405190151581526020016100e7565b34801561028157600080fd5b5061017e6102903660046112d7565b6109da565b3480156102a157600080fd5b506101326102b0366004611372565b610b85565b80516020818301810180516000825292820191909301209152805481906102db9061138d565b80601f01602080910402602001604051908101604052809291908181526020018280546103079061138d565b80156103545780601f1061032957610100808354040283529160200191610354565b820191906000526020600020905b81548152906001019060200180831161033757829003601f168201915b5050505050908060010180546103699061138d565b80601f01602080910402602001604051908101604052809291908181526020018280546103959061138d565b80156103e25780601f106103b7576101008083540402835291602001916103e2565b820191906000526020600020905b8154815290600101906020018083116103c557829003601f168201915b5050505050908060020180546103f79061138d565b80601f01602080910402602001604051908101604052809291908181526020018280546104239061138d565b80156104705780601f1061044557610100808354040283529160200191610470565b820191906000526020600020905b81548152906001019060200180831161045357829003601f168201915b5050505050905083565b610482610bc3565b61048b82610c68565b6104958282610c70565b5050565b60006104a3610d32565b5060008051602061155683398151915290565b6104be610d7b565b6104c86000610dd6565b565b6104ee60405180606001604052806060815260200160608152602001606081525090565b6000826040516104fe91906113c7565b90815260200160405180910390206040518060600160405290816000820180546105279061138d565b80601f01602080910402602001604051908101604052809291908181526020018280546105539061138d565b80156105a05780601f10610575576101008083540402835291602001916105a0565b820191906000526020600020905b81548152906001019060200180831161058357829003601f168201915b505050505081526020016001820180546105b99061138d565b80601f01602080910402602001604051908101604052809291908181526020018280546105e59061138d565b80156106325780601f1061060757610100808354040283529160200191610632565b820191906000526020600020905b81548152906001019060200180831161061557829003601f168201915b5050505050815260200160028201805461064b9061138d565b80601f01602080910402602001604051908101604052809291908181526020018280546106779061138d565b80156106c45780601f10610699576101008083540402835291602001916106c4565b820191906000526020600020905b8154815290600101906020018083116106a757829003601f168201915b5050505050815250509050919050565b6106dc610d7b565b60405163b405166b60e01b8152309063b405166b906106ff90869060040161135f565b602060405180830381865afa15801561071c573d6000803e3d6000fd5b505050506040513d601f19601f8201168201806040525081019061074091906113e3565b61078a5760405162461bcd60e51b815260206004820152601660248201527514d95c9d9a58d9481b9bdd081c9959da5cdd195c995960521b60448201526064015b60405180910390fd5b6040518060600160405280848152602001838152602001828152506000846040516107b591906113c7565b908152604051908190036020019020815181906107d29082611455565b50602082015160018201906107e79082611455565b50604082015160028201906107fc9082611455565b509050507f4cd09e35844ccdf25aac9862af453cedf05d8a8b765f2763be8373b55215df8d838383604051610833939291906111be565b60405180910390a1505050565b7ff0c57e16840df040f15088dc2f81fe391c3923bec73e23a9662efc9c229c6a008054600160401b810460ff16159067ffffffffffffffff166000811580156108865750825b905060008267ffffffffffffffff1660011480156108a35750303b155b9050811580156108b1575080155b156108cf5760405163f92ee8a960e01b815260040160405180910390fd5b845467ffffffffffffffff1916600117855583156108f957845460ff60401b1916600160401b1785555b61090233610e47565b61090a610e58565b6000600155831561095557845460ff60401b19168555604051600181527fc7f505b2f371ae2175ee4913f4499e1f2633a7b5936321eed1cdaeb6115181d29060200160405180910390a15b5050505050565b6000808251116109a55760405162461bcd60e51b8152602060048201526014602482015273496e76616c69642073657276696365206e616d6560601b6044820152606401610781565b600080836040516109b691906113c7565b90815260405190819003602001902080546109d09061138d565b9050119050919050565b6109fe60405180606001604052806060815260200160608152602001606081525090565b60405163b405166b60e01b8152309063b405166b90610a2190879060040161135f565b602060405180830381865afa158015610a3e573d6000803e3d6000fd5b505050506040513d601f19601f82011682018060405250810190610a6291906113e3565b15610aaf5760405162461bcd60e51b815260206004820152601a60248201527f5365727669636520616c726561647920726567697374657265640000000000006044820152606401610781565b6000604051806060016040528086815260200185815260200184815250905080600086604051610adf91906113c7565b90815260405190819003602001902081518190610afc9082611455565b5060208201516001820190610b119082611455565b5060408201516002820190610b269082611455565b509050507fc182fe36565be4905be53a8ed353f07898b528f1625e778edf77c13674806486858585604051610b5d939291906111be565b60405180910390a160018054906000610b7583611515565b90915550909150505b9392505050565b610b8d610d7b565b6001600160a01b038116610bb757604051631e4fbdf760e01b815260006004820152602401610781565b610bc081610dd6565b50565b306001600160a01b037f0000000000000000000000000000000000000000000000000000000000000000161480610c4a57507f00000000000000000000000000000000000000000000000000000000000000006001600160a01b0316610c3e600080516020611556833981519152546001600160a01b031690565b6001600160a01b031614155b156104c85760405163703e46dd60e11b815260040160405180910390fd5b610bc0610d7b565b816001600160a01b03166352d1902d6040518163ffffffff1660e01b8152600401602060405180830381865afa925050508015610cca575060408051601f3d908101601f19168201909252610cc79181019061153c565b60015b610cf257604051634c9c8ce360e01b81526001600160a01b0383166004820152602401610781565b6000805160206115568339815191528114610d2357604051632a87526960e21b815260048101829052602401610781565b610d2d8383610e60565b505050565b306001600160a01b037f000000000000000000000000000000000000000000000000000000000000000016146104c85760405163703e46dd60e11b815260040160405180910390fd5b33610dad7f9016d09d72d40fdae2fd8ceac6b6234c7706214fd39c1cd1e609a0528c199300546001600160a01b031690565b6001600160a01b0316146104c85760405163118cdaa760e01b8152336004820152602401610781565b7f9016d09d72d40fdae2fd8ceac6b6234c7706214fd39c1cd1e609a0528c19930080546001600160a01b031981166001600160a01b03848116918217845560405192169182907f8be0079c531659141344cd1fd0a4f28419497f9722a3daafe3b4186f6b6457e090600090a3505050565b610e4f610eb6565b610bc081610eff565b6104c8610eb6565b610e6982610f07565b6040516001600160a01b038316907fbc7cd75a20ee27fd9adebab32041f755214dbc6bffa90cc0225b39da2e5c2d3b90600090a2805115610eae57610d2d8282610f6c565b610495610fe2565b7ff0c57e16840df040f15088dc2f81fe391c3923bec73e23a9662efc9c229c6a0054600160401b900460ff166104c857604051631afcd79f60e31b815260040160405180910390fd5b610b8d610eb6565b806001600160a01b03163b600003610f3d57604051634c9c8ce360e01b81526001600160a01b0382166004820152602401610781565b60008051602061155683398151915280546001600160a01b0319166001600160a01b0392909216919091179055565b6060600080846001600160a01b031684604051610f8991906113c7565b600060405180830381855af49150503d8060008114610fc4576040519150601f19603f3d011682016040523d82523d6000602084013e610fc9565b606091505b5091509150610fd9858383611001565b95945050505050565b34156104c85760405163b398979f60e01b815260040160405180910390fd5b606082611016576110118261105d565b610b7e565b815115801561102d57506001600160a01b0384163b155b1561105657604051639996b31560e01b81526001600160a01b0385166004820152602401610781565b5080610b7e565b80511561106c57805160208201fd5b60405163d6bda27560e01b815260040160405180910390fd5b634e487b7160e01b600052604160045260246000fd5b600067ffffffffffffffff808411156110b6576110b6611085565b604051601f8501601f19908116603f011681019082821181831017156110de576110de611085565b816040528093508581528686860111156110f757600080fd5b858560208301376000602087830101525050509392505050565b600082601f83011261112257600080fd5b610b7e8383356020850161109b565b60006020828403121561114357600080fd5b813567ffffffffffffffff81111561115a57600080fd5b61116684828501611111565b949350505050565b60005b83811015611189578181015183820152602001611171565b50506000910152565b600081518084526111aa81602086016020860161116e565b601f01601f19169290920160200192915050565b6060815260006111d16060830186611192565b82810360208401526111e38186611192565b905082810360408401526111f78185611192565b9695505050505050565b80356001600160a01b038116811461121857600080fd5b919050565b6000806040838503121561123057600080fd5b61123983611201565b9150602083013567ffffffffffffffff81111561125557600080fd5b8301601f8101851361126657600080fd5b6112758582356020840161109b565b9150509250929050565b60208152600082516060602084015261129b6080840182611192565b90506020840151601f19808584030160408601526112b98383611192565b9250604086015191508085840301606086015250610fd98282611192565b6000806000606084860312156112ec57600080fd5b833567ffffffffffffffff8082111561130457600080fd5b61131087838801611111565b9450602086013591508082111561132657600080fd5b61133287838801611111565b9350604086013591508082111561134857600080fd5b5061135586828701611111565b9150509250925092565b602081526000610b7e6020830184611192565b60006020828403121561138457600080fd5b610b7e82611201565b600181811c908216806113a157607f821691505b6020821081036113c157634e487b7160e01b600052602260045260246000fd5b50919050565b600082516113d981846020870161116e565b9190910192915050565b6000602082840312156113f557600080fd5b81518015158114610b7e57600080fd5b601f821115610d2d576000816000526020600020601f850160051c8101602086101561142e5750805b601f850160051c820191505b8181101561144d5782815560010161143a565b505050505050565b815167ffffffffffffffff81111561146f5761146f611085565b6114838161147d845461138d565b84611405565b602080601f8311600181146114b857600084156114a05750858301515b600019600386901b1c1916600185901b17855561144d565b600085815260208120601f198616915b828110156114e7578886015182559484019460019091019084016114c8565b50858210156115055787850151600019600388901b60f8161c191681555b5050505050600190811b01905550565b60006001820161153557634e487b7160e01b600052601160045260246000fd5b5060010190565b60006020828403121561154e57600080fd5b505191905056fe360894a13ba1a3210667c828492db98dca3e2076cc3735a920a3ca505d382bbca26469706673582212202bfc3b81f904787b5ab23808a04349a17cd56f161fa1b7a96ecce2619be06d4264736f6c63430008160033",
  "linkReferences": {},
  "deployedLinkReferences": {}
}