{
  "_format": "hh-sol-artifact-1",
  "contractName": "TaskRegistry",
  "sourceName": "contracts/TaskRegistry.sol",
  "abi": [
    {
      "inputs": [
        {
          "internalType": "contract AgentsRegistry",
          "name": "_agentRegistry",
          "type": "address"
        }
      ],
      "stateMutability": "nonpayable",
      "type": "constructor"
    },
    {
      "inputs": [
        {
          "internalType": "address",
          "name": "owner",
          "type": "address"
        }
      ],
      "name": "OwnableInvalidOwner",
      "type": "error"
    },
    {
      "inputs": [
        {
          "internalType": "address",
          "name": "account",
          "type": "address"
        }
      ],
      "name": "OwnableUnauthorizedAccount",
      "type": "error"
    },
    {
      "anonymous": false,
      "inputs": [
        {
          "indexed": true,
          "internalType": "address",
          "name": "previousOwner",
          "type": "address"
        },
        {
          "indexed": true,
          "internalType": "address",
          "name": "newOwner",
          "type": "address"
        }
      ],
      "name": "OwnershipTransferred",
      "type": "event"
    },
    {
      "anonymous": false,
      "inputs": [
        {
          "indexed": true,
          "internalType": "uint256",
          "name": "taskId",
          "type": "uint256"
        },
        {
          "components": [
            {
              "internalType": "address",
              "name": "issuer",
              "type": "address"
            },
            {
              "internalType": "string",
              "name": "serviceName",
              "type": "string"
            },
            {
              "internalType": "uint256",
              "name": "price",
              "type": "uint256"
            },
            {
              "internalType": "uint256",
              "name": "proposalId",
              "type": "uint256"
            },
            {
              "internalType": "bool",
              "name": "isActive",
              "type": "bool"
            }
          ],
          "indexed": false,
          "internalType": "struct IProposalStruct.ServiceProposal",
          "name": "proposal",
          "type": "tuple"
        }
      ],
      "name": "ProposalApproved",
      "type": "event"
    },
    {
      "anonymous": false,
      "inputs": [
        {
          "indexed": true,
          "internalType": "uint256",
          "name": "taskId",
          "type": "uint256"
        },
        {
          "indexed": true,
          "internalType": "address",
          "name": "agent",
          "type": "address"
        }
      ],
      "name": "TaskAssigned",
      "type": "event"
    },
    {
      "anonymous": false,
      "inputs": [
        {
          "indexed": true,
          "internalType": "uint256",
          "name": "taskId",
          "type": "uint256"
        }
      ],
      "name": "TaskCanceled",
      "type": "event"
    },
    {
      "anonymous": false,
      "inputs": [
        {
          "indexed": true,
          "internalType": "uint256",
          "name": "taskId",
          "type": "uint256"
        },
        {
          "indexed": false,
          "internalType": "string",
          "name": "result",
          "type": "string"
        }
      ],
      "name": "TaskCompleted",
      "type": "event"
    },
    {
      "anonymous": false,
      "inputs": [
        {
          "indexed": true,
          "internalType": "address",
          "name": "issuer",
          "type": "address"
        },
        {
          "indexed": true,
          "internalType": "address",
          "name": "assignee",
          "type": "address"
        },
        {
          "indexed": false,
          "internalType": "uint256",
          "name": "taskId",
          "type": "uint256"
        },
        {
          "indexed": false,
          "internalType": "uint256",
          "name": "proposalId",
          "type": "uint256"
        },
        {
          "indexed": false,
          "internalType": "string",
          "name": "prompt",
          "type": "string"
        }
      ],
      "name": "TaskCreated",
      "type": "event"
    },
    {
      "anonymous": false,
      "inputs": [
        {
          "indexed": true,
          "internalType": "uint256",
          "name": "taskId",
          "type": "uint256"
        },
        {
          "indexed": false,
          "internalType": "uint8",
          "name": "rating",
          "type": "uint8"
        }
      ],
      "name": "TaskRated",
      "type": "event"
    },
    {
      "anonymous": false,
      "inputs": [
        {
          "indexed": true,
          "internalType": "uint256",
          "name": "taskId",
          "type": "uint256"
        },
        {
          "indexed": false,
          "internalType": "enum TaskRegistry.TaskStatus",
          "name": "status",
          "type": "uint8"
        }
      ],
      "name": "TaskStatusChanged",
      "type": "event"
    },
    {
      "inputs": [],
      "name": "agentRegistry",
      "outputs": [
        {
          "internalType": "contract AgentsRegistry",
          "name": "",
          "type": "address"
        }
      ],
      "stateMutability": "view",
      "type": "function"
    },
    {
      "inputs": [
        {
          "internalType": "uint256",
          "name": "taskId",
          "type": "uint256"
        }
      ],
      "name": "cancelTask",
      "outputs": [],
      "stateMutability": "nonpayable",
      "type": "function"
    },
    {
      "inputs": [
        {
          "internalType": "uint256",
          "name": "taskId",
          "type": "uint256"
        },
        {
          "internalType": "string",
          "name": "result",
          "type": "string"
        }
      ],
      "name": "completeTask",
      "outputs": [],
      "stateMutability": "nonpayable",
      "type": "function"
    },
    {
      "inputs": [
        {
          "internalType": "string",
          "name": "prompt",
          "type": "string"
        },
        {
          "internalType": "uint256",
          "name": "proposalId",
          "type": "uint256"
        }
      ],
      "name": "createTask",
      "outputs": [
        {
          "components": [
            {
              "internalType": "uint256",
              "name": "id",
              "type": "uint256"
            },
            {
              "internalType": "string",
              "name": "prompt",
              "type": "string"
            },
            {
              "internalType": "address",
              "name": "issuer",
              "type": "address"
            },
            {
              "internalType": "enum TaskRegistry.TaskStatus",
              "name": "status",
              "type": "uint8"
            },
            {
              "internalType": "address",
              "name": "assignee",
              "type": "address"
            },
            {
              "internalType": "uint256",
              "name": "proposalId",
              "type": "uint256"
            },
            {
              "internalType": "string",
              "name": "result",
              "type": "string"
            },
            {
              "internalType": "uint8",
              "name": "rating",
              "type": "uint8"
            }
          ],
          "internalType": "struct TaskRegistry.TaskData",
          "name": "",
          "type": "tuple"
        }
      ],
      "stateMutability": "payable",
      "type": "function"
    },
    {
      "inputs": [
        {
          "internalType": "uint256",
          "name": "taskId",
          "type": "uint256"
        }
      ],
      "name": "getAssignee",
      "outputs": [
        {
          "internalType": "address",
          "name": "",
          "type": "address"
        }
      ],
      "stateMutability": "view",
      "type": "function"
    },
    {
      "inputs": [
        {
          "internalType": "uint256",
          "name": "taskId",
          "type": "uint256"
        }
      ],
      "name": "getStatus",
      "outputs": [
        {
          "internalType": "enum TaskRegistry.TaskStatus",
          "name": "",
          "type": "uint8"
        }
      ],
      "stateMutability": "view",
      "type": "function"
    },
    {
      "inputs": [
        {
          "internalType": "uint256",
          "name": "taskId",
          "type": "uint256"
        }
      ],
      "name": "getTask",
      "outputs": [
        {
          "components": [
            {
              "internalType": "uint256",
              "name": "id",
              "type": "uint256"
            },
            {
              "internalType": "string",
              "name": "prompt",
              "type": "string"
            },
            {
              "internalType": "address",
              "name": "issuer",
              "type": "address"
            },
            {
              "internalType": "enum TaskRegistry.TaskStatus",
              "name": "status",
              "type": "uint8"
            },
            {
              "internalType": "address",
              "name": "assignee",
              "type": "address"
            },
            {
              "internalType": "uint256",
              "name": "proposalId",
              "type": "uint256"
            },
            {
              "internalType": "string",
              "name": "result",
              "type": "string"
            },
            {
              "internalType": "uint8",
              "name": "rating",
              "type": "uint8"
            }
          ],
          "internalType": "struct TaskRegistry.TaskData",
          "name": "",
          "type": "tuple"
        }
      ],
      "stateMutability": "view",
      "type": "function"
    },
    {
      "inputs": [
        {
          "internalType": "address",
          "name": "issuer",
          "type": "address"
        }
      ],
      "name": "getTasksByIssuer",
      "outputs": [
        {
          "internalType": "uint256[]",
          "name": "",
          "type": "uint256[]"
        }
      ],
      "stateMutability": "view",
      "type": "function"
    },
    {
      "inputs": [
        {
          "internalType": "address",
          "name": "",
          "type": "address"
        },
        {
          "internalType": "uint256",
          "name": "",
          "type": "uint256"
        }
      ],
      "name": "issuerTasks",
      "outputs": [
        {
          "internalType": "uint256",
          "name": "",
          "type": "uint256"
        }
      ],
      "stateMutability": "view",
      "type": "function"
    },
    {
      "inputs": [],
      "name": "owner",
      "outputs": [
        {
          "internalType": "address",
          "name": "",
          "type": "address"
        }
      ],
      "stateMutability": "view",
      "type": "function"
    },
    {
      "inputs": [
        {
          "internalType": "uint256",
          "name": "taskId",
          "type": "uint256"
        },
        {
          "internalType": "uint8",
          "name": "rating",
          "type": "uint8"
        }
      ],
      "name": "rateTask",
      "outputs": [],
      "stateMutability": "nonpayable",
      "type": "function"
    },
    {
      "inputs": [],
      "name": "renounceOwnership",
      "outputs": [],
      "stateMutability": "nonpayable",
      "type": "function"
    },
    {
      "inputs": [
        {
          "internalType": "uint256",
          "name": "",
          "type": "uint256"
        }
      ],
      "name": "tasks",
      "outputs": [
        {
          "internalType": "uint256",
          "name": "id",
          "type": "uint256"
        },
        {
          "internalType": "string",
          "name": "prompt",
          "type": "string"
        },
        {
          "internalType": "address",
          "name": "issuer",
          "type": "address"
        },
        {
          "internalType": "enum TaskRegistry.TaskStatus",
          "name": "status",
          "type": "uint8"
        },
        {
          "internalType": "address",
          "name": "assignee",
          "type": "address"
        },
        {
          "internalType": "uint256",
          "name": "proposalId",
          "type": "uint256"
        },
        {
          "internalType": "string",
          "name": "result",
          "type": "string"
        },
        {
          "internalType": "uint8",
          "name": "rating",
          "type": "uint8"
        }
      ],
      "stateMutability": "view",
      "type": "function"
    },
    {
      "inputs": [
        {
          "internalType": "address",
          "name": "newOwner",
          "type": "address"
        }
      ],
      "name": "transferOwnership",
      "outputs": [],
      "stateMutability": "nonpayable",
      "type": "function"
    }
  ],
  "bytecode": "0x60806040523480156200001157600080fd5b5060405162001c3638038062001c368339810160408190526200003491620000e2565b33806200005b57604051631e4fbdf760e01b81526000600482015260240160405180910390fd5b620000668162000092565b50600480546001600160a01b0319166001600160a01b0392909216919091179055600160035562000114565b600080546001600160a01b038381166001600160a01b0319831681178455604051919092169283917f8be0079c531659141344cd1fd0a4f28419497f9722a3daafe3b4186f6b6457e09190a35050565b600060208284031215620000f557600080fd5b81516001600160a01b03811681146200010d57600080fd5b9392505050565b611b1280620001246000396000f3fe6080604052600436106100dd5760003560e01c8063639241ab1161007f5780637eec20a8116100595780637eec20a8146102955780638d977672146102b55780638da5cb5b146102e9578063f2fde38b1461030757600080fd5b8063639241ab14610233578063715018a61461026057806374aaa7601461027557600080fd5b80631d65e77e116100bb5780631d65e77e1461017c5780632a2b3a9d1461019c5780635c622a0e146101ca5780636298eee01461021157600080fd5b806304fe2b34146100e257806307b318181461010b5780630d1cfcae1461015c575b600080fd5b6100f56100f03660046114d2565b610327565b604051610102919061159f565b60405180910390f35b34801561011757600080fd5b50610144610126366004611649565b6000908152600160205260409020600301546001600160a01b031690565b6040516001600160a01b039091168152602001610102565b34801561016857600080fd5b50600454610144906001600160a01b031681565b34801561018857600080fd5b506100f5610197366004611649565b610704565b3480156101a857600080fd5b506101bc6101b7366004611677565b6108d0565b604051908152602001610102565b3480156101d657600080fd5b506102046101e5366004611649565b600090815260016020526040902060020154600160a01b900460ff1690565b60405161010291906116a3565b34801561021d57600080fd5b5061023161022c3660046116b1565b610901565b005b34801561023f57600080fd5b5061025361024e3660046116e7565b610bd2565b604051610102919061170b565b34801561026c57600080fd5b50610231610c3e565b34801561028157600080fd5b5061023161029036600461174f565b610c52565b3480156102a157600080fd5b506102316102b0366004611649565b610e46565b3480156102c157600080fd5b506102d56102d0366004611649565b611082565b604051610102989796959493929190611796565b3480156102f557600080fd5b506000546001600160a01b0316610144565b34801561031357600080fd5b506102316103223660046116e7565b6111ec565b61032f611386565b600480546040516318feeb1560e31b81529182018490526000916001600160a01b039091169063c7f758a890602401600060405180830381865afa15801561037b573d6000803e3d6000fd5b505050506040513d6000823e601f3d908101601f191682016040526103a3919081019061181e565b80519091506001600160a01b03166104025760405162461bcd60e51b815260206004820152601960248201527f5365727669636550726f706f73616c206e6f7420666f756e640000000000000060448201526064015b60405180910390fd5b348160400151146104455760405162461bcd60e51b815260206004820152600d60248201526c496e76616c696420707269636560981b60448201526064016103f9565b600354600081815260016020819052604090912091825581016104688682611985565b5060028181018054336001600160a01b031991821681178355600485018890558551600380870180549094166001600160a01b0390921691909117909255600090815260209384526040812091548254600181810185559383529490912090930192909255805460ff60a01b1916600160a01b830217905550815160035460608401516040516001600160a01b039093169233927f5c005bbbb9da508c37935b1a9f270836e0be1fd11d4d47119f925a3ff33820e992610529928b90611a45565b60405180910390a36003805490600061054183611a6d565b919050555080604051806101000160405290816000820154815260200160018201805461056d906118fd565b80601f0160208091040260200160405190810160405280929190818152602001828054610599906118fd565b80156105e65780601f106105bb576101008083540402835291602001916105e6565b820191906000526020600020905b8154815290600101906020018083116105c957829003601f168201915b505050918352505060028201546001600160a01b0381166020830152604090910190600160a01b900460ff16600381111561062357610623611567565b600381111561063457610634611567565b815260038201546001600160a01b0316602082015260048201546040820152600582018054606090920191610668906118fd565b80601f0160208091040260200160405190810160405280929190818152602001828054610694906118fd565b80156106e15780601f106106b6576101008083540402835291602001916106e1565b820191906000526020600020905b8154815290600101906020018083116106c457829003601f168201915b50505091835250506006919091015460ff16602090910152925050505b92915050565b61070c611386565b600082815260016020818152604092839020835161010081019094528054845291820180549184019161073e906118fd565b80601f016020809104026020016040519081016040528092919081815260200182805461076a906118fd565b80156107b75780601f1061078c576101008083540402835291602001916107b7565b820191906000526020600020905b81548152906001019060200180831161079a57829003601f168201915b505050918352505060028201546001600160a01b0381166020830152604090910190600160a01b900460ff1660038111156107f4576107f4611567565b600381111561080557610805611567565b815260038201546001600160a01b0316602082015260048201546040820152600582018054606090920191610839906118fd565b80601f0160208091040260200160405190810160405280929190818152602001828054610865906118fd565b80156108b25780601f10610887576101008083540402835291602001916108b2565b820191906000526020600020905b81548152906001019060200180831161089557829003601f168201915b50505091835250506006919091015460ff1660209091015292915050565b600260205281600052604060002081815481106108ec57600080fd5b90600052602060002001600091509150505481565b60008281526001602052604090206002015482906001600160a01b0316331461096c5760405162461bcd60e51b815260206004820152601a60248201527f4e6f742074686520697373756572206f6620746865207461736b00000000000060448201526064016103f9565b6000838152600160205260409020600280820154600160a01b900460ff16600381111561099b5761099b611567565b146109e05760405162461bcd60e51b815260206004820152601560248201527415185cdac81a5cc81b9bdd0818dbdb5c1b195d1959605a1b60448201526064016103f9565b600681015460ff1615610a355760405162461bcd60e51b815260206004820152601760248201527f5461736b20676f7420726174696e6720616c726561647900000000000000000060448201526064016103f9565b60648360ff161115610a895760405162461bcd60e51b815260206004820181905260248201527f526174696e67206d757374206265206265747765656e203020616e642031303060448201526064016103f9565b60068101805460ff191660ff851617905560048054818301546040516318feeb1560e31b8152928301526000916001600160a01b039091169063c7f758a890602401600060405180830381865afa158015610ae8573d6000803e3d6000fd5b505050506040513d6000823e601f3d908101601f19168201604052610b10919081019061181e565b6004805482516040516370370a8160e01b81526001600160a01b039182169381019390935260ff8816602484015292935091909116906370370a81906044016020604051808303816000875af1158015610b6e573d6000803e3d6000fd5b505050506040513d601f19601f82011682018060405250810190610b929190611a94565b5060405160ff8516815285907f0f9189bfc5977d44b1a00920e53a6a0e00229f6c53e76b73fc7e0581ae99abdc9060200160405180910390a25050505050565b6001600160a01b038116600090815260026020908152604091829020805483518184028101840190945280845260609392830182828015610c3257602002820191906000526020600020905b815481526020019060010190808311610c1e575b50505050509050919050565b610c4661122a565b610c506000611257565b565b600082815260016020526040902060038101546001600160a01b03163314610cad5760405162461bcd60e51b815260206004820152600e60248201526d139bdd08185d5d1a1bdc9a5e995960921b60448201526064016103f9565b60016002820154600160a01b900460ff166003811115610ccf57610ccf611567565b14610d125760405162461bcd60e51b8152602060048201526013602482015272496e76616c6964207461736b2073746174757360681b60448201526064016103f9565b60028101805460ff60a01b1916600160a11b17905560058101610d358382611985565b5060048054828201546040516318feeb1560e31b8152928301526000916001600160a01b039091169063c7f758a890602401600060405180830381865afa158015610d84573d6000803e3d6000fd5b505050506040513d6000823e601f3d908101601f19168201604052610dac919081019061181e565b9050610dc0816000015182604001516112a7565b600282015460405185917fd76ef80cfb1ce0c70d0cbc0ab1b9f2f298a78f9fca5c841be963ae9a5d721bb491610e0091600160a01b900460ff16906116a3565b60405180910390a2837f7e6ffc29fe63759579d96a0457a8f2e08339aca345bd469f59dc2e61f82a5aeb84604051610e389190611aad565b60405180910390a250505050565b60008181526001602052604090206002015481906001600160a01b03163314610eb15760405162461bcd60e51b815260206004820152601a60248201527f4e6f742074686520697373756572206f6620746865207461736b00000000000060448201526064016103f9565b6000828152600160205260409020600280820154600160a01b900460ff166003811115610ee057610ee0611567565b14158015610f0e575060036002820154600160a01b900460ff166003811115610f0b57610f0b611567565b14155b610f5a5760405162461bcd60e51b815260206004820152601760248201527f5461736b2063616e6e6f742062652063616e63656c656400000000000000000060448201526064016103f9565b600281018054600360a01b60ff60a01b1990911617905560048054818301546040516318feeb1560e31b8152928301526000916001600160a01b039091169063c7f758a890602401600060405180830381865afa158015610fbf573d6000803e3d6000fd5b505050506040513d6000823e601f3d908101601f19168201604052610fe7919081019061181e565b60028301546040820151919250611009916001600160a01b03909116906112a7565b600282015460405185917fd76ef80cfb1ce0c70d0cbc0ab1b9f2f298a78f9fca5c841be963ae9a5d721bb49161104991600160a01b900460ff16906116a3565b60405180910390a260405184907f1aa8a90c7d7a86bac690072d3f3d726bb8ebbe1989e158530440963f04c11eb290600090a250505050565b6001602081905260009182526040909120805491810180546110a3906118fd565b80601f01602080910402602001604051908101604052809291908181526020018280546110cf906118fd565b801561111c5780601f106110f15761010080835404028352916020019161111c565b820191906000526020600020905b8154815290600101906020018083116110ff57829003601f168201915b5050505060028301546003840154600485015460058601805495966001600160a01b0380861697600160a01b90960460ff16965090931693919291611160906118fd565b80601f016020809104026020016040519081016040528092919081815260200182805461118c906118fd565b80156111d95780601f106111ae576101008083540402835291602001916111d9565b820191906000526020600020905b8154815290600101906020018083116111bc57829003601f168201915b5050506006909301549192505060ff1688565b6111f461122a565b6001600160a01b03811661121e57604051631e4fbdf760e01b8152600060048201526024016103f9565b61122781611257565b50565b6000546001600160a01b03163314610c505760405163118cdaa760e01b81523360048201526024016103f9565b600080546001600160a01b038381166001600160a01b0319831681178455604051919092169283917f8be0079c531659141344cd1fd0a4f28419497f9722a3daafe3b4186f6b6457e09190a35050565b604080516000808252602082019092526001600160a01b0384169083906040516112d19190611ac0565b60006040518083038185875af1925050503d806000811461130e576040519150601f19603f3d011682016040523d82523d6000602084013e611313565b606091505b50509050806113815760405162461bcd60e51b815260206004820152603460248201527f5472616e7366657248656c7065723a3a736166655472616e736665724554483a60448201527308115512081d1c985b9cd9995c8819985a5b195960621b60648201526084016103f9565b505050565b604051806101000160405280600081526020016060815260200160006001600160a01b03168152602001600060038111156113c3576113c3611567565b81526000602082018190526040820181905260608083015260809091015290565b634e487b7160e01b600052604160045260246000fd5b60405160a0810167ffffffffffffffff8111828210171561141d5761141d6113e4565b60405290565b604051601f8201601f1916810167ffffffffffffffff8111828210171561144c5761144c6113e4565b604052919050565b600067ffffffffffffffff82111561146e5761146e6113e4565b50601f01601f191660200190565b600082601f83011261148d57600080fd5b81356114a061149b82611454565b611423565b8181528460208386010111156114b557600080fd5b816020850160208301376000918101602001919091529392505050565b600080604083850312156114e557600080fd5b823567ffffffffffffffff8111156114fc57600080fd5b6115088582860161147c565b95602094909401359450505050565b60005b8381101561153257818101518382015260200161151a565b50506000910152565b60008151808452611553816020860160208601611517565b601f01601f19169290920160200192915050565b634e487b7160e01b600052602160045260246000fd5b6004811061159b57634e487b7160e01b600052602160045260246000fd5b9052565b6020815281516020820152600060208301516101008060408501526115c861012085018361153b565b915060018060a01b03604086015116606085015260608501516115ee608086018261157d565b5060808501516001600160a01b03811660a08601525060a085015160c085015260c0850151601f198584030160e0860152611629838261153b565b92505060e085015161163f8286018260ff169052565b5090949350505050565b60006020828403121561165b57600080fd5b5035919050565b6001600160a01b038116811461122757600080fd5b6000806040838503121561168a57600080fd5b823561169581611662565b946020939093013593505050565b602081016106fe828461157d565b600080604083850312156116c457600080fd5b82359150602083013560ff811681146116dc57600080fd5b809150509250929050565b6000602082840312156116f957600080fd5b813561170481611662565b9392505050565b6020808252825182820181905260009190848201906040850190845b8181101561174357835183529284019291840191600101611727565b50909695505050505050565b6000806040838503121561176257600080fd5b82359150602083013567ffffffffffffffff81111561178057600080fd5b61178c8582860161147c565b9150509250929050565b60006101008a83528060208401526117b08184018b61153b565b6001600160a01b038a811660408601529091506117d0606085018a61157d565b8716608084015260a0830186905282810360c08401526117f0818661153b565b91505060ff831660e08301529998505050505050505050565b8051801515811461181957600080fd5b919050565b6000602080838503121561183157600080fd5b825167ffffffffffffffff8082111561184957600080fd5b9084019060a0828703121561185d57600080fd5b6118656113fa565b825161187081611662565b8152828401518281111561188357600080fd5b83019150601f8201871361189657600080fd5b81516118a461149b82611454565b81815288868386010111156118b857600080fd5b6118c782878301888701611517565b8086840152505060408301516040820152606083015160608201526118ee60808401611809565b60808201529695505050505050565b600181811c9082168061191157607f821691505b60208210810361193157634e487b7160e01b600052602260045260246000fd5b50919050565b601f82111561138157600081815260208120601f850160051c8101602086101561195e5750805b601f850160051c820191505b8181101561197d5782815560010161196a565b505050505050565b815167ffffffffffffffff81111561199f5761199f6113e4565b6119b3816119ad84546118fd565b84611937565b602080601f8311600181146119e857600084156119d05750858301515b600019600386901b1c1916600185901b17855561197d565b600085815260208120601f198616915b82811015611a17578886015182559484019460019091019084016119f8565b5085821015611a355787850151600019600388901b60f8161c191681555b5050505050600190811b01905550565b838152826020820152606060408201526000611a64606083018461153b565b95945050505050565b600060018201611a8d57634e487b7160e01b600052601160045260246000fd5b5060010190565b600060208284031215611aa657600080fd5b5051919050565b602081526000611704602083018461153b565b60008251611ad2818460208701611517565b919091019291505056fea264697066735822122098bd83b23d81389b73e03b06ee07ca1b56c4d4bfdea60cc35bd0c593da9fedd664736f6c63430008140033",
  "linkReferences": {},
  "deployedLinkReferences": {}
}