{
  "_format": "hh-sol-artifact-1",
  "contractName": "TaskRegistry",
  "sourceName": "contracts/TaskRegistry.sol",
  "abi": [
    {
      "inputs": [
        {
          "internalType": "contract AgentsRegistry",
          "name": "_agentRegistry",
          "type": "address"
        }
      ],
      "stateMutability": "nonpayable",
      "type": "constructor"
    },
    {
      "inputs": [
        {
          "internalType": "address",
          "name": "owner",
          "type": "address"
        }
      ],
      "name": "OwnableInvalidOwner",
      "type": "error"
    },
    {
      "inputs": [
        {
          "internalType": "address",
          "name": "account",
          "type": "address"
        }
      ],
      "name": "OwnableUnauthorizedAccount",
      "type": "error"
    },
    {
      "anonymous": false,
      "inputs": [
        {
          "indexed": true,
          "internalType": "address",
          "name": "previousOwner",
          "type": "address"
        },
        {
          "indexed": true,
          "internalType": "address",
          "name": "newOwner",
          "type": "address"
        }
      ],
      "name": "OwnershipTransferred",
      "type": "event"
    },
    {
      "anonymous": false,
      "inputs": [
        {
          "indexed": true,
          "internalType": "uint256",
          "name": "taskId",
          "type": "uint256"
        },
        {
          "components": [
            {
              "internalType": "address",
              "name": "issuer",
              "type": "address"
            },
            {
              "internalType": "string",
              "name": "serviceName",
              "type": "string"
            },
            {
              "internalType": "uint256",
              "name": "price",
              "type": "uint256"
            },
            {
              "internalType": "uint256",
              "name": "proposalId",
              "type": "uint256"
            }
          ],
          "indexed": false,
          "internalType": "struct IProposalStruct.Proposal",
          "name": "proposal",
          "type": "tuple"
        }
      ],
      "name": "ProposalApproved",
      "type": "event"
    },
    {
      "anonymous": false,
      "inputs": [
        {
          "indexed": true,
          "internalType": "uint256",
          "name": "taskId",
          "type": "uint256"
        },
        {
          "indexed": true,
          "internalType": "address",
          "name": "agent",
          "type": "address"
        }
      ],
      "name": "TaskAssigned",
      "type": "event"
    },
    {
      "anonymous": false,
      "inputs": [
        {
          "indexed": true,
          "internalType": "uint256",
          "name": "taskId",
          "type": "uint256"
        },
        {
          "indexed": false,
          "internalType": "string",
          "name": "result",
          "type": "string"
        }
      ],
      "name": "TaskCompleted",
      "type": "event"
    },
    {
      "anonymous": false,
      "inputs": [
        {
          "indexed": true,
          "internalType": "address",
          "name": "issuer",
          "type": "address"
        },
        {
          "indexed": true,
          "internalType": "address",
          "name": "assignee",
          "type": "address"
        },
        {
          "indexed": false,
          "internalType": "uint256",
          "name": "taskId",
          "type": "uint256"
        },
        {
          "indexed": false,
          "internalType": "uint256",
          "name": "proposalId",
          "type": "uint256"
        },
        {
          "indexed": false,
          "internalType": "string",
          "name": "prompt",
          "type": "string"
        }
      ],
      "name": "TaskCreated",
      "type": "event"
    },
    {
      "anonymous": false,
      "inputs": [
        {
          "indexed": true,
          "internalType": "uint256",
          "name": "taskId",
          "type": "uint256"
        },
        {
          "indexed": false,
          "internalType": "enum TaskRegistry.TaskStatus",
          "name": "status",
          "type": "uint8"
        }
      ],
      "name": "TaskStatusChanged",
      "type": "event"
    },
    {
      "inputs": [],
      "name": "agentRegistry",
      "outputs": [
        {
          "internalType": "contract AgentsRegistry",
          "name": "",
          "type": "address"
        }
      ],
      "stateMutability": "view",
      "type": "function"
    },
    {
      "inputs": [
        {
          "internalType": "uint256",
          "name": "taskId",
          "type": "uint256"
        },
        {
          "internalType": "string",
          "name": "result",
          "type": "string"
        }
      ],
      "name": "completeTask",
      "outputs": [],
      "stateMutability": "nonpayable",
      "type": "function"
    },
    {
      "inputs": [
        {
          "internalType": "string",
          "name": "prompt",
          "type": "string"
        },
        {
          "internalType": "uint256",
          "name": "proposalId",
          "type": "uint256"
        }
      ],
      "name": "createTask",
      "outputs": [
        {
          "components": [
            {
              "internalType": "uint256",
              "name": "id",
              "type": "uint256"
            },
            {
              "internalType": "string",
              "name": "prompt",
              "type": "string"
            },
            {
              "internalType": "address",
              "name": "issuer",
              "type": "address"
            },
            {
              "internalType": "enum TaskRegistry.TaskStatus",
              "name": "status",
              "type": "uint8"
            },
            {
              "internalType": "address",
              "name": "assignee",
              "type": "address"
            },
            {
              "internalType": "uint256",
              "name": "proposalId",
              "type": "uint256"
            },
            {
              "internalType": "string",
              "name": "result",
              "type": "string"
            }
          ],
          "internalType": "struct TaskRegistry.TaskData",
          "name": "",
          "type": "tuple"
        }
      ],
      "stateMutability": "payable",
      "type": "function"
    },
    {
      "inputs": [
        {
          "internalType": "uint256",
          "name": "taskId",
          "type": "uint256"
        }
      ],
      "name": "getAssignee",
      "outputs": [
        {
          "internalType": "address",
          "name": "",
          "type": "address"
        }
      ],
      "stateMutability": "view",
      "type": "function"
    },
    {
      "inputs": [
        {
          "internalType": "uint256",
          "name": "taskId",
          "type": "uint256"
        }
      ],
      "name": "getStatus",
      "outputs": [
        {
          "internalType": "enum TaskRegistry.TaskStatus",
          "name": "",
          "type": "uint8"
        }
      ],
      "stateMutability": "view",
      "type": "function"
    },
    {
      "inputs": [
        {
          "internalType": "uint256",
          "name": "taskId",
          "type": "uint256"
        }
      ],
      "name": "getTask",
      "outputs": [
        {
          "components": [
            {
              "internalType": "uint256",
              "name": "id",
              "type": "uint256"
            },
            {
              "internalType": "string",
              "name": "prompt",
              "type": "string"
            },
            {
              "internalType": "address",
              "name": "issuer",
              "type": "address"
            },
            {
              "internalType": "enum TaskRegistry.TaskStatus",
              "name": "status",
              "type": "uint8"
            },
            {
              "internalType": "address",
              "name": "assignee",
              "type": "address"
            },
            {
              "internalType": "uint256",
              "name": "proposalId",
              "type": "uint256"
            },
            {
              "internalType": "string",
              "name": "result",
              "type": "string"
            }
          ],
          "internalType": "struct TaskRegistry.TaskData",
          "name": "",
          "type": "tuple"
        }
      ],
      "stateMutability": "view",
      "type": "function"
    },
    {
      "inputs": [
        {
          "internalType": "address",
          "name": "issuer",
          "type": "address"
        }
      ],
      "name": "getTasksByIssuer",
      "outputs": [
        {
          "internalType": "uint256[]",
          "name": "",
          "type": "uint256[]"
        }
      ],
      "stateMutability": "view",
      "type": "function"
    },
    {
      "inputs": [
        {
          "internalType": "address",
          "name": "",
          "type": "address"
        },
        {
          "internalType": "uint256",
          "name": "",
          "type": "uint256"
        }
      ],
      "name": "issuerTasks",
      "outputs": [
        {
          "internalType": "uint256",
          "name": "",
          "type": "uint256"
        }
      ],
      "stateMutability": "view",
      "type": "function"
    },
    {
      "inputs": [],
      "name": "owner",
      "outputs": [
        {
          "internalType": "address",
          "name": "",
          "type": "address"
        }
      ],
      "stateMutability": "view",
      "type": "function"
    },
    {
      "inputs": [],
      "name": "renounceOwnership",
      "outputs": [],
      "stateMutability": "nonpayable",
      "type": "function"
    },
    {
      "inputs": [
        {
          "internalType": "uint256",
          "name": "",
          "type": "uint256"
        }
      ],
      "name": "tasks",
      "outputs": [
        {
          "internalType": "uint256",
          "name": "id",
          "type": "uint256"
        },
        {
          "internalType": "string",
          "name": "prompt",
          "type": "string"
        },
        {
          "internalType": "address",
          "name": "issuer",
          "type": "address"
        },
        {
          "internalType": "enum TaskRegistry.TaskStatus",
          "name": "status",
          "type": "uint8"
        },
        {
          "internalType": "address",
          "name": "assignee",
          "type": "address"
        },
        {
          "internalType": "uint256",
          "name": "proposalId",
          "type": "uint256"
        },
        {
          "internalType": "string",
          "name": "result",
          "type": "string"
        }
      ],
      "stateMutability": "view",
      "type": "function"
    },
    {
      "inputs": [
        {
          "internalType": "address",
          "name": "newOwner",
          "type": "address"
        }
      ],
      "name": "transferOwnership",
      "outputs": [],
      "stateMutability": "nonpayable",
      "type": "function"
    }
  ],
  "bytecode": "0x608060405234801561001057600080fd5b506040516115d53803806115d583398101604081905261002f916100d4565b338061005557604051631e4fbdf760e01b81526000600482015260240160405180910390fd5b61005e81610084565b50600480546001600160a01b0319166001600160a01b0392909216919091179055610104565b600080546001600160a01b038381166001600160a01b0319831681178455604051919092169283917f8be0079c531659141344cd1fd0a4f28419497f9722a3daafe3b4186f6b6457e09190a35050565b6000602082840312156100e657600080fd5b81516001600160a01b03811681146100fd57600080fd5b9392505050565b6114c2806101136000396000f3fe6080604052600436106100a75760003560e01c8063639241ab11610064578063639241ab146101db578063715018a61461020857806374aaa7601461021f5780638d9776721461023f5780638da5cb5b14610272578063f2fde38b1461029057600080fd5b806304fe2b34146100ac57806307b31818146100d55780630d1cfcae146101265780631d65e77e146101465780632a2b3a9d146101665780635c622a0e14610194575b600080fd5b6100bf6100ba366004610f27565b6102b0565b6040516100cc9190610ff4565b60405180910390f35b3480156100e157600080fd5b5061010e6100f0366004611083565b6000908152600160205260409020600301546001600160a01b031690565b6040516001600160a01b0390911681526020016100cc565b34801561013257600080fd5b5060045461010e906001600160a01b031681565b34801561015257600080fd5b506100bf610161366004611083565b610672565b34801561017257600080fd5b506101866101813660046110b1565b61082f565b6040519081526020016100cc565b3480156101a057600080fd5b506101ce6101af366004611083565b600090815260016020526040902060020154600160a01b900460ff1690565b6040516100cc91906110dd565b3480156101e757600080fd5b506101fb6101f63660046110eb565b610860565b6040516100cc919061110f565b34801561021457600080fd5b5061021d6108cc565b005b34801561022b57600080fd5b5061021d61023a366004611153565b6108e0565b34801561024b57600080fd5b5061025f61025a366004611083565b610ae9565b6040516100cc979695949392919061119a565b34801561027e57600080fd5b506000546001600160a01b031661010e565b34801561029c57600080fd5b5061021d6102ab3660046110eb565b610c4a565b6102b8610de4565b600480546040516318feeb1560e31b81529182018490526000916001600160a01b039091169063c7f758a890602401600060405180830381865afa158015610304573d6000803e3d6000fd5b505050506040513d6000823e601f3d908101601f1916820160405261032c91908101906111fe565b80519091506001600160a01b03166103805760405162461bcd60e51b8152602060048201526012602482015271141c9bdc1bdcd85b081b9bdd08199bdd5b9960721b60448201526064015b60405180910390fd5b348160400151146103c35760405162461bcd60e51b815260206004820152600d60248201526c496e76616c696420707269636560981b6044820152606401610377565b600354600081815260016020819052604090912091825581016103e68682611357565b5060028181018054336001600160a01b031991821681178355600485018890558551600380870180549094166001600160a01b0390921691909117909255600090815260209384526040812091548254600181810185559383529490912090930192909255805460ff60a01b1916600160a01b830217905550815160035460608401516040516001600160a01b039093169233927f5c005bbbb9da508c37935b1a9f270836e0be1fd11d4d47119f925a3ff33820e9926104a7928b90611417565b60405180910390a3600380549060006104bf83611436565b9190505550806040518060e0016040529081600082015481526020016001820180546104ea906112cf565b80601f0160208091040260200160405190810160405280929190818152602001828054610516906112cf565b80156105635780601f1061053857610100808354040283529160200191610563565b820191906000526020600020905b81548152906001019060200180831161054657829003601f168201915b505050918352505060028201546001600160a01b0381166020830152604090910190600160a01b900460ff1660038111156105a0576105a0610fbc565b60038111156105b1576105b1610fbc565b815260038201546001600160a01b03166020820152600482015460408201526005820180546060909201916105e5906112cf565b80601f0160208091040260200160405190810160405280929190818152602001828054610611906112cf565b801561065e5780601f106106335761010080835404028352916020019161065e565b820191906000526020600020905b81548152906001019060200180831161064157829003601f168201915b505050505081525050925050505b92915050565b61067a610de4565b600082815260016020818152604092839020835160e08101909452805484529182018054918401916106ab906112cf565b80601f01602080910402602001604051908101604052809291908181526020018280546106d7906112cf565b80156107245780601f106106f957610100808354040283529160200191610724565b820191906000526020600020905b81548152906001019060200180831161070757829003601f168201915b505050918352505060028201546001600160a01b0381166020830152604090910190600160a01b900460ff16600381111561076157610761610fbc565b600381111561077257610772610fbc565b815260038201546001600160a01b03166020820152600482015460408201526005820180546060909201916107a6906112cf565b80601f01602080910402602001604051908101604052809291908181526020018280546107d2906112cf565b801561081f5780601f106107f45761010080835404028352916020019161081f565b820191906000526020600020905b81548152906001019060200180831161080257829003601f168201915b5050505050815250509050919050565b6002602052816000526040600020818154811061084b57600080fd5b90600052602060002001600091509150505481565b6001600160a01b0381166000908152600260209081526040918290208054835181840281018401909452808452606093928301828280156108c057602002820191906000526020600020905b8154815260200190600101908083116108ac575b50505050509050919050565b6108d4610c88565b6108de6000610cb5565b565b600082815260016020526040902060038101546001600160a01b031633148061091357506000546001600160a01b031633145b6109505760405162461bcd60e51b815260206004820152600e60248201526d139bdd08185d5d1a1bdc9a5e995960921b6044820152606401610377565b60016002820154600160a01b900460ff16600381111561097257610972610fbc565b146109b55760405162461bcd60e51b8152602060048201526013602482015272496e76616c6964207461736b2073746174757360681b6044820152606401610377565b60028101805460ff60a01b1916600160a11b179055600581016109d88382611357565b5060048054828201546040516318feeb1560e31b8152928301526000916001600160a01b039091169063c7f758a890602401600060405180830381865afa158015610a27573d6000803e3d6000fd5b505050506040513d6000823e601f3d908101601f19168201604052610a4f91908101906111fe565b9050610a6381600001518260400151610d05565b600282015460405185917fd76ef80cfb1ce0c70d0cbc0ab1b9f2f298a78f9fca5c841be963ae9a5d721bb491610aa391600160a01b900460ff16906110dd565b60405180910390a2837f7e6ffc29fe63759579d96a0457a8f2e08339aca345bd469f59dc2e61f82a5aeb84604051610adb919061145d565b60405180910390a250505050565b600160208190526000918252604090912080549181018054610b0a906112cf565b80601f0160208091040260200160405190810160405280929190818152602001828054610b36906112cf565b8015610b835780601f10610b5857610100808354040283529160200191610b83565b820191906000526020600020905b815481529060010190602001808311610b6657829003601f168201915b5050505060028301546003840154600485015460058601805495966001600160a01b0380861697600160a01b90960460ff16965090931693919291610bc7906112cf565b80601f0160208091040260200160405190810160405280929190818152602001828054610bf3906112cf565b8015610c405780601f10610c1557610100808354040283529160200191610c40565b820191906000526020600020905b815481529060010190602001808311610c2357829003601f168201915b5050505050905087565b610c52610c88565b6001600160a01b038116610c7c57604051631e4fbdf760e01b815260006004820152602401610377565b610c8581610cb5565b50565b6000546001600160a01b031633146108de5760405163118cdaa760e01b8152336004820152602401610377565b600080546001600160a01b038381166001600160a01b0319831681178455604051919092169283917f8be0079c531659141344cd1fd0a4f28419497f9722a3daafe3b4186f6b6457e09190a35050565b604080516000808252602082019092526001600160a01b038416908390604051610d2f9190611470565b60006040518083038185875af1925050503d8060008114610d6c576040519150601f19603f3d011682016040523d82523d6000602084013e610d71565b606091505b5050905080610ddf5760405162461bcd60e51b815260206004820152603460248201527f5472616e7366657248656c7065723a3a736166655472616e736665724554483a60448201527308115512081d1c985b9cd9995c8819985a5b195960621b6064820152608401610377565b505050565b6040518060e00160405280600081526020016060815260200160006001600160a01b0316815260200160006003811115610e2057610e20610fbc565b8152600060208201819052604082015260609081015290565b634e487b7160e01b600052604160045260246000fd5b6040516080810167ffffffffffffffff81118282101715610e7257610e72610e39565b60405290565b604051601f8201601f1916810167ffffffffffffffff81118282101715610ea157610ea1610e39565b604052919050565b600067ffffffffffffffff821115610ec357610ec3610e39565b50601f01601f191660200190565b600082601f830112610ee257600080fd5b8135610ef5610ef082610ea9565b610e78565b818152846020838601011115610f0a57600080fd5b816020850160208301376000918101602001919091529392505050565b60008060408385031215610f3a57600080fd5b823567ffffffffffffffff811115610f5157600080fd5b610f5d85828601610ed1565b95602094909401359450505050565b60005b83811015610f87578181015183820152602001610f6f565b50506000910152565b60008151808452610fa8816020860160208601610f6c565b601f01601f19169290920160200192915050565b634e487b7160e01b600052602160045260246000fd5b60048110610ff057634e487b7160e01b600052602160045260246000fd5b9052565b60208152815160208201526000602083015160e0604084015261101b610100840182610f90565b60408501516001600160a01b039081166060868101919091528601519192506110476080860183610fd2565b8060808701511660a0860152505060a084015160c084015260c0840151601f198483030160e085015261107a8282610f90565b95945050505050565b60006020828403121561109557600080fd5b5035919050565b6001600160a01b0381168114610c8557600080fd5b600080604083850312156110c457600080fd5b82356110cf8161109c565b946020939093013593505050565b6020810161066c8284610fd2565b6000602082840312156110fd57600080fd5b81356111088161109c565b9392505050565b6020808252825182820181905260009190848201906040850190845b818110156111475783518352928401929184019160010161112b565b50909695505050505050565b6000806040838503121561116657600080fd5b82359150602083013567ffffffffffffffff81111561118457600080fd5b61119085828601610ed1565b9150509250929050565b87815260e0602082015260006111b360e0830189610f90565b6001600160a01b0388811660408501526111d06060850189610fd2565b8616608084015260a0830185905282810360c08401526111f08185610f90565b9a9950505050505050505050565b6000602080838503121561121157600080fd5b825167ffffffffffffffff8082111561122957600080fd5b908401906080828703121561123d57600080fd5b611245610e4f565b82516112508161109c565b8152828401518281111561126357600080fd5b83019150601f8201871361127657600080fd5b8151611284610ef082610ea9565b818152888683860101111561129857600080fd5b6112a782878301888701610f6c565b8086840152505060408301516040820152606083015160608201528094505050505092915050565b600181811c908216806112e357607f821691505b60208210810361130357634e487b7160e01b600052602260045260246000fd5b50919050565b601f821115610ddf57600081815260208120601f850160051c810160208610156113305750805b601f850160051c820191505b8181101561134f5782815560010161133c565b505050505050565b815167ffffffffffffffff81111561137157611371610e39565b6113858161137f84546112cf565b84611309565b602080601f8311600181146113ba57600084156113a25750858301515b600019600386901b1c1916600185901b17855561134f565b600085815260208120601f198616915b828110156113e9578886015182559484019460019091019084016113ca565b50858210156114075787850151600019600388901b60f8161c191681555b5050505050600190811b01905550565b83815282602082015260606040820152600061107a6060830184610f90565b60006001820161145657634e487b7160e01b600052601160045260246000fd5b5060010190565b6020815260006111086020830184610f90565b60008251611482818460208701610f6c565b919091019291505056fea2646970667358221220c35ebf53f5dd4739af86dfa25f3f4dcfe7cff47dc404b994ee73376a44f040cd64736f6c63430008140033",
  "linkReferences": {},
  "deployedLinkReferences": {}
}