{
  "_format": "hh-sol-artifact-1",
  "contractName": "ServiceRegistry",
  "sourceName": "contracts/ServiceRegistry.sol",
  "abi": [
    {
      "inputs": [],
      "stateMutability": "nonpayable",
      "type": "constructor"
    },
    {
      "inputs": [
        {
          "internalType": "address",
          "name": "owner",
          "type": "address"
        }
      ],
      "name": "OwnableInvalidOwner",
      "type": "error"
    },
    {
      "inputs": [
        {
          "internalType": "address",
          "name": "account",
          "type": "address"
        }
      ],
      "name": "OwnableUnauthorizedAccount",
      "type": "error"
    },
    {
      "anonymous": false,
      "inputs": [
        {
          "indexed": true,
          "internalType": "address",
          "name": "previousOwner",
          "type": "address"
        },
        {
          "indexed": true,
          "internalType": "address",
          "name": "newOwner",
          "type": "address"
        }
      ],
      "name": "OwnershipTransferred",
      "type": "event"
    },
    {
      "anonymous": false,
      "inputs": [
        {
          "indexed": true,
          "internalType": "uint256",
          "name": "serviceId",
          "type": "uint256"
        },
        {
          "indexed": false,
          "internalType": "string",
          "name": "name",
          "type": "string"
        },
        {
          "indexed": false,
          "internalType": "string",
          "name": "description",
          "type": "string"
        }
      ],
      "name": "ServiceRegistered",
      "type": "event"
    },
    {
      "anonymous": false,
      "inputs": [
        {
          "indexed": true,
          "internalType": "uint256",
          "name": "serviceId",
          "type": "uint256"
        },
        {
          "indexed": false,
          "internalType": "string",
          "name": "name",
          "type": "string"
        },
        {
          "indexed": false,
          "internalType": "string",
          "name": "description",
          "type": "string"
        }
      ],
      "name": "ServiceUpdated",
      "type": "event"
    },
    {
      "inputs": [
        {
          "internalType": "string",
          "name": "name",
          "type": "string"
        }
      ],
      "name": "getService",
      "outputs": [
        {
          "components": [
            {
              "internalType": "string",
              "name": "name",
              "type": "string"
            },
            {
              "internalType": "string",
              "name": "category",
              "type": "string"
            },
            {
              "internalType": "string",
              "name": "description",
              "type": "string"
            }
          ],
          "internalType": "struct ServiceRegistry.Service",
          "name": "",
          "type": "tuple"
        }
      ],
      "stateMutability": "view",
      "type": "function"
    },
    {
      "inputs": [
        {
          "internalType": "string",
          "name": "name",
          "type": "string"
        }
      ],
      "name": "isServiceRegistered",
      "outputs": [
        {
          "internalType": "bool",
          "name": "",
          "type": "bool"
        }
      ],
      "stateMutability": "view",
      "type": "function"
    },
    {
      "inputs": [],
      "name": "owner",
      "outputs": [
        {
          "internalType": "address",
          "name": "",
          "type": "address"
        }
      ],
      "stateMutability": "view",
      "type": "function"
    },
    {
      "inputs": [
        {
          "internalType": "string",
          "name": "name",
          "type": "string"
        },
        {
          "internalType": "string",
          "name": "category",
          "type": "string"
        },
        {
          "internalType": "string",
          "name": "description",
          "type": "string"
        }
      ],
      "name": "registerService",
      "outputs": [
        {
          "components": [
            {
              "internalType": "string",
              "name": "name",
              "type": "string"
            },
            {
              "internalType": "string",
              "name": "category",
              "type": "string"
            },
            {
              "internalType": "string",
              "name": "description",
              "type": "string"
            }
          ],
          "internalType": "struct ServiceRegistry.Service",
          "name": "",
          "type": "tuple"
        }
      ],
      "stateMutability": "nonpayable",
      "type": "function"
    },
    {
      "inputs": [],
      "name": "renounceOwnership",
      "outputs": [],
      "stateMutability": "nonpayable",
      "type": "function"
    },
    {
      "inputs": [],
      "name": "serviceCount",
      "outputs": [
        {
          "internalType": "uint256",
          "name": "",
          "type": "uint256"
        }
      ],
      "stateMutability": "view",
      "type": "function"
    },
    {
      "inputs": [
        {
          "internalType": "string",
          "name": "",
          "type": "string"
        }
      ],
      "name": "services",
      "outputs": [
        {
          "internalType": "string",
          "name": "name",
          "type": "string"
        },
        {
          "internalType": "string",
          "name": "category",
          "type": "string"
        },
        {
          "internalType": "string",
          "name": "description",
          "type": "string"
        }
      ],
      "stateMutability": "view",
      "type": "function"
    },
    {
      "inputs": [
        {
          "internalType": "address",
          "name": "newOwner",
          "type": "address"
        }
      ],
      "name": "transferOwnership",
      "outputs": [],
      "stateMutability": "nonpayable",
      "type": "function"
    }
  ],
  "bytecode": "0x608060405234801561001057600080fd5b50338061003757604051631e4fbdf760e01b81526000600482015260240160405180910390fd5b61004081610046565b50610096565b600080546001600160a01b038381166001600160a01b0319831681178455604051919092169283917f8be0079c531659141344cd1fd0a4f28419497f9722a3daafe3b4186f6b6457e09190a35050565b610ba7806100a56000396000f3fe608060405234801561001057600080fd5b50600436106100885760003560e01c80638da5cb5b1161005b5780638da5cb5b146100f5578063b405166b14610110578063ef57d88414610133578063f2fde38b1461014657600080fd5b8063062375261461008d5780633017ba09146100a9578063715018a6146100cb578063794758be146100d5575b600080fd5b61009660025481565b6040519081526020015b60405180910390f35b6100bc6100b73660046107d7565b610159565b6040516100a093929190610864565b6100d361031e565b005b6100e86100e33660046107d7565b610332565b6040516100a091906108a7565b6000546040516001600160a01b0390911681526020016100a0565b61012361011e3660046107d7565b61053c565b60405190151581526020016100a0565b6100e8610141366004610908565b610573565b6100d3610154366004610990565b610674565b805160208183018101805160018252928201919093012091528054819061017f906109c0565b80601f01602080910402602001604051908101604052809291908181526020018280546101ab906109c0565b80156101f85780601f106101cd576101008083540402835291602001916101f8565b820191906000526020600020905b8154815290600101906020018083116101db57829003601f168201915b50505050509080600101805461020d906109c0565b80601f0160208091040260200160405190810160405280929190818152602001828054610239906109c0565b80156102865780601f1061025b57610100808354040283529160200191610286565b820191906000526020600020905b81548152906001019060200180831161026957829003601f168201915b50505050509080600201805461029b906109c0565b80601f01602080910402602001604051908101604052809291908181526020018280546102c7906109c0565b80156103145780601f106102e957610100808354040283529160200191610314565b820191906000526020600020905b8154815290600101906020018083116102f757829003601f168201915b5050505050905083565b6103266106b7565b61033060006106e4565b565b61035660405180606001604052806060815260200160608152602001606081525090565b60018260405161036691906109fa565b908152602001604051809103902060405180606001604052908160008201805461038f906109c0565b80601f01602080910402602001604051908101604052809291908181526020018280546103bb906109c0565b80156104085780601f106103dd57610100808354040283529160200191610408565b820191906000526020600020905b8154815290600101906020018083116103eb57829003601f168201915b50505050508152602001600182018054610421906109c0565b80601f016020809104026020016040519081016040528092919081815260200182805461044d906109c0565b801561049a5780601f1061046f5761010080835404028352916020019161049a565b820191906000526020600020905b81548152906001019060200180831161047d57829003601f168201915b505050505081526020016002820180546104b3906109c0565b80601f01602080910402602001604051908101604052809291908181526020018280546104df906109c0565b801561052c5780601f106105015761010080835404028352916020019161052c565b820191906000526020600020905b81548152906001019060200180831161050f57829003601f168201915b5050505050815250509050919050565b60008060018360405161054f91906109fa565b9081526040519081900360200190208054610569906109c0565b9050119050919050565b61059760405180606001604052806060815260200160608152602001606081525090565b61059f6106b7565b60006040518060600160405280868152602001858152602001848152509050806001866040516105cf91906109fa565b908152604051908190036020019020815181906105ec9082610a65565b50602082015160018201906106019082610a65565b50604082015160028201906106169082610a65565b509050506002547f8dd778d20d7e9f4125253938f0c5d7498d140dd1bc57eaa01491affaa5786ed1868560405161064e929190610b25565b60405180910390a26002805490600061066683610b4a565b909155509095945050505050565b61067c6106b7565b6001600160a01b0381166106ab57604051631e4fbdf760e01b8152600060048201526024015b60405180910390fd5b6106b4816106e4565b50565b6000546001600160a01b031633146103305760405163118cdaa760e01b81523360048201526024016106a2565b600080546001600160a01b038381166001600160a01b0319831681178455604051919092169283917f8be0079c531659141344cd1fd0a4f28419497f9722a3daafe3b4186f6b6457e09190a35050565b634e487b7160e01b600052604160045260246000fd5b600082601f83011261075b57600080fd5b813567ffffffffffffffff8082111561077657610776610734565b604051601f8301601f19908116603f0116810190828211818310171561079e5761079e610734565b816040528381528660208588010111156107b757600080fd5b836020870160208301376000602085830101528094505050505092915050565b6000602082840312156107e957600080fd5b813567ffffffffffffffff81111561080057600080fd5b61080c8482850161074a565b949350505050565b60005b8381101561082f578181015183820152602001610817565b50506000910152565b60008151808452610850816020860160208601610814565b601f01601f19169290920160200192915050565b6060815260006108776060830186610838565b82810360208401526108898186610838565b9050828103604084015261089d8185610838565b9695505050505050565b6020815260008251606060208401526108c36080840182610838565b90506020840151601f19808584030160408601526108e18383610838565b92506040860151915080858403016060860152506108ff8282610838565b95945050505050565b60008060006060848603121561091d57600080fd5b833567ffffffffffffffff8082111561093557600080fd5b6109418783880161074a565b9450602086013591508082111561095757600080fd5b6109638783880161074a565b9350604086013591508082111561097957600080fd5b506109868682870161074a565b9150509250925092565b6000602082840312156109a257600080fd5b81356001600160a01b03811681146109b957600080fd5b9392505050565b600181811c908216806109d457607f821691505b6020821081036109f457634e487b7160e01b600052602260045260246000fd5b50919050565b60008251610a0c818460208701610814565b9190910192915050565b601f821115610a6057600081815260208120601f850160051c81016020861015610a3d5750805b601f850160051c820191505b81811015610a5c57828155600101610a49565b5050505b505050565b815167ffffffffffffffff811115610a7f57610a7f610734565b610a9381610a8d84546109c0565b84610a16565b602080601f831160018114610ac85760008415610ab05750858301515b600019600386901b1c1916600185901b178555610a5c565b600085815260208120601f198616915b82811015610af757888601518255948401946001909101908401610ad8565b5085821015610b155787850151600019600388901b60f8161c191681555b5050505050600190811b01905550565b604081526000610b386040830185610838565b82810360208401526108ff8185610838565b600060018201610b6a57634e487b7160e01b600052601160045260246000fd5b506001019056fea26469706673582212208ab773ed743c1c8bd44486922bfee4a6a71d8749de4334ef242fb963ebf5421664736f6c63430008140033",
  "linkReferences": {},
  "deployedLinkReferences": {}
}