{
  "_format": "hh-sol-artifact-1",
  "contractName": "AgentsRegistry",
  "sourceName": "contracts/AgentsRegistry.sol",
  "abi": [
    {
      "inputs": [
        {
          "internalType": "contract ServiceRegistry",
          "name": "_serviceRegistry",
          "type": "address"
        }
      ],
      "stateMutability": "nonpayable",
      "type": "constructor"
    },
    {
      "inputs": [
        {
          "internalType": "address",
          "name": "owner",
          "type": "address"
        }
      ],
      "name": "OwnableInvalidOwner",
      "type": "error"
    },
    {
      "inputs": [
        {
          "internalType": "address",
          "name": "account",
          "type": "address"
        }
      ],
      "name": "OwnableUnauthorizedAccount",
      "type": "error"
    },
    {
      "anonymous": false,
      "inputs": [
        {
          "indexed": true,
          "internalType": "address",
          "name": "agent",
          "type": "address"
        },
        {
          "indexed": true,
          "internalType": "address",
          "name": "owner",
          "type": "address"
        },
        {
          "indexed": false,
          "internalType": "string",
          "name": "name",
          "type": "string"
        },
        {
          "indexed": false,
          "internalType": "string",
          "name": "agentUri",
          "type": "string"
        }
      ],
      "name": "AgentRegistered",
      "type": "event"
    },
    {
      "anonymous": false,
      "inputs": [
        {
          "indexed": true,
          "internalType": "address",
          "name": "previousOwner",
          "type": "address"
        },
        {
          "indexed": true,
          "internalType": "address",
          "name": "newOwner",
          "type": "address"
        }
      ],
      "name": "OwnershipTransferred",
      "type": "event"
    },
    {
      "anonymous": false,
      "inputs": [
        {
          "indexed": true,
          "internalType": "address",
          "name": "agent",
          "type": "address"
        },
        {
          "indexed": false,
          "internalType": "string",
          "name": "name",
          "type": "string"
        },
        {
          "indexed": false,
          "internalType": "uint256",
          "name": "price",
          "type": "uint256"
        }
      ],
      "name": "ProposalAdded",
      "type": "event"
    },
    {
      "anonymous": false,
      "inputs": [
        {
          "indexed": true,
          "internalType": "address",
          "name": "agent",
          "type": "address"
        },
        {
          "indexed": false,
          "internalType": "uint256",
          "name": "newReputation",
          "type": "uint256"
        }
      ],
      "name": "ReputationUpdated",
      "type": "event"
    },
    {
      "anonymous": false,
      "inputs": [
        {
          "indexed": true,
          "internalType": "address",
          "name": "agent",
          "type": "address"
        },
        {
          "indexed": false,
          "internalType": "uint256",
          "name": "name",
          "type": "uint256"
        }
      ],
      "name": "ServiceAdded",
      "type": "event"
    },
    {
      "inputs": [
        {
          "internalType": "address",
          "name": "",
          "type": "address"
        }
      ],
      "name": "agents",
      "outputs": [
        {
          "internalType": "string",
          "name": "name",
          "type": "string"
        },
        {
          "internalType": "string",
          "name": "agentUri",
          "type": "string"
        },
        {
          "internalType": "address",
          "name": "owner",
          "type": "address"
        },
        {
          "internalType": "address",
          "name": "agent",
          "type": "address"
        },
        {
          "internalType": "uint256",
          "name": "reputation",
          "type": "uint256"
        },
        {
          "internalType": "bool",
          "name": "isRegistered",
          "type": "bool"
        }
      ],
      "stateMutability": "view",
      "type": "function"
    },
    {
      "inputs": [
        {
          "internalType": "address",
          "name": "_agent",
          "type": "address"
        }
      ],
      "name": "getAgentData",
      "outputs": [
        {
          "internalType": "string",
          "name": "name",
          "type": "string"
        },
        {
          "internalType": "string",
          "name": "agentUri",
          "type": "string"
        },
        {
          "internalType": "address",
          "name": "owner",
          "type": "address"
        },
        {
          "internalType": "address",
          "name": "agent",
          "type": "address"
        },
        {
          "internalType": "uint256",
          "name": "reputation",
          "type": "uint256"
        }
      ],
      "stateMutability": "view",
      "type": "function"
    },
    {
      "inputs": [
        {
          "internalType": "uint256",
          "name": "proposalId",
          "type": "uint256"
        }
      ],
      "name": "getProposal",
      "outputs": [
        {
          "components": [
            {
              "internalType": "address",
              "name": "issuer",
              "type": "address"
            },
            {
              "internalType": "string",
              "name": "serviceName",
              "type": "string"
            },
            {
              "internalType": "uint256",
              "name": "price",
              "type": "uint256"
            },
            {
              "internalType": "uint256",
              "name": "proposalId",
              "type": "uint256"
            }
          ],
          "internalType": "struct IProposalStruct.Proposal",
          "name": "",
          "type": "tuple"
        }
      ],
      "stateMutability": "view",
      "type": "function"
    },
    {
      "inputs": [
        {
          "internalType": "address",
          "name": "agent",
          "type": "address"
        }
      ],
      "name": "getReputation",
      "outputs": [
        {
          "internalType": "uint256",
          "name": "",
          "type": "uint256"
        }
      ],
      "stateMutability": "view",
      "type": "function"
    },
    {
      "inputs": [
        {
          "internalType": "address",
          "name": "agent",
          "type": "address"
        }
      ],
      "name": "isRegistered",
      "outputs": [
        {
          "internalType": "bool",
          "name": "",
          "type": "bool"
        }
      ],
      "stateMutability": "view",
      "type": "function"
    },
    {
      "inputs": [],
      "name": "nextProposalId",
      "outputs": [
        {
          "internalType": "uint256",
          "name": "",
          "type": "uint256"
        }
      ],
      "stateMutability": "view",
      "type": "function"
    },
    {
      "inputs": [],
      "name": "owner",
      "outputs": [
        {
          "internalType": "address",
          "name": "",
          "type": "address"
        }
      ],
      "stateMutability": "view",
      "type": "function"
    },
    {
      "inputs": [
        {
          "internalType": "uint256",
          "name": "",
          "type": "uint256"
        }
      ],
      "name": "proposals",
      "outputs": [
        {
          "internalType": "address",
          "name": "issuer",
          "type": "address"
        },
        {
          "internalType": "string",
          "name": "serviceName",
          "type": "string"
        },
        {
          "internalType": "uint256",
          "name": "price",
          "type": "uint256"
        },
        {
          "internalType": "uint256",
          "name": "proposalId",
          "type": "uint256"
        }
      ],
      "stateMutability": "view",
      "type": "function"
    },
    {
      "inputs": [
        {
          "internalType": "string",
          "name": "name",
          "type": "string"
        },
        {
          "internalType": "string",
          "name": "agentUri",
          "type": "string"
        },
        {
          "internalType": "address",
          "name": "agent",
          "type": "address"
        },
        {
          "internalType": "string",
          "name": "serviceName",
          "type": "string"
        },
        {
          "internalType": "uint256",
          "name": "servicePrice",
          "type": "uint256"
        }
      ],
      "name": "registerAgent",
      "outputs": [
        {
          "internalType": "bool",
          "name": "",
          "type": "bool"
        }
      ],
      "stateMutability": "nonpayable",
      "type": "function"
    },
    {
      "inputs": [],
      "name": "renounceOwnership",
      "outputs": [],
      "stateMutability": "nonpayable",
      "type": "function"
    },
    {
      "inputs": [],
      "name": "serviceRegistry",
      "outputs": [
        {
          "internalType": "contract ServiceRegistry",
          "name": "",
          "type": "address"
        }
      ],
      "stateMutability": "view",
      "type": "function"
    },
    {
      "inputs": [
        {
          "internalType": "address",
          "name": "newOwner",
          "type": "address"
        }
      ],
      "name": "transferOwnership",
      "outputs": [],
      "stateMutability": "nonpayable",
      "type": "function"
    },
    {
      "inputs": [
        {
          "internalType": "address",
          "name": "agent",
          "type": "address"
        },
        {
          "internalType": "uint256",
          "name": "_reputation",
          "type": "uint256"
        }
      ],
      "name": "updateReputation",
      "outputs": [],
      "stateMutability": "nonpayable",
      "type": "function"
    }
  ],
  "bytecode": "0x608060405234801561001057600080fd5b5060405161131538038061131583398101604081905261002f916100d4565b338061005557604051631e4fbdf760e01b81526000600482015260240160405180910390fd5b61005e81610084565b50600180546001600160a01b0319166001600160a01b0392909216919091179055610104565b600080546001600160a01b038381166001600160a01b0319831681178455604051919092169283917f8be0079c531659141344cd1fd0a4f28419497f9722a3daafe3b4186f6b6457e09190a35050565b6000602082840312156100e657600080fd5b81516001600160a01b03811681146100fd57600080fd5b9392505050565b611202806101136000396000f3fe608060405234801561001057600080fd5b50600436106100cf5760003560e01c8063c3c5a5471161008c578063e194f2eb11610066578063e194f2eb146101ef578063f2fde38b14610202578063f5c91a0814610215578063fd66091e1461022857600080fd5b8063c3c5a5471461017d578063c7f758a8146101bc578063cbcf252a146101dc57600080fd5b8063013cf08b146100d45780632ab09d1414610100578063715018a6146101175780638da5cb5b146101215780639c89a0e214610146578063aac9f15a14610159575b600080fd5b6100e76100e2366004610c97565b61024d565b6040516100f79493929190610cf6565b60405180910390f35b61010960045481565b6040519081526020016100f7565b61011f61031b565b005b6000546001600160a01b03165b6040516001600160a01b0390911681526020016100f7565b610109610154366004610d49565b61032f565b61016c610167366004610d49565b6103bd565b6040516100f7959493929190610d6b565b6101ac61018b366004610d49565b6001600160a01b031660009081526002602052604090206005015460ff1690565b60405190151581526020016100f7565b6101cf6101ca366004610c97565b61052e565b6040516100f79190610db5565b60015461012e906001600160a01b031681565b6101ac6101fd366004610ea6565b610652565b61011f610210366004610d49565b6109bd565b61011f610223366004610f47565b6109fb565b61023b610236366004610d49565b610ac4565b6040516100f796959493929190610f71565b6003818154811061025d57600080fd5b6000918252602090912060049091020180546001820180546001600160a01b0390921693509061028c90610fc7565b80601f01602080910402602001604051908101604052809291908181526020018280546102b890610fc7565b80156103055780601f106102da57610100808354040283529160200191610305565b820191906000526020600020905b8154815290600101906020018083116102e857829003601f168201915b5050505050908060020154908060030154905084565b610323610c1a565b61032d6000610c47565b565b6001600160a01b038116600090815260026020526040812060050154829060ff166103985760405162461bcd60e51b81526020600482015260146024820152731059d95b9d081b9bdd081c9959da5cdd195c995960621b60448201526064015b60405180910390fd5b6001600160a01b03831660009081526002602052604090206004015491505b50919050565b6001600160a01b038082166000908152600260208190526040822090810154600382015460048301548354606096879695869586959194859460018601949283169390921691859061040e90610fc7565b80601f016020809104026020016040519081016040528092919081815260200182805461043a90610fc7565b80156104875780601f1061045c57610100808354040283529160200191610487565b820191906000526020600020905b81548152906001019060200180831161046a57829003601f168201915b5050505050945083805461049a90610fc7565b80601f01602080910402602001604051908101604052809291908181526020018280546104c690610fc7565b80156105135780601f106104e857610100808354040283529160200191610513565b820191906000526020600020905b8154815290600101906020018083116104f657829003601f168201915b50505050509350955095509550955095505091939590929450565b610562604051806080016040528060006001600160a01b031681526020016060815260200160008152602001600081525090565b6003828154811061057557610575610ffb565b6000918252602091829020604080516080810190915260049092020180546001600160a01b0316825260018101805492939192918401916105b590610fc7565b80601f01602080910402602001604051908101604052809291908181526020018280546105e190610fc7565b801561062e5780601f106106035761010080835404028352916020019161062e565b820191906000526020600020905b81548152906001019060200180831161061157829003601f168201915b50505050508152602001600282015481526020016003820154815250509050919050565b6001600160a01b03831660009081526002602052604081206005015460ff16156106be5760405162461bcd60e51b815260206004820152601860248201527f4167656e7420616c726561647920726567697374657265640000000000000000604482015260640161038f565b60015460405163b405166b60e01b81526001600160a01b039091169063b405166b906106ee908690600401611011565b602060405180830381865afa15801561070b573d6000803e3d6000fd5b505050506040513d601f19601f8201168201806040525081019061072f9190611024565b6107745760405162461bcd60e51b815260206004820152601660248201527514d95c9d9a58d9481b9bdd081c9959da5cdd195c995960521b604482015260640161038f565b6001600160a01b0384166000908152600260205260409020806107978882611095565b50600181016107a68782611095565b506002810180546001600160a01b031990811633179091556003820180546001600160a01b0388811691841682179092556000600480860182905560058601805460ff191660019081179091556040805160808101825294855260208086018c81529186018b9052835460608701526006890180548085018255908652942085519490930290920180549390951692909516919091178355519092839291908201906108529082611095565b5060408201516002820155606090910151600391820155805460018101825560009190915281517fc2575a0e9e593c00f959f8c92f12db2869c3395a3b0502d05e2516446f71f85b600490920291820180546001600160a01b0319166001600160a01b03909216919091178155602083015183927fc2575a0e9e593c00f959f8c92f12db2869c3395a3b0502d05e2516446f71f85c01906108f39082611095565b50604082015160028201556060909101516003909101556004805490600061091a83611155565b9190505550336001600160a01b0316866001600160a01b03167f2a562efb52e7cec209321f57200606311256da6d2a1b19d44db7837a3209de288a8a60405161096492919061117c565b60405180910390a3856001600160a01b03167fb062da28d9e4769e821d68c06e2175c46f5644e074d08a81a9d8079819d6614386866040516109a79291906111aa565b60405180910390a2506001979650505050505050565b6109c5610c1a565b6001600160a01b0381166109ef57604051631e4fbdf760e01b81526000600482015260240161038f565b6109f881610c47565b50565b610a03610c1a565b6001600160a01b038216600090815260026020526040902060050154829060ff16610a675760405162461bcd60e51b81526020600482015260146024820152731059d95b9d081b9bdd081c9959da5cdd195c995960621b604482015260640161038f565b6001600160a01b03831660008181526002602052604090819020600401849055517ffc577563f1b9a0461e24abef1e1fcc0d33d3d881f20b5df6dda59de4aae2c82190610ab79085815260200190565b60405180910390a2505050565b600260205260009081526040902080548190610adf90610fc7565b80601f0160208091040260200160405190810160405280929190818152602001828054610b0b90610fc7565b8015610b585780601f10610b2d57610100808354040283529160200191610b58565b820191906000526020600020905b815481529060010190602001808311610b3b57829003601f168201915b505050505090806001018054610b6d90610fc7565b80601f0160208091040260200160405190810160405280929190818152602001828054610b9990610fc7565b8015610be65780601f10610bbb57610100808354040283529160200191610be6565b820191906000526020600020905b815481529060010190602001808311610bc957829003601f168201915b5050505060028301546003840154600485015460059095015493946001600160a01b03928316949290911692509060ff1686565b6000546001600160a01b0316331461032d5760405163118cdaa760e01b815233600482015260240161038f565b600080546001600160a01b038381166001600160a01b0319831681178455604051919092169283917f8be0079c531659141344cd1fd0a4f28419497f9722a3daafe3b4186f6b6457e09190a35050565b600060208284031215610ca957600080fd5b5035919050565b6000815180845260005b81811015610cd657602081850181015186830182015201610cba565b506000602082860101526020601f19601f83011685010191505092915050565b6001600160a01b0385168152608060208201819052600090610d1a90830186610cb0565b6040830194909452506060015292915050565b80356001600160a01b0381168114610d4457600080fd5b919050565b600060208284031215610d5b57600080fd5b610d6482610d2d565b9392505050565b60a081526000610d7e60a0830188610cb0565b8281036020840152610d908188610cb0565b6001600160a01b03968716604085015294909516606083015250608001529392505050565b602080825282516001600160a01b03168282015282015160806040830152600090610de360a0840182610cb0565b905060408401516060840152606084015160808401528091505092915050565b634e487b7160e01b600052604160045260246000fd5b600082601f830112610e2a57600080fd5b813567ffffffffffffffff80821115610e4557610e45610e03565b604051601f8301601f19908116603f01168101908282118183101715610e6d57610e6d610e03565b81604052838152866020858801011115610e8657600080fd5b836020870160208301376000602085830101528094505050505092915050565b600080600080600060a08688031215610ebe57600080fd5b853567ffffffffffffffff80821115610ed657600080fd5b610ee289838a01610e19565b96506020880135915080821115610ef857600080fd5b610f0489838a01610e19565b9550610f1260408901610d2d565b94506060880135915080821115610f2857600080fd5b50610f3588828901610e19565b95989497509295608001359392505050565b60008060408385031215610f5a57600080fd5b610f6383610d2d565b946020939093013593505050565b60c081526000610f8460c0830189610cb0565b8281036020840152610f968189610cb0565b6001600160a01b039788166040850152959096166060830152506080810192909252151560a0909101529392505050565b600181811c90821680610fdb57607f821691505b6020821081036103b757634e487b7160e01b600052602260045260246000fd5b634e487b7160e01b600052603260045260246000fd5b602081526000610d646020830184610cb0565b60006020828403121561103657600080fd5b81518015158114610d6457600080fd5b601f82111561109057600081815260208120601f850160051c8101602086101561106d5750805b601f850160051c820191505b8181101561108c57828155600101611079565b5050505b505050565b815167ffffffffffffffff8111156110af576110af610e03565b6110c3816110bd8454610fc7565b84611046565b602080601f8311600181146110f857600084156110e05750858301515b600019600386901b1c1916600185901b17855561108c565b600085815260208120601f198616915b8281101561112757888601518255948401946001909101908401611108565b50858210156111455787850151600019600388901b60f8161c191681555b5050505050600190811b01905550565b60006001820161117557634e487b7160e01b600052601160045260246000fd5b5060010190565b60408152600061118f6040830185610cb0565b82810360208401526111a18185610cb0565b95945050505050565b6040815260006111bd6040830185610cb0565b9050826020830152939250505056fea26469706673582212205e847263b0c746b0caf1df91538f92d313255148145e189c367c4da8fb8acd6264736f6c63430008140033",
  "linkReferences": {},
  "deployedLinkReferences": {}
}