{
  "_format": "hh-sol-artifact-1",
  "contractName": "TaskRegistryUpgradeable",
  "sourceName": "contracts/TaskRegistryUpgradeable.sol",
  "abi": [
    {
      "inputs": [],
      "stateMutability": "nonpayable",
      "type": "constructor"
    },
    {
      "inputs": [
        {
          "internalType": "address",
          "name": "target",
          "type": "address"
        }
      ],
      "name": "AddressEmptyCode",
      "type": "error"
    },
    {
      "inputs": [
        {
          "internalType": "address",
          "name": "implementation",
          "type": "address"
        }
      ],
      "name": "ERC1967InvalidImplementation",
      "type": "error"
    },
    {
      "inputs": [],
      "name": "ERC1967NonPayable",
      "type": "error"
    },
    {
      "inputs": [],
      "name": "FailedCall",
      "type": "error"
    },
    {
      "inputs": [],
      "name": "InvalidInitialization",
      "type": "error"
    },
    {
      "inputs": [],
      "name": "NotInitializing",
      "type": "error"
    },
    {
      "inputs": [
        {
          "internalType": "address",
          "name": "owner",
          "type": "address"
        }
      ],
      "name": "OwnableInvalidOwner",
      "type": "error"
    },
    {
      "inputs": [
        {
          "internalType": "address",
          "name": "account",
          "type": "address"
        }
      ],
      "name": "OwnableUnauthorizedAccount",
      "type": "error"
    },
    {
      "inputs": [],
      "name": "UUPSUnauthorizedCallContext",
      "type": "error"
    },
    {
      "inputs": [
        {
          "internalType": "bytes32",
          "name": "slot",
          "type": "bytes32"
        }
      ],
      "name": "UUPSUnsupportedProxiableUUID",
      "type": "error"
    },
    {
      "anonymous": false,
      "inputs": [
        {
          "indexed": false,
          "internalType": "uint64",
          "name": "version",
          "type": "uint64"
        }
      ],
      "name": "Initialized",
      "type": "event"
    },
    {
      "anonymous": false,
      "inputs": [
        {
          "indexed": true,
          "internalType": "address",
          "name": "previousOwner",
          "type": "address"
        },
        {
          "indexed": true,
          "internalType": "address",
          "name": "newOwner",
          "type": "address"
        }
      ],
      "name": "OwnershipTransferred",
      "type": "event"
    },
    {
      "anonymous": false,
      "inputs": [
        {
          "indexed": true,
          "internalType": "uint256",
          "name": "taskId",
          "type": "uint256"
        },
        {
          "components": [
            {
              "internalType": "address",
              "name": "issuer",
              "type": "address"
            },
            {
              "internalType": "string",
              "name": "serviceName",
              "type": "string"
            },
            {
              "internalType": "uint256",
              "name": "price",
              "type": "uint256"
            },
            {
              "internalType": "address",
              "name": "tokenAddress",
              "type": "address"
            },
            {
              "internalType": "uint256",
              "name": "proposalId",
              "type": "uint256"
            },
            {
              "internalType": "bool",
              "name": "isActive",
              "type": "bool"
            }
          ],
          "indexed": false,
          "internalType": "struct IProposalStruct.ServiceProposal",
          "name": "proposal",
          "type": "tuple"
        }
      ],
      "name": "ProposalApproved",
      "type": "event"
    },
    {
      "anonymous": false,
      "inputs": [
        {
          "indexed": true,
          "internalType": "uint256",
          "name": "taskId",
          "type": "uint256"
        },
        {
          "indexed": true,
          "internalType": "address",
          "name": "agent",
          "type": "address"
        }
      ],
      "name": "TaskAssigned",
      "type": "event"
    },
    {
      "anonymous": false,
      "inputs": [
        {
          "indexed": true,
          "internalType": "uint256",
          "name": "taskId",
          "type": "uint256"
        }
      ],
      "name": "TaskCanceled",
      "type": "event"
    },
    {
      "anonymous": false,
      "inputs": [
        {
          "indexed": true,
          "internalType": "uint256",
          "name": "taskId",
          "type": "uint256"
        },
        {
          "indexed": false,
          "internalType": "string",
          "name": "result",
          "type": "string"
        }
      ],
      "name": "TaskCompleted",
      "type": "event"
    },
    {
      "anonymous": false,
      "inputs": [
        {
          "indexed": true,
          "internalType": "address",
          "name": "issuer",
          "type": "address"
        },
        {
          "indexed": true,
          "internalType": "address",
          "name": "assignee",
          "type": "address"
        },
        {
          "indexed": false,
          "internalType": "uint256",
          "name": "taskId",
          "type": "uint256"
        },
        {
          "indexed": false,
          "internalType": "uint256",
          "name": "proposalId",
          "type": "uint256"
        },
        {
          "indexed": false,
          "internalType": "string",
          "name": "prompt",
          "type": "string"
        }
      ],
      "name": "TaskCreated",
      "type": "event"
    },
    {
      "anonymous": false,
      "inputs": [
        {
          "indexed": true,
          "internalType": "uint256",
          "name": "taskId",
          "type": "uint256"
        },
        {
          "indexed": false,
          "internalType": "uint8",
          "name": "rating",
          "type": "uint8"
        }
      ],
      "name": "TaskRated",
      "type": "event"
    },
    {
      "anonymous": false,
      "inputs": [
        {
          "indexed": true,
          "internalType": "uint256",
          "name": "taskId",
          "type": "uint256"
        },
        {
          "indexed": false,
          "internalType": "enum TaskRegistryUpgradeable.TaskStatus",
          "name": "status",
          "type": "uint8"
        }
      ],
      "name": "TaskStatusChanged",
      "type": "event"
    },
    {
      "anonymous": false,
      "inputs": [
        {
          "indexed": true,
          "internalType": "address",
          "name": "implementation",
          "type": "address"
        }
      ],
      "name": "Upgraded",
      "type": "event"
    },
    {
      "inputs": [],
      "name": "UPGRADE_INTERFACE_VERSION",
      "outputs": [
        {
          "internalType": "string",
          "name": "",
          "type": "string"
        }
      ],
      "stateMutability": "view",
      "type": "function"
    },
    {
      "inputs": [],
      "name": "agentRegistry",
      "outputs": [
        {
          "internalType": "contract AgentsRegistryUpgradeable",
          "name": "",
          "type": "address"
        }
      ],
      "stateMutability": "view",
      "type": "function"
    },
    {
      "inputs": [
        {
          "internalType": "uint256",
          "name": "taskId",
          "type": "uint256"
        }
      ],
      "name": "cancelTask",
      "outputs": [],
      "stateMutability": "nonpayable",
      "type": "function"
    },
    {
      "inputs": [
        {
          "internalType": "uint256",
          "name": "taskId",
          "type": "uint256"
        },
        {
          "internalType": "string",
          "name": "result",
          "type": "string"
        }
      ],
      "name": "completeTask",
      "outputs": [],
      "stateMutability": "nonpayable",
      "type": "function"
    },
    {
      "inputs": [
        {
          "internalType": "string",
          "name": "prompt",
          "type": "string"
        },
        {
          "internalType": "uint256",
          "name": "proposalId",
          "type": "uint256"
        }
      ],
      "name": "createTask",
      "outputs": [
        {
          "components": [
            {
              "internalType": "uint256",
              "name": "id",
              "type": "uint256"
            },
            {
              "internalType": "string",
              "name": "prompt",
              "type": "string"
            },
            {
              "internalType": "address",
              "name": "issuer",
              "type": "address"
            },
            {
              "internalType": "enum TaskRegistryUpgradeable.TaskStatus",
              "name": "status",
              "type": "uint8"
            },
            {
              "internalType": "address",
              "name": "assignee",
              "type": "address"
            },
            {
              "internalType": "uint256",
              "name": "proposalId",
              "type": "uint256"
            },
            {
              "internalType": "string",
              "name": "result",
              "type": "string"
            },
            {
              "internalType": "uint8",
              "name": "rating",
              "type": "uint8"
            }
          ],
          "internalType": "struct TaskRegistryUpgradeable.TaskData",
          "name": "",
          "type": "tuple"
        }
      ],
      "stateMutability": "payable",
      "type": "function"
    },
    {
      "inputs": [
        {
          "internalType": "uint256",
          "name": "taskId",
          "type": "uint256"
        }
      ],
      "name": "getAssignee",
      "outputs": [
        {
          "internalType": "address",
          "name": "",
          "type": "address"
        }
      ],
      "stateMutability": "view",
      "type": "function"
    },
    {
      "inputs": [
        {
          "internalType": "uint256",
          "name": "taskId",
          "type": "uint256"
        }
      ],
      "name": "getStatus",
      "outputs": [
        {
          "internalType": "enum TaskRegistryUpgradeable.TaskStatus",
          "name": "",
          "type": "uint8"
        }
      ],
      "stateMutability": "view",
      "type": "function"
    },
    {
      "inputs": [
        {
          "internalType": "uint256",
          "name": "taskId",
          "type": "uint256"
        }
      ],
      "name": "getTask",
      "outputs": [
        {
          "components": [
            {
              "internalType": "uint256",
              "name": "id",
              "type": "uint256"
            },
            {
              "internalType": "string",
              "name": "prompt",
              "type": "string"
            },
            {
              "internalType": "address",
              "name": "issuer",
              "type": "address"
            },
            {
              "internalType": "enum TaskRegistryUpgradeable.TaskStatus",
              "name": "status",
              "type": "uint8"
            },
            {
              "internalType": "address",
              "name": "assignee",
              "type": "address"
            },
            {
              "internalType": "uint256",
              "name": "proposalId",
              "type": "uint256"
            },
            {
              "internalType": "string",
              "name": "result",
              "type": "string"
            },
            {
              "internalType": "uint8",
              "name": "rating",
              "type": "uint8"
            }
          ],
          "internalType": "struct TaskRegistryUpgradeable.TaskData",
          "name": "",
          "type": "tuple"
        }
      ],
      "stateMutability": "view",
      "type": "function"
    },
    {
      "inputs": [
        {
          "internalType": "address",
          "name": "issuer",
          "type": "address"
        }
      ],
      "name": "getTasksByIssuer",
      "outputs": [
        {
          "internalType": "uint256[]",
          "name": "",
          "type": "uint256[]"
        }
      ],
      "stateMutability": "view",
      "type": "function"
    },
    {
      "inputs": [
        {
          "internalType": "uint256",
          "name": "_initialTaskId",
          "type": "uint256"
        },
        {
          "internalType": "contract AgentsRegistryUpgradeable",
          "name": "_agentRegistry",
          "type": "address"
        }
      ],
      "name": "initialize",
      "outputs": [],
      "stateMutability": "nonpayable",
      "type": "function"
    },
    {
      "inputs": [
        {
          "internalType": "address",
          "name": "",
          "type": "address"
        },
        {
          "internalType": "uint256",
          "name": "",
          "type": "uint256"
        }
      ],
      "name": "issuerTasks",
      "outputs": [
        {
          "internalType": "uint256",
          "name": "",
          "type": "uint256"
        }
      ],
      "stateMutability": "view",
      "type": "function"
    },
    {
      "inputs": [],
      "name": "owner",
      "outputs": [
        {
          "internalType": "address",
          "name": "",
          "type": "address"
        }
      ],
      "stateMutability": "view",
      "type": "function"
    },
    {
      "inputs": [],
      "name": "proxiableUUID",
      "outputs": [
        {
          "internalType": "bytes32",
          "name": "",
          "type": "bytes32"
        }
      ],
      "stateMutability": "view",
      "type": "function"
    },
    {
      "inputs": [
        {
          "internalType": "uint256",
          "name": "taskId",
          "type": "uint256"
        },
        {
          "internalType": "uint8",
          "name": "rating",
          "type": "uint8"
        }
      ],
      "name": "rateTask",
      "outputs": [],
      "stateMutability": "nonpayable",
      "type": "function"
    },
    {
      "inputs": [],
      "name": "renounceOwnership",
      "outputs": [],
      "stateMutability": "nonpayable",
      "type": "function"
    },
    {
      "inputs": [
        {
          "internalType": "uint256",
          "name": "",
          "type": "uint256"
        }
      ],
      "name": "tasks",
      "outputs": [
        {
          "internalType": "uint256",
          "name": "id",
          "type": "uint256"
        },
        {
          "internalType": "string",
          "name": "prompt",
          "type": "string"
        },
        {
          "internalType": "address",
          "name": "issuer",
          "type": "address"
        },
        {
          "internalType": "enum TaskRegistryUpgradeable.TaskStatus",
          "name": "status",
          "type": "uint8"
        },
        {
          "internalType": "address",
          "name": "assignee",
          "type": "address"
        },
        {
          "internalType": "uint256",
          "name": "proposalId",
          "type": "uint256"
        },
        {
          "internalType": "string",
          "name": "result",
          "type": "string"
        },
        {
          "internalType": "uint8",
          "name": "rating",
          "type": "uint8"
        }
      ],
      "stateMutability": "view",
      "type": "function"
    },
    {
      "inputs": [
        {
          "internalType": "address",
          "name": "newOwner",
          "type": "address"
        }
      ],
      "name": "transferOwnership",
      "outputs": [],
      "stateMutability": "nonpayable",
      "type": "function"
    },
    {
      "inputs": [
        {
          "internalType": "address",
          "name": "newImplementation",
          "type": "address"
        },
        {
          "internalType": "bytes",
          "name": "data",
          "type": "bytes"
        }
      ],
      "name": "upgradeToAndCall",
      "outputs": [],
      "stateMutability": "payable",
      "type": "function"
    }
  ],
  "bytecode": "0x60a0604052306080523480156200001557600080fd5b506200002062000026565b620000da565b7ff0c57e16840df040f15088dc2f81fe391c3923bec73e23a9662efc9c229c6a00805468010000000000000000900460ff1615620000775760405163f92ee8a960e01b815260040160405180910390fd5b80546001600160401b0390811614620000d75780546001600160401b0319166001600160401b0390811782556040519081527fc7f505b2f371ae2175ee4913f4499e1f2633a7b5936321eed1cdaeb6115181d29060200160405180910390a15b50565b6080516125d06200010460003960008181611699015281816116c2015261180801526125d06000f3fe6080604052600436106101095760003560e01c8063639241ab116100955780638d977672116100645780638d977672146103095780638da5cb5b1461033d578063ad3cb1cc1461037a578063da35a26f146103b8578063f2fde38b146103d857600080fd5b8063639241ab14610287578063715018a6146102b457806374aaa760146102c95780637eec20a8146102e957600080fd5b80632a2b3a9d116100dc5780632a2b3a9d146101c85780634f1ef286146101f657806352d1902d1461020b5780635c622a0e146102205780636298eee01461026757600080fd5b806304fe2b341461010e57806307b31818146101375780630d1cfcae146101885780631d65e77e146101a8575b600080fd5b61012161011c366004611ed2565b6103f8565b60405161012e9190611f9f565b60405180910390f35b34801561014357600080fd5b50610170610152366004612049565b6000908152602081905260409020600301546001600160a01b031690565b6040516001600160a01b03909116815260200161012e565b34801561019457600080fd5b50600354610170906001600160a01b031681565b3480156101b457600080fd5b506101216101c3366004612049565b610853565b3480156101d457600080fd5b506101e86101e3366004612077565b610a1f565b60405190815260200161012e565b6102096102043660046120a3565b610a50565b005b34801561021757600080fd5b506101e8610a6f565b34801561022c57600080fd5b5061025a61023b366004612049565b600090815260208190526040902060020154600160a01b900460ff1690565b60405161012e9190612107565b34801561027357600080fd5b50610209610282366004612115565b610a8c565b34801561029357600080fd5b506102a76102a236600461214b565b610d56565b60405161012e9190612168565b3480156102c057600080fd5b50610209610dc2565b3480156102d557600080fd5b506102096102e43660046121ac565b610dd6565b3480156102f557600080fd5b50610209610304366004612049565b61100f565b34801561031557600080fd5b50610329610324366004612049565b611282565b60405161012e9897969594939291906121e9565b34801561034957600080fd5b507f9016d09d72d40fdae2fd8ceac6b6234c7706214fd39c1cd1e609a0528c199300546001600160a01b0316610170565b34801561038657600080fd5b506103ab604051806040016040528060058152602001640352e302e360dc1b81525081565b60405161012e919061225c565b3480156103c457600080fd5b506102096103d336600461226f565b6113ed565b3480156103e457600080fd5b506102096103f336600461214b565b611512565b610400611d7e565b6003546040516318feeb1560e31b8152600481018490526000916001600160a01b03169063c7f758a890602401600060405180830381865afa15801561044a573d6000803e3d6000fd5b505050506040513d6000823e601f3d908101601f1916820160405261047291908101906122b4565b80519091506001600160a01b03166104d15760405162461bcd60e51b815260206004820152601960248201527f5365727669636550726f706f73616c206e6f7420666f756e640000000000000060448201526064015b60405180910390fd5b60608101516001600160a01b031661052b57348160400151146105265760405162461bcd60e51b815260206004820152600d60248201526c496e76616c696420707269636560981b60448201526064016104c8565b61059e565b341561058a5760405162461bcd60e51b815260206004820152602860248201527f4e6f204554482073686f756c642062652073656e7420666f72204552433230206044820152677061796d656e747360c01b60648201526084016104c8565b61059e816060015133308460400151611550565b6002546000818152602081905260409020908155600181016105c08682612424565b5060028181018054336001600160a01b0319918216811783556004850188905585516003860180549093166001600160a01b039091161790915560009081526001602081815260408320945485548084018755958452922090930155805460ff60a01b1916600160a01b830217905550815160025460808401516040516001600160a01b039093169233927f5c005bbbb9da508c37935b1a9f270836e0be1fd11d4d47119f925a3ff33820e992610678928b906124e4565b60405180910390a36002805490600061069083612503565b91905055508060405180610100016040529081600082015481526020016001820180546106bc906123a2565b80601f01602080910402602001604051908101604052809291908181526020018280546106e8906123a2565b80156107355780601f1061070a57610100808354040283529160200191610735565b820191906000526020600020905b81548152906001019060200180831161071857829003601f168201915b505050918352505060028201546001600160a01b0381166020830152604090910190600160a01b900460ff16600381111561077257610772611f67565b600381111561078357610783611f67565b815260038201546001600160a01b03166020820152600482015460408201526005820180546060909201916107b7906123a2565b80601f01602080910402602001604051908101604052809291908181526020018280546107e3906123a2565b80156108305780601f1061080557610100808354040283529160200191610830565b820191906000526020600020905b81548152906001019060200180831161081357829003601f168201915b50505091835250506006919091015460ff16602090910152925050505b92915050565b61085b611d7e565b600082815260208181526040918290208251610100810190935280548352600181018054919284019161088d906123a2565b80601f01602080910402602001604051908101604052809291908181526020018280546108b9906123a2565b80156109065780601f106108db57610100808354040283529160200191610906565b820191906000526020600020905b8154815290600101906020018083116108e957829003601f168201915b505050918352505060028201546001600160a01b0381166020830152604090910190600160a01b900460ff16600381111561094357610943611f67565b600381111561095457610954611f67565b815260038201546001600160a01b0316602082015260048201546040820152600582018054606090920191610988906123a2565b80601f01602080910402602001604051908101604052809291908181526020018280546109b4906123a2565b8015610a015780601f106109d657610100808354040283529160200191610a01565b820191906000526020600020905b8154815290600101906020018083116109e457829003601f168201915b50505091835250506006919091015460ff1660209091015292915050565b60016020528160005260406000208181548110610a3b57600080fd5b90600052602060002001600091509150505481565b610a5861168e565b610a6182611733565b610a6b828261173b565b5050565b6000610a796117fd565b5060008051602061257b83398151915290565b60008281526020819052604090206002015482906001600160a01b03163314610af75760405162461bcd60e51b815260206004820152601a60248201527f4e6f742074686520697373756572206f6620746865207461736b00000000000060448201526064016104c8565b6000838152602081905260409020600280820154600160a01b900460ff166003811115610b2657610b26611f67565b14610b6b5760405162461bcd60e51b815260206004820152601560248201527415185cdac81a5cc81b9bdd0818dbdb5c1b195d1959605a1b60448201526064016104c8565b600681015460ff1615610bc05760405162461bcd60e51b815260206004820152601760248201527f5461736b20676f7420726174696e6720616c726561647900000000000000000060448201526064016104c8565b60648360ff161115610c145760405162461bcd60e51b815260206004820181905260248201527f526174696e67206d757374206265206265747765656e203020616e642031303060448201526064016104c8565b60068101805460ff191660ff85161790556003546004808301546040516318feeb1560e31b8152918201526000916001600160a01b03169063c7f758a890602401600060405180830381865afa158015610c72573d6000803e3d6000fd5b505050506040513d6000823e601f3d908101601f19168201604052610c9a91908101906122b4565b60035481516040516370370a8160e01b81526001600160a01b03918216600482015260ff8816602482015292935016906370370a81906044016020604051808303816000875af1158015610cf2573d6000803e3d6000fd5b505050506040513d601f19601f82011682018060405250810190610d16919061252a565b5060405160ff8516815285907f0f9189bfc5977d44b1a00920e53a6a0e00229f6c53e76b73fc7e0581ae99abdc9060200160405180910390a25050505050565b6001600160a01b038116600090815260016020908152604091829020805483518184028101840190945280845260609392830182828015610db657602002820191906000526020600020905b815481526020019060010190808311610da2575b50505050509050919050565b610dca611846565b610dd460006118a1565b565b600082815260208190526040902060038101546001600160a01b03163314610e315760405162461bcd60e51b815260206004820152600e60248201526d139bdd08185d5d1a1bdc9a5e995960921b60448201526064016104c8565b60016002820154600160a01b900460ff166003811115610e5357610e53611f67565b14610e965760405162461bcd60e51b8152602060048201526013602482015272496e76616c6964207461736b2073746174757360681b60448201526064016104c8565b60028101805460ff60a01b1916600160a11b17905560058101610eb98382612424565b506003546004828101546040516318feeb1560e31b8152918201526000916001600160a01b03169063c7f758a890602401600060405180830381865afa158015610f07573d6000803e3d6000fd5b505050506040513d6000823e601f3d908101601f19168201604052610f2f91908101906122b4565b60608101519091506001600160a01b0316610f665760028201546040820151610f61916001600160a01b031690611912565b610f89565b606081015160028301546040830151610f8992916001600160a01b0316906119ec565b600282015460405185917fd76ef80cfb1ce0c70d0cbc0ab1b9f2f298a78f9fca5c841be963ae9a5d721bb491610fc991600160a01b900460ff1690612107565b60405180910390a2837f7e6ffc29fe63759579d96a0457a8f2e08339aca345bd469f59dc2e61f82a5aeb84604051611001919061225c565b60405180910390a250505050565b60008181526020819052604090206002015481906001600160a01b0316331461107a5760405162461bcd60e51b815260206004820152601a60248201527f4e6f742074686520697373756572206f6620746865207461736b00000000000060448201526064016104c8565b6000828152602081905260409020600280820154600160a01b900460ff1660038111156110a9576110a9611f67565b141580156110d7575060036002820154600160a01b900460ff1660038111156110d4576110d4611f67565b14155b6111235760405162461bcd60e51b815260206004820152601760248201527f5461736b2063616e6e6f742062652063616e63656c656400000000000000000060448201526064016104c8565b600281018054600360a01b60ff60a01b199091161790556003546004808301546040516318feeb1560e31b8152918201526000916001600160a01b03169063c7f758a890602401600060405180830381865afa158015611187573d6000803e3d6000fd5b505050506040513d6000823e601f3d908101601f191682016040526111af91908101906122b4565b60608101519091506001600160a01b03166111e657600282015460408201516111e1916001600160a01b031690611912565b611209565b60608101516002830154604083015161120992916001600160a01b0316906119ec565b600282015460405185917fd76ef80cfb1ce0c70d0cbc0ab1b9f2f298a78f9fca5c841be963ae9a5d721bb49161124991600160a01b900460ff1690612107565b60405180910390a260405184907f1aa8a90c7d7a86bac690072d3f3d726bb8ebbe1989e158530440963f04c11eb290600090a250505050565b600060208190529081526040902080546001820180549192916112a4906123a2565b80601f01602080910402602001604051908101604052809291908181526020018280546112d0906123a2565b801561131d5780601f106112f25761010080835404028352916020019161131d565b820191906000526020600020905b81548152906001019060200180831161130057829003601f168201915b5050505060028301546003840154600485015460058601805495966001600160a01b0380861697600160a01b90960460ff16965090931693919291611361906123a2565b80601f016020809104026020016040519081016040528092919081815260200182805461138d906123a2565b80156113da5780601f106113af576101008083540402835291602001916113da565b820191906000526020600020905b8154815290600101906020018083116113bd57829003601f168201915b5050506006909301549192505060ff1688565b60006113f7611b1d565b805490915060ff600160401b820416159067ffffffffffffffff1660008115801561141f5750825b905060008267ffffffffffffffff16600114801561143c5750303b155b90508115801561144a575080155b156114685760405163f92ee8a960e01b815260040160405180910390fd5b845467ffffffffffffffff19166001178555831561149257845460ff60401b1916600160401b1785555b61149b33611b46565b6114a3611b57565b6002879055600380546001600160a01b0319166001600160a01b038816179055831561150957845460ff60401b19168555604051600181527fc7f505b2f371ae2175ee4913f4499e1f2633a7b5936321eed1cdaeb6115181d29060200160405180910390a15b50505050505050565b61151a611846565b6001600160a01b03811661154457604051631e4fbdf760e01b8152600060048201526024016104c8565b61154d816118a1565b50565b604080516001600160a01b0385811660248301528481166044830152606480830185905283518084039091018152608490920183526020820180516001600160e01b03166323b872dd60e01b17905291516000928392908816916115b49190612543565b6000604051808303816000865af19150503d80600081146115f1576040519150601f19603f3d011682016040523d82523d6000602084013e6115f6565b606091505b5091509150818015611620575080511580611620575080806020019051810190611620919061255f565b6116865760405162461bcd60e51b815260206004820152603160248201527f5472616e7366657248656c7065723a3a7472616e7366657246726f6d3a207472604482015270185b9cd9995c919c9bdb4819985a5b1959607a1b60648201526084016104c8565b505050505050565b306001600160a01b037f000000000000000000000000000000000000000000000000000000000000000016148061171557507f00000000000000000000000000000000000000000000000000000000000000006001600160a01b031661170960008051602061257b833981519152546001600160a01b031690565b6001600160a01b031614155b15610dd45760405163703e46dd60e11b815260040160405180910390fd5b61154d611846565b816001600160a01b03166352d1902d6040518163ffffffff1660e01b8152600401602060405180830381865afa925050508015611795575060408051601f3d908101601f191682019092526117929181019061252a565b60015b6117bd57604051634c9c8ce360e01b81526001600160a01b03831660048201526024016104c8565b60008051602061257b83398151915281146117ee57604051632a87526960e21b8152600481018290526024016104c8565b6117f88383611b5f565b505050565b306001600160a01b037f00000000000000000000000000000000000000000000000000000000000000001614610dd45760405163703e46dd60e11b815260040160405180910390fd5b336118787f9016d09d72d40fdae2fd8ceac6b6234c7706214fd39c1cd1e609a0528c199300546001600160a01b031690565b6001600160a01b031614610dd45760405163118cdaa760e01b81523360048201526024016104c8565b7f9016d09d72d40fdae2fd8ceac6b6234c7706214fd39c1cd1e609a0528c19930080546001600160a01b031981166001600160a01b03848116918217845560405192169182907f8be0079c531659141344cd1fd0a4f28419497f9722a3daafe3b4186f6b6457e090600090a3505050565b604080516000808252602082019092526001600160a01b03841690839060405161193c9190612543565b60006040518083038185875af1925050503d8060008114611979576040519150601f19603f3d011682016040523d82523d6000602084013e61197e565b606091505b50509050806117f85760405162461bcd60e51b815260206004820152603460248201527f5472616e7366657248656c7065723a3a736166655472616e736665724554483a60448201527308115512081d1c985b9cd9995c8819985a5b195960621b60648201526084016104c8565b604080516001600160a01b038481166024830152604480830185905283518084039091018152606490920183526020820180516001600160e01b031663a9059cbb60e01b1790529151600092839290871691611a489190612543565b6000604051808303816000865af19150503d8060008114611a85576040519150601f19603f3d011682016040523d82523d6000602084013e611a8a565b606091505b5091509150818015611ab4575080511580611ab4575080806020019051810190611ab4919061255f565b611b165760405162461bcd60e51b815260206004820152602d60248201527f5472616e7366657248656c7065723a3a736166655472616e736665723a20747260448201526c185b9cd9995c8819985a5b1959609a1b60648201526084016104c8565b5050505050565b6000807ff0c57e16840df040f15088dc2f81fe391c3923bec73e23a9662efc9c229c6a0061084d565b611b4e611bb5565b61154d81611bda565b610dd4611bb5565b611b6882611be2565b6040516001600160a01b038316907fbc7cd75a20ee27fd9adebab32041f755214dbc6bffa90cc0225b39da2e5c2d3b90600090a2805115611bad576117f88282611c47565b610a6b611cbd565b611bbd611cdc565b610dd457604051631afcd79f60e31b815260040160405180910390fd5b61151a611bb5565b806001600160a01b03163b600003611c1857604051634c9c8ce360e01b81526001600160a01b03821660048201526024016104c8565b60008051602061257b83398151915280546001600160a01b0319166001600160a01b0392909216919091179055565b6060600080846001600160a01b031684604051611c649190612543565b600060405180830381855af49150503d8060008114611c9f576040519150601f19603f3d011682016040523d82523d6000602084013e611ca4565b606091505b5091509150611cb4858383611cf6565b95945050505050565b3415610dd45760405163b398979f60e01b815260040160405180910390fd5b6000611ce6611b1d565b54600160401b900460ff16919050565b606082611d0b57611d0682611d55565b611d4e565b8151158015611d2257506001600160a01b0384163b155b15611d4b57604051639996b31560e01b81526001600160a01b03851660048201526024016104c8565b50805b9392505050565b805115611d655780518082602001fd5b60405163d6bda27560e01b815260040160405180910390fd5b604051806101000160405280600081526020016060815260200160006001600160a01b0316815260200160006003811115611dbb57611dbb611f67565b81526000602082018190526040820181905260608083015260809091015290565b634e487b7160e01b600052604160045260246000fd5b60405160c0810167ffffffffffffffff81118282101715611e1557611e15611ddc565b60405290565b604051601f8201601f1916810167ffffffffffffffff81118282101715611e4457611e44611ddc565b604052919050565b600067ffffffffffffffff821115611e6657611e66611ddc565b50601f01601f191660200190565b6000611e87611e8284611e4c565b611e1b565b9050828152838383011115611e9b57600080fd5b828260208301376000602084830101529392505050565b600082601f830112611ec357600080fd5b611d4e83833560208501611e74565b60008060408385031215611ee557600080fd5b823567ffffffffffffffff811115611efc57600080fd5b611f0885828601611eb2565b95602094909401359450505050565b60005b83811015611f32578181015183820152602001611f1a565b50506000910152565b60008151808452611f53816020860160208601611f17565b601f01601f19169290920160200192915050565b634e487b7160e01b600052602160045260246000fd5b60048110611f9b57634e487b7160e01b600052602160045260246000fd5b9052565b602081528151602082015260006020830151610100806040850152611fc8610120850183611f3b565b915060018060a01b0360408601511660608501526060850151611fee6080860182611f7d565b5060808501516001600160a01b03811660a08601525060a085015160c085015260c0850151601f198584030160e08601526120298382611f3b565b92505060e085015161203f8286018260ff169052565b5090949350505050565b60006020828403121561205b57600080fd5b5035919050565b6001600160a01b038116811461154d57600080fd5b6000806040838503121561208a57600080fd5b823561209581612062565b946020939093013593505050565b600080604083850312156120b657600080fd5b82356120c181612062565b9150602083013567ffffffffffffffff8111156120dd57600080fd5b8301601f810185136120ee57600080fd5b6120fd85823560208401611e74565b9150509250929050565b6020810161084d8284611f7d565b6000806040838503121561212857600080fd5b82359150602083013560ff8116811461214057600080fd5b809150509250929050565b60006020828403121561215d57600080fd5b8135611d4e81612062565b6020808252825182820181905260009190848201906040850190845b818110156121a057835183529284019291840191600101612184565b50909695505050505050565b600080604083850312156121bf57600080fd5b82359150602083013567ffffffffffffffff8111156121dd57600080fd5b6120fd85828601611eb2565b60006101008a83528060208401526122038184018b611f3b565b6001600160a01b038a81166040860152909150612223606085018a611f7d565b8716608084015260a0830186905282810360c08401526122438186611f3b565b91505060ff831660e08301529998505050505050505050565b602081526000611d4e6020830184611f3b565b6000806040838503121561228257600080fd5b82359150602083013561214081612062565b805161229f81612062565b919050565b8051801515811461229f57600080fd5b600060208083850312156122c757600080fd5b825167ffffffffffffffff808211156122df57600080fd5b9084019060c082870312156122f357600080fd5b6122fb611df2565b825161230681612062565b8152828401518281111561231957600080fd5b83019150601f8201871361232c57600080fd5b815161233a611e8282611e4c565b818152888683860101111561234e57600080fd5b61235d82878301888701611f17565b82860152506040838101519082015261237860608401612294565b60608201526080830151608082015261239360a084016122a4565b60a08201529695505050505050565b600181811c908216806123b657607f821691505b6020821081036123d657634e487b7160e01b600052602260045260246000fd5b50919050565b601f8211156117f8576000816000526020600020601f850160051c810160208610156124055750805b601f850160051c820191505b8181101561168657828155600101612411565b815167ffffffffffffffff81111561243e5761243e611ddc565b6124528161244c84546123a2565b846123dc565b602080601f831160018114612487576000841561246f5750858301515b600019600386901b1c1916600185901b178555611686565b600085815260208120601f198616915b828110156124b657888601518255948401946001909101908401612497565b50858210156124d45787850151600019600388901b60f8161c191681555b5050505050600190811b01905550565b838152826020820152606060408201526000611cb46060830184611f3b565b60006001820161252357634e487b7160e01b600052601160045260246000fd5b5060010190565b60006020828403121561253c57600080fd5b5051919050565b60008251612555818460208701611f17565b9190910192915050565b60006020828403121561257157600080fd5b611d4e826122a456fe360894a13ba1a3210667c828492db98dca3e2076cc3735a920a3ca505d382bbca26469706673582212200206fb8c32e5b0ca19955dd0cd96c2c0092a360b74e8402ac6b25e22e2d4295e64736f6c63430008160033",
  "linkReferences": {},
  "deployedLinkReferences": {}
}