{
  "_format": "hh-sol-artifact-1",
  "contractName": "TaskRegistry",
  "sourceName": "contracts/TaskRegistry.sol",
  "abi": [
    {
      "inputs": [
        {
          "internalType": "contract AgentsRegistry",
          "name": "_agentRegistry",
          "type": "address"
        }
      ],
      "stateMutability": "nonpayable",
      "type": "constructor"
    },
    {
      "inputs": [
        {
          "internalType": "address",
          "name": "owner",
          "type": "address"
        }
      ],
      "name": "OwnableInvalidOwner",
      "type": "error"
    },
    {
      "inputs": [
        {
          "internalType": "address",
          "name": "account",
          "type": "address"
        }
      ],
      "name": "OwnableUnauthorizedAccount",
      "type": "error"
    },
    {
      "anonymous": false,
      "inputs": [
        {
          "indexed": true,
          "internalType": "address",
          "name": "previousOwner",
          "type": "address"
        },
        {
          "indexed": true,
          "internalType": "address",
          "name": "newOwner",
          "type": "address"
        }
      ],
      "name": "OwnershipTransferred",
      "type": "event"
    },
    {
      "anonymous": false,
      "inputs": [
        {
          "indexed": true,
          "internalType": "uint256",
          "name": "taskId",
          "type": "uint256"
        },
        {
          "components": [
            {
              "internalType": "address",
              "name": "issuer",
              "type": "address"
            },
            {
              "internalType": "string",
              "name": "serviceName",
              "type": "string"
            },
            {
              "internalType": "uint256",
              "name": "price",
              "type": "uint256"
            },
            {
              "internalType": "uint256",
              "name": "proposalId",
              "type": "uint256"
            }
          ],
          "indexed": false,
          "internalType": "struct IProposalStruct.Proposal",
          "name": "proposal",
          "type": "tuple"
        }
      ],
      "name": "ProposalApproved",
      "type": "event"
    },
    {
      "anonymous": false,
      "inputs": [
        {
          "indexed": true,
          "internalType": "uint256",
          "name": "taskId",
          "type": "uint256"
        },
        {
          "indexed": true,
          "internalType": "address",
          "name": "agent",
          "type": "address"
        }
      ],
      "name": "TaskAssigned",
      "type": "event"
    },
    {
      "anonymous": false,
      "inputs": [
        {
          "indexed": true,
          "internalType": "uint256",
          "name": "taskId",
          "type": "uint256"
        },
        {
          "indexed": false,
          "internalType": "string",
          "name": "result",
          "type": "string"
        }
      ],
      "name": "TaskCompleted",
      "type": "event"
    },
    {
      "anonymous": false,
      "inputs": [
        {
          "indexed": true,
          "internalType": "address",
          "name": "issuer",
          "type": "address"
        },
        {
          "indexed": true,
          "internalType": "address",
          "name": "assignee",
          "type": "address"
        },
        {
          "indexed": false,
          "internalType": "uint256",
          "name": "taskId",
          "type": "uint256"
        },
        {
          "indexed": false,
          "internalType": "uint256",
          "name": "proposalId",
          "type": "uint256"
        },
        {
          "indexed": false,
          "internalType": "string",
          "name": "prompt",
          "type": "string"
        }
      ],
      "name": "TaskCreated",
      "type": "event"
    },
    {
      "anonymous": false,
      "inputs": [
        {
          "indexed": true,
          "internalType": "uint256",
          "name": "taskId",
          "type": "uint256"
        },
        {
          "indexed": false,
          "internalType": "enum TaskRegistry.TaskStatus",
          "name": "status",
          "type": "uint8"
        }
      ],
      "name": "TaskStatusChanged",
      "type": "event"
    },
    {
      "inputs": [],
      "name": "agentRegistry",
      "outputs": [
        {
          "internalType": "contract AgentsRegistry",
          "name": "",
          "type": "address"
        }
      ],
      "stateMutability": "view",
      "type": "function"
    },
    {
      "inputs": [
        {
          "internalType": "uint256",
          "name": "taskId",
          "type": "uint256"
        },
        {
          "internalType": "string",
          "name": "result",
          "type": "string"
        }
      ],
      "name": "completeTask",
      "outputs": [],
      "stateMutability": "nonpayable",
      "type": "function"
    },
    {
      "inputs": [
        {
          "internalType": "string",
          "name": "prompt",
          "type": "string"
        },
        {
          "internalType": "uint256",
          "name": "proposalId",
          "type": "uint256"
        }
      ],
      "name": "createTask",
      "outputs": [
        {
          "components": [
            {
              "internalType": "uint256",
              "name": "id",
              "type": "uint256"
            },
            {
              "internalType": "string",
              "name": "prompt",
              "type": "string"
            },
            {
              "internalType": "address",
              "name": "issuer",
              "type": "address"
            },
            {
              "internalType": "enum TaskRegistry.TaskStatus",
              "name": "status",
              "type": "uint8"
            },
            {
              "internalType": "address",
              "name": "assignee",
              "type": "address"
            },
            {
              "internalType": "uint256",
              "name": "proposalId",
              "type": "uint256"
            }
          ],
          "internalType": "struct TaskRegistry.TaskData",
          "name": "",
          "type": "tuple"
        }
      ],
      "stateMutability": "payable",
      "type": "function"
    },
    {
      "inputs": [
        {
          "internalType": "uint256",
          "name": "taskId",
          "type": "uint256"
        }
      ],
      "name": "getAssignee",
      "outputs": [
        {
          "internalType": "address",
          "name": "",
          "type": "address"
        }
      ],
      "stateMutability": "view",
      "type": "function"
    },
    {
      "inputs": [
        {
          "internalType": "uint256",
          "name": "taskId",
          "type": "uint256"
        }
      ],
      "name": "getStatus",
      "outputs": [
        {
          "internalType": "enum TaskRegistry.TaskStatus",
          "name": "",
          "type": "uint8"
        }
      ],
      "stateMutability": "view",
      "type": "function"
    },
    {
      "inputs": [
        {
          "internalType": "uint256",
          "name": "taskId",
          "type": "uint256"
        }
      ],
      "name": "getTask",
      "outputs": [
        {
          "components": [
            {
              "internalType": "uint256",
              "name": "id",
              "type": "uint256"
            },
            {
              "internalType": "string",
              "name": "prompt",
              "type": "string"
            },
            {
              "internalType": "address",
              "name": "issuer",
              "type": "address"
            },
            {
              "internalType": "enum TaskRegistry.TaskStatus",
              "name": "status",
              "type": "uint8"
            },
            {
              "internalType": "address",
              "name": "assignee",
              "type": "address"
            },
            {
              "internalType": "uint256",
              "name": "proposalId",
              "type": "uint256"
            }
          ],
          "internalType": "struct TaskRegistry.TaskData",
          "name": "",
          "type": "tuple"
        }
      ],
      "stateMutability": "view",
      "type": "function"
    },
    {
      "inputs": [
        {
          "internalType": "address",
          "name": "issuer",
          "type": "address"
        }
      ],
      "name": "getTasksByIssuer",
      "outputs": [
        {
          "internalType": "uint256[]",
          "name": "",
          "type": "uint256[]"
        }
      ],
      "stateMutability": "view",
      "type": "function"
    },
    {
      "inputs": [
        {
          "internalType": "address",
          "name": "",
          "type": "address"
        },
        {
          "internalType": "uint256",
          "name": "",
          "type": "uint256"
        }
      ],
      "name": "issuerTasks",
      "outputs": [
        {
          "internalType": "uint256",
          "name": "",
          "type": "uint256"
        }
      ],
      "stateMutability": "view",
      "type": "function"
    },
    {
      "inputs": [],
      "name": "owner",
      "outputs": [
        {
          "internalType": "address",
          "name": "",
          "type": "address"
        }
      ],
      "stateMutability": "view",
      "type": "function"
    },
    {
      "inputs": [],
      "name": "renounceOwnership",
      "outputs": [],
      "stateMutability": "nonpayable",
      "type": "function"
    },
    {
      "inputs": [
        {
          "internalType": "uint256",
          "name": "",
          "type": "uint256"
        }
      ],
      "name": "tasks",
      "outputs": [
        {
          "internalType": "uint256",
          "name": "id",
          "type": "uint256"
        },
        {
          "internalType": "string",
          "name": "prompt",
          "type": "string"
        },
        {
          "internalType": "address",
          "name": "issuer",
          "type": "address"
        },
        {
          "internalType": "enum TaskRegistry.TaskStatus",
          "name": "status",
          "type": "uint8"
        },
        {
          "internalType": "address",
          "name": "assignee",
          "type": "address"
        },
        {
          "internalType": "uint256",
          "name": "proposalId",
          "type": "uint256"
        }
      ],
      "stateMutability": "view",
      "type": "function"
    },
    {
      "inputs": [
        {
          "internalType": "address",
          "name": "newOwner",
          "type": "address"
        }
      ],
      "name": "transferOwnership",
      "outputs": [],
      "stateMutability": "nonpayable",
      "type": "function"
    }
  ],
  "bytecode": "0x608060405234801561001057600080fd5b5060405161137a38038061137a83398101604081905261002f916100d4565b338061005557604051631e4fbdf760e01b81526000600482015260240160405180910390fd5b61005e81610084565b50600480546001600160a01b0319166001600160a01b0392909216919091179055610104565b600080546001600160a01b038381166001600160a01b0319831681178455604051919092169283917f8be0079c531659141344cd1fd0a4f28419497f9722a3daafe3b4186f6b6457e09190a35050565b6000602082840312156100e657600080fd5b81516001600160a01b03811681146100fd57600080fd5b9392505050565b611267806101136000396000f3fe6080604052600436106100a75760003560e01c8063639241ab11610064578063639241ab146101db578063715018a61461020857806374aaa7601461021f5780638d9776721461023f5780638da5cb5b14610271578063f2fde38b1461028f57600080fd5b806304fe2b34146100ac57806307b31818146100d55780630d1cfcae146101265780631d65e77e146101465780632a2b3a9d146101665780635c622a0e14610194575b600080fd5b6100bf6100ba366004610cf4565b6102af565b6040516100cc9190610dc1565b60405180910390f35b3480156100e157600080fd5b5061010e6100f0366004610e35565b6000908152600160205260409020600301546001600160a01b031690565b6040516001600160a01b0390911681526020016100cc565b34801561013257600080fd5b5060045461010e906001600160a01b031681565b34801561015257600080fd5b506100bf610161366004610e35565b61058f565b34801561017257600080fd5b50610186610181366004610e63565b6106b6565b6040519081526020016100cc565b3480156101a057600080fd5b506101ce6101af366004610e35565b600090815260016020526040902060020154600160a01b900460ff1690565b6040516100cc9190610e8f565b3480156101e757600080fd5b506101fb6101f6366004610e9d565b6106e7565b6040516100cc9190610ec1565b34801561021457600080fd5b5061021d610753565b005b34801561022b57600080fd5b5061021d61023a366004610f05565b610767565b34801561024b57600080fd5b5061025f61025a366004610e35565b61094e565b6040516100cc96959493929190610f4c565b34801561027d57600080fd5b506000546001600160a01b031661010e565b34801561029b57600080fd5b5061021d6102aa366004610e9d565b610a1c565b6102b7610bb6565b600480546040516318feeb1560e31b81529182018490526000916001600160a01b039091169063c7f758a890602401600060405180830381865afa158015610303573d6000803e3d6000fd5b505050506040513d6000823e601f3d908101601f1916820160405261032b9190810190610f9a565b9050348160400151146103755760405162461bcd60e51b815260206004820152600d60248201526c496e76616c696420707269636560981b60448201526064015b60405180910390fd5b600380549060006103858361106b565b9091555050600354600081815260016020819052604090912091825581016103ad868261111a565b5060028181018054336001600160a01b031991821681178355600485018890558551600380870180549094166001600160a01b0390921691909117909255600090815260209384526040812091548254600181810185559383529490912090930192909255805460ff60a01b1916600160a01b830217905550815160035460608401516040516001600160a01b039093169233927f5c005bbbb9da508c37935b1a9f270836e0be1fd11d4d47119f925a3ff33820e99261046e928b906111da565b60405180910390a3806040518060c00160405290816000820154815260200160018201805461049c90611092565b80601f01602080910402602001604051908101604052809291908181526020018280546104c890611092565b80156105155780601f106104ea57610100808354040283529160200191610515565b820191906000526020600020905b8154815290600101906020018083116104f857829003601f168201915b505050918352505060028201546001600160a01b0381166020830152604090910190600160a01b900460ff16600381111561055257610552610d89565b600381111561056357610563610d89565b815260038201546001600160a01b03166020820152600490910154604090910152925050505b92915050565b610597610bb6565b600082815260016020818152604092839020835160c08101909452805484529182018054918401916105c890611092565b80601f01602080910402602001604051908101604052809291908181526020018280546105f490611092565b80156106415780601f1061061657610100808354040283529160200191610641565b820191906000526020600020905b81548152906001019060200180831161062457829003601f168201915b505050918352505060028201546001600160a01b0381166020830152604090910190600160a01b900460ff16600381111561067e5761067e610d89565b600381111561068f5761068f610d89565b815260038201546001600160a01b0316602082015260049091015460409091015292915050565b600260205281600052604060002081815481106106d257600080fd5b90600052602060002001600091509150505481565b6001600160a01b03811660009081526002602090815260409182902080548351818402810184019094528084526060939283018282801561074757602002820191906000526020600020905b815481526020019060010190808311610733575b50505050509050919050565b61075b610a5a565b6107656000610a87565b565b600082815260016020526040902060038101546001600160a01b031633146107c25760405162461bcd60e51b815260206004820152600e60248201526d139bdd08185d5d1a1bdc9a5e995960921b604482015260640161036c565b60016002820154600160a01b900460ff1660038111156107e4576107e4610d89565b146108275760405162461bcd60e51b8152602060048201526013602482015272496e76616c6964207461736b2073746174757360681b604482015260640161036c565b600281018054600160a11b60ff60a01b1990911617905560048054818301546040516318feeb1560e31b8152928301526000916001600160a01b039091169063c7f758a890602401600060405180830381865afa15801561088c573d6000803e3d6000fd5b505050506040513d6000823e601f3d908101601f191682016040526108b49190810190610f9a565b90506108c881600001518260400151610ad7565b600282015460405185917fd76ef80cfb1ce0c70d0cbc0ab1b9f2f298a78f9fca5c841be963ae9a5d721bb49161090891600160a01b900460ff1690610e8f565b60405180910390a2837f7e6ffc29fe63759579d96a0457a8f2e08339aca345bd469f59dc2e61f82a5aeb846040516109409190611202565b60405180910390a250505050565b60016020819052600091825260409091208054918101805461096f90611092565b80601f016020809104026020016040519081016040528092919081815260200182805461099b90611092565b80156109e85780601f106109bd576101008083540402835291602001916109e8565b820191906000526020600020905b8154815290600101906020018083116109cb57829003601f168201915b505050506002830154600384015460049094015492936001600160a01b0380831694600160a01b90930460ff169350169086565b610a24610a5a565b6001600160a01b038116610a4e57604051631e4fbdf760e01b81526000600482015260240161036c565b610a5781610a87565b50565b6000546001600160a01b031633146107655760405163118cdaa760e01b815233600482015260240161036c565b600080546001600160a01b038381166001600160a01b0319831681178455604051919092169283917f8be0079c531659141344cd1fd0a4f28419497f9722a3daafe3b4186f6b6457e09190a35050565b604080516000808252602082019092526001600160a01b038416908390604051610b019190611215565b60006040518083038185875af1925050503d8060008114610b3e576040519150601f19603f3d011682016040523d82523d6000602084013e610b43565b606091505b5050905080610bb15760405162461bcd60e51b815260206004820152603460248201527f5472616e7366657248656c7065723a3a736166655472616e736665724554483a60448201527308115512081d1c985b9cd9995c8819985a5b195960621b606482015260840161036c565b505050565b6040518060c00160405280600081526020016060815260200160006001600160a01b0316815260200160006003811115610bf257610bf2610d89565b815260006020820181905260409091015290565b634e487b7160e01b600052604160045260246000fd5b6040516080810167ffffffffffffffff81118282101715610c3f57610c3f610c06565b60405290565b604051601f8201601f1916810167ffffffffffffffff81118282101715610c6e57610c6e610c06565b604052919050565b600067ffffffffffffffff821115610c9057610c90610c06565b50601f01601f191660200190565b600082601f830112610caf57600080fd5b8135610cc2610cbd82610c76565b610c45565b818152846020838601011115610cd757600080fd5b816020850160208301376000918101602001919091529392505050565b60008060408385031215610d0757600080fd5b823567ffffffffffffffff811115610d1e57600080fd5b610d2a85828601610c9e565b95602094909401359450505050565b60005b83811015610d54578181015183820152602001610d3c565b50506000910152565b60008151808452610d75816020860160208601610d39565b601f01601f19169290920160200192915050565b634e487b7160e01b600052602160045260246000fd5b60048110610dbd57634e487b7160e01b600052602160045260246000fd5b9052565b60208152815160208201526000602083015160c06040840152610de760e0840182610d5d565b60408501516001600160a01b03908116606086810191909152860151919250610e136080860183610d9f565b8060808701511660a0860152505060a084015160c08401528091505092915050565b600060208284031215610e4757600080fd5b5035919050565b6001600160a01b0381168114610a5757600080fd5b60008060408385031215610e7657600080fd5b8235610e8181610e4e565b946020939093013593505050565b602081016105898284610d9f565b600060208284031215610eaf57600080fd5b8135610eba81610e4e565b9392505050565b6020808252825182820181905260009190848201906040850190845b81811015610ef957835183529284019291840191600101610edd565b50909695505050505050565b60008060408385031215610f1857600080fd5b82359150602083013567ffffffffffffffff811115610f3657600080fd5b610f4285828601610c9e565b9150509250929050565b86815260c060208201526000610f6560c0830188610d5d565b6001600160a01b038781166040850152909150610f856060840187610d9f565b93909316608082015260a00152949350505050565b60006020808385031215610fad57600080fd5b825167ffffffffffffffff80821115610fc557600080fd5b9084019060808287031215610fd957600080fd5b610fe1610c1c565b8251610fec81610e4e565b81528284015182811115610fff57600080fd5b83019150601f8201871361101257600080fd5b8151611020610cbd82610c76565b818152888683860101111561103457600080fd5b61104382878301888701610d39565b8086840152505060408301516040820152606083015160608201528094505050505092915050565b60006001820161108b57634e487b7160e01b600052601160045260246000fd5b5060010190565b600181811c908216806110a657607f821691505b6020821081036110c657634e487b7160e01b600052602260045260246000fd5b50919050565b601f821115610bb157600081815260208120601f850160051c810160208610156110f35750805b601f850160051c820191505b81811015611112578281556001016110ff565b505050505050565b815167ffffffffffffffff81111561113457611134610c06565b611148816111428454611092565b846110cc565b602080601f83116001811461117d57600084156111655750858301515b600019600386901b1c1916600185901b178555611112565b600085815260208120601f198616915b828110156111ac5788860151825594840194600190910190840161118d565b50858210156111ca5787850151600019600388901b60f8161c191681555b5050505050600190811b01905550565b8381528260208201526060604082015260006111f96060830184610d5d565b95945050505050565b602081526000610eba6020830184610d5d565b60008251611227818460208701610d39565b919091019291505056fea2646970667358221220ac1cc140148d6bff6ef95064d14090024e47f1c3e79ed99273104ef9b474412d64736f6c63430008140033",
  "linkReferences": {},
  "deployedLinkReferences": {}
}